{
  "_format": "hh-sol-artifact-1",
  "contractName": "CreditFactory",
  "sourceName": "contracts/CreditFactory.sol",
  "abi": [
    {
      "inputs": [
        {
          "internalType": "address",
          "name": "tokenAddress",
          "type": "address"
        },
        {
          "internalType": "address",
          "name": "scoreAddress",
          "type": "address"
        },
        {
          "internalType": "address",
          "name": "admin",
          "type": "address"
        },
        {
          "internalType": "uint32",
          "name": "minimumBorrowerScore",
          "type": "uint32"
        }
      ],
      "stateMutability": "nonpayable",
      "type": "constructor"
    },
    {
      "inputs": [
        {
          "internalType": "uint256",
          "name": "borrowerScore",
          "type": "uint256"
        },
        {
          "internalType": "uint32",
          "name": "required",
          "type": "uint32"
        }
      ],
      "name": "BorrowerScoreTooLow",
      "type": "error"
    },
    {
      "inputs": [
        {
          "internalType": "uint256",
          "name": "creditId",
          "type": "uint256"
        }
      ],
      "name": "CreditNotFound",
      "type": "error"
    },
    {
      "inputs": [],
      "name": "InvalidCollateral",
      "type": "error"
    },
    {
      "inputs": [],
      "name": "InvalidCreditTerms",
      "type": "error"
    },
    {
      "inputs": [
        {
          "internalType": "uint256",
          "name": "creditId",
          "type": "uint256"
        }
      ],
      "name": "InvalidState",
      "type": "error"
    },
    {
      "anonymous": false,
      "inputs": [
        {
          "indexed": true,
          "internalType": "uint256",
          "name": "creditId",
          "type": "uint256"
        },
        {
          "indexed": true,
          "internalType": "address",
          "name": "to",
          "type": "address"
        },
        {
          "indexed": false,
          "internalType": "uint256",
          "name": "amount",
          "type": "uint256"
        }
      ],
      "name": "CollateralReleased",
      "type": "event"
    },
    {
      "anonymous": false,
      "inputs": [
        {
          "indexed": true,
          "internalType": "uint256",
          "name": "creditId",
          "type": "uint256"
        },
        {
          "indexed": true,
          "internalType": "address",
          "name": "to",
          "type": "address"
        },
        {
          "indexed": false,
          "internalType": "uint256",
          "name": "amount",
          "type": "uint256"
        }
      ],
      "name": "CollateralSeized",
      "type": "event"
    },
    {
      "anonymous": false,
      "inputs": [
        {
          "indexed": true,
          "internalType": "uint256",
          "name": "creditId",
          "type": "uint256"
        },
        {
          "indexed": true,
          "internalType": "address",
          "name": "borrower",
          "type": "address"
        },
        {
          "indexed": false,
          "internalType": "uint256",
          "name": "principal",
          "type": "uint256"
        },
        {
          "indexed": false,
          "internalType": "uint256",
          "name": "repaymentAmount",
          "type": "uint256"
        },
        {
          "indexed": false,
          "internalType": "uint64",
          "name": "dueDate",
          "type": "uint64"
        },
        {
          "indexed": false,
          "internalType": "uint32",
          "name": "minimumScore",
          "type": "uint32"
        },
        {
          "indexed": false,
          "internalType": "bool",
          "name": "collateralRequired",
          "type": "bool"
        },
        {
          "indexed": false,
          "internalType": "bool",
          "name": "isPrivate",
          "type": "bool"
        },
        {
          "indexed": false,
          "internalType": "bytes32",
          "name": "metadataHash",
          "type": "bytes32"
        }
      ],
      "name": "CreditCreated",
      "type": "event"
    },
    {
      "anonymous": false,
      "inputs": [
        {
          "indexed": true,
          "internalType": "uint256",
          "name": "creditId",
          "type": "uint256"
        },
        {
          "indexed": false,
          "internalType": "uint64",
          "name": "defaultedAt",
          "type": "uint64"
        }
      ],
      "name": "CreditDefaulted",
      "type": "event"
    },
    {
      "anonymous": false,
      "inputs": [
        {
          "indexed": true,
          "internalType": "uint256",
          "name": "creditId",
          "type": "uint256"
        },
        {
          "indexed": false,
          "internalType": "uint64",
          "name": "fundedAt",
          "type": "uint64"
        }
      ],
      "name": "CreditFunded",
      "type": "event"
    },
    {
      "anonymous": false,
      "inputs": [
        {
          "indexed": true,
          "internalType": "uint256",
          "name": "creditId",
          "type": "uint256"
        },
        {
          "indexed": false,
          "internalType": "uint64",
          "name": "settledAt",
          "type": "uint64"
        }
      ],
      "name": "CreditSettled",
      "type": "event"
    },
    {
      "anonymous": false,
      "inputs": [
        {
          "indexed": true,
          "internalType": "bytes32",
          "name": "role",
          "type": "bytes32"
        },
        {
          "indexed": true,
          "internalType": "bytes32",
          "name": "previousAdminRole",
          "type": "bytes32"
        },
        {
          "indexed": true,
          "internalType": "bytes32",
          "name": "newAdminRole",
          "type": "bytes32"
        }
      ],
      "name": "RoleAdminChanged",
      "type": "event"
    },
    {
      "anonymous": false,
      "inputs": [
        {
          "indexed": true,
          "internalType": "bytes32",
          "name": "role",
          "type": "bytes32"
        },
        {
          "indexed": true,
          "internalType": "address",
          "name": "account",
          "type": "address"
        },
        {
          "indexed": true,
          "internalType": "address",
          "name": "sender",
          "type": "address"
        }
      ],
      "name": "RoleGranted",
      "type": "event"
    },
    {
      "anonymous": false,
      "inputs": [
        {
          "indexed": true,
          "internalType": "bytes32",
          "name": "role",
          "type": "bytes32"
        },
        {
          "indexed": true,
          "internalType": "address",
          "name": "account",
          "type": "address"
        },
        {
          "indexed": true,
          "internalType": "address",
          "name": "sender",
          "type": "address"
        }
      ],
      "name": "RoleRevoked",
      "type": "event"
    },
    {
      "inputs": [],
      "name": "DEFAULT_ADMIN_ROLE",
      "outputs": [
        {
          "internalType": "bytes32",
          "name": "",
          "type": "bytes32"
        }
      ],
      "stateMutability": "view",
      "type": "function"
    },
    {
      "inputs": [],
      "name": "MARKETPLACE_ROLE",
      "outputs": [
        {
          "internalType": "bytes32",
          "name": "",
          "type": "bytes32"
        }
      ],
      "stateMutability": "view",
      "type": "function"
    },
    {
      "inputs": [],
      "name": "REPAYMENT_MANAGER_ROLE",
      "outputs": [
        {
          "internalType": "bytes32",
          "name": "",
          "type": "bytes32"
        }
      ],
      "stateMutability": "view",
      "type": "function"
    },
    {
      "inputs": [
        {
          "components": [
            {
              "internalType": "uint256",
              "name": "principal",
              "type": "uint256"
            },
            {
              "internalType": "uint256",
              "name": "repaymentAmount",
              "type": "uint256"
            },
            {
              "internalType": "uint64",
              "name": "dueDate",
              "type": "uint64"
            },
            {
              "internalType": "enum CreditFactory.PaymentSchedule",
              "name": "schedule",
              "type": "uint8"
            },
            {
              "internalType": "uint16",
              "name": "installmentCount",
              "type": "uint16"
            },
            {
              "internalType": "bytes32",
              "name": "borrowerIdentityHash",
              "type": "bytes32"
            },
            {
              "internalType": "string",
              "name": "metadataURI",
              "type": "string"
            },
            {
              "internalType": "bytes32",
              "name": "metadataHash",
              "type": "bytes32"
            },
            {
              "internalType": "bool",
              "name": "isPrivate",
              "type": "bool"
            },
            {
              "internalType": "uint32",
              "name": "minimumScore",
              "type": "uint32"
            },
            {
              "internalType": "bool",
              "name": "collateralRequired",
              "type": "bool"
            },
            {
              "internalType": "address",
              "name": "collateralToken",
              "type": "address"
            },
            {
              "internalType": "uint256",
              "name": "collateralAmount",
              "type": "uint256"
            },
            {
              "internalType": "uint256",
              "name": "collateralValuationUSDC",
              "type": "uint256"
            },
            {
              "internalType": "uint16",
              "name": "maxLtvBps",
              "type": "uint16"
            },
            {
              "internalType": "string",
              "name": "tokenURI",
              "type": "string"
            }
          ],
          "internalType": "struct CreditFactory.CreateCreditInput",
          "name": "input",
          "type": "tuple"
        }
      ],
      "name": "createCredit",
      "outputs": [
        {
          "internalType": "uint256",
          "name": "creditId",
          "type": "uint256"
        }
      ],
      "stateMutability": "nonpayable",
      "type": "function"
    },
    {
      "inputs": [],
      "name": "creditScore",
      "outputs": [
        {
          "internalType": "contract ICreditScore",
          "name": "",
          "type": "address"
        }
      ],
      "stateMutability": "view",
      "type": "function"
    },
    {
      "inputs": [],
      "name": "creditToken",
      "outputs": [
        {
          "internalType": "contract ICreditToken",
          "name": "",
          "type": "address"
        }
      ],
      "stateMutability": "view",
      "type": "function"
    },
    {
      "inputs": [],
      "name": "getAllCreditIds",
      "outputs": [
        {
          "internalType": "uint256[]",
          "name": "",
          "type": "uint256[]"
        }
      ],
      "stateMutability": "view",
      "type": "function"
    },
    {
      "inputs": [
        {
          "internalType": "uint256",
          "name": "creditId",
          "type": "uint256"
        }
      ],
      "name": "getCredit",
      "outputs": [
        {
          "components": [
            {
              "internalType": "address",
              "name": "borrower",
              "type": "address"
            },
            {
              "internalType": "uint256",
              "name": "principal",
              "type": "uint256"
            },
            {
              "internalType": "uint256",
              "name": "repaymentAmount",
              "type": "uint256"
            },
            {
              "internalType": "uint256",
              "name": "interestBps",
              "type": "uint256"
            },
            {
              "internalType": "uint64",
              "name": "dueDate",
              "type": "uint64"
            },
            {
              "internalType": "enum CreditFactory.PaymentSchedule",
              "name": "schedule",
              "type": "uint8"
            },
            {
              "internalType": "uint16",
              "name": "installmentCount",
              "type": "uint16"
            },
            {
              "internalType": "bytes32",
              "name": "borrowerIdentityHash",
              "type": "bytes32"
            },
            {
              "internalType": "string",
              "name": "metadataURI",
              "type": "string"
            },
            {
              "internalType": "bytes32",
              "name": "metadataHash",
              "type": "bytes32"
            },
            {
              "internalType": "bool",
              "name": "isPrivate",
              "type": "bool"
            },
            {
              "internalType": "uint32",
              "name": "minimumScore",
              "type": "uint32"
            },
            {
              "internalType": "bool",
              "name": "funded",
              "type": "bool"
            },
            {
              "internalType": "bool",
              "name": "defaulted",
              "type": "bool"
            },
            {
              "internalType": "bool",
              "name": "settled",
              "type": "bool"
            },
            {
              "internalType": "bool",
              "name": "collateralRequired",
              "type": "bool"
            },
            {
              "internalType": "address",
              "name": "collateralToken",
              "type": "address"
            },
            {
              "internalType": "uint256",
              "name": "collateralAmount",
              "type": "uint256"
            },
            {
              "internalType": "uint256",
              "name": "collateralValuationUSDC",
              "type": "uint256"
            },
            {
              "internalType": "uint16",
              "name": "maxLtvBps",
              "type": "uint16"
            },
            {
              "internalType": "uint64",
              "name": "fundedAt",
              "type": "uint64"
            }
          ],
          "internalType": "struct CreditFactory.CreditPosition",
          "name": "",
          "type": "tuple"
        }
      ],
      "stateMutability": "view",
      "type": "function"
    },
    {
      "inputs": [
        {
          "internalType": "uint256",
          "name": "creditId",
          "type": "uint256"
        }
      ],
      "name": "getCreditSummary",
      "outputs": [
        {
          "internalType": "address",
          "name": "borrower",
          "type": "address"
        },
        {
          "internalType": "uint256",
          "name": "principal",
          "type": "uint256"
        },
        {
          "internalType": "uint256",
          "name": "repaymentAmount",
          "type": "uint256"
        },
        {
          "internalType": "uint64",
          "name": "dueDate",
          "type": "uint64"
        },
        {
          "internalType": "uint32",
          "name": "minimumScore",
          "type": "uint32"
        },
        {
          "internalType": "bool",
          "name": "funded",
          "type": "bool"
        },
        {
          "internalType": "bool",
          "name": "defaulted",
          "type": "bool"
        },
        {
          "internalType": "bool",
          "name": "settled",
          "type": "bool"
        },
        {
          "internalType": "bool",
          "name": "collateralRequired",
          "type": "bool"
        },
        {
          "internalType": "address",
          "name": "collateralToken",
          "type": "address"
        },
        {
          "internalType": "uint256",
          "name": "collateralAmount",
          "type": "uint256"
        }
      ],
      "stateMutability": "view",
      "type": "function"
    },
    {
      "inputs": [
        {
          "internalType": "bytes32",
          "name": "role",
          "type": "bytes32"
        }
      ],
      "name": "getRoleAdmin",
      "outputs": [
        {
          "internalType": "bytes32",
          "name": "",
          "type": "bytes32"
        }
      ],
      "stateMutability": "view",
      "type": "function"
    },
    {
      "inputs": [
        {
          "internalType": "bytes32",
          "name": "role",
          "type": "bytes32"
        },
        {
          "internalType": "address",
          "name": "account",
          "type": "address"
        }
      ],
      "name": "grantRole",
      "outputs": [],
      "stateMutability": "nonpayable",
      "type": "function"
    },
    {
      "inputs": [
        {
          "internalType": "bytes32",
          "name": "role",
          "type": "bytes32"
        },
        {
          "internalType": "address",
          "name": "account",
          "type": "address"
        }
      ],
      "name": "hasRole",
      "outputs": [
        {
          "internalType": "bool",
          "name": "",
          "type": "bool"
        }
      ],
      "stateMutability": "view",
      "type": "function"
    },
    {
      "inputs": [
        {
          "internalType": "uint256",
          "name": "creditId",
          "type": "uint256"
        }
      ],
      "name": "markDefault",
      "outputs": [],
      "stateMutability": "nonpayable",
      "type": "function"
    },
    {
      "inputs": [
        {
          "internalType": "uint256",
          "name": "creditId",
          "type": "uint256"
        }
      ],
      "name": "markSettled",
      "outputs": [],
      "stateMutability": "nonpayable",
      "type": "function"
    },
    {
      "inputs": [],
      "name": "nextCreditId",
      "outputs": [
        {
          "internalType": "uint256",
          "name": "",
          "type": "uint256"
        }
      ],
      "stateMutability": "view",
      "type": "function"
    },
    {
      "inputs": [],
      "name": "platformMinScore",
      "outputs": [
        {
          "internalType": "uint32",
          "name": "",
          "type": "uint32"
        }
      ],
      "stateMutability": "view",
      "type": "function"
    },
    {
      "inputs": [
        {
          "internalType": "uint256",
          "name": "creditId",
          "type": "uint256"
        },
        {
          "internalType": "address",
          "name": "to",
          "type": "address"
        }
      ],
      "name": "releaseCollateral",
      "outputs": [],
      "stateMutability": "nonpayable",
      "type": "function"
    },
    {
      "inputs": [
        {
          "internalType": "bytes32",
          "name": "role",
          "type": "bytes32"
        },
        {
          "internalType": "address",
          "name": "account",
          "type": "address"
        }
      ],
      "name": "renounceRole",
      "outputs": [],
      "stateMutability": "nonpayable",
      "type": "function"
    },
    {
      "inputs": [
        {
          "internalType": "bytes32",
          "name": "role",
          "type": "bytes32"
        },
        {
          "internalType": "address",
          "name": "account",
          "type": "address"
        }
      ],
      "name": "revokeRole",
      "outputs": [],
      "stateMutability": "nonpayable",
      "type": "function"
    },
    {
      "inputs": [
        {
          "internalType": "uint256",
          "name": "creditId",
          "type": "uint256"
        },
        {
          "internalType": "address",
          "name": "to",
          "type": "address"
        }
      ],
      "name": "seizeCollateral",
      "outputs": [],
      "stateMutability": "nonpayable",
      "type": "function"
    },
    {
      "inputs": [
        {
          "internalType": "uint256",
          "name": "creditId",
          "type": "uint256"
        },
        {
          "internalType": "uint64",
          "name": "fundedAt",
          "type": "uint64"
        }
      ],
      "name": "setFunded",
      "outputs": [],
      "stateMutability": "nonpayable",
      "type": "function"
    },
    {
      "inputs": [
        {
          "internalType": "uint32",
          "name": "minScore",
          "type": "uint32"
        }
      ],
      "name": "setPlatformMinScore",
      "outputs": [],
      "stateMutability": "nonpayable",
      "type": "function"
    },
    {
      "inputs": [
        {
          "internalType": "bytes4",
          "name": "interfaceId",
          "type": "bytes4"
        }
      ],
      "name": "supportsInterface",
      "outputs": [
        {
          "internalType": "bool",
          "name": "",
          "type": "bool"
        }
      ],
      "stateMutability": "view",
      "type": "function"
    }
  ],
  "bytecode": "0x60c0346200015357601f620028cf38819003918201601f191683019291906001600160401b0384118385101762000158578160809284926040968752833981010312620001535762000051816200016e565b9062000060602082016200016e565b916060620000708584016200016e565b9201519063ffffffff8216809203620001535760018055600160025560018060a01b0393848092166080521660a05263ffffffff1960035416176003556000918280528260205283832091169081835260205260ff83832054161562000107575b825161274b9081620001848239608051818181610ab60152818161106001526110da015260a051818181610b860152611a350152f35b81805281602052828220818352602052828220600160ff1982541617905533917f2f8788117e7eff1d82e926ec794901d17c78024a50270940304540a733656f0d8180a43880620000d1565b600080fd5b634e487b7160e01b600052604160045260246000fd5b51906001600160a01b0382168203620001535756fe608080604052600436101561001357600080fd5b60003560e01c90816301ffc9a714611e7c57508063058384fa14611bd8578063248a9ca314611ba95780632f2ff15d14611af657806336568abe14611a6457806339da315214611a1f5780633e824d5c146119e4578063420f7810146116d5578063532c6b371461162b5780636c681f1c146116075780637e5634b91461154b578063873f170f14610ae5578063899e5d8514610aa057806391d1485414610a53578063a217fddf14610a37578063a5c3f46414610981578063ac9cf4db146108a1578063c3439f3f14610866578063d547741f14610825578063da304e4d1461041e578063def45c1a1461022f578063e1d927c81461013f5763fc00b7981461011c57600080fd5b3461013a57600036600319011261013a576020600254604051908152f35b600080fd5b3461013a57602036600319011261013a5760043561015b61206d565b600081815260046020526040902080546001600160a01b03161561021657600801805460ff8160281c16158015610209575b80156101fc575b6101e35766010000000000009066ff00000000000019161790557fe24a3757089988039450d0a2135fbce25329ae10b2b5ac9875c77f9fb7fd948b60206040516001600160401b0342168152a2005b60405163102aa0d560e31b815260048101849052602490fd5b5060ff8160381c16610194565b5060ff8160301c1661018d565b6040516322aaa27f60e21b815260048101839052602490fd5b3461013a5760208060031936011261013a576004359063ffffffff821680920361013a576000805260008152604060002033600052815260ff6040600020541615610288575063ffffffff196003541617600355600080f35b6102913361255f565b9060006040516102a081611f8f565b60428152828101916060368437815115610408576030835381516001906001101561040857607860218401536041905b8082116103ae57505061037d57610349936103589260489260405196879376020b1b1b2b9b9a1b7b73a3937b61d1030b1b1b7bab73a1604d1b88860152610320815180928a603789019101611ee5565b8401917001034b99036b4b9b9b4b733903937b6329607d1b603784015251809386840190611ee5565b01036028810185520183611faa565b61037960405192839262461bcd60e51b845260048401526024830190611f08565b0390fd5b6064836040519062461bcd60e51b825280600483015260248201526000805160206126f68339815191526044820152fd5b9091600f81166010811015610408576f181899199a1a9b1b9c1cb0b131b232b360811b901a6103dd848661254e565b5360041c9180156103f25760001901906102d0565b634e487b7160e01b600052601160045260246000fd5b634e487b7160e01b600052603260045260246000fd5b3461013a57602036600319011261013a57600061028060405161044081611f73565b8281528260208201528260408201528260608201528260808201528260a08201528260c08201528260e0820152606061010082015282610120820152826101408201528261016082015282610180820152826101a0820152826101c0820152826101e082015282610200820152826102208201528261024082015282610260820152015260043560005260046020526040600020604051906104e182611f73565b60018060a01b03815416825260018101546020830152600281015460408301526003810154606083015261ffff60048201546001600160401b038116608085015261053560ff8260401c1660a08601611f2d565b60481c1660c0830152600581015460e08301526040516000600683015461055b81611f39565b808452906001811690811561080357506001146107c2575b50918161058c600b936001600160401b03950382611faa565b6101008501526007810154610120850152600881015460ff8116151561014086015263ffffffff8160081c1661016086015260ff8160281c16151561018086015260ff8160301c1615156101a086015260ff8160381c1615156101c086015260ff8160401c1615156101e086015260018060a01b039060481c166102008501526009810154610220850152600a810154610240850152015461ffff811661026084015260101c1661028082015260018060a01b03815116156107a957604051906020825260018060a01b0381511660208301526020810151604083015260408101516060830152606081015160808301526001600160401b0360808201511660a083015260a081015190600282101561079357829160c083015261ffff60c08201511660e083015260e08101516101008301526001600160401b036102806106e76101008401516102a06101208701526102c0860190611f08565b92610120810151610140860152610140810151151561016086015263ffffffff6101608201511661018086015261018081015115156101a08601526101a081015115156101c08601526101c081015115156101e08601526101e0810151151561020086015260018060a01b036102008201511661022086015261022081015161024086015261024081015161026086015261ffff61026082015116828601520151166102a08301520390f35b634e487b7160e01b600052602160045260246000fd5b60246040516322aaa27f60e21b81526004356004820152fd5b9050600683016000526020600020906000915b8183106107e9575050810160200181610573565b6001816020929493945483858801015201910191906107d5565b60ff191660208086019190915291151560051b84019091019150829050610573565b3461013a57604036600319011261013a57610864600435610844611ecf565b9080600052600060205261085f60016040600020015461224a565b612355565b005b3461013a57600036600319011261013a5760206040517f0ea61da3a8a09ad801432653699f8c1860b1ae9d2ea4a141fadfd63227717bc88152f35b3461013a57604036600319011261013a576004356108bd611ecf565b906108c661206d565b600081815260046020526040902080546001600160a01b03908116156109685760088201549060ff8260401c1615801561095c575b61094a578461093f6020936000978460097f348da1c7ca8804ff7b3cbff37a613a1549362d62ee8c309af7a61ca40adb4dae98019283549a8b945560481c166123c9565b6040519586521693a3005b6040516368f7a67560e11b8152600490fd5b506009830154156108fb565b6040516322aaa27f60e21b815260048101849052602490fd5b3461013a57600036600319011261013a57604051806005548083526020809301809160056000527f036b6384b5eca791c62761152d0c79bb0604c104a5fb6f4eb0703f3154bb3db09060005b86828210610a235786866109e382880383611faa565b604051928392818401908285525180915260408401929160005b828110610a0c57505050500390f35b8351855286955093810193928101926001016109fd565b8354855290930192600192830192016109cd565b3461013a57600036600319011261013a57602060405160008152f35b3461013a57604036600319011261013a57610a6c611ecf565b600435600052600060205260406000209060018060a01b0316600052602052602060ff604060002054166040519015158152f35b3461013a57600036600319011261013a576040517f00000000000000000000000000000000000000000000000000000000000000006001600160a01b03168152602090f35b3461013a5760031960203682011261013a576001600160401b036004351161013a57610200906004353603011261013a5760026001541461150657600260015560043560040135158080156114f1575b80156114d0575b80156114c2575b61149557600260646004350135101561013a5760016064600435013514806114a7575b61149557604051630d47875d60e41b8152336004820152906020826024817f00000000000000000000000000000000000000000000000000000000000000006001600160a01b03165afa9182156111ea57600092611461575b5063ffffffff80600354166101246004350182610bdb82611fee565b168211156114515750925b81841681106114325750610bff61014460043501611fff565b6112e0575b6002805460018101909155916004803560248101359101358103116103f2576127109060246004803591820135910135818114910380840204831417156103f2576112ca57610c57604460043501611fcb565b610c65608460043501611fdf565b90610c7a60c460043501600435600401612020565b610c8c61010460049593953501611fff565b610c9b61014460043501611fff565b9161ffff610cae6101646004350161200c565b946001600160401b03610cc66101c460043501611fdf565b976040519a610cd48c611f73565b338c52600480359081013560208e01819052602482013560408f018190528190039092029190910460608d0152911660808b0152610d19906064013560a08b01611f2d565b1660c088015260a4600435013560e0880152610d3481612052565b90610d426040519283611faa565b808252368188011161013a5760208160009261ffff99838601378301015261010087015260e460043501356101208701521515610140860152858816610160860152600061018086015260006101a086015260006101c086015215156101e085015260018060a01b031661020084015261018460043501356102208401526101a46004350135610240840152166102608201526000610280820152826000526004602052604060002060018060a01b038251166bffffffffffffffffffffffff60a01b8254161781556020820151600182015560408201516002820155606082015160038201556001600160401b0360808301511660048201549060a08401519060028210156107935760ff60401b906affff00000000000000000060c087015160481b16936affffffffffffffffffffff1916179160401b161717600482015560e082015160058201556101008201518051906001600160401b0382116111d457610eb16006840154611f39565b601f8111611283575b50602090601f831160011461120157610ffa9493836001600160401b039461028094600b946000926111f6575b50508160011b916000199060031b1c19161760068201555b6101208501516007820155600881016101408601511515815464ffffffff0061016089015160081b1665ff00000000006101808a0151151560281b1666ff0000000000006101a08b0151151560301b169060ff60381b6101c08c0151151560381b169260ff60401b6101e08d0151151560401b169460ff8d6102006901000000000000000000600160e81b0391015160481b1697169062ffffff60e81b161717171717171790556102208501516009820155610240850151600a820155019261ffff6102608201511661ffff1985541617845501511669ffffffffffffffff000082549160101b169069ffffffffffffffff00001916179055565b600554680100000000000000008110156111d457600181018060055581101561040857829060056000527f036b6384b5eca791c62761152d0c79bb0604c104a5fb6f4eb0703f3154bb3db0015561105c6101e460043501600435600401612020565b93907f00000000000000000000000000000000000000000000000000000000000000006001600160a01b03163b1561013a578460846000926040519788938492630915a1e760e21b845233600485015289602485015260606044850152816064850152848401378181018301859052601f01601f19168101030181837f00000000000000000000000000000000000000000000000000000000000000006001600160a01b03165af180156111ea576111bb575b60209350611121604460043501611fcb565b9161113161014460043501611fff565b9061114161010460043501611fff565b926001600160401b0360405195600435600401358752602460043501358988015216604086015216606084015215156080830152151560a082015260e4600435013560c0820152817f650a9952d1cbb65ce7f0eab9eed54091f0720c176a81b4565c9d143e5bfcea2c60e03393a360018055604051908152f35b6001600160401b0384116111d45760209360405261110f565b634e487b7160e01b600052604160045260246000fd5b6040513d6000823e3d90fd5b015190508b80610ee7565b906006840160005260206000209160005b601f198516811061126b57509360018461028094600b94610ffa99986001600160401b0398601f19811610611252575b505050811b016006820155610eff565b015160001960f88460031b161c191690558b8080611242565b91926020600181928685015181550194019201611212565b600684016000526020600020601f840160051c8101602085106112c3575b601f830160051c820181106112b7575050610eba565b600081556001016112a1565b50806112a1565b634e487b7160e01b600052601260045260246000fd5b6001600160a01b036112f76004356101640161200c565b16158015611423575b8015611414575b80156113fa575b80156113dd575b8015611392575b61094a576001600160a01b036113376004356101640161200c565b166040516323b872dd60e01b602082015233602482015230604482015261018460043501356064820152606481528060a08101106001600160401b0360a0830111176111d45761138d9160a0820160405261241a565b610c04565b50600480350135612710818102918204148317156103f2576101a460043501359061ffff6113c56101c460043501611fdf565b16918281029281840414901517156103f2571161131c565b5061271061ffff6113f36101c460043501611fdf565b1611611315565b5061ffff61140d6101c460043501611fdf565b161561130e565b506101a4600435013515611307565b50610184600435013515611300565b6044918460405192630ec4a11560e11b84526004840152166024820152fd5b61145b9150611fee565b92610be6565b9091506020813d60201161148d575b8161147d60209383611faa565b8101031261013a57519082610bbf565b3d9150611470565b604051630368ccf160e21b8152600490fd5b50600261ffff6114bb608460043501611fdf565b1610610b66565b5060a4600435013515610b43565b506114df604460043501611fcb565b6001600160401b034291161115610b3c565b50600435600401356024600435013510610b35565b60405162461bcd60e51b815260206004820152601f60248201527f5265656e7472616e637947756172643a207265656e7472616e742063616c6c006044820152606490fd5b3461013a57602036600319011261013a5760043561156761206d565b600081815260046020526040902080546001600160a01b03161561021657600801805460ff8160281c161580156115fa575b80156115ed575b6101e3576701000000000000009060ff60381b19161790557f971010436e85502b3f0d00d8ed669a291b5a981b6b58b90c3989dde9b73e599660206040516001600160401b0342168152a2005b5060ff8160381c166115a0565b5060ff8160301c16611599565b3461013a57600036600319011261013a57602063ffffffff60035416604051908152f35b3461013a57604036600319011261013a57600435611647611ecf565b9061165061206d565b600081815260046020526040902080546001600160a01b03908116156109685760088201549060ff8260401c161580156116c9575b61094a578461093f6020936000978460097f757b323b5139c5e30fe0a1c4b13e38dece5aad9273138c1e3d1ed9191c6e73b298019283549a8b945560481c166123c9565b50600983015415611685565b3461013a57604036600319011261013a576004356024908135916001600160401b03831680840361013a573360009081527fda104853dc3972fb943ce0ee89200279d8af13db255ed28fb43e685524f21b1960209081526040909120549092907f0ea61da3a8a09ad801432653699f8c1860b1ae9d2ea4a141fadfd63227717bc89060ff161561185657506000848152600484526040902080549091906001600160a01b03161561184057600882019081549060ff8260281c168015611833575b8015611826575b6118105750611807927f02666ddae022d0ae4f1ef2f662047aaffa84b5d69168ac83c319d76b19e6713e96979265010000000000600b9365ff00000000001916179055019069ffffffffffffffff000082549160101b169069ffffffffffffffff00001916179055565b604051908152a2005b60405163102aa0d560e31b815260048101889052fd5b5060ff8260381c1661179d565b5060ff8260301c16611796565b6040516322aaa27f60e21b815260048101869052fd5b83906118613361255f565b9060405161186e81611f8f565b604281528381019160603684378151156119cf57603083538151600190600110156119ba57607860218401536041905b80821161194c57505061191c576048610379936118f1936119009360405195869376020b1b1b2b9b9a1b7b73a3937b61d1030b1b1b7bab73a1604d1b8a860152610320815180928c603789019101611ee5565b01036028810184520182611faa565b60405193849362461bcd60e51b85526004850152830190611f08565b606485856040519162461bcd60e51b83528160048401528201526000805160206126f68339815191526044820152fd5b9091600f811660108110156119a5576f181899199a1a9b1b9c1cb0b131b232b360811b901a61197b848661254e565b5360041c91801561199057600019019061189e565b87634e487b7160e01b60005260116004526000fd5b88634e487b7160e01b60005260326004526000fd5b86634e487b7160e01b60005260326004526000fd5b85634e487b7160e01b60005260326004526000fd5b3461013a57600036600319011261013a5760206040517f93714ee7e3775f280f9ab925a5b649b6e87f18ae11f75082555fc719f33f97668152f35b3461013a57600036600319011261013a576040517f00000000000000000000000000000000000000000000000000000000000000006001600160a01b03168152602090f35b3461013a57604036600319011261013a57611a7d611ecf565b336001600160a01b03821603611a995761086490600435612355565b60405162461bcd60e51b815260206004820152602f60248201527f416363657373436f6e74726f6c3a2063616e206f6e6c792072656e6f756e636560448201526e103937b632b9903337b91039b2b63360891b6064820152608490fd5b3461013a57604036600319011261013a57600435611b12611ecf565b816000526000602052611b2c60016040600020015461224a565b81600052600060205260406000209060018060a01b0316908160005260205260ff6040600020541615611b5b57005b8160005260006020526040600020816000526020526040600020600160ff1982541617905533917f2f8788117e7eff1d82e926ec794901d17c78024a50270940304540a733656f0d600080a4005b3461013a57602036600319011261013a5760043560005260006020526020600160406000200154604051908152f35b3461013a57602036600319011261013a576004356000526004602052604060002060405190611c0682611f73565b60018060a01b03815416825260018101546020830152600281015460408301526003810154606083015261ffff60048201546001600160401b0381166080850152611c5a60ff8260401c1660a08601611f2d565b60481c1660c0830152600581015460e0830152604051600682018054600091611c8282611f39565b8085529160018116908115611e555750600114611e17575b50509181611cb4600b936001600160401b03950382611faa565b6101008501526007810154610120850152600881015460ff8116151561014086015263ffffffff8160081c1661016086015260ff8160281c16151561018086015260ff8160301c1615156101a086015260ff8160381c1615156101c086015260ff8160401c1615156101e086015260018060a01b039060481c166102008501526009810154610220850152600a810154610240850152015461ffff811661026084015260101c1661028082015260018060a01b03815116156107a9576101609060018060a01b038151169060208101519060408101516001600160401b0360808301511663ffffffff868401511661018084015115156101a08501511515916101c08601511515936101e087015115159561022060018060a01b036102008a015116980151986040519a8b5260208b015260408a01526060890152608088015260a087015260c086015260e0850152610100840152610120830152610140820152f35b6000908152602081209092505b818310611e3b575050810160200181611cb4611c9a565b600181602092949394548385880101520191019190611e24565b60ff191660208087019190915292151560051b85019092019250839150611cb49050611c9a565b3461013a57602036600319011261013a576004359063ffffffff60e01b821680920361013a57602091637965db0b60e01b8114908115611ebe575b5015158152f35b6301ffc9a760e01b14905083611eb7565b602435906001600160a01b038216820361013a57565b60005b838110611ef85750506000910152565b8181015183820152602001611ee8565b90602091611f2181518092818552858086019101611ee5565b601f01601f1916010190565b60028210156107935752565b90600182811c92168015611f69575b6020831014611f5357565b634e487b7160e01b600052602260045260246000fd5b91607f1691611f48565b6102a081019081106001600160401b038211176111d457604052565b608081019081106001600160401b038211176111d457604052565b90601f801991011681019081106001600160401b038211176111d457604052565b356001600160401b038116810361013a5790565b3561ffff8116810361013a5790565b3563ffffffff8116810361013a5790565b35801515810361013a5790565b356001600160a01b038116810361013a5790565b903590601e198136030182121561013a57018035906001600160401b03821161013a5760200191813603831361013a57565b6001600160401b0381116111d457601f01601f191660200190565b3360009081527fd142efb147cd07881263fa4f60f77935fe75e436dd3c66b782b237f8530f2ca1602090815260408083205490927f93714ee7e3775f280f9ab925a5b649b6e87f18ae11f75082555fc719f33f97669160ff16156120d15750505050565b6120da3361255f565b918451906120e782611f8f565b604282528482019260603685378251156122365760308453825190600191600110156122365790607860218501536041915b8183116121c85750505061219857604861037993869361217c9361216d985198899376020b1b1b2b9b9a1b7b73a3937b61d1030b1b1b7bab73a1604d1b8a860152610320815180928c603789019101611ee5565b01036028810187520185611faa565b5192839262461bcd60e51b845260048401526024830190611f08565b60648486519062461bcd60e51b825280600483015260248201526000805160206126f68339815191526044820152fd5b909192600f81166010811015612222576f181899199a1a9b1b9c1cb0b131b232b360811b901a6121f8858761254e565b5360041c92801561220e57600019019190612119565b634e487b7160e01b82526011600452602482fd5b634e487b7160e01b83526032600452602483fd5b634e487b7160e01b81526032600452602490fd5b600090808252602090828252604092838120338252835260ff8482205416156122735750505050565b61227c3361255f565b9184519061228982611f8f565b604282528482019260603685378251156122365760308453825190600191600110156122365790607860218501536041915b81831161230f5750505061219857604861037993869361217c9361216d985198899376020b1b1b2b9b9a1b7b73a3937b61d1030b1b1b7bab73a1604d1b8a860152610320815180928c603789019101611ee5565b909192600f81166010811015612222576f181899199a1a9b1b9c1cb0b131b232b360811b901a61233f858761254e565b5360041c92801561220e576000190191906122bb565b9060009180835282602052604083209160018060a01b03169182845260205260ff60408420541661238557505050565b80835282602052604083208284526020526040832060ff1981541690557ff6391f5c32d9c69d2a47ea670b442974b53935d1edc7fd64eb21e047a839171b339380a4565b60405163a9059cbb60e01b60208201526001600160a01b03909216602483015260448083019390935291815260808101916001600160401b038311828410176111d4576124189260405261241a565b565b60018060a01b03169060405160408101908082106001600160401b038311176111d4576124a9916040526020938482527f5361666545524332303a206c6f772d6c6576656c2063616c6c206661696c6564858301526000808587829751910182855af13d15612546573d9161248e83612052565b9261249c6040519485611faa565b83523d868885013e61265c565b80519182159184831561251b575b5050509050156124c45750565b6084906040519062461bcd60e51b82526004820152602a60248201527f5361666545524332303a204552433230206f7065726174696f6e20646964206e6044820152691bdd081cdd58d8d9595960b21b6064820152fd5b9193818094500103126125425782015190811515820361253f5750803880846124b7565b80fd5b5080fd5b60609161265c565b908151811015610408570160200190565b60405190606082018281106001600160401b038211176111d457604052602a8252602082016040368237825115610408576030905381516001906001101561040857607860218401536029905b8082116125ee5750506125bc5790565b606460405162461bcd60e51b815260206004820152602060248201526000805160206126f68339815191526044820152fd5b9091600f81166010811015612647576f181899199a1a9b1b9c1cb0b131b232b360811b901a61261d848661254e565b5360041c9180156126325760001901906125ac565b60246000634e487b7160e01b81526011600452fd5b60246000634e487b7160e01b81526032600452fd5b919290156126be5750815115612670575090565b3b156126795790565b60405162461bcd60e51b815260206004820152601d60248201527f416464726573733a2063616c6c20746f206e6f6e2d636f6e74726163740000006044820152606490fd5b8251909150156126d15750805190602001fd5b60405162461bcd60e51b815260206004820152908190610379906024830190611f0856fe537472696e67733a20686578206c656e67746820696e73756666696369656e74a26469706673582212205b43cd5e8cbf379b5df9cbc843ab2ae567ad7afda13ce4e30c17ab775f8e879064736f6c63430008180033",
  "linkReferences": {},
  "deployedLinkReferences": {}
}