{
  "_format": "hh-sol-artifact-1",
  "contractName": "CreditToken",
  "sourceName": "contracts/CreditToken.sol",
  "abi": [
    {
      "inputs": [
        {
          "internalType": "address",
          "name": "admin",
          "type": "address"
        }
      ],
      "stateMutability": "nonpayable",
      "type": "constructor"
    },
    {
      "inputs": [
        {
          "internalType": "uint256",
          "name": "creditId",
          "type": "uint256"
        }
      ],
      "name": "CreditAlreadyExists",
      "type": "error"
    },
    {
      "anonymous": false,
      "inputs": [
        {
          "indexed": true,
          "internalType": "address",
          "name": "owner",
          "type": "address"
        },
        {
          "indexed": true,
          "internalType": "address",
          "name": "approved",
          "type": "address"
        },
        {
          "indexed": true,
          "internalType": "uint256",
          "name": "tokenId",
          "type": "uint256"
        }
      ],
      "name": "Approval",
      "type": "event"
    },
    {
      "anonymous": false,
      "inputs": [
        {
          "indexed": true,
          "internalType": "address",
          "name": "owner",
          "type": "address"
        },
        {
          "indexed": true,
          "internalType": "address",
          "name": "operator",
          "type": "address"
        },
        {
          "indexed": false,
          "internalType": "bool",
          "name": "approved",
          "type": "bool"
        }
      ],
      "name": "ApprovalForAll",
      "type": "event"
    },
    {
      "anonymous": false,
      "inputs": [
        {
          "indexed": false,
          "internalType": "uint256",
          "name": "_fromTokenId",
          "type": "uint256"
        },
        {
          "indexed": false,
          "internalType": "uint256",
          "name": "_toTokenId",
          "type": "uint256"
        }
      ],
      "name": "BatchMetadataUpdate",
      "type": "event"
    },
    {
      "anonymous": false,
      "inputs": [
        {
          "indexed": true,
          "internalType": "uint256",
          "name": "creditId",
          "type": "uint256"
        },
        {
          "indexed": true,
          "internalType": "address",
          "name": "to",
          "type": "address"
        },
        {
          "indexed": false,
          "internalType": "string",
          "name": "tokenURI",
          "type": "string"
        }
      ],
      "name": "CreditTokenMinted",
      "type": "event"
    },
    {
      "anonymous": false,
      "inputs": [
        {
          "indexed": false,
          "internalType": "uint256",
          "name": "_tokenId",
          "type": "uint256"
        }
      ],
      "name": "MetadataUpdate",
      "type": "event"
    },
    {
      "anonymous": false,
      "inputs": [
        {
          "indexed": true,
          "internalType": "bytes32",
          "name": "role",
          "type": "bytes32"
        },
        {
          "indexed": true,
          "internalType": "bytes32",
          "name": "previousAdminRole",
          "type": "bytes32"
        },
        {
          "indexed": true,
          "internalType": "bytes32",
          "name": "newAdminRole",
          "type": "bytes32"
        }
      ],
      "name": "RoleAdminChanged",
      "type": "event"
    },
    {
      "anonymous": false,
      "inputs": [
        {
          "indexed": true,
          "internalType": "bytes32",
          "name": "role",
          "type": "bytes32"
        },
        {
          "indexed": true,
          "internalType": "address",
          "name": "account",
          "type": "address"
        },
        {
          "indexed": true,
          "internalType": "address",
          "name": "sender",
          "type": "address"
        }
      ],
      "name": "RoleGranted",
      "type": "event"
    },
    {
      "anonymous": false,
      "inputs": [
        {
          "indexed": true,
          "internalType": "bytes32",
          "name": "role",
          "type": "bytes32"
        },
        {
          "indexed": true,
          "internalType": "address",
          "name": "account",
          "type": "address"
        },
        {
          "indexed": true,
          "internalType": "address",
          "name": "sender",
          "type": "address"
        }
      ],
      "name": "RoleRevoked",
      "type": "event"
    },
    {
      "anonymous": false,
      "inputs": [
        {
          "indexed": true,
          "internalType": "address",
          "name": "from",
          "type": "address"
        },
        {
          "indexed": true,
          "internalType": "address",
          "name": "to",
          "type": "address"
        },
        {
          "indexed": true,
          "internalType": "uint256",
          "name": "tokenId",
          "type": "uint256"
        }
      ],
      "name": "Transfer",
      "type": "event"
    },
    {
      "inputs": [],
      "name": "DEFAULT_ADMIN_ROLE",
      "outputs": [
        {
          "internalType": "bytes32",
          "name": "",
          "type": "bytes32"
        }
      ],
      "stateMutability": "view",
      "type": "function"
    },
    {
      "inputs": [],
      "name": "MINTER_ROLE",
      "outputs": [
        {
          "internalType": "bytes32",
          "name": "",
          "type": "bytes32"
        }
      ],
      "stateMutability": "view",
      "type": "function"
    },
    {
      "inputs": [
        {
          "internalType": "address",
          "name": "to",
          "type": "address"
        },
        {
          "internalType": "uint256",
          "name": "tokenId",
          "type": "uint256"
        }
      ],
      "name": "approve",
      "outputs": [],
      "stateMutability": "nonpayable",
      "type": "function"
    },
    {
      "inputs": [
        {
          "internalType": "address",
          "name": "owner",
          "type": "address"
        }
      ],
      "name": "balanceOf",
      "outputs": [
        {
          "internalType": "uint256",
          "name": "",
          "type": "uint256"
        }
      ],
      "stateMutability": "view",
      "type": "function"
    },
    {
      "inputs": [
        {
          "internalType": "uint256",
          "name": "tokenId",
          "type": "uint256"
        }
      ],
      "name": "getApproved",
      "outputs": [
        {
          "internalType": "address",
          "name": "",
          "type": "address"
        }
      ],
      "stateMutability": "view",
      "type": "function"
    },
    {
      "inputs": [
        {
          "internalType": "bytes32",
          "name": "role",
          "type": "bytes32"
        }
      ],
      "name": "getRoleAdmin",
      "outputs": [
        {
          "internalType": "bytes32",
          "name": "",
          "type": "bytes32"
        }
      ],
      "stateMutability": "view",
      "type": "function"
    },
    {
      "inputs": [
        {
          "internalType": "bytes32",
          "name": "role",
          "type": "bytes32"
        },
        {
          "internalType": "address",
          "name": "account",
          "type": "address"
        }
      ],
      "name": "grantRole",
      "outputs": [],
      "stateMutability": "nonpayable",
      "type": "function"
    },
    {
      "inputs": [
        {
          "internalType": "bytes32",
          "name": "role",
          "type": "bytes32"
        },
        {
          "internalType": "address",
          "name": "account",
          "type": "address"
        }
      ],
      "name": "hasRole",
      "outputs": [
        {
          "internalType": "bool",
          "name": "",
          "type": "bool"
        }
      ],
      "stateMutability": "view",
      "type": "function"
    },
    {
      "inputs": [
        {
          "internalType": "address",
          "name": "owner",
          "type": "address"
        },
        {
          "internalType": "address",
          "name": "operator",
          "type": "address"
        }
      ],
      "name": "isApprovedForAll",
      "outputs": [
        {
          "internalType": "bool",
          "name": "",
          "type": "bool"
        }
      ],
      "stateMutability": "view",
      "type": "function"
    },
    {
      "inputs": [
        {
          "internalType": "address",
          "name": "to",
          "type": "address"
        },
        {
          "internalType": "uint256",
          "name": "creditId",
          "type": "uint256"
        },
        {
          "internalType": "string",
          "name": "tokenURI_",
          "type": "string"
        }
      ],
      "name": "mintCredit",
      "outputs": [],
      "stateMutability": "nonpayable",
      "type": "function"
    },
    {
      "inputs": [],
      "name": "name",
      "outputs": [
        {
          "internalType": "string",
          "name": "",
          "type": "string"
        }
      ],
      "stateMutability": "view",
      "type": "function"
    },
    {
      "inputs": [
        {
          "internalType": "uint256",
          "name": "tokenId",
          "type": "uint256"
        }
      ],
      "name": "ownerOf",
      "outputs": [
        {
          "internalType": "address",
          "name": "",
          "type": "address"
        }
      ],
      "stateMutability": "view",
      "type": "function"
    },
    {
      "inputs": [
        {
          "internalType": "bytes32",
          "name": "role",
          "type": "bytes32"
        },
        {
          "internalType": "address",
          "name": "account",
          "type": "address"
        }
      ],
      "name": "renounceRole",
      "outputs": [],
      "stateMutability": "nonpayable",
      "type": "function"
    },
    {
      "inputs": [
        {
          "internalType": "bytes32",
          "name": "role",
          "type": "bytes32"
        },
        {
          "internalType": "address",
          "name": "account",
          "type": "address"
        }
      ],
      "name": "revokeRole",
      "outputs": [],
      "stateMutability": "nonpayable",
      "type": "function"
    },
    {
      "inputs": [
        {
          "internalType": "address",
          "name": "from",
          "type": "address"
        },
        {
          "internalType": "address",
          "name": "to",
          "type": "address"
        },
        {
          "internalType": "uint256",
          "name": "tokenId",
          "type": "uint256"
        }
      ],
      "name": "safeTransferFrom",
      "outputs": [],
      "stateMutability": "nonpayable",
      "type": "function"
    },
    {
      "inputs": [
        {
          "internalType": "address",
          "name": "from",
          "type": "address"
        },
        {
          "internalType": "address",
          "name": "to",
          "type": "address"
        },
        {
          "internalType": "uint256",
          "name": "tokenId",
          "type": "uint256"
        },
        {
          "internalType": "bytes",
          "name": "data",
          "type": "bytes"
        }
      ],
      "name": "safeTransferFrom",
      "outputs": [],
      "stateMutability": "nonpayable",
      "type": "function"
    },
    {
      "inputs": [
        {
          "internalType": "address",
          "name": "operator",
          "type": "address"
        },
        {
          "internalType": "bool",
          "name": "approved",
          "type": "bool"
        }
      ],
      "name": "setApprovalForAll",
      "outputs": [],
      "stateMutability": "nonpayable",
      "type": "function"
    },
    {
      "inputs": [
        {
          "internalType": "uint256",
          "name": "creditId",
          "type": "uint256"
        },
        {
          "internalType": "string",
          "name": "tokenURI_",
          "type": "string"
        }
      ],
      "name": "setTokenURI",
      "outputs": [],
      "stateMutability": "nonpayable",
      "type": "function"
    },
    {
      "inputs": [
        {
          "internalType": "bytes4",
          "name": "interfaceId",
          "type": "bytes4"
        }
      ],
      "name": "supportsInterface",
      "outputs": [
        {
          "internalType": "bool",
          "name": "",
          "type": "bool"
        }
      ],
      "stateMutability": "view",
      "type": "function"
    },
    {
      "inputs": [],
      "name": "symbol",
      "outputs": [
        {
          "internalType": "string",
          "name": "",
          "type": "string"
        }
      ],
      "stateMutability": "view",
      "type": "function"
    },
    {
      "inputs": [
        {
          "internalType": "uint256",
          "name": "tokenId",
          "type": "uint256"
        }
      ],
      "name": "tokenURI",
      "outputs": [
        {
          "internalType": "string",
          "name": "",
          "type": "string"
        }
      ],
      "stateMutability": "view",
      "type": "function"
    },
    {
      "inputs": [
        {
          "internalType": "address",
          "name": "from",
          "type": "address"
        },
        {
          "internalType": "address",
          "name": "to",
          "type": "address"
        },
        {
          "internalType": "uint256",
          "name": "tokenId",
          "type": "uint256"
        }
      ],
      "name": "transferFrom",
      "outputs": [],
      "stateMutability": "nonpayable",
      "type": "function"
    }
  ],
  "bytecode": "0x608034620003d457601f620020f738819003828101601f1990811685019490936001600160401b0393909284871183881017620003be5780839260409889528339602092839181010312620003d457516001600160a01b0381169390849003620003d4576200006d620003d9565b92601384527f4172632043726564697420506f736974696f6e0000000000000000000000000083850152620000a1620003d9565b60078152661850d49151125560ca1b84820152845196838811620003be576000978854966001978881811c91168015620003b3575b888210146200039f579081868493116200034c575b508790868311600114620002eb578b92620002df575b5050600019600383901b1c191690871b1788555b8151938411620002cb5785548681811c91168015620002c0575b86821014620002ac57908184869594931162000255575b5085928411600114620001f457508792620001e8575b5050600019600383901b1c191690831b1782555b83805260078152848420838552815260ff8585205416156200019c575b8451611cfd9081620003fa8239f35b8380526007815284842090838552528383209060ff1982541617905533917f2f8788117e7eff1d82e926ec794901d17c78024a50270940304540a733656f0d8180a4388080806200018d565b0151905038806200015c565b86895285892087959093929116895b878282106200023e575050841162000224575b505050811b01825562000170565b015160001960f88460031b161c1916905538808062000216565b838501518655899790950194938401930162000203565b90919293508689528589208480870160051c820192888810620002a2575b9187968a92969594930160051c01915b8281106200029357505062000146565b8b815587965089910162000283565b9250819262000273565b634e487b7160e01b89526022600452602489fd5b90607f16906200012f565b634e487b7160e01b88526041600452602488fd5b01519050388062000101565b90848a9416918c8052898d20928d5b8b8282106200033557505084116200031b575b505050811b01885562000115565b015160001960f88460031b161c191690553880806200030d565b8385015186558d97909501949384019301620002fa565b9091508a8052878b208680850160051c8201928a861062000395575b918b91869594930160051c01915b82811062000386575050620000eb565b8d81558594508b910162000376565b9250819262000368565b634e487b7160e01b8b52602260045260248bfd5b90607f1690620000d6565b634e487b7160e01b600052604160045260246000fd5b600080fd5b60408051919082016001600160401b03811183821017620003be5760405256fe608060408181526004918236101561001657600080fd5b600092833560e01c91826301ffc9a714610fac5750816306fdde0314610efb578163081812fc14610edb578163095ea7b314610d6d578163162094c414610c1957816323b872dd14610bf45781632456879c14610805578163248a9ca3146107da5781632f2ff15d1461072d57816336568abe1461069b57816342842e0e146106675781636352211e1461063657816370a08231146105a057816391d148541461055957816395d89b411461046b578163a217fddf14610450578163a22cb46514610380578163b88d4fde146102f5578163c87b56dd146101e5578163d5391393146101aa578163d547741f14610167575063e985e9c51461011757600080fd5b3461016357806003193601126101635760ff81602093610135611093565b61013d6110ae565b6001600160a01b0391821683526005875283832091168252855220549151911615158152f35b5080fd5b919050346101a657806003193601126101a6576101a3913561019e600161018c6110ae565b93838752600760205286200154611336565b6118b8565b80f35b8280fd5b505034610163578160031936011261016357602090517f9f2df0fed2c77648de5860a4cc508cd0818c85b8b8a1ab4ceeef8d981c8956a68152f35b919050346101a657602091826003193601126102f1573560008181526002602052604090205461021f906001600160a01b031615156112c4565b83526006825280832092815180948290805461023a816111ea565b91828552600191886001821691826000146102ca57505060011461028c575b50505061028893929161026d910386611175565b815161027881611127565b525192828493845283019061106e565b0390f35b8552868520879350859291905b8284106102b2575050508201018161026d610288610259565b8054848b018601528995508894909301928101610299565b60ff19168782015293151560051b8601909301935084925061026d91506102889050610259565b8380fd5b83903461016357608036600319011261016357610310611093565b906103196110ae565b916044356064359367ffffffffffffffff851161037c573660238601121561037c57610354610377948660246101a3983693013591016111b3565b9261036761036284336116da565b611262565b6103728383836117a2565b611abb565b611981565b8580fd5b919050346101a657806003193601126101a65761039b611093565b906024359182151580930361044c576001600160a01b03169233841461040a5750338452600560205280842083855260205280842060ff1981541660ff8416179055519081527f17307eab39ab6107e8899845ad3d59bd9653f200f220920489ca2b5937696c3160203392a380f35b6020606492519162461bcd60e51b8352820152601960248201527f4552433732313a20617070726f766520746f2063616c6c6572000000000000006044820152fd5b8480fd5b50503461016357816003193601126101635751908152602090f35b828434610556578060031936011261055657815191828260019360015494610492866111ea565b918285526020968760018216918260001461052f5750506001146104d3575b50505061028892916104c4910385611175565b5192828493845283019061106e565b9190869350600183527fb10e2d527612073b26eecdfd717e6a320cf44b4afac2b0732d9fcbe2b7fa0cf65b82841061051757505050820101816104c46102886104b1565b8054848a0186015288955087949093019281016104fe565b60ff19168782015293151560051b860190930193508492506104c4915061028890506104b1565b80fd5b9050346101a657816003193601126101a6578160209360ff9261057a6110ae565b90358252600786528282206001600160a01b039091168252855220549151911615158152f35b83915034610163576020366003190112610163576001600160a01b036105c4611093565b169081156105e15760208480858581526003845220549051908152f35b608490602085519162461bcd60e51b8352820152602960248201527f4552433732313a2061646472657373207a65726f206973206e6f7420612076616044820152683634b21037bbb732b960b91b6064820152fd5b828434610556576020366003190112610556575061065660209235611310565b90516001600160a01b039091168152f35b505034610163576103776101a39161067e366110f2565b9192519261068b84611127565b86845261036761036284336116da565b839150346101635782600319360112610163576106b66110ae565b90336001600160a01b038316036106d257906101a391356118b8565b608490602085519162461bcd60e51b8352820152602f60248201527f416363657373436f6e74726f6c3a2063616e206f6e6c792072656e6f756e636560448201526e103937b632b9903337b91039b2b63360891b6064820152fd5b9050346101a657816003193601126101a65735906107496110ae565b90828452600760205261076160018286200154611336565b828452600760209081528185206001600160a01b039093168086529290528084205460ff161561078f578380f35b82845260076020528084208285526020528320600160ff1982541617905533917f2f8788117e7eff1d82e926ec794901d17c78024a50270940304540a733656f0d8480a43880808380f35b9050346101a65760203660031901126101a65781602093600192358152600785522001549051908152f35b9050346101a65760603660031901126101a657610820611093565b9060249283359260443567ffffffffffffffff8111610bf05761084690369085016110c4565b937f9f2df0fed2c77648de5860a4cc508cd0818c85b8b8a1ab4ceeef8d981c8956a69283895260209360078552858a20338b52855260ff868b20541615610a2b57506000878152600260205260409020546001600160a01b0316610a15578451916108b083611127565b8983526001600160a01b0382169889156109d4575050948094939261099961037783948a7f4393f4de0d8e2facf5c2b4594971af30ef23385c671abe34bb5c87c4bf18abae9a818f8f9061092261091c84600052600260205260018060a01b0360406000205416151590565b15611c7b565b600083815260026020526040902054610945906001600160a01b0316151561091c565b81815260038c528c81208054600101905582815260028c528c812080546001600160a01b031916831790557fddf252ad1be2c89b69c2b068fc378daa952ba7f163c4a11628f55a4df523b3ef8180a46119a1565b6109ad6109a73684846111b3565b896114eb565b8451958487958652850152848401378181018301889052601f01601f19168101030190a380f35b865162461bcd60e51b815291820186905281018590527f4552433732313a206d696e7420746f20746865207a65726f20616464726573736044820152606490fd5b845163987e560360e01b81528083018890528890fd5b82898787938d610a3a33611b6b565b91835190610a4782611159565b60428252878201926060368537825115610bde576030845382519060019160011015610bcc5790607860218501536041915b818311610b6357505050610b23576048610b1f95938593610b0793610af8975197889376020b1b1b2b9b9a1b7b73a3937b61d1030b1b1b7bab73a1604d1b8d860152610acf8d825192839160378901910161104b565b8401917001034b99036b4b9b9b4b733903937b6329607d1b60378401525180938684019061104b565b01036028810186520184611175565b5194859462461bcd60e51b865285015283019061106e565b0390fd5b60648688878188519362461bcd60e51b85528401528201527f537472696e67733a20686578206c656e67746820696e73756666696369656e746044820152fd5b909192600f81166010811015610bba576f181899199a1a9b1b9c1cb0b131b232b360811b901a610b938587611b44565b53891c928015610ba857600019019190610a79565b634e487b7160e01b825260118a528882fd5b634e487b7160e01b835260328b528983fd5b634e487b7160e01b8152603289528790fd5b634e487b7160e01b8152603288528690fd5b8680fd5b8334610556576101a3610c06366110f2565b91610c1461036284336116da565b6117a2565b919050346101a657806003193601126101a657602490813567ffffffffffffffff811161044c57610c4d90369085016110c4565b91909285805260209160078352808720338852835260ff818820541615610c8557866101a387610c7e36888a6111b3565b90356114eb565b90859187610c9233611b6b565b9080835190610ca082611159565b60428252878201926060368537825115610bde576030845382519060019160011015610bcc5790607860218501536041915b818311610d2857505050610b23576048610b1f95938593610b0793610af8975197889376020b1b1b2b9b9a1b7b73a3937b61d1030b1b1b7bab73a1604d1b8d860152610acf8d825192839160378901910161104b565b909192600f81166010811015610bba576f181899199a1a9b1b9c1cb0b131b232b360811b901a610d588587611b44565b53891c928015610ba857600019019190610cd2565b9050346101a657816003193601126101a657610d87611093565b6024359290916001600160a01b0391908280610da287611310565b16941693808514610e8e57803314908115610e6f575b5015610e0757848652602052842080546001600160a01b03191683179055610ddf83611310565b167f8c5be1e5ebec7d5bd14f71427d1e84f3dd0314c0f7b2291e5b200ac8c7c3b9258480a480f35b6020608492519162461bcd60e51b8352820152603d60248201527f4552433732313a20617070726f76652063616c6c6572206973206e6f7420746f60448201527f6b656e206f776e6572206f7220617070726f76656420666f7220616c6c0000006064820152fd5b90508652600560205281862033875260205260ff828720541638610db8565b506020608492519162461bcd60e51b8352820152602160248201527f4552433732313a20617070726f76616c20746f2063757272656e74206f776e656044820152603960f91b6064820152fd5b828434610556576020366003190112610556575061065660209235611224565b82843461055657806003193601126105565781519182828354610f1d816111ea565b908184526020956001918760018216918260001461052f575050600114610f515750505061028892916104c4910385611175565b91908693508280527f290decd9548b62a8d60345a988386fc84ba6bc95484008f6362f93160ef3e5635b828410610f9457505050820101816104c46102886104b1565b8054848a018601528895508794909301928101610f7b565b8491346101a65760203660031901126101a6573563ffffffff60e01b81168091036101a65760209250637965db0b60e01b8114908115610fee575b5015158152f35b632483248360e11b811491508115611008575b5083610fe7565b6380ac58cd60e01b81149150811561103a575b8115611029575b5083611001565b6301ffc9a760e01b14905083611022565b635b5e139f60e01b8114915061101b565b60005b83811061105e5750506000910152565b818101518382015260200161104e565b906020916110878151809281855285808601910161104b565b601f01601f1916010190565b600435906001600160a01b03821682036110a957565b600080fd5b602435906001600160a01b03821682036110a957565b9181601f840112156110a95782359167ffffffffffffffff83116110a957602083818601950101116110a957565b60609060031901126110a9576001600160a01b039060043582811681036110a9579160243590811681036110a9579060443590565b6020810190811067ffffffffffffffff82111761114357604052565b634e487b7160e01b600052604160045260246000fd5b6080810190811067ffffffffffffffff82111761114357604052565b90601f8019910116810190811067ffffffffffffffff82111761114357604052565b67ffffffffffffffff811161114357601f01601f191660200190565b9291926111bf82611197565b916111cd6040519384611175565b8294818452818301116110a9578281602093846000960137010152565b90600182811c9216801561121a575b602083101461120457565b634e487b7160e01b600052602260045260246000fd5b91607f16916111f9565b600081815260026020526040902054611247906001600160a01b031615156112c4565b6000908152600460205260409020546001600160a01b031690565b1561126957565b60405162461bcd60e51b815260206004820152602d60248201527f4552433732313a2063616c6c6572206973206e6f7420746f6b656e206f776e6560448201526c1c881bdc88185c1c1c9bdd9959609a1b6064820152608490fd5b156112cb57565b60405162461bcd60e51b815260206004820152601860248201527f4552433732313a20696e76616c696420746f6b656e20494400000000000000006044820152606490fd5b6000908152600260205260409020546001600160a01b03166113338115156112c4565b90565b60009080825260209060078252604092838120338252835260ff8482205416156113605750505050565b61136933611b6b565b9184519061137682611159565b604282528482019260603685378251156114d75760308453825190600191600110156114d75790607860218501536041915b81831161146957505050611427576048610b1f93869361140b936113fc985198899376020b1b1b2b9b9a1b7b73a3937b61d1030b1b1b7bab73a1604d1b8a860152610acf815180928c60378901910161104b565b01036028810187520185611175565b5192839262461bcd60e51b84526004840152602483019061106e565b60648486519062461bcd60e51b825280600483015260248201527f537472696e67733a20686578206c656e67746820696e73756666696369656e746044820152fd5b909192600f811660108110156114c3576f181899199a1a9b1b9c1cb0b131b232b360811b901a6114998587611b44565b5360041c9280156114af576000190191906113a8565b634e487b7160e01b82526011600452602482fd5b634e487b7160e01b83526032600452602483fd5b634e487b7160e01b81526032600452602490fd5b6000818152600260205260409020549192916001600160a01b03161561167e5760009080825260209160068352604081209085519067ffffffffffffffff821161166a5761153983546111ea565b601f8111611627575b508490601f83116001146115a357907ff8e1a15aba9398e019f0b49df1a4fde98ee17ae345cb5f6b5e2c27f5033e8ce7969783611598575b50508160011b916000199060031b1c19161790555b604051908152a1565b01519050388061157a565b9196601f198816848452868420935b81811061161057509160019391897ff8e1a15aba9398e019f0b49df1a4fde98ee17ae345cb5f6b5e2c27f5033e8ce7999a94106115f7575b505050811b01905561158f565b015160001960f88460031b161c191690553880806115ea565b9293876001819287860151815501950193016115b2565b838252858220601f840160051c810191878510611660575b601f0160051c01905b8181106116555750611542565b828155600101611648565b909150819061163f565b634e487b7160e01b81526041600452602490fd5b60405162461bcd60e51b815260206004820152602e60248201527f45524337323155524953746f726167653a2055524920736574206f66206e6f6e60448201526d32bc34b9ba32b73a103a37b5b2b760911b6064820152608490fd5b906001600160a01b0380806116ee84611310565b16931691838314938415611721575b50831561170b575b50505090565b61171791929350611224565b1614388080611705565b909350600052600560205260406000208260005260205260ff6040600020541692386116fd565b1561174f57565b60405162461bcd60e51b815260206004820152602560248201527f4552433732313a207472616e736665722066726f6d20696e636f72726563742060448201526437bbb732b960d91b6064820152608490fd5b906117ca916117b084611310565b6001600160a01b0393918416928492909183168414611748565b1691821561186757816117e7916117e086611310565b1614611748565b7fddf252ad1be2c89b69c2b068fc378daa952ba7f163c4a11628f55a4df523b3ef60008481526004602052604081206bffffffffffffffffffffffff60a01b9081815416905583825260036020526040822060001981540190558482526040822060018154019055858252600260205284604083209182541617905580a4565b60405162461bcd60e51b8152602060048201526024808201527f4552433732313a207472616e7366657220746f20746865207a65726f206164646044820152637265737360e01b6064820152608490fd5b906000918083526007602052604083209160018060a01b03169182845260205260ff6040842054166118e957505050565b8083526007602052604083208284526020526040832060ff1981541690557ff6391f5c32d9c69d2a47ea670b442974b53935d1edc7fd64eb21e047a839171b339380a4565b60809060208152603260208201527f4552433732313a207472616e7366657220746f206e6f6e20455243373231526560408201527131b2b4bb32b91034b6b83632b6b2b73a32b960711b60608201520190565b1561198857565b60405162461bcd60e51b815280610b1f6004820161192e565b91929091803b15611ab2576119ee936040519081630a85bd0160e11b9384825233600483015260009687602484015260448301526080606483015281878160209a8b96608483019061106e565b03926001600160a01b03165af1849181611a72575b50611a61575050503d600014611a59573d611a1d81611197565b90611a2b6040519283611175565b81528091833d92013e5b80519182611a565760405162461bcd60e51b815280610b1f6004820161192e565b01fd5b506060611a35565b6001600160e01b0319161492509050565b9091508581813d8311611aab575b611a8a8183611175565b8101031261044c57516001600160e01b03198116810361044c579038611a03565b503d611a80565b50915050600190565b9293919290803b15611b3a57611b0f9460018060a01b039460405192839187630a85bd0160e11b9687855233600486015216602484015260448301526080606483015281806020998a95608483019061106e565b03916000988991165af1849181611a725750611a61575050503d600014611a59573d611a1d81611197565b5050915050600190565b908151811015611b55570160200190565b634e487b7160e01b600052603260045260246000fd5b604051906060820182811067ffffffffffffffff82111761114357604052602a8252602082016040368237825115611b555760309053815160019060011015611b5557607860218401536029905b808211611c0d575050611bc95790565b606460405162461bcd60e51b815260206004820152602060248201527f537472696e67733a20686578206c656e67746820696e73756666696369656e746044820152fd5b9091600f81166010811015611c66576f181899199a1a9b1b9c1cb0b131b232b360811b901a611c3c8486611b44565b5360041c918015611c51576000190190611bb9565b60246000634e487b7160e01b81526011600452fd5b60246000634e487b7160e01b81526032600452fd5b15611c8257565b60405162461bcd60e51b815260206004820152601c60248201527f4552433732313a20746f6b656e20616c7265616479206d696e746564000000006044820152606490fdfea2646970667358221220c81dac90d26001af22aef5997d49f14ef6caf87547f69e4fb9335e6a1ddf6fda64736f6c63430008180033",
  "linkReferences": {},
  "deployedLinkReferences": {}
}