{"contracts/CreditFactory.sol":{"CreditFactory":{"abi":[{"inputs":[{"internalType":"address","name":"tokenAddress","type":"address"},{"internalType":"address","name":"scoreAddress","type":"address"},{"internalType":"address","name":"admin","type":"address"},{"internalType":"uint32","name":"minimumBorrowerScore","type":"uint32"}],"stateMutability":"nonpayable","type":"constructor"},{"inputs":[{"internalType":"uint256","name":"borrowerScore","type":"uint256"},{"internalType":"uint32","name":"required","type":"uint32"}],"name":"BorrowerScoreTooLow","type":"error"},{"inputs":[{"internalType":"uint256","name":"creditId","type":"uint256"}],"name":"CreditNotFound","type":"error"},{"inputs":[],"name":"InvalidCollateral","type":"error"},{"inputs":[],"name":"InvalidCreditTerms","type":"error"},{"inputs":[{"internalType":"uint256","name":"creditId","type":"uint256"}],"name":"InvalidState","type":"error"},{"anonymous":false,"inputs":[{"indexed":true,"internalType":"uint256","name":"creditId","type":"uint256"},{"indexed":true,"internalType":"address","name":"to","type":"address"},{"indexed":false,"internalType":"uint256","name":"amount","type":"uint256"}],"name":"CollateralReleased","type":"event"},{"anonymous":false,"inputs":[{"indexed":true,"internalType":"uint256","name":"creditId","type":"uint256"},{"indexed":true,"internalType":"address","name":"to","type":"address"},{"indexed":false,"internalType":"uint256","name":"amount","type":"uint256"}],"name":"CollateralSeized","type":"event"},{"anonymous":false,"inputs":[{"indexed":true,"internalType":"uint256","name":"creditId","type":"uint256"},{"indexed":true,"internalType":"address","name":"borrower","type":"address"},{"indexed":false,"internalType":"uint256","name":"principal","type":"uint256"},{"indexed":false,"internalType":"uint256","name":"repaymentAmount","type":"uint256"},{"indexed":false,"internalType":"uint64","name":"dueDate","type":"uint64"},{"indexed":false,"internalType":"uint32","name":"minimumScore","type":"uint32"},{"indexed":false,"internalType":"bool","name":"collateralRequired","type":"bool"},{"indexed":false,"internalType":"bool","name":"isPrivate","type":"bool"},{"indexed":false,"internalType":"bytes32","name":"metadataHash","type":"bytes32"}],"name":"CreditCreated","type":"event"},{"anonymous":false,"inputs":[{"indexed":true,"internalType":"uint256","name":"creditId","type":"uint256"},{"indexed":false,"internalType":"uint64","name":"defaultedAt","type":"uint64"}],"name":"CreditDefaulted","type":"event"},{"anonymous":false,"inputs":[{"indexed":true,"internalType":"uint256","name":"creditId","type":"uint256"},{"indexed":false,"internalType":"uint64","name":"fundedAt","type":"uint64"}],"name":"CreditFunded","type":"event"},{"anonymous":false,"inputs":[{"indexed":true,"internalType":"uint256","name":"creditId","type":"uint256"},{"indexed":false,"internalType":"uint64","name":"settledAt","type":"uint64"}],"name":"CreditSettled","type":"event"},{"anonymous":false,"inputs":[{"indexed":true,"internalType":"bytes32","name":"role","type":"bytes32"},{"indexed":true,"internalType":"bytes32","name":"previousAdminRole","type":"bytes32"},{"indexed":true,"internalType":"bytes32","name":"newAdminRole","type":"bytes32"}],"name":"RoleAdminChanged","type":"event"},{"anonymous":false,"inputs":[{"indexed":true,"internalType":"bytes32","name":"role","type":"bytes32"},{"indexed":true,"internalType":"address","name":"account","type":"address"},{"indexed":true,"internalType":"address","name":"sender","type":"address"}],"name":"RoleGranted","type":"event"},{"anonymous":false,"inputs":[{"indexed":true,"internalType":"bytes32","name":"role","type":"bytes32"},{"indexed":true,"internalType":"address","name":"account","type":"address"},{"indexed":true,"internalType":"address","name":"sender","type":"address"}],"name":"RoleRevoked","type":"event"},{"inputs":[],"name":"DEFAULT_ADMIN_ROLE","outputs":[{"internalType":"bytes32","name":"","type":"bytes32"}],"stateMutability":"view","type":"function"},{"inputs":[],"name":"MARKETPLACE_ROLE","outputs":[{"internalType":"bytes32","name":"","type":"bytes32"}],"stateMutability":"view","type":"function"},{"inputs":[],"name":"REPAYMENT_MANAGER_ROLE","outputs":[{"internalType":"bytes32","name":"","type":"bytes32"}],"stateMutability":"view","type":"function"},{"inputs":[{"components":[{"internalType":"uint256","name":"principal","type":"uint256"},{"internalType":"uint256","name":"repaymentAmount","type":"uint256"},{"internalType":"uint64","name":"dueDate","type":"uint64"},{"internalType":"enum CreditFactory.PaymentSchedule","name":"schedule","type":"uint8"},{"internalType":"uint16","name":"installmentCount","type":"uint16"},{"internalType":"bytes32","name":"borrowerIdentityHash","type":"bytes32"},{"internalType":"string","name":"metadataURI","type":"string"},{"internalType":"bytes32","name":"metadataHash","type":"bytes32"},{"internalType":"bool","name":"isPrivate","type":"bool"},{"internalType":"uint32","name":"minimumScore","type":"uint32"},{"internalType":"bool","name":"collateralRequired","type":"bool"},{"internalType":"address","name":"collateralToken","type":"address"},{"internalType":"uint256","name":"collateralAmount","type":"uint256"},{"internalType":"uint256","name":"collateralValuationUSDC","type":"uint256"},{"internalType":"uint16","name":"maxLtvBps","type":"uint16"},{"internalType":"string","name":"tokenURI","type":"string"}],"internalType":"struct CreditFactory.CreateCreditInput","name":"input","type":"tuple"}],"name":"createCredit","outputs":[{"internalType":"uint256","name":"creditId","type":"uint256"}],"stateMutability":"nonpayable","type":"function"},{"inputs":[],"name":"creditScore","outputs":[{"internalType":"contract ICreditScore","name":"","type":"address"}],"stateMutability":"view","type":"function"},{"inputs":[],"name":"creditToken","outputs":[{"internalType":"contract ICreditToken","name":"","type":"address"}],"stateMutability":"view","type":"function"},{"inputs":[],"name":"getAllCreditIds","outputs":[{"internalType":"uint256[]","name":"","type":"uint256[]"}],"stateMutability":"view","type":"function"},{"inputs":[{"internalType":"uint256","name":"creditId","type":"uint256"}],"name":"getCredit","outputs":[{"components":[{"internalType":"address","name":"borrower","type":"address"},{"internalType":"uint256","name":"principal","type":"uint256"},{"internalType":"uint256","name":"repaymentAmount","type":"uint256"},{"internalType":"uint256","name":"interestBps","type":"uint256"},{"internalType":"uint64","name":"dueDate","type":"uint64"},{"internalType":"enum CreditFactory.PaymentSchedule","name":"schedule","type":"uint8"},{"internalType":"uint16","name":"installmentCount","type":"uint16"},{"internalType":"bytes32","name":"borrowerIdentityHash","type":"bytes32"},{"internalType":"string","name":"metadataURI","type":"string"},{"internalType":"bytes32","name":"metadataHash","type":"bytes32"},{"internalType":"bool","name":"isPrivate","type":"bool"},{"internalType":"uint32","name":"minimumScore","type":"uint32"},{"internalType":"bool","name":"funded","type":"bool"},{"internalType":"bool","name":"defaulted","type":"bool"},{"internalType":"bool","name":"settled","type":"bool"},{"internalType":"bool","name":"collateralRequired","type":"bool"},{"internalType":"address","name":"collateralToken","type":"address"},{"internalType":"uint256","name":"collateralAmount","type":"uint256"},{"internalType":"uint256","name":"collateralValuationUSDC","type":"uint256"},{"internalType":"uint16","name":"maxLtvBps","type":"uint16"},{"internalType":"uint64","name":"fundedAt","type":"uint64"}],"internalType":"struct CreditFactory.CreditPosition","name":"","type":"tuple"}],"stateMutability":"view","type":"function"},{"inputs":[{"internalType":"uint256","name":"creditId","type":"uint256"}],"name":"getCreditSummary","outputs":[{"internalType":"address","name":"borrower","type":"address"},{"internalType":"uint256","name":"principal","type":"uint256"},{"internalType":"uint256","name":"repaymentAmount","type":"uint256"},{"internalType":"uint64","name":"dueDate","type":"uint64"},{"internalType":"uint32","name":"minimumScore","type":"uint32"},{"internalType":"bool","name":"funded","type":"bool"},{"internalType":"bool","name":"defaulted","type":"bool"},{"internalType":"bool","name":"settled","type":"bool"},{"internalType":"bool","name":"collateralRequired","type":"bool"},{"internalType":"address","name":"collateralToken","type":"address"},{"internalType":"uint256","name":"collateralAmount","type":"uint256"}],"stateMutability":"view","type":"function"},{"inputs":[{"internalType":"bytes32","name":"role","type":"bytes32"}],"name":"getRoleAdmin","outputs":[{"internalType":"bytes32","name":"","type":"bytes32"}],"stateMutability":"view","type":"function"},{"inputs":[{"internalType":"bytes32","name":"role","type":"bytes32"},{"internalType":"address","name":"account","type":"address"}],"name":"grantRole","outputs":[],"stateMutability":"nonpayable","type":"function"},{"inputs":[{"internalType":"bytes32","name":"role","type":"bytes32"},{"internalType":"address","name":"account","type":"address"}],"name":"hasRole","outputs":[{"internalType":"bool","name":"","type":"bool"}],"stateMutability":"view","type":"function"},{"inputs":[{"internalType":"uint256","name":"creditId","type":"uint256"}],"name":"markDefault","outputs":[],"stateMutability":"nonpayable","type":"function"},{"inputs":[{"internalType":"uint256","name":"creditId","type":"uint256"}],"name":"markSettled","outputs":[],"stateMutability":"nonpayable","type":"function"},{"inputs":[],"name":"nextCreditId","outputs":[{"internalType":"uint256","name":"","type":"uint256"}],"stateMutability":"view","type":"function"},{"inputs":[],"name":"platformMinScore","outputs":[{"internalType":"uint32","name":"","type":"uint32"}],"stateMutability":"view","type":"function"},{"inputs":[{"internalType":"uint256","name":"creditId","type":"uint256"},{"internalType":"address","name":"to","type":"address"}],"name":"releaseCollateral","outputs":[],"stateMutability":"nonpayable","type":"function"},{"inputs":[{"internalType":"bytes32","name":"role","type":"bytes32"},{"internalType":"address","name":"account","type":"address"}],"name":"renounceRole","outputs":[],"stateMutability":"nonpayable","type":"function"},{"inputs":[{"internalType":"bytes32","name":"role","type":"bytes32"},{"internalType":"address","name":"account","type":"address"}],"name":"revokeRole","outputs":[],"stateMutability":"nonpayable","type":"function"},{"inputs":[{"internalType":"uint256","name":"creditId","type":"uint256"},{"internalType":"address","name":"to","type":"address"}],"name":"seizeCollateral","outputs":[],"stateMutability":"nonpayable","type":"function"},{"inputs":[{"internalType":"uint256","name":"creditId","type":"uint256"},{"internalType":"uint64","name":"fundedAt","type":"uint64"}],"name":"setFunded","outputs":[],"stateMutability":"nonpayable","type":"function"},{"inputs":[{"internalType":"uint32","name":"minScore","type":"uint32"}],"name":"setPlatformMinScore","outputs":[],"stateMutability":"nonpayable","type":"function"},{"inputs":[{"internalType":"bytes4","name":"interfaceId","type":"bytes4"}],"name":"supportsInterface","outputs":[{"internalType":"bool","name":"","type":"bool"}],"stateMutability":"view","type":"function"}],"evm":{"bytecode":{"linkReferences":{},"object":"60c0346200015357601f620028cf38819003918201601f191683019291906001600160401b0384118385101762000158578160809284926040968752833981010312620001535762000051816200016e565b9062000060602082016200016e565b916060620000708584016200016e565b9201519063ffffffff8216809203620001535760018055600160025560018060a01b0393848092166080521660a05263ffffffff1960035416176003556000918280528260205283832091169081835260205260ff83832054161562000107575b825161274b9081620001848239608051818181610ab60152818161106001526110da015260a051818181610b860152611a350152f35b81805281602052828220818352602052828220600160ff1982541617905533917f2f8788117e7eff1d82e926ec794901d17c78024a50270940304540a733656f0d8180a43880620000d1565b600080fd5b634e487b7160e01b600052604160045260246000fd5b51906001600160a01b0382168203620001535756fe608080604052600436101561001357600080fd5b60003560e01c90816301ffc9a714611e7c57508063058384fa14611bd8578063248a9ca314611ba95780632f2ff15d14611af657806336568abe14611a6457806339da315214611a1f5780633e824d5c146119e4578063420f7810146116d5578063532c6b371461162b5780636c681f1c146116075780637e5634b91461154b578063873f170f14610ae5578063899e5d8514610aa057806391d1485414610a53578063a217fddf14610a37578063a5c3f46414610981578063ac9cf4db146108a1578063c3439f3f14610866578063d547741f14610825578063da304e4d1461041e578063def45c1a1461022f578063e1d927c81461013f5763fc00b7981461011c57600080fd5b3461013a57600036600319011261013a576020600254604051908152f35b600080fd5b3461013a57602036600319011261013a5760043561015b61206d565b600081815260046020526040902080546001600160a01b03161561021657600801805460ff8160281c16158015610209575b80156101fc575b6101e35766010000000000009066ff00000000000019161790557fe24a3757089988039450d0a2135fbce25329ae10b2b5ac9875c77f9fb7fd948b60206040516001600160401b0342168152a2005b60405163102aa0d560e31b815260048101849052602490fd5b5060ff8160381c16610194565b5060ff8160301c1661018d565b6040516322aaa27f60e21b815260048101839052602490fd5b3461013a5760208060031936011261013a576004359063ffffffff821680920361013a576000805260008152604060002033600052815260ff6040600020541615610288575063ffffffff196003541617600355600080f35b6102913361255f565b9060006040516102a081611f8f565b60428152828101916060368437815115610408576030835381516001906001101561040857607860218401536041905b8082116103ae57505061037d57610349936103589260489260405196879376020b1b1b2b9b9a1b7b73a3937b61d1030b1b1b7bab73a1604d1b88860152610320815180928a603789019101611ee5565b8401917001034b99036b4b9b9b4b733903937b6329607d1b603784015251809386840190611ee5565b01036028810185520183611faa565b61037960405192839262461bcd60e51b845260048401526024830190611f08565b0390fd5b6064836040519062461bcd60e51b825280600483015260248201526000805160206126f68339815191526044820152fd5b9091600f81166010811015610408576f181899199a1a9b1b9c1cb0b131b232b360811b901a6103dd848661254e565b5360041c9180156103f25760001901906102d0565b634e487b7160e01b600052601160045260246000fd5b634e487b7160e01b600052603260045260246000fd5b3461013a57602036600319011261013a57600061028060405161044081611f73565b8281528260208201528260408201528260608201528260808201528260a08201528260c08201528260e0820152606061010082015282610120820152826101408201528261016082015282610180820152826101a0820152826101c0820152826101e082015282610200820152826102208201528261024082015282610260820152015260043560005260046020526040600020604051906104e182611f73565b60018060a01b03815416825260018101546020830152600281015460408301526003810154606083015261ffff60048201546001600160401b038116608085015261053560ff8260401c1660a08601611f2d565b60481c1660c0830152600581015460e08301526040516000600683015461055b81611f39565b808452906001811690811561080357506001146107c2575b50918161058c600b936001600160401b03950382611faa565b6101008501526007810154610120850152600881015460ff8116151561014086015263ffffffff8160081c1661016086015260ff8160281c16151561018086015260ff8160301c1615156101a086015260ff8160381c1615156101c086015260ff8160401c1615156101e086015260018060a01b039060481c166102008501526009810154610220850152600a810154610240850152015461ffff811661026084015260101c1661028082015260018060a01b03815116156107a957604051906020825260018060a01b0381511660208301526020810151604083015260408101516060830152606081015160808301526001600160401b0360808201511660a083015260a081015190600282101561079357829160c083015261ffff60c08201511660e083015260e08101516101008301526001600160401b036102806106e76101008401516102a06101208701526102c0860190611f08565b92610120810151610140860152610140810151151561016086015263ffffffff6101608201511661018086015261018081015115156101a08601526101a081015115156101c08601526101c081015115156101e08601526101e0810151151561020086015260018060a01b036102008201511661022086015261022081015161024086015261024081015161026086015261ffff61026082015116828601520151166102a08301520390f35b634e487b7160e01b600052602160045260246000fd5b60246040516322aaa27f60e21b81526004356004820152fd5b9050600683016000526020600020906000915b8183106107e9575050810160200181610573565b6001816020929493945483858801015201910191906107d5565b60ff191660208086019190915291151560051b84019091019150829050610573565b3461013a57604036600319011261013a57610864600435610844611ecf565b9080600052600060205261085f60016040600020015461224a565b612355565b005b3461013a57600036600319011261013a5760206040517f0ea61da3a8a09ad801432653699f8c1860b1ae9d2ea4a141fadfd63227717bc88152f35b3461013a57604036600319011261013a576004356108bd611ecf565b906108c661206d565b600081815260046020526040902080546001600160a01b03908116156109685760088201549060ff8260401c1615801561095c575b61094a578461093f6020936000978460097f348da1c7ca8804ff7b3cbff37a613a1549362d62ee8c309af7a61ca40adb4dae98019283549a8b945560481c166123c9565b6040519586521693a3005b6040516368f7a67560e11b8152600490fd5b506009830154156108fb565b6040516322aaa27f60e21b815260048101849052602490fd5b3461013a57600036600319011261013a57604051806005548083526020809301809160056000527f036b6384b5eca791c62761152d0c79bb0604c104a5fb6f4eb0703f3154bb3db09060005b86828210610a235786866109e382880383611faa565b604051928392818401908285525180915260408401929160005b828110610a0c57505050500390f35b8351855286955093810193928101926001016109fd565b8354855290930192600192830192016109cd565b3461013a57600036600319011261013a57602060405160008152f35b3461013a57604036600319011261013a57610a6c611ecf565b600435600052600060205260406000209060018060a01b0316600052602052602060ff604060002054166040519015158152f35b3461013a57600036600319011261013a576040517f00000000000000000000000000000000000000000000000000000000000000006001600160a01b03168152602090f35b3461013a5760031960203682011261013a576001600160401b036004351161013a57610200906004353603011261013a5760026001541461150657600260015560043560040135158080156114f1575b80156114d0575b80156114c2575b61149557600260646004350135101561013a5760016064600435013514806114a7575b61149557604051630d47875d60e41b8152336004820152906020826024817f00000000000000000000000000000000000000000000000000000000000000006001600160a01b03165afa9182156111ea57600092611461575b5063ffffffff80600354166101246004350182610bdb82611fee565b168211156114515750925b81841681106114325750610bff61014460043501611fff565b6112e0575b6002805460018101909155916004803560248101359101358103116103f2576127109060246004803591820135910135818114910380840204831417156103f2576112ca57610c57604460043501611fcb565b610c65608460043501611fdf565b90610c7a60c460043501600435600401612020565b610c8c61010460049593953501611fff565b610c9b61014460043501611fff565b9161ffff610cae6101646004350161200c565b946001600160401b03610cc66101c460043501611fdf565b976040519a610cd48c611f73565b338c52600480359081013560208e01819052602482013560408f018190528190039092029190910460608d0152911660808b0152610d19906064013560a08b01611f2d565b1660c088015260a4600435013560e0880152610d3481612052565b90610d426040519283611faa565b808252368188011161013a5760208160009261ffff99838601378301015261010087015260e460043501356101208701521515610140860152858816610160860152600061018086015260006101a086015260006101c086015215156101e085015260018060a01b031661020084015261018460043501356102208401526101a46004350135610240840152166102608201526000610280820152826000526004602052604060002060018060a01b038251166bffffffffffffffffffffffff60a01b8254161781556020820151600182015560408201516002820155606082015160038201556001600160401b0360808301511660048201549060a08401519060028210156107935760ff60401b906affff00000000000000000060c087015160481b16936affffffffffffffffffffff1916179160401b161717600482015560e082015160058201556101008201518051906001600160401b0382116111d457610eb16006840154611f39565b601f8111611283575b50602090601f831160011461120157610ffa9493836001600160401b039461028094600b946000926111f6575b50508160011b916000199060031b1c19161760068201555b6101208501516007820155600881016101408601511515815464ffffffff0061016089015160081b1665ff00000000006101808a0151151560281b1666ff0000000000006101a08b0151151560301b169060ff60381b6101c08c0151151560381b169260ff60401b6101e08d0151151560401b169460ff8d6102006901000000000000000000600160e81b0391015160481b1697169062ffffff60e81b161717171717171790556102208501516009820155610240850151600a820155019261ffff6102608201511661ffff1985541617845501511669ffffffffffffffff000082549160101b169069ffffffffffffffff00001916179055565b600554680100000000000000008110156111d457600181018060055581101561040857829060056000527f036b6384b5eca791c62761152d0c79bb0604c104a5fb6f4eb0703f3154bb3db0015561105c6101e460043501600435600401612020565b93907f00000000000000000000000000000000000000000000000000000000000000006001600160a01b03163b1561013a578460846000926040519788938492630915a1e760e21b845233600485015289602485015260606044850152816064850152848401378181018301859052601f01601f19168101030181837f00000000000000000000000000000000000000000000000000000000000000006001600160a01b03165af180156111ea576111bb575b60209350611121604460043501611fcb565b9161113161014460043501611fff565b9061114161010460043501611fff565b926001600160401b0360405195600435600401358752602460043501358988015216604086015216606084015215156080830152151560a082015260e4600435013560c0820152817f650a9952d1cbb65ce7f0eab9eed54091f0720c176a81b4565c9d143e5bfcea2c60e03393a360018055604051908152f35b6001600160401b0384116111d45760209360405261110f565b634e487b7160e01b600052604160045260246000fd5b6040513d6000823e3d90fd5b015190508b80610ee7565b906006840160005260206000209160005b601f198516811061126b57509360018461028094600b94610ffa99986001600160401b0398601f19811610611252575b505050811b016006820155610eff565b015160001960f88460031b161c191690558b8080611242565b91926020600181928685015181550194019201611212565b600684016000526020600020601f840160051c8101602085106112c3575b601f830160051c820181106112b7575050610eba565b600081556001016112a1565b50806112a1565b634e487b7160e01b600052601260045260246000fd5b6001600160a01b036112f76004356101640161200c565b16158015611423575b8015611414575b80156113fa575b80156113dd575b8015611392575b61094a576001600160a01b036113376004356101640161200c565b166040516323b872dd60e01b602082015233602482015230604482015261018460043501356064820152606481528060a08101106001600160401b0360a0830111176111d45761138d9160a0820160405261241a565b610c04565b50600480350135612710818102918204148317156103f2576101a460043501359061ffff6113c56101c460043501611fdf565b16918281029281840414901517156103f2571161131c565b5061271061ffff6113f36101c460043501611fdf565b1611611315565b5061ffff61140d6101c460043501611fdf565b161561130e565b506101a4600435013515611307565b50610184600435013515611300565b6044918460405192630ec4a11560e11b84526004840152166024820152fd5b61145b9150611fee565b92610be6565b9091506020813d60201161148d575b8161147d60209383611faa565b8101031261013a57519082610bbf565b3d9150611470565b604051630368ccf160e21b8152600490fd5b50600261ffff6114bb608460043501611fdf565b1610610b66565b5060a4600435013515610b43565b506114df604460043501611fcb565b6001600160401b034291161115610b3c565b50600435600401356024600435013510610b35565b60405162461bcd60e51b815260206004820152601f60248201527f5265656e7472616e637947756172643a207265656e7472616e742063616c6c006044820152606490fd5b3461013a57602036600319011261013a5760043561156761206d565b600081815260046020526040902080546001600160a01b03161561021657600801805460ff8160281c161580156115fa575b80156115ed575b6101e3576701000000000000009060ff60381b19161790557f971010436e85502b3f0d00d8ed669a291b5a981b6b58b90c3989dde9b73e599660206040516001600160401b0342168152a2005b5060ff8160381c166115a0565b5060ff8160301c16611599565b3461013a57600036600319011261013a57602063ffffffff60035416604051908152f35b3461013a57604036600319011261013a57600435611647611ecf565b9061165061206d565b600081815260046020526040902080546001600160a01b03908116156109685760088201549060ff8260401c161580156116c9575b61094a578461093f6020936000978460097f757b323b5139c5e30fe0a1c4b13e38dece5aad9273138c1e3d1ed9191c6e73b298019283549a8b945560481c166123c9565b50600983015415611685565b3461013a57604036600319011261013a576004356024908135916001600160401b03831680840361013a573360009081527fda104853dc3972fb943ce0ee89200279d8af13db255ed28fb43e685524f21b1960209081526040909120549092907f0ea61da3a8a09ad801432653699f8c1860b1ae9d2ea4a141fadfd63227717bc89060ff161561185657506000848152600484526040902080549091906001600160a01b03161561184057600882019081549060ff8260281c168015611833575b8015611826575b6118105750611807927f02666ddae022d0ae4f1ef2f662047aaffa84b5d69168ac83c319d76b19e6713e96979265010000000000600b9365ff00000000001916179055019069ffffffffffffffff000082549160101b169069ffffffffffffffff00001916179055565b604051908152a2005b60405163102aa0d560e31b815260048101889052fd5b5060ff8260381c1661179d565b5060ff8260301c16611796565b6040516322aaa27f60e21b815260048101869052fd5b83906118613361255f565b9060405161186e81611f8f565b604281528381019160603684378151156119cf57603083538151600190600110156119ba57607860218401536041905b80821161194c57505061191c576048610379936118f1936119009360405195869376020b1b1b2b9b9a1b7b73a3937b61d1030b1b1b7bab73a1604d1b8a860152610320815180928c603789019101611ee5565b01036028810184520182611faa565b60405193849362461bcd60e51b85526004850152830190611f08565b606485856040519162461bcd60e51b83528160048401528201526000805160206126f68339815191526044820152fd5b9091600f811660108110156119a5576f181899199a1a9b1b9c1cb0b131b232b360811b901a61197b848661254e565b5360041c91801561199057600019019061189e565b87634e487b7160e01b60005260116004526000fd5b88634e487b7160e01b60005260326004526000fd5b86634e487b7160e01b60005260326004526000fd5b85634e487b7160e01b60005260326004526000fd5b3461013a57600036600319011261013a5760206040517f93714ee7e3775f280f9ab925a5b649b6e87f18ae11f75082555fc719f33f97668152f35b3461013a57600036600319011261013a576040517f00000000000000000000000000000000000000000000000000000000000000006001600160a01b03168152602090f35b3461013a57604036600319011261013a57611a7d611ecf565b336001600160a01b03821603611a995761086490600435612355565b60405162461bcd60e51b815260206004820152602f60248201527f416363657373436f6e74726f6c3a2063616e206f6e6c792072656e6f756e636560448201526e103937b632b9903337b91039b2b63360891b6064820152608490fd5b3461013a57604036600319011261013a57600435611b12611ecf565b816000526000602052611b2c60016040600020015461224a565b81600052600060205260406000209060018060a01b0316908160005260205260ff6040600020541615611b5b57005b8160005260006020526040600020816000526020526040600020600160ff1982541617905533917f2f8788117e7eff1d82e926ec794901d17c78024a50270940304540a733656f0d600080a4005b3461013a57602036600319011261013a5760043560005260006020526020600160406000200154604051908152f35b3461013a57602036600319011261013a576004356000526004602052604060002060405190611c0682611f73565b60018060a01b03815416825260018101546020830152600281015460408301526003810154606083015261ffff60048201546001600160401b0381166080850152611c5a60ff8260401c1660a08601611f2d565b60481c1660c0830152600581015460e0830152604051600682018054600091611c8282611f39565b8085529160018116908115611e555750600114611e17575b50509181611cb4600b936001600160401b03950382611faa565b6101008501526007810154610120850152600881015460ff8116151561014086015263ffffffff8160081c1661016086015260ff8160281c16151561018086015260ff8160301c1615156101a086015260ff8160381c1615156101c086015260ff8160401c1615156101e086015260018060a01b039060481c166102008501526009810154610220850152600a810154610240850152015461ffff811661026084015260101c1661028082015260018060a01b03815116156107a9576101609060018060a01b038151169060208101519060408101516001600160401b0360808301511663ffffffff868401511661018084015115156101a08501511515916101c08601511515936101e087015115159561022060018060a01b036102008a015116980151986040519a8b5260208b015260408a01526060890152608088015260a087015260c086015260e0850152610100840152610120830152610140820152f35b6000908152602081209092505b818310611e3b575050810160200181611cb4611c9a565b600181602092949394548385880101520191019190611e24565b60ff191660208087019190915292151560051b85019092019250839150611cb49050611c9a565b3461013a57602036600319011261013a576004359063ffffffff60e01b821680920361013a57602091637965db0b60e01b8114908115611ebe575b5015158152f35b6301ffc9a760e01b14905083611eb7565b602435906001600160a01b038216820361013a57565b60005b838110611ef85750506000910152565b8181015183820152602001611ee8565b90602091611f2181518092818552858086019101611ee5565b601f01601f1916010190565b60028210156107935752565b90600182811c92168015611f69575b6020831014611f5357565b634e487b7160e01b600052602260045260246000fd5b91607f1691611f48565b6102a081019081106001600160401b038211176111d457604052565b608081019081106001600160401b038211176111d457604052565b90601f801991011681019081106001600160401b038211176111d457604052565b356001600160401b038116810361013a5790565b3561ffff8116810361013a5790565b3563ffffffff8116810361013a5790565b35801515810361013a5790565b356001600160a01b038116810361013a5790565b903590601e198136030182121561013a57018035906001600160401b03821161013a5760200191813603831361013a57565b6001600160401b0381116111d457601f01601f191660200190565b3360009081527fd142efb147cd07881263fa4f60f77935fe75e436dd3c66b782b237f8530f2ca1602090815260408083205490927f93714ee7e3775f280f9ab925a5b649b6e87f18ae11f75082555fc719f33f97669160ff16156120d15750505050565b6120da3361255f565b918451906120e782611f8f565b604282528482019260603685378251156122365760308453825190600191600110156122365790607860218501536041915b8183116121c85750505061219857604861037993869361217c9361216d985198899376020b1b1b2b9b9a1b7b73a3937b61d1030b1b1b7bab73a1604d1b8a860152610320815180928c603789019101611ee5565b01036028810187520185611faa565b5192839262461bcd60e51b845260048401526024830190611f08565b60648486519062461bcd60e51b825280600483015260248201526000805160206126f68339815191526044820152fd5b909192600f81166010811015612222576f181899199a1a9b1b9c1cb0b131b232b360811b901a6121f8858761254e565b5360041c92801561220e57600019019190612119565b634e487b7160e01b82526011600452602482fd5b634e487b7160e01b83526032600452602483fd5b634e487b7160e01b81526032600452602490fd5b600090808252602090828252604092838120338252835260ff8482205416156122735750505050565b61227c3361255f565b9184519061228982611f8f565b604282528482019260603685378251156122365760308453825190600191600110156122365790607860218501536041915b81831161230f5750505061219857604861037993869361217c9361216d985198899376020b1b1b2b9b9a1b7b73a3937b61d1030b1b1b7bab73a1604d1b8a860152610320815180928c603789019101611ee5565b909192600f81166010811015612222576f181899199a1a9b1b9c1cb0b131b232b360811b901a61233f858761254e565b5360041c92801561220e576000190191906122bb565b9060009180835282602052604083209160018060a01b03169182845260205260ff60408420541661238557505050565b80835282602052604083208284526020526040832060ff1981541690557ff6391f5c32d9c69d2a47ea670b442974b53935d1edc7fd64eb21e047a839171b339380a4565b60405163a9059cbb60e01b60208201526001600160a01b03909216602483015260448083019390935291815260808101916001600160401b038311828410176111d4576124189260405261241a565b565b60018060a01b03169060405160408101908082106001600160401b038311176111d4576124a9916040526020938482527f5361666545524332303a206c6f772d6c6576656c2063616c6c206661696c6564858301526000808587829751910182855af13d15612546573d9161248e83612052565b9261249c6040519485611faa565b83523d868885013e61265c565b80519182159184831561251b575b5050509050156124c45750565b6084906040519062461bcd60e51b82526004820152602a60248201527f5361666545524332303a204552433230206f7065726174696f6e20646964206e6044820152691bdd081cdd58d8d9595960b21b6064820152fd5b9193818094500103126125425782015190811515820361253f5750803880846124b7565b80fd5b5080fd5b60609161265c565b908151811015610408570160200190565b60405190606082018281106001600160401b038211176111d457604052602a8252602082016040368237825115610408576030905381516001906001101561040857607860218401536029905b8082116125ee5750506125bc5790565b606460405162461bcd60e51b815260206004820152602060248201526000805160206126f68339815191526044820152fd5b9091600f81166010811015612647576f181899199a1a9b1b9c1cb0b131b232b360811b901a61261d848661254e565b5360041c9180156126325760001901906125ac565b60246000634e487b7160e01b81526011600452fd5b60246000634e487b7160e01b81526032600452fd5b919290156126be5750815115612670575090565b3b156126795790565b60405162461bcd60e51b815260206004820152601d60248201527f416464726573733a2063616c6c20746f206e6f6e2d636f6e74726163740000006044820152606490fd5b8251909150156126d15750805190602001fd5b60405162461bcd60e51b815260206004820152908190610379906024830190611f0856fe537472696e67733a20686578206c656e67746820696e73756666696369656e74a26469706673582212205b43cd5e8cbf379b5df9cbc843ab2ae567ad7afda13ce4e30c17ab775f8e879064736f6c63430008180033","opcodes":"PUSH1 0xC0 CALLVALUE PUSH3 0x153 JUMPI PUSH1 0x1F PUSH3 0x28CF CODESIZE DUP2 SWAP1 SUB SWAP2 DUP3 ADD PUSH1 0x1F NOT AND DUP4 ADD SWAP3 SWAP2 SWAP1 PUSH1 0x1 PUSH1 0x1 PUSH1 0x40 SHL SUB DUP5 GT DUP4 DUP6 LT OR PUSH3 0x158 JUMPI DUP2 PUSH1 0x80 SWAP3 DUP5 SWAP3 PUSH1 0x40 SWAP7 DUP8 MSTORE DUP4 CODECOPY DUP2 ADD SUB SLT PUSH3 0x153 JUMPI PUSH3 0x51 DUP2 PUSH3 0x16E JUMP JUMPDEST SWAP1 PUSH3 0x60 PUSH1 0x20 DUP3 ADD PUSH3 0x16E JUMP JUMPDEST SWAP2 PUSH1 0x60 PUSH3 0x70 DUP6 DUP5 ADD PUSH3 0x16E JUMP JUMPDEST SWAP3 ADD MLOAD SWAP1 PUSH4 0xFFFFFFFF DUP3 AND DUP1 SWAP3 SUB PUSH3 0x153 JUMPI PUSH1 0x1 DUP1 SSTORE PUSH1 0x1 PUSH1 0x2 SSTORE PUSH1 0x1 DUP1 PUSH1 0xA0 SHL SUB SWAP4 DUP5 DUP1 SWAP3 AND PUSH1 0x80 MSTORE AND PUSH1 0xA0 MSTORE PUSH4 0xFFFFFFFF NOT PUSH1 0x3 SLOAD AND OR PUSH1 0x3 SSTORE PUSH1 0x0 SWAP2 DUP3 DUP1 MSTORE DUP3 PUSH1 0x20 MSTORE DUP4 DUP4 KECCAK256 SWAP2 AND SWAP1 DUP2 DUP4 MSTORE PUSH1 0x20 MSTORE PUSH1 0xFF DUP4 DUP4 KECCAK256 SLOAD AND ISZERO PUSH3 0x107 JUMPI JUMPDEST DUP3 MLOAD PUSH2 0x274B SWAP1 DUP2 PUSH3 0x184 DUP3 CODECOPY PUSH1 0x80 MLOAD DUP2 DUP2 DUP2 PUSH2 0xAB6 ADD MSTORE DUP2 DUP2 PUSH2 0x1060 ADD MSTORE PUSH2 0x10DA ADD MSTORE PUSH1 0xA0 MLOAD DUP2 DUP2 DUP2 PUSH2 0xB86 ADD MSTORE PUSH2 0x1A35 ADD MSTORE RETURN JUMPDEST DUP2 DUP1 MSTORE DUP2 PUSH1 0x20 MSTORE DUP3 DUP3 KECCAK256 DUP2 DUP4 MSTORE PUSH1 0x20 MSTORE DUP3 DUP3 KECCAK256 PUSH1 0x1 PUSH1 0xFF NOT DUP3 SLOAD AND OR SWAP1 SSTORE CALLER SWAP2 PUSH32 0x2F8788117E7EFF1D82E926EC794901D17C78024A50270940304540A733656F0D DUP2 DUP1 LOG4 CODESIZE DUP1 PUSH3 0xD1 JUMP JUMPDEST PUSH1 0x0 DUP1 REVERT JUMPDEST PUSH4 0x4E487B71 PUSH1 0xE0 SHL PUSH1 0x0 MSTORE PUSH1 0x41 PUSH1 0x4 MSTORE PUSH1 0x24 PUSH1 0x0 REVERT JUMPDEST MLOAD SWAP1 PUSH1 0x1 PUSH1 0x1 PUSH1 0xA0 SHL SUB DUP3 AND DUP3 SUB PUSH3 0x153 JUMPI JUMP INVALID PUSH1 0x80 DUP1 PUSH1 0x40 MSTORE PUSH1 0x4 CALLDATASIZE LT ISZERO PUSH2 0x13 JUMPI PUSH1 0x0 DUP1 REVERT JUMPDEST PUSH1 0x0 CALLDATALOAD PUSH1 0xE0 SHR SWAP1 DUP2 PUSH4 0x1FFC9A7 EQ PUSH2 0x1E7C JUMPI POP DUP1 PUSH4 0x58384FA EQ PUSH2 0x1BD8 JUMPI DUP1 PUSH4 0x248A9CA3 EQ PUSH2 0x1BA9 JUMPI DUP1 PUSH4 0x2F2FF15D EQ PUSH2 0x1AF6 JUMPI DUP1 PUSH4 0x36568ABE EQ PUSH2 0x1A64 JUMPI DUP1 PUSH4 0x39DA3152 EQ PUSH2 0x1A1F JUMPI DUP1 PUSH4 0x3E824D5C EQ PUSH2 0x19E4 JUMPI DUP1 PUSH4 0x420F7810 EQ PUSH2 0x16D5 JUMPI DUP1 PUSH4 0x532C6B37 EQ PUSH2 0x162B JUMPI DUP1 PUSH4 0x6C681F1C EQ PUSH2 0x1607 JUMPI DUP1 PUSH4 0x7E5634B9 EQ PUSH2 0x154B JUMPI DUP1 PUSH4 0x873F170F EQ PUSH2 0xAE5 JUMPI DUP1 PUSH4 0x899E5D85 EQ PUSH2 0xAA0 JUMPI DUP1 PUSH4 0x91D14854 EQ PUSH2 0xA53 JUMPI DUP1 PUSH4 0xA217FDDF EQ PUSH2 0xA37 JUMPI DUP1 PUSH4 0xA5C3F464 EQ PUSH2 0x981 JUMPI DUP1 PUSH4 0xAC9CF4DB EQ PUSH2 0x8A1 JUMPI DUP1 PUSH4 0xC3439F3F EQ PUSH2 0x866 JUMPI DUP1 PUSH4 0xD547741F EQ PUSH2 0x825 JUMPI DUP1 PUSH4 0xDA304E4D EQ PUSH2 0x41E JUMPI DUP1 PUSH4 0xDEF45C1A EQ PUSH2 0x22F JUMPI DUP1 PUSH4 0xE1D927C8 EQ PUSH2 0x13F JUMPI PUSH4 0xFC00B798 EQ PUSH2 0x11C JUMPI PUSH1 0x0 DUP1 REVERT JUMPDEST CALLVALUE PUSH2 0x13A JUMPI PUSH1 0x0 CALLDATASIZE PUSH1 0x3 NOT ADD SLT PUSH2 0x13A JUMPI PUSH1 0x20 PUSH1 0x2 SLOAD PUSH1 0x40 MLOAD SWAP1 DUP2 MSTORE RETURN JUMPDEST PUSH1 0x0 DUP1 REVERT JUMPDEST CALLVALUE PUSH2 0x13A JUMPI PUSH1 0x20 CALLDATASIZE PUSH1 0x3 NOT ADD SLT PUSH2 0x13A JUMPI PUSH1 0x4 CALLDATALOAD PUSH2 0x15B PUSH2 0x206D JUMP JUMPDEST PUSH1 0x0 DUP2 DUP2 MSTORE PUSH1 0x4 PUSH1 0x20 MSTORE PUSH1 0x40 SWAP1 KECCAK256 DUP1 SLOAD PUSH1 0x1 PUSH1 0x1 PUSH1 0xA0 SHL SUB AND ISZERO PUSH2 0x216 JUMPI PUSH1 0x8 ADD DUP1 SLOAD PUSH1 0xFF DUP2 PUSH1 0x28 SHR AND ISZERO DUP1 ISZERO PUSH2 0x209 JUMPI JUMPDEST DUP1 ISZERO PUSH2 0x1FC JUMPI JUMPDEST PUSH2 0x1E3 JUMPI PUSH7 0x1000000000000 SWAP1 PUSH7 0xFF000000000000 NOT AND OR SWAP1 SSTORE PUSH32 0xE24A3757089988039450D0A2135FBCE25329AE10B2B5AC9875C77F9FB7FD948B PUSH1 0x20 PUSH1 0x40 MLOAD PUSH1 0x1 PUSH1 0x1 PUSH1 0x40 SHL SUB TIMESTAMP AND DUP2 MSTORE LOG2 STOP JUMPDEST PUSH1 0x40 MLOAD PUSH4 0x102AA0D5 PUSH1 0xE3 SHL DUP2 MSTORE PUSH1 0x4 DUP2 ADD DUP5 SWAP1 MSTORE PUSH1 0x24 SWAP1 REVERT JUMPDEST POP PUSH1 0xFF DUP2 PUSH1 0x38 SHR AND PUSH2 0x194 JUMP JUMPDEST POP PUSH1 0xFF DUP2 PUSH1 0x30 SHR AND PUSH2 0x18D JUMP JUMPDEST PUSH1 0x40 MLOAD PUSH4 0x22AAA27F PUSH1 0xE2 SHL DUP2 MSTORE PUSH1 0x4 DUP2 ADD DUP4 SWAP1 MSTORE PUSH1 0x24 SWAP1 REVERT JUMPDEST CALLVALUE PUSH2 0x13A JUMPI PUSH1 0x20 DUP1 PUSH1 0x3 NOT CALLDATASIZE ADD SLT PUSH2 0x13A JUMPI PUSH1 0x4 CALLDATALOAD SWAP1 PUSH4 0xFFFFFFFF DUP3 AND DUP1 SWAP3 SUB PUSH2 0x13A JUMPI PUSH1 0x0 DUP1 MSTORE PUSH1 0x0 DUP2 MSTORE PUSH1 0x40 PUSH1 0x0 KECCAK256 CALLER PUSH1 0x0 MSTORE DUP2 MSTORE PUSH1 0xFF PUSH1 0x40 PUSH1 0x0 KECCAK256 SLOAD AND ISZERO PUSH2 0x288 JUMPI POP PUSH4 0xFFFFFFFF NOT PUSH1 0x3 SLOAD AND OR PUSH1 0x3 SSTORE PUSH1 0x0 DUP1 RETURN JUMPDEST PUSH2 0x291 CALLER PUSH2 0x255F JUMP JUMPDEST SWAP1 PUSH1 0x0 PUSH1 0x40 MLOAD PUSH2 0x2A0 DUP2 PUSH2 0x1F8F JUMP JUMPDEST PUSH1 0x42 DUP2 MSTORE DUP3 DUP2 ADD SWAP2 PUSH1 0x60 CALLDATASIZE DUP5 CALLDATACOPY DUP2 MLOAD ISZERO PUSH2 0x408 JUMPI PUSH1 0x30 DUP4 MSTORE8 DUP2 MLOAD PUSH1 0x1 SWAP1 PUSH1 0x1 LT ISZERO PUSH2 0x408 JUMPI PUSH1 0x78 PUSH1 0x21 DUP5 ADD MSTORE8 PUSH1 0x41 SWAP1 JUMPDEST DUP1 DUP3 GT PUSH2 0x3AE JUMPI POP POP PUSH2 0x37D JUMPI PUSH2 0x349 SWAP4 PUSH2 0x358 SWAP3 PUSH1 0x48 SWAP3 PUSH1 0x40 MLOAD SWAP7 DUP8 SWAP4 PUSH23 0x20B1B1B2B9B9A1B7B73A3937B61D1030B1B1B7BAB73A1 PUSH1 0x4D SHL DUP9 DUP7 ADD MSTORE PUSH2 0x320 DUP2 MLOAD DUP1 SWAP3 DUP11 PUSH1 0x37 DUP10 ADD SWAP2 ADD PUSH2 0x1EE5 JUMP JUMPDEST DUP5 ADD SWAP2 PUSH17 0x1034B99036B4B9B9B4B733903937B6329 PUSH1 0x7D SHL PUSH1 0x37 DUP5 ADD MSTORE MLOAD DUP1 SWAP4 DUP7 DUP5 ADD SWAP1 PUSH2 0x1EE5 JUMP JUMPDEST ADD SUB PUSH1 0x28 DUP2 ADD DUP6 MSTORE ADD DUP4 PUSH2 0x1FAA JUMP JUMPDEST PUSH2 0x379 PUSH1 0x40 MLOAD SWAP3 DUP4 SWAP3 PUSH3 0x461BCD PUSH1 0xE5 SHL DUP5 MSTORE PUSH1 0x4 DUP5 ADD MSTORE PUSH1 0x24 DUP4 ADD SWAP1 PUSH2 0x1F08 JUMP JUMPDEST SUB SWAP1 REVERT JUMPDEST PUSH1 0x64 DUP4 PUSH1 0x40 MLOAD SWAP1 PUSH3 0x461BCD PUSH1 0xE5 SHL DUP3 MSTORE DUP1 PUSH1 0x4 DUP4 ADD MSTORE PUSH1 0x24 DUP3 ADD MSTORE PUSH1 0x0 DUP1 MLOAD PUSH1 0x20 PUSH2 0x26F6 DUP4 CODECOPY DUP2 MLOAD SWAP2 MSTORE PUSH1 0x44 DUP3 ADD MSTORE REVERT JUMPDEST SWAP1 SWAP2 PUSH1 0xF DUP2 AND PUSH1 0x10 DUP2 LT ISZERO PUSH2 0x408 JUMPI PUSH16 0x181899199A1A9B1B9C1CB0B131B232B3 PUSH1 0x81 SHL SWAP1 BYTE PUSH2 0x3DD DUP5 DUP7 PUSH2 0x254E JUMP JUMPDEST MSTORE8 PUSH1 0x4 SHR SWAP2 DUP1 ISZERO PUSH2 0x3F2 JUMPI PUSH1 0x0 NOT ADD SWAP1 PUSH2 0x2D0 JUMP JUMPDEST PUSH4 0x4E487B71 PUSH1 0xE0 SHL PUSH1 0x0 MSTORE PUSH1 0x11 PUSH1 0x4 MSTORE PUSH1 0x24 PUSH1 0x0 REVERT JUMPDEST PUSH4 0x4E487B71 PUSH1 0xE0 SHL PUSH1 0x0 MSTORE PUSH1 0x32 PUSH1 0x4 MSTORE PUSH1 0x24 PUSH1 0x0 REVERT JUMPDEST CALLVALUE PUSH2 0x13A JUMPI PUSH1 0x20 CALLDATASIZE PUSH1 0x3 NOT ADD SLT PUSH2 0x13A JUMPI PUSH1 0x0 PUSH2 0x280 PUSH1 0x40 MLOAD PUSH2 0x440 DUP2 PUSH2 0x1F73 JUMP JUMPDEST DUP3 DUP2 MSTORE DUP3 PUSH1 0x20 DUP3 ADD MSTORE DUP3 PUSH1 0x40 DUP3 ADD MSTORE DUP3 PUSH1 0x60 DUP3 ADD MSTORE DUP3 PUSH1 0x80 DUP3 ADD MSTORE DUP3 PUSH1 0xA0 DUP3 ADD MSTORE DUP3 PUSH1 0xC0 DUP3 ADD MSTORE DUP3 PUSH1 0xE0 DUP3 ADD MSTORE PUSH1 0x60 PUSH2 0x100 DUP3 ADD MSTORE DUP3 PUSH2 0x120 DUP3 ADD MSTORE DUP3 PUSH2 0x140 DUP3 ADD MSTORE DUP3 PUSH2 0x160 DUP3 ADD MSTORE DUP3 PUSH2 0x180 DUP3 ADD MSTORE DUP3 PUSH2 0x1A0 DUP3 ADD MSTORE DUP3 PUSH2 0x1C0 DUP3 ADD MSTORE DUP3 PUSH2 0x1E0 DUP3 ADD MSTORE DUP3 PUSH2 0x200 DUP3 ADD MSTORE DUP3 PUSH2 0x220 DUP3 ADD MSTORE DUP3 PUSH2 0x240 DUP3 ADD MSTORE DUP3 PUSH2 0x260 DUP3 ADD MSTORE ADD MSTORE PUSH1 0x4 CALLDATALOAD PUSH1 0x0 MSTORE PUSH1 0x4 PUSH1 0x20 MSTORE PUSH1 0x40 PUSH1 0x0 KECCAK256 PUSH1 0x40 MLOAD SWAP1 PUSH2 0x4E1 DUP3 PUSH2 0x1F73 JUMP JUMPDEST PUSH1 0x1 DUP1 PUSH1 0xA0 SHL SUB DUP2 SLOAD AND DUP3 MSTORE PUSH1 0x1 DUP2 ADD SLOAD PUSH1 0x20 DUP4 ADD MSTORE PUSH1 0x2 DUP2 ADD SLOAD PUSH1 0x40 DUP4 ADD MSTORE PUSH1 0x3 DUP2 ADD SLOAD PUSH1 0x60 DUP4 ADD MSTORE PUSH2 0xFFFF PUSH1 0x4 DUP3 ADD SLOAD PUSH1 0x1 PUSH1 0x1 PUSH1 0x40 SHL SUB DUP2 AND PUSH1 0x80 DUP6 ADD MSTORE PUSH2 0x535 PUSH1 0xFF DUP3 PUSH1 0x40 SHR AND PUSH1 0xA0 DUP7 ADD PUSH2 0x1F2D JUMP JUMPDEST PUSH1 0x48 SHR AND PUSH1 0xC0 DUP4 ADD MSTORE PUSH1 0x5 DUP2 ADD SLOAD PUSH1 0xE0 DUP4 ADD MSTORE PUSH1 0x40 MLOAD PUSH1 0x0 PUSH1 0x6 DUP4 ADD SLOAD PUSH2 0x55B DUP2 PUSH2 0x1F39 JUMP JUMPDEST DUP1 DUP5 MSTORE SWAP1 PUSH1 0x1 DUP2 AND SWAP1 DUP2 ISZERO PUSH2 0x803 JUMPI POP PUSH1 0x1 EQ PUSH2 0x7C2 JUMPI JUMPDEST POP SWAP2 DUP2 PUSH2 0x58C PUSH1 0xB SWAP4 PUSH1 0x1 PUSH1 0x1 PUSH1 0x40 SHL SUB SWAP6 SUB DUP3 PUSH2 0x1FAA JUMP JUMPDEST PUSH2 0x100 DUP6 ADD MSTORE PUSH1 0x7 DUP2 ADD SLOAD PUSH2 0x120 DUP6 ADD MSTORE PUSH1 0x8 DUP2 ADD SLOAD PUSH1 0xFF DUP2 AND ISZERO ISZERO PUSH2 0x140 DUP7 ADD MSTORE PUSH4 0xFFFFFFFF DUP2 PUSH1 0x8 SHR AND PUSH2 0x160 DUP7 ADD MSTORE PUSH1 0xFF DUP2 PUSH1 0x28 SHR AND ISZERO ISZERO PUSH2 0x180 DUP7 ADD MSTORE PUSH1 0xFF DUP2 PUSH1 0x30 SHR AND ISZERO ISZERO PUSH2 0x1A0 DUP7 ADD MSTORE PUSH1 0xFF DUP2 PUSH1 0x38 SHR AND ISZERO ISZERO PUSH2 0x1C0 DUP7 ADD MSTORE PUSH1 0xFF DUP2 PUSH1 0x40 SHR AND ISZERO ISZERO PUSH2 0x1E0 DUP7 ADD MSTORE PUSH1 0x1 DUP1 PUSH1 0xA0 SHL SUB SWAP1 PUSH1 0x48 SHR AND PUSH2 0x200 DUP6 ADD MSTORE PUSH1 0x9 DUP2 ADD SLOAD PUSH2 0x220 DUP6 ADD MSTORE PUSH1 0xA DUP2 ADD SLOAD PUSH2 0x240 DUP6 ADD MSTORE ADD SLOAD PUSH2 0xFFFF DUP2 AND PUSH2 0x260 DUP5 ADD MSTORE PUSH1 0x10 SHR AND PUSH2 0x280 DUP3 ADD MSTORE PUSH1 0x1 DUP1 PUSH1 0xA0 SHL SUB DUP2 MLOAD AND ISZERO PUSH2 0x7A9 JUMPI PUSH1 0x40 MLOAD SWAP1 PUSH1 0x20 DUP3 MSTORE PUSH1 0x1 DUP1 PUSH1 0xA0 SHL SUB DUP2 MLOAD AND PUSH1 0x20 DUP4 ADD MSTORE PUSH1 0x20 DUP2 ADD MLOAD PUSH1 0x40 DUP4 ADD MSTORE PUSH1 0x40 DUP2 ADD MLOAD PUSH1 0x60 DUP4 ADD MSTORE PUSH1 0x60 DUP2 ADD MLOAD PUSH1 0x80 DUP4 ADD MSTORE PUSH1 0x1 PUSH1 0x1 PUSH1 0x40 SHL SUB PUSH1 0x80 DUP3 ADD MLOAD AND PUSH1 0xA0 DUP4 ADD MSTORE PUSH1 0xA0 DUP2 ADD MLOAD SWAP1 PUSH1 0x2 DUP3 LT ISZERO PUSH2 0x793 JUMPI DUP3 SWAP2 PUSH1 0xC0 DUP4 ADD MSTORE PUSH2 0xFFFF PUSH1 0xC0 DUP3 ADD MLOAD AND PUSH1 0xE0 DUP4 ADD MSTORE PUSH1 0xE0 DUP2 ADD MLOAD PUSH2 0x100 DUP4 ADD MSTORE PUSH1 0x1 PUSH1 0x1 PUSH1 0x40 SHL SUB PUSH2 0x280 PUSH2 0x6E7 PUSH2 0x100 DUP5 ADD MLOAD PUSH2 0x2A0 PUSH2 0x120 DUP8 ADD MSTORE PUSH2 0x2C0 DUP7 ADD SWAP1 PUSH2 0x1F08 JUMP JUMPDEST SWAP3 PUSH2 0x120 DUP2 ADD MLOAD PUSH2 0x140 DUP7 ADD MSTORE PUSH2 0x140 DUP2 ADD MLOAD ISZERO ISZERO PUSH2 0x160 DUP7 ADD MSTORE PUSH4 0xFFFFFFFF PUSH2 0x160 DUP3 ADD MLOAD AND PUSH2 0x180 DUP7 ADD MSTORE PUSH2 0x180 DUP2 ADD MLOAD ISZERO ISZERO PUSH2 0x1A0 DUP7 ADD MSTORE PUSH2 0x1A0 DUP2 ADD MLOAD ISZERO ISZERO PUSH2 0x1C0 DUP7 ADD MSTORE PUSH2 0x1C0 DUP2 ADD MLOAD ISZERO ISZERO PUSH2 0x1E0 DUP7 ADD MSTORE PUSH2 0x1E0 DUP2 ADD MLOAD ISZERO ISZERO PUSH2 0x200 DUP7 ADD MSTORE PUSH1 0x1 DUP1 PUSH1 0xA0 SHL SUB PUSH2 0x200 DUP3 ADD MLOAD AND PUSH2 0x220 DUP7 ADD MSTORE PUSH2 0x220 DUP2 ADD MLOAD PUSH2 0x240 DUP7 ADD MSTORE PUSH2 0x240 DUP2 ADD MLOAD PUSH2 0x260 DUP7 ADD MSTORE PUSH2 0xFFFF PUSH2 0x260 DUP3 ADD MLOAD AND DUP3 DUP7 ADD MSTORE ADD MLOAD AND PUSH2 0x2A0 DUP4 ADD MSTORE SUB SWAP1 RETURN JUMPDEST PUSH4 0x4E487B71 PUSH1 0xE0 SHL PUSH1 0x0 MSTORE PUSH1 0x21 PUSH1 0x4 MSTORE PUSH1 0x24 PUSH1 0x0 REVERT JUMPDEST PUSH1 0x24 PUSH1 0x40 MLOAD PUSH4 0x22AAA27F PUSH1 0xE2 SHL DUP2 MSTORE PUSH1 0x4 CALLDATALOAD PUSH1 0x4 DUP3 ADD MSTORE REVERT JUMPDEST SWAP1 POP PUSH1 0x6 DUP4 ADD PUSH1 0x0 MSTORE PUSH1 0x20 PUSH1 0x0 KECCAK256 SWAP1 PUSH1 0x0 SWAP2 JUMPDEST DUP2 DUP4 LT PUSH2 0x7E9 JUMPI POP POP DUP2 ADD PUSH1 0x20 ADD DUP2 PUSH2 0x573 JUMP JUMPDEST PUSH1 0x1 DUP2 PUSH1 0x20 SWAP3 SWAP5 SWAP4 SWAP5 SLOAD DUP4 DUP6 DUP9 ADD ADD MSTORE ADD SWAP2 ADD SWAP2 SWAP1 PUSH2 0x7D5 JUMP JUMPDEST PUSH1 0xFF NOT AND PUSH1 0x20 DUP1 DUP7 ADD SWAP2 SWAP1 SWAP2 MSTORE SWAP2 ISZERO ISZERO PUSH1 0x5 SHL DUP5 ADD SWAP1 SWAP2 ADD SWAP2 POP DUP3 SWAP1 POP PUSH2 0x573 JUMP JUMPDEST CALLVALUE PUSH2 0x13A JUMPI PUSH1 0x40 CALLDATASIZE PUSH1 0x3 NOT ADD SLT PUSH2 0x13A JUMPI PUSH2 0x864 PUSH1 0x4 CALLDATALOAD PUSH2 0x844 PUSH2 0x1ECF JUMP JUMPDEST SWAP1 DUP1 PUSH1 0x0 MSTORE PUSH1 0x0 PUSH1 0x20 MSTORE PUSH2 0x85F PUSH1 0x1 PUSH1 0x40 PUSH1 0x0 KECCAK256 ADD SLOAD PUSH2 0x224A JUMP JUMPDEST PUSH2 0x2355 JUMP JUMPDEST STOP JUMPDEST CALLVALUE PUSH2 0x13A JUMPI PUSH1 0x0 CALLDATASIZE PUSH1 0x3 NOT ADD SLT PUSH2 0x13A JUMPI PUSH1 0x20 PUSH1 0x40 MLOAD PUSH32 0xEA61DA3A8A09AD801432653699F8C1860B1AE9D2EA4A141FADFD63227717BC8 DUP2 MSTORE RETURN JUMPDEST CALLVALUE PUSH2 0x13A JUMPI PUSH1 0x40 CALLDATASIZE PUSH1 0x3 NOT ADD SLT PUSH2 0x13A JUMPI PUSH1 0x4 CALLDATALOAD PUSH2 0x8BD PUSH2 0x1ECF JUMP JUMPDEST SWAP1 PUSH2 0x8C6 PUSH2 0x206D JUMP JUMPDEST PUSH1 0x0 DUP2 DUP2 MSTORE PUSH1 0x4 PUSH1 0x20 MSTORE PUSH1 0x40 SWAP1 KECCAK256 DUP1 SLOAD PUSH1 0x1 PUSH1 0x1 PUSH1 0xA0 SHL SUB SWAP1 DUP2 AND ISZERO PUSH2 0x968 JUMPI PUSH1 0x8 DUP3 ADD SLOAD SWAP1 PUSH1 0xFF DUP3 PUSH1 0x40 SHR AND ISZERO DUP1 ISZERO PUSH2 0x95C JUMPI JUMPDEST PUSH2 0x94A JUMPI DUP5 PUSH2 0x93F PUSH1 0x20 SWAP4 PUSH1 0x0 SWAP8 DUP5 PUSH1 0x9 PUSH32 0x348DA1C7CA8804FF7B3CBFF37A613A1549362D62EE8C309AF7A61CA40ADB4DAE SWAP9 ADD SWAP3 DUP4 SLOAD SWAP11 DUP12 SWAP5 SSTORE PUSH1 0x48 SHR AND PUSH2 0x23C9 JUMP JUMPDEST PUSH1 0x40 MLOAD SWAP6 DUP7 MSTORE AND SWAP4 LOG3 STOP JUMPDEST PUSH1 0x40 MLOAD PUSH4 0x68F7A675 PUSH1 0xE1 SHL DUP2 MSTORE PUSH1 0x4 SWAP1 REVERT JUMPDEST POP PUSH1 0x9 DUP4 ADD SLOAD ISZERO PUSH2 0x8FB JUMP JUMPDEST PUSH1 0x40 MLOAD PUSH4 0x22AAA27F PUSH1 0xE2 SHL DUP2 MSTORE PUSH1 0x4 DUP2 ADD DUP5 SWAP1 MSTORE PUSH1 0x24 SWAP1 REVERT JUMPDEST CALLVALUE PUSH2 0x13A JUMPI PUSH1 0x0 CALLDATASIZE PUSH1 0x3 NOT ADD SLT PUSH2 0x13A JUMPI PUSH1 0x40 MLOAD DUP1 PUSH1 0x5 SLOAD DUP1 DUP4 MSTORE PUSH1 0x20 DUP1 SWAP4 ADD DUP1 SWAP2 PUSH1 0x5 PUSH1 0x0 MSTORE PUSH32 0x36B6384B5ECA791C62761152D0C79BB0604C104A5FB6F4EB0703F3154BB3DB0 SWAP1 PUSH1 0x0 JUMPDEST DUP7 DUP3 DUP3 LT PUSH2 0xA23 JUMPI DUP7 DUP7 PUSH2 0x9E3 DUP3 DUP9 SUB DUP4 PUSH2 0x1FAA JUMP JUMPDEST PUSH1 0x40 MLOAD SWAP3 DUP4 SWAP3 DUP2 DUP5 ADD SWAP1 DUP3 DUP6 MSTORE MLOAD DUP1 SWAP2 MSTORE PUSH1 0x40 DUP5 ADD SWAP3 SWAP2 PUSH1 0x0 JUMPDEST DUP3 DUP2 LT PUSH2 0xA0C JUMPI POP POP POP POP SUB SWAP1 RETURN JUMPDEST DUP4 MLOAD DUP6 MSTORE DUP7 SWAP6 POP SWAP4 DUP2 ADD SWAP4 SWAP3 DUP2 ADD SWAP3 PUSH1 0x1 ADD PUSH2 0x9FD JUMP JUMPDEST DUP4 SLOAD DUP6 MSTORE SWAP1 SWAP4 ADD SWAP3 PUSH1 0x1 SWAP3 DUP4 ADD SWAP3 ADD PUSH2 0x9CD JUMP JUMPDEST CALLVALUE PUSH2 0x13A JUMPI PUSH1 0x0 CALLDATASIZE PUSH1 0x3 NOT ADD SLT PUSH2 0x13A JUMPI PUSH1 0x20 PUSH1 0x40 MLOAD PUSH1 0x0 DUP2 MSTORE RETURN JUMPDEST CALLVALUE PUSH2 0x13A JUMPI PUSH1 0x40 CALLDATASIZE PUSH1 0x3 NOT ADD SLT PUSH2 0x13A JUMPI PUSH2 0xA6C PUSH2 0x1ECF JUMP JUMPDEST PUSH1 0x4 CALLDATALOAD PUSH1 0x0 MSTORE PUSH1 0x0 PUSH1 0x20 MSTORE PUSH1 0x40 PUSH1 0x0 KECCAK256 SWAP1 PUSH1 0x1 DUP1 PUSH1 0xA0 SHL SUB AND PUSH1 0x0 MSTORE PUSH1 0x20 MSTORE PUSH1 0x20 PUSH1 0xFF PUSH1 0x40 PUSH1 0x0 KECCAK256 SLOAD AND PUSH1 0x40 MLOAD SWAP1 ISZERO ISZERO DUP2 MSTORE RETURN JUMPDEST CALLVALUE PUSH2 0x13A JUMPI PUSH1 0x0 CALLDATASIZE PUSH1 0x3 NOT ADD SLT PUSH2 0x13A JUMPI PUSH1 0x40 MLOAD PUSH32 0x0 PUSH1 0x1 PUSH1 0x1 PUSH1 0xA0 SHL SUB AND DUP2 MSTORE PUSH1 0x20 SWAP1 RETURN JUMPDEST CALLVALUE PUSH2 0x13A JUMPI PUSH1 0x3 NOT PUSH1 0x20 CALLDATASIZE DUP3 ADD SLT PUSH2 0x13A JUMPI PUSH1 0x1 PUSH1 0x1 PUSH1 0x40 SHL SUB PUSH1 0x4 CALLDATALOAD GT PUSH2 0x13A JUMPI PUSH2 0x200 SWAP1 PUSH1 0x4 CALLDATALOAD CALLDATASIZE SUB ADD SLT PUSH2 0x13A JUMPI PUSH1 0x2 PUSH1 0x1 SLOAD EQ PUSH2 0x1506 JUMPI PUSH1 0x2 PUSH1 0x1 SSTORE PUSH1 0x4 CALLDATALOAD PUSH1 0x4 ADD CALLDATALOAD ISZERO DUP1 DUP1 ISZERO PUSH2 0x14F1 JUMPI JUMPDEST DUP1 ISZERO PUSH2 0x14D0 JUMPI JUMPDEST DUP1 ISZERO PUSH2 0x14C2 JUMPI JUMPDEST PUSH2 0x1495 JUMPI PUSH1 0x2 PUSH1 0x64 PUSH1 0x4 CALLDATALOAD ADD CALLDATALOAD LT ISZERO PUSH2 0x13A JUMPI PUSH1 0x1 PUSH1 0x64 PUSH1 0x4 CALLDATALOAD ADD CALLDATALOAD EQ DUP1 PUSH2 0x14A7 JUMPI JUMPDEST PUSH2 0x1495 JUMPI PUSH1 0x40 MLOAD PUSH4 0xD47875D PUSH1 0xE4 SHL DUP2 MSTORE CALLER PUSH1 0x4 DUP3 ADD MSTORE SWAP1 PUSH1 0x20 DUP3 PUSH1 0x24 DUP2 PUSH32 0x0 PUSH1 0x1 PUSH1 0x1 PUSH1 0xA0 SHL SUB AND GAS STATICCALL SWAP2 DUP3 ISZERO PUSH2 0x11EA JUMPI PUSH1 0x0 SWAP3 PUSH2 0x1461 JUMPI JUMPDEST POP PUSH4 0xFFFFFFFF DUP1 PUSH1 0x3 SLOAD AND PUSH2 0x124 PUSH1 0x4 CALLDATALOAD ADD DUP3 PUSH2 0xBDB DUP3 PUSH2 0x1FEE JUMP JUMPDEST AND DUP3 GT ISZERO PUSH2 0x1451 JUMPI POP SWAP3 JUMPDEST DUP2 DUP5 AND DUP2 LT PUSH2 0x1432 JUMPI POP PUSH2 0xBFF PUSH2 0x144 PUSH1 0x4 CALLDATALOAD ADD PUSH2 0x1FFF JUMP JUMPDEST PUSH2 0x12E0 JUMPI JUMPDEST PUSH1 0x2 DUP1 SLOAD PUSH1 0x1 DUP2 ADD SWAP1 SWAP2 SSTORE SWAP2 PUSH1 0x4 DUP1 CALLDATALOAD PUSH1 0x24 DUP2 ADD CALLDATALOAD SWAP2 ADD CALLDATALOAD DUP2 SUB GT PUSH2 0x3F2 JUMPI PUSH2 0x2710 SWAP1 PUSH1 0x24 PUSH1 0x4 DUP1 CALLDATALOAD SWAP2 DUP3 ADD CALLDATALOAD SWAP2 ADD CALLDATALOAD DUP2 DUP2 EQ SWAP2 SUB DUP1 DUP5 MUL DIV DUP4 EQ OR ISZERO PUSH2 0x3F2 JUMPI PUSH2 0x12CA JUMPI PUSH2 0xC57 PUSH1 0x44 PUSH1 0x4 CALLDATALOAD ADD PUSH2 0x1FCB JUMP JUMPDEST PUSH2 0xC65 PUSH1 0x84 PUSH1 0x4 CALLDATALOAD ADD PUSH2 0x1FDF JUMP JUMPDEST SWAP1 PUSH2 0xC7A PUSH1 0xC4 PUSH1 0x4 CALLDATALOAD ADD PUSH1 0x4 CALLDATALOAD PUSH1 0x4 ADD PUSH2 0x2020 JUMP JUMPDEST PUSH2 0xC8C PUSH2 0x104 PUSH1 0x4 SWAP6 SWAP4 SWAP6 CALLDATALOAD ADD PUSH2 0x1FFF JUMP JUMPDEST PUSH2 0xC9B PUSH2 0x144 PUSH1 0x4 CALLDATALOAD ADD PUSH2 0x1FFF JUMP JUMPDEST SWAP2 PUSH2 0xFFFF PUSH2 0xCAE PUSH2 0x164 PUSH1 0x4 CALLDATALOAD ADD PUSH2 0x200C JUMP JUMPDEST SWAP5 PUSH1 0x1 PUSH1 0x1 PUSH1 0x40 SHL SUB PUSH2 0xCC6 PUSH2 0x1C4 PUSH1 0x4 CALLDATALOAD ADD PUSH2 0x1FDF JUMP JUMPDEST SWAP8 PUSH1 0x40 MLOAD SWAP11 PUSH2 0xCD4 DUP13 PUSH2 0x1F73 JUMP JUMPDEST CALLER DUP13 MSTORE PUSH1 0x4 DUP1 CALLDATALOAD SWAP1 DUP2 ADD CALLDATALOAD PUSH1 0x20 DUP15 ADD DUP2 SWAP1 MSTORE PUSH1 0x24 DUP3 ADD CALLDATALOAD PUSH1 0x40 DUP16 ADD DUP2 SWAP1 MSTORE DUP2 SWAP1 SUB SWAP1 SWAP3 MUL SWAP2 SWAP1 SWAP2 DIV PUSH1 0x60 DUP14 ADD MSTORE SWAP2 AND PUSH1 0x80 DUP12 ADD MSTORE PUSH2 0xD19 SWAP1 PUSH1 0x64 ADD CALLDATALOAD PUSH1 0xA0 DUP12 ADD PUSH2 0x1F2D JUMP JUMPDEST AND PUSH1 0xC0 DUP9 ADD MSTORE PUSH1 0xA4 PUSH1 0x4 CALLDATALOAD ADD CALLDATALOAD PUSH1 0xE0 DUP9 ADD MSTORE PUSH2 0xD34 DUP2 PUSH2 0x2052 JUMP JUMPDEST SWAP1 PUSH2 0xD42 PUSH1 0x40 MLOAD SWAP3 DUP4 PUSH2 0x1FAA JUMP JUMPDEST DUP1 DUP3 MSTORE CALLDATASIZE DUP2 DUP9 ADD GT PUSH2 0x13A JUMPI PUSH1 0x20 DUP2 PUSH1 0x0 SWAP3 PUSH2 0xFFFF SWAP10 DUP4 DUP7 ADD CALLDATACOPY DUP4 ADD ADD MSTORE PUSH2 0x100 DUP8 ADD MSTORE PUSH1 0xE4 PUSH1 0x4 CALLDATALOAD ADD CALLDATALOAD PUSH2 0x120 DUP8 ADD MSTORE ISZERO ISZERO PUSH2 0x140 DUP7 ADD MSTORE DUP6 DUP9 AND PUSH2 0x160 DUP7 ADD MSTORE PUSH1 0x0 PUSH2 0x180 DUP7 ADD MSTORE PUSH1 0x0 PUSH2 0x1A0 DUP7 ADD MSTORE PUSH1 0x0 PUSH2 0x1C0 DUP7 ADD MSTORE ISZERO ISZERO PUSH2 0x1E0 DUP6 ADD MSTORE PUSH1 0x1 DUP1 PUSH1 0xA0 SHL SUB AND PUSH2 0x200 DUP5 ADD MSTORE PUSH2 0x184 PUSH1 0x4 CALLDATALOAD ADD CALLDATALOAD PUSH2 0x220 DUP5 ADD MSTORE PUSH2 0x1A4 PUSH1 0x4 CALLDATALOAD ADD CALLDATALOAD PUSH2 0x240 DUP5 ADD MSTORE AND PUSH2 0x260 DUP3 ADD MSTORE PUSH1 0x0 PUSH2 0x280 DUP3 ADD MSTORE DUP3 PUSH1 0x0 MSTORE PUSH1 0x4 PUSH1 0x20 MSTORE PUSH1 0x40 PUSH1 0x0 KECCAK256 PUSH1 0x1 DUP1 PUSH1 0xA0 SHL SUB DUP3 MLOAD AND PUSH12 0xFFFFFFFFFFFFFFFFFFFFFFFF PUSH1 0xA0 SHL DUP3 SLOAD AND OR DUP2 SSTORE PUSH1 0x20 DUP3 ADD MLOAD PUSH1 0x1 DUP3 ADD SSTORE PUSH1 0x40 DUP3 ADD MLOAD PUSH1 0x2 DUP3 ADD SSTORE PUSH1 0x60 DUP3 ADD MLOAD PUSH1 0x3 DUP3 ADD SSTORE PUSH1 0x1 PUSH1 0x1 PUSH1 0x40 SHL SUB PUSH1 0x80 DUP4 ADD MLOAD AND PUSH1 0x4 DUP3 ADD SLOAD SWAP1 PUSH1 0xA0 DUP5 ADD MLOAD SWAP1 PUSH1 0x2 DUP3 LT ISZERO PUSH2 0x793 JUMPI PUSH1 0xFF PUSH1 0x40 SHL SWAP1 PUSH11 0xFFFF000000000000000000 PUSH1 0xC0 DUP8 ADD MLOAD PUSH1 0x48 SHL AND SWAP4 PUSH11 0xFFFFFFFFFFFFFFFFFFFFFF NOT AND OR SWAP2 PUSH1 0x40 SHL AND OR OR PUSH1 0x4 DUP3 ADD SSTORE PUSH1 0xE0 DUP3 ADD MLOAD PUSH1 0x5 DUP3 ADD SSTORE PUSH2 0x100 DUP3 ADD MLOAD DUP1 MLOAD SWAP1 PUSH1 0x1 PUSH1 0x1 PUSH1 0x40 SHL SUB DUP3 GT PUSH2 0x11D4 JUMPI PUSH2 0xEB1 PUSH1 0x6 DUP5 ADD SLOAD PUSH2 0x1F39 JUMP JUMPDEST PUSH1 0x1F DUP2 GT PUSH2 0x1283 JUMPI JUMPDEST POP PUSH1 0x20 SWAP1 PUSH1 0x1F DUP4 GT PUSH1 0x1 EQ PUSH2 0x1201 JUMPI PUSH2 0xFFA SWAP5 SWAP4 DUP4 PUSH1 0x1 PUSH1 0x1 PUSH1 0x40 SHL SUB SWAP5 PUSH2 0x280 SWAP5 PUSH1 0xB SWAP5 PUSH1 0x0 SWAP3 PUSH2 0x11F6 JUMPI JUMPDEST POP POP DUP2 PUSH1 0x1 SHL SWAP2 PUSH1 0x0 NOT SWAP1 PUSH1 0x3 SHL SHR NOT AND OR PUSH1 0x6 DUP3 ADD SSTORE JUMPDEST PUSH2 0x120 DUP6 ADD MLOAD PUSH1 0x7 DUP3 ADD SSTORE PUSH1 0x8 DUP2 ADD PUSH2 0x140 DUP7 ADD MLOAD ISZERO ISZERO DUP2 SLOAD PUSH5 0xFFFFFFFF00 PUSH2 0x160 DUP10 ADD MLOAD PUSH1 0x8 SHL AND PUSH6 0xFF0000000000 PUSH2 0x180 DUP11 ADD MLOAD ISZERO ISZERO PUSH1 0x28 SHL AND PUSH7 0xFF000000000000 PUSH2 0x1A0 DUP12 ADD MLOAD ISZERO ISZERO PUSH1 0x30 SHL AND SWAP1 PUSH1 0xFF PUSH1 0x38 SHL PUSH2 0x1C0 DUP13 ADD MLOAD ISZERO ISZERO PUSH1 0x38 SHL AND SWAP3 PUSH1 0xFF PUSH1 0x40 SHL PUSH2 0x1E0 DUP14 ADD MLOAD ISZERO ISZERO PUSH1 0x40 SHL AND SWAP5 PUSH1 0xFF DUP14 PUSH2 0x200 PUSH10 0x1000000000000000000 PUSH1 0x1 PUSH1 0xE8 SHL SUB SWAP2 ADD MLOAD PUSH1 0x48 SHL AND SWAP8 AND SWAP1 PUSH3 0xFFFFFF PUSH1 0xE8 SHL AND OR OR OR OR OR OR OR SWAP1 SSTORE PUSH2 0x220 DUP6 ADD MLOAD PUSH1 0x9 DUP3 ADD SSTORE PUSH2 0x240 DUP6 ADD MLOAD PUSH1 0xA DUP3 ADD SSTORE ADD SWAP3 PUSH2 0xFFFF PUSH2 0x260 DUP3 ADD MLOAD AND PUSH2 0xFFFF NOT DUP6 SLOAD AND OR DUP5 SSTORE ADD MLOAD AND PUSH10 0xFFFFFFFFFFFFFFFF0000 DUP3 SLOAD SWAP2 PUSH1 0x10 SHL AND SWAP1 PUSH10 0xFFFFFFFFFFFFFFFF0000 NOT AND OR SWAP1 SSTORE JUMP JUMPDEST PUSH1 0x5 SLOAD PUSH9 0x10000000000000000 DUP2 LT ISZERO PUSH2 0x11D4 JUMPI PUSH1 0x1 DUP2 ADD DUP1 PUSH1 0x5 SSTORE DUP2 LT ISZERO PUSH2 0x408 JUMPI DUP3 SWAP1 PUSH1 0x5 PUSH1 0x0 MSTORE PUSH32 0x36B6384B5ECA791C62761152D0C79BB0604C104A5FB6F4EB0703F3154BB3DB0 ADD SSTORE PUSH2 0x105C PUSH2 0x1E4 PUSH1 0x4 CALLDATALOAD ADD PUSH1 0x4 CALLDATALOAD PUSH1 0x4 ADD PUSH2 0x2020 JUMP JUMPDEST SWAP4 SWAP1 PUSH32 0x0 PUSH1 0x1 PUSH1 0x1 PUSH1 0xA0 SHL SUB AND EXTCODESIZE ISZERO PUSH2 0x13A JUMPI DUP5 PUSH1 0x84 PUSH1 0x0 SWAP3 PUSH1 0x40 MLOAD SWAP8 DUP9 SWAP4 DUP5 SWAP3 PUSH4 0x915A1E7 PUSH1 0xE2 SHL DUP5 MSTORE CALLER PUSH1 0x4 DUP6 ADD MSTORE DUP10 PUSH1 0x24 DUP6 ADD MSTORE PUSH1 0x60 PUSH1 0x44 DUP6 ADD MSTORE DUP2 PUSH1 0x64 DUP6 ADD MSTORE DUP5 DUP5 ADD CALLDATACOPY DUP2 DUP2 ADD DUP4 ADD DUP6 SWAP1 MSTORE PUSH1 0x1F ADD PUSH1 0x1F NOT AND DUP2 ADD SUB ADD DUP2 DUP4 PUSH32 0x0 PUSH1 0x1 PUSH1 0x1 PUSH1 0xA0 SHL SUB AND GAS CALL DUP1 ISZERO PUSH2 0x11EA JUMPI PUSH2 0x11BB JUMPI JUMPDEST PUSH1 0x20 SWAP4 POP PUSH2 0x1121 PUSH1 0x44 PUSH1 0x4 CALLDATALOAD ADD PUSH2 0x1FCB JUMP JUMPDEST SWAP2 PUSH2 0x1131 PUSH2 0x144 PUSH1 0x4 CALLDATALOAD ADD PUSH2 0x1FFF JUMP JUMPDEST SWAP1 PUSH2 0x1141 PUSH2 0x104 PUSH1 0x4 CALLDATALOAD ADD PUSH2 0x1FFF JUMP JUMPDEST SWAP3 PUSH1 0x1 PUSH1 0x1 PUSH1 0x40 SHL SUB PUSH1 0x40 MLOAD SWAP6 PUSH1 0x4 CALLDATALOAD PUSH1 0x4 ADD CALLDATALOAD DUP8 MSTORE PUSH1 0x24 PUSH1 0x4 CALLDATALOAD ADD CALLDATALOAD DUP10 DUP9 ADD MSTORE AND PUSH1 0x40 DUP7 ADD MSTORE AND PUSH1 0x60 DUP5 ADD MSTORE ISZERO ISZERO PUSH1 0x80 DUP4 ADD MSTORE ISZERO ISZERO PUSH1 0xA0 DUP3 ADD MSTORE PUSH1 0xE4 PUSH1 0x4 CALLDATALOAD ADD CALLDATALOAD PUSH1 0xC0 DUP3 ADD MSTORE DUP2 PUSH32 0x650A9952D1CBB65CE7F0EAB9EED54091F0720C176A81B4565C9D143E5BFCEA2C PUSH1 0xE0 CALLER SWAP4 LOG3 PUSH1 0x1 DUP1 SSTORE PUSH1 0x40 MLOAD SWAP1 DUP2 MSTORE RETURN JUMPDEST PUSH1 0x1 PUSH1 0x1 PUSH1 0x40 SHL SUB DUP5 GT PUSH2 0x11D4 JUMPI PUSH1 0x20 SWAP4 PUSH1 0x40 MSTORE PUSH2 0x110F JUMP JUMPDEST PUSH4 0x4E487B71 PUSH1 0xE0 SHL PUSH1 0x0 MSTORE PUSH1 0x41 PUSH1 0x4 MSTORE PUSH1 0x24 PUSH1 0x0 REVERT JUMPDEST PUSH1 0x40 MLOAD RETURNDATASIZE PUSH1 0x0 DUP3 RETURNDATACOPY RETURNDATASIZE SWAP1 REVERT JUMPDEST ADD MLOAD SWAP1 POP DUP12 DUP1 PUSH2 0xEE7 JUMP JUMPDEST SWAP1 PUSH1 0x6 DUP5 ADD PUSH1 0x0 MSTORE PUSH1 0x20 PUSH1 0x0 KECCAK256 SWAP2 PUSH1 0x0 JUMPDEST PUSH1 0x1F NOT DUP6 AND DUP2 LT PUSH2 0x126B JUMPI POP SWAP4 PUSH1 0x1 DUP5 PUSH2 0x280 SWAP5 PUSH1 0xB SWAP5 PUSH2 0xFFA SWAP10 SWAP9 PUSH1 0x1 PUSH1 0x1 PUSH1 0x40 SHL SUB SWAP9 PUSH1 0x1F NOT DUP2 AND LT PUSH2 0x1252 JUMPI JUMPDEST POP POP POP DUP2 SHL ADD PUSH1 0x6 DUP3 ADD SSTORE PUSH2 0xEFF JUMP JUMPDEST ADD MLOAD PUSH1 0x0 NOT PUSH1 0xF8 DUP5 PUSH1 0x3 SHL AND SHR NOT AND SWAP1 SSTORE DUP12 DUP1 DUP1 PUSH2 0x1242 JUMP JUMPDEST SWAP2 SWAP3 PUSH1 0x20 PUSH1 0x1 DUP2 SWAP3 DUP7 DUP6 ADD MLOAD DUP2 SSTORE ADD SWAP5 ADD SWAP3 ADD PUSH2 0x1212 JUMP JUMPDEST PUSH1 0x6 DUP5 ADD PUSH1 0x0 MSTORE PUSH1 0x20 PUSH1 0x0 KECCAK256 PUSH1 0x1F DUP5 ADD PUSH1 0x5 SHR DUP2 ADD PUSH1 0x20 DUP6 LT PUSH2 0x12C3 JUMPI JUMPDEST PUSH1 0x1F DUP4 ADD PUSH1 0x5 SHR DUP3 ADD DUP2 LT PUSH2 0x12B7 JUMPI POP POP PUSH2 0xEBA JUMP JUMPDEST PUSH1 0x0 DUP2 SSTORE PUSH1 0x1 ADD PUSH2 0x12A1 JUMP JUMPDEST POP DUP1 PUSH2 0x12A1 JUMP JUMPDEST PUSH4 0x4E487B71 PUSH1 0xE0 SHL PUSH1 0x0 MSTORE PUSH1 0x12 PUSH1 0x4 MSTORE PUSH1 0x24 PUSH1 0x0 REVERT JUMPDEST PUSH1 0x1 PUSH1 0x1 PUSH1 0xA0 SHL SUB PUSH2 0x12F7 PUSH1 0x4 CALLDATALOAD PUSH2 0x164 ADD PUSH2 0x200C JUMP JUMPDEST AND ISZERO DUP1 ISZERO PUSH2 0x1423 JUMPI JUMPDEST DUP1 ISZERO PUSH2 0x1414 JUMPI JUMPDEST DUP1 ISZERO PUSH2 0x13FA JUMPI JUMPDEST DUP1 ISZERO PUSH2 0x13DD JUMPI JUMPDEST DUP1 ISZERO PUSH2 0x1392 JUMPI JUMPDEST PUSH2 0x94A JUMPI PUSH1 0x1 PUSH1 0x1 PUSH1 0xA0 SHL SUB PUSH2 0x1337 PUSH1 0x4 CALLDATALOAD PUSH2 0x164 ADD PUSH2 0x200C JUMP JUMPDEST AND PUSH1 0x40 MLOAD PUSH4 0x23B872DD PUSH1 0xE0 SHL PUSH1 0x20 DUP3 ADD MSTORE CALLER PUSH1 0x24 DUP3 ADD MSTORE ADDRESS PUSH1 0x44 DUP3 ADD MSTORE PUSH2 0x184 PUSH1 0x4 CALLDATALOAD ADD CALLDATALOAD PUSH1 0x64 DUP3 ADD MSTORE PUSH1 0x64 DUP2 MSTORE DUP1 PUSH1 0xA0 DUP2 ADD LT PUSH1 0x1 PUSH1 0x1 PUSH1 0x40 SHL SUB PUSH1 0xA0 DUP4 ADD GT OR PUSH2 0x11D4 JUMPI PUSH2 0x138D SWAP2 PUSH1 0xA0 DUP3 ADD PUSH1 0x40 MSTORE PUSH2 0x241A JUMP JUMPDEST PUSH2 0xC04 JUMP JUMPDEST POP PUSH1 0x4 DUP1 CALLDATALOAD ADD CALLDATALOAD PUSH2 0x2710 DUP2 DUP2 MUL SWAP2 DUP3 DIV EQ DUP4 OR ISZERO PUSH2 0x3F2 JUMPI PUSH2 0x1A4 PUSH1 0x4 CALLDATALOAD ADD CALLDATALOAD SWAP1 PUSH2 0xFFFF PUSH2 0x13C5 PUSH2 0x1C4 PUSH1 0x4 CALLDATALOAD ADD PUSH2 0x1FDF JUMP JUMPDEST AND SWAP2 DUP3 DUP2 MUL SWAP3 DUP2 DUP5 DIV EQ SWAP1 ISZERO OR ISZERO PUSH2 0x3F2 JUMPI GT PUSH2 0x131C JUMP JUMPDEST POP PUSH2 0x2710 PUSH2 0xFFFF PUSH2 0x13F3 PUSH2 0x1C4 PUSH1 0x4 CALLDATALOAD ADD PUSH2 0x1FDF JUMP JUMPDEST AND GT PUSH2 0x1315 JUMP JUMPDEST POP PUSH2 0xFFFF PUSH2 0x140D PUSH2 0x1C4 PUSH1 0x4 CALLDATALOAD ADD PUSH2 0x1FDF JUMP JUMPDEST AND ISZERO PUSH2 0x130E JUMP JUMPDEST POP PUSH2 0x1A4 PUSH1 0x4 CALLDATALOAD ADD CALLDATALOAD ISZERO PUSH2 0x1307 JUMP JUMPDEST POP PUSH2 0x184 PUSH1 0x4 CALLDATALOAD ADD CALLDATALOAD ISZERO PUSH2 0x1300 JUMP JUMPDEST PUSH1 0x44 SWAP2 DUP5 PUSH1 0x40 MLOAD SWAP3 PUSH4 0xEC4A115 PUSH1 0xE1 SHL DUP5 MSTORE PUSH1 0x4 DUP5 ADD MSTORE AND PUSH1 0x24 DUP3 ADD MSTORE REVERT JUMPDEST PUSH2 0x145B SWAP2 POP PUSH2 0x1FEE JUMP JUMPDEST SWAP3 PUSH2 0xBE6 JUMP JUMPDEST SWAP1 SWAP2 POP PUSH1 0x20 DUP2 RETURNDATASIZE PUSH1 0x20 GT PUSH2 0x148D JUMPI JUMPDEST DUP2 PUSH2 0x147D PUSH1 0x20 SWAP4 DUP4 PUSH2 0x1FAA JUMP JUMPDEST DUP2 ADD SUB SLT PUSH2 0x13A JUMPI MLOAD SWAP1 DUP3 PUSH2 0xBBF JUMP JUMPDEST RETURNDATASIZE SWAP2 POP PUSH2 0x1470 JUMP JUMPDEST PUSH1 0x40 MLOAD PUSH4 0x368CCF1 PUSH1 0xE2 SHL DUP2 MSTORE PUSH1 0x4 SWAP1 REVERT JUMPDEST POP PUSH1 0x2 PUSH2 0xFFFF PUSH2 0x14BB PUSH1 0x84 PUSH1 0x4 CALLDATALOAD ADD PUSH2 0x1FDF JUMP JUMPDEST AND LT PUSH2 0xB66 JUMP JUMPDEST POP PUSH1 0xA4 PUSH1 0x4 CALLDATALOAD ADD CALLDATALOAD ISZERO PUSH2 0xB43 JUMP JUMPDEST POP PUSH2 0x14DF PUSH1 0x44 PUSH1 0x4 CALLDATALOAD ADD PUSH2 0x1FCB JUMP JUMPDEST PUSH1 0x1 PUSH1 0x1 PUSH1 0x40 SHL SUB TIMESTAMP SWAP2 AND GT ISZERO PUSH2 0xB3C JUMP JUMPDEST POP PUSH1 0x4 CALLDATALOAD PUSH1 0x4 ADD CALLDATALOAD PUSH1 0x24 PUSH1 0x4 CALLDATALOAD ADD CALLDATALOAD LT PUSH2 0xB35 JUMP JUMPDEST PUSH1 0x40 MLOAD PUSH3 0x461BCD PUSH1 0xE5 SHL DUP2 MSTORE PUSH1 0x20 PUSH1 0x4 DUP3 ADD MSTORE PUSH1 0x1F PUSH1 0x24 DUP3 ADD MSTORE PUSH32 0x5265656E7472616E637947756172643A207265656E7472616E742063616C6C00 PUSH1 0x44 DUP3 ADD MSTORE PUSH1 0x64 SWAP1 REVERT JUMPDEST CALLVALUE PUSH2 0x13A JUMPI PUSH1 0x20 CALLDATASIZE PUSH1 0x3 NOT ADD SLT PUSH2 0x13A JUMPI PUSH1 0x4 CALLDATALOAD PUSH2 0x1567 PUSH2 0x206D JUMP JUMPDEST PUSH1 0x0 DUP2 DUP2 MSTORE PUSH1 0x4 PUSH1 0x20 MSTORE PUSH1 0x40 SWAP1 KECCAK256 DUP1 SLOAD PUSH1 0x1 PUSH1 0x1 PUSH1 0xA0 SHL SUB AND ISZERO PUSH2 0x216 JUMPI PUSH1 0x8 ADD DUP1 SLOAD PUSH1 0xFF DUP2 PUSH1 0x28 SHR AND ISZERO DUP1 ISZERO PUSH2 0x15FA JUMPI JUMPDEST DUP1 ISZERO PUSH2 0x15ED JUMPI JUMPDEST PUSH2 0x1E3 JUMPI PUSH8 0x100000000000000 SWAP1 PUSH1 0xFF PUSH1 0x38 SHL NOT AND OR SWAP1 SSTORE PUSH32 0x971010436E85502B3F0D00D8ED669A291B5A981B6B58B90C3989DDE9B73E5996 PUSH1 0x20 PUSH1 0x40 MLOAD PUSH1 0x1 PUSH1 0x1 PUSH1 0x40 SHL SUB TIMESTAMP AND DUP2 MSTORE LOG2 STOP JUMPDEST POP PUSH1 0xFF DUP2 PUSH1 0x38 SHR AND PUSH2 0x15A0 JUMP JUMPDEST POP PUSH1 0xFF DUP2 PUSH1 0x30 SHR AND PUSH2 0x1599 JUMP JUMPDEST CALLVALUE PUSH2 0x13A JUMPI PUSH1 0x0 CALLDATASIZE PUSH1 0x3 NOT ADD SLT PUSH2 0x13A JUMPI PUSH1 0x20 PUSH4 0xFFFFFFFF PUSH1 0x3 SLOAD AND PUSH1 0x40 MLOAD SWAP1 DUP2 MSTORE RETURN JUMPDEST CALLVALUE PUSH2 0x13A JUMPI PUSH1 0x40 CALLDATASIZE PUSH1 0x3 NOT ADD SLT PUSH2 0x13A JUMPI PUSH1 0x4 CALLDATALOAD PUSH2 0x1647 PUSH2 0x1ECF JUMP JUMPDEST SWAP1 PUSH2 0x1650 PUSH2 0x206D JUMP JUMPDEST PUSH1 0x0 DUP2 DUP2 MSTORE PUSH1 0x4 PUSH1 0x20 MSTORE PUSH1 0x40 SWAP1 KECCAK256 DUP1 SLOAD PUSH1 0x1 PUSH1 0x1 PUSH1 0xA0 SHL SUB SWAP1 DUP2 AND ISZERO PUSH2 0x968 JUMPI PUSH1 0x8 DUP3 ADD SLOAD SWAP1 PUSH1 0xFF DUP3 PUSH1 0x40 SHR AND ISZERO DUP1 ISZERO PUSH2 0x16C9 JUMPI JUMPDEST PUSH2 0x94A JUMPI DUP5 PUSH2 0x93F PUSH1 0x20 SWAP4 PUSH1 0x0 SWAP8 DUP5 PUSH1 0x9 PUSH32 0x757B323B5139C5E30FE0A1C4B13E38DECE5AAD9273138C1E3D1ED9191C6E73B2 SWAP9 ADD SWAP3 DUP4 SLOAD SWAP11 DUP12 SWAP5 SSTORE PUSH1 0x48 SHR AND PUSH2 0x23C9 JUMP JUMPDEST POP PUSH1 0x9 DUP4 ADD SLOAD ISZERO PUSH2 0x1685 JUMP JUMPDEST CALLVALUE PUSH2 0x13A JUMPI PUSH1 0x40 CALLDATASIZE PUSH1 0x3 NOT ADD SLT PUSH2 0x13A JUMPI PUSH1 0x4 CALLDATALOAD PUSH1 0x24 SWAP1 DUP2 CALLDATALOAD SWAP2 PUSH1 0x1 PUSH1 0x1 PUSH1 0x40 SHL SUB DUP4 AND DUP1 DUP5 SUB PUSH2 0x13A JUMPI CALLER PUSH1 0x0 SWAP1 DUP2 MSTORE PUSH32 0xDA104853DC3972FB943CE0EE89200279D8AF13DB255ED28FB43E685524F21B19 PUSH1 0x20 SWAP1 DUP2 MSTORE PUSH1 0x40 SWAP1 SWAP2 KECCAK256 SLOAD SWAP1 SWAP3 SWAP1 PUSH32 0xEA61DA3A8A09AD801432653699F8C1860B1AE9D2EA4A141FADFD63227717BC8 SWAP1 PUSH1 0xFF AND ISZERO PUSH2 0x1856 JUMPI POP PUSH1 0x0 DUP5 DUP2 MSTORE PUSH1 0x4 DUP5 MSTORE PUSH1 0x40 SWAP1 KECCAK256 DUP1 SLOAD SWAP1 SWAP2 SWAP1 PUSH1 0x1 PUSH1 0x1 PUSH1 0xA0 SHL SUB AND ISZERO PUSH2 0x1840 JUMPI PUSH1 0x8 DUP3 ADD SWAP1 DUP2 SLOAD SWAP1 PUSH1 0xFF DUP3 PUSH1 0x28 SHR AND DUP1 ISZERO PUSH2 0x1833 JUMPI JUMPDEST DUP1 ISZERO PUSH2 0x1826 JUMPI JUMPDEST PUSH2 0x1810 JUMPI POP PUSH2 0x1807 SWAP3 PUSH32 0x2666DDAE022D0AE4F1EF2F662047AAFFA84B5D69168AC83C319D76B19E6713E SWAP7 SWAP8 SWAP3 PUSH6 0x10000000000 PUSH1 0xB SWAP4 PUSH6 0xFF0000000000 NOT AND OR SWAP1 SSTORE ADD SWAP1 PUSH10 0xFFFFFFFFFFFFFFFF0000 DUP3 SLOAD SWAP2 PUSH1 0x10 SHL AND SWAP1 PUSH10 0xFFFFFFFFFFFFFFFF0000 NOT AND OR SWAP1 SSTORE JUMP JUMPDEST PUSH1 0x40 MLOAD SWAP1 DUP2 MSTORE LOG2 STOP JUMPDEST PUSH1 0x40 MLOAD PUSH4 0x102AA0D5 PUSH1 0xE3 SHL DUP2 MSTORE PUSH1 0x4 DUP2 ADD DUP9 SWAP1 MSTORE REVERT JUMPDEST POP PUSH1 0xFF DUP3 PUSH1 0x38 SHR AND PUSH2 0x179D JUMP JUMPDEST POP PUSH1 0xFF DUP3 PUSH1 0x30 SHR AND PUSH2 0x1796 JUMP JUMPDEST PUSH1 0x40 MLOAD PUSH4 0x22AAA27F PUSH1 0xE2 SHL DUP2 MSTORE PUSH1 0x4 DUP2 ADD DUP7 SWAP1 MSTORE REVERT JUMPDEST DUP4 SWAP1 PUSH2 0x1861 CALLER PUSH2 0x255F JUMP JUMPDEST SWAP1 PUSH1 0x40 MLOAD PUSH2 0x186E DUP2 PUSH2 0x1F8F JUMP JUMPDEST PUSH1 0x42 DUP2 MSTORE DUP4 DUP2 ADD SWAP2 PUSH1 0x60 CALLDATASIZE DUP5 CALLDATACOPY DUP2 MLOAD ISZERO PUSH2 0x19CF JUMPI PUSH1 0x30 DUP4 MSTORE8 DUP2 MLOAD PUSH1 0x1 SWAP1 PUSH1 0x1 LT ISZERO PUSH2 0x19BA JUMPI PUSH1 0x78 PUSH1 0x21 DUP5 ADD MSTORE8 PUSH1 0x41 SWAP1 JUMPDEST DUP1 DUP3 GT PUSH2 0x194C JUMPI POP POP PUSH2 0x191C JUMPI PUSH1 0x48 PUSH2 0x379 SWAP4 PUSH2 0x18F1 SWAP4 PUSH2 0x1900 SWAP4 PUSH1 0x40 MLOAD SWAP6 DUP7 SWAP4 PUSH23 0x20B1B1B2B9B9A1B7B73A3937B61D1030B1B1B7BAB73A1 PUSH1 0x4D SHL DUP11 DUP7 ADD MSTORE PUSH2 0x320 DUP2 MLOAD DUP1 SWAP3 DUP13 PUSH1 0x37 DUP10 ADD SWAP2 ADD PUSH2 0x1EE5 JUMP JUMPDEST ADD SUB PUSH1 0x28 DUP2 ADD DUP5 MSTORE ADD DUP3 PUSH2 0x1FAA JUMP JUMPDEST PUSH1 0x40 MLOAD SWAP4 DUP5 SWAP4 PUSH3 0x461BCD PUSH1 0xE5 SHL DUP6 MSTORE PUSH1 0x4 DUP6 ADD MSTORE DUP4 ADD SWAP1 PUSH2 0x1F08 JUMP JUMPDEST PUSH1 0x64 DUP6 DUP6 PUSH1 0x40 MLOAD SWAP2 PUSH3 0x461BCD PUSH1 0xE5 SHL DUP4 MSTORE DUP2 PUSH1 0x4 DUP5 ADD MSTORE DUP3 ADD MSTORE PUSH1 0x0 DUP1 MLOAD PUSH1 0x20 PUSH2 0x26F6 DUP4 CODECOPY DUP2 MLOAD SWAP2 MSTORE PUSH1 0x44 DUP3 ADD MSTORE REVERT JUMPDEST SWAP1 SWAP2 PUSH1 0xF DUP2 AND PUSH1 0x10 DUP2 LT ISZERO PUSH2 0x19A5 JUMPI PUSH16 0x181899199A1A9B1B9C1CB0B131B232B3 PUSH1 0x81 SHL SWAP1 BYTE PUSH2 0x197B DUP5 DUP7 PUSH2 0x254E JUMP JUMPDEST MSTORE8 PUSH1 0x4 SHR SWAP2 DUP1 ISZERO PUSH2 0x1990 JUMPI PUSH1 0x0 NOT ADD SWAP1 PUSH2 0x189E JUMP JUMPDEST DUP8 PUSH4 0x4E487B71 PUSH1 0xE0 SHL PUSH1 0x0 MSTORE PUSH1 0x11 PUSH1 0x4 MSTORE PUSH1 0x0 REVERT JUMPDEST DUP9 PUSH4 0x4E487B71 PUSH1 0xE0 SHL PUSH1 0x0 MSTORE PUSH1 0x32 PUSH1 0x4 MSTORE PUSH1 0x0 REVERT JUMPDEST DUP7 PUSH4 0x4E487B71 PUSH1 0xE0 SHL PUSH1 0x0 MSTORE PUSH1 0x32 PUSH1 0x4 MSTORE PUSH1 0x0 REVERT JUMPDEST DUP6 PUSH4 0x4E487B71 PUSH1 0xE0 SHL PUSH1 0x0 MSTORE PUSH1 0x32 PUSH1 0x4 MSTORE PUSH1 0x0 REVERT JUMPDEST CALLVALUE PUSH2 0x13A JUMPI PUSH1 0x0 CALLDATASIZE PUSH1 0x3 NOT ADD SLT PUSH2 0x13A JUMPI PUSH1 0x20 PUSH1 0x40 MLOAD PUSH32 0x93714EE7E3775F280F9AB925A5B649B6E87F18AE11F75082555FC719F33F9766 DUP2 MSTORE RETURN JUMPDEST CALLVALUE PUSH2 0x13A JUMPI PUSH1 0x0 CALLDATASIZE PUSH1 0x3 NOT ADD SLT PUSH2 0x13A JUMPI PUSH1 0x40 MLOAD PUSH32 0x0 PUSH1 0x1 PUSH1 0x1 PUSH1 0xA0 SHL SUB AND DUP2 MSTORE PUSH1 0x20 SWAP1 RETURN JUMPDEST CALLVALUE PUSH2 0x13A JUMPI PUSH1 0x40 CALLDATASIZE PUSH1 0x3 NOT ADD SLT PUSH2 0x13A JUMPI PUSH2 0x1A7D PUSH2 0x1ECF JUMP JUMPDEST CALLER PUSH1 0x1 PUSH1 0x1 PUSH1 0xA0 SHL SUB DUP3 AND SUB PUSH2 0x1A99 JUMPI PUSH2 0x864 SWAP1 PUSH1 0x4 CALLDATALOAD PUSH2 0x2355 JUMP JUMPDEST PUSH1 0x40 MLOAD PUSH3 0x461BCD PUSH1 0xE5 SHL DUP2 MSTORE PUSH1 0x20 PUSH1 0x4 DUP3 ADD MSTORE PUSH1 0x2F PUSH1 0x24 DUP3 ADD MSTORE PUSH32 0x416363657373436F6E74726F6C3A2063616E206F6E6C792072656E6F756E6365 PUSH1 0x44 DUP3 ADD MSTORE PUSH15 0x103937B632B9903337B91039B2B633 PUSH1 0x89 SHL PUSH1 0x64 DUP3 ADD MSTORE PUSH1 0x84 SWAP1 REVERT JUMPDEST CALLVALUE PUSH2 0x13A JUMPI PUSH1 0x40 CALLDATASIZE PUSH1 0x3 NOT ADD SLT PUSH2 0x13A JUMPI PUSH1 0x4 CALLDATALOAD PUSH2 0x1B12 PUSH2 0x1ECF JUMP JUMPDEST DUP2 PUSH1 0x0 MSTORE PUSH1 0x0 PUSH1 0x20 MSTORE PUSH2 0x1B2C PUSH1 0x1 PUSH1 0x40 PUSH1 0x0 KECCAK256 ADD SLOAD PUSH2 0x224A JUMP JUMPDEST DUP2 PUSH1 0x0 MSTORE PUSH1 0x0 PUSH1 0x20 MSTORE PUSH1 0x40 PUSH1 0x0 KECCAK256 SWAP1 PUSH1 0x1 DUP1 PUSH1 0xA0 SHL SUB AND SWAP1 DUP2 PUSH1 0x0 MSTORE PUSH1 0x20 MSTORE PUSH1 0xFF PUSH1 0x40 PUSH1 0x0 KECCAK256 SLOAD AND ISZERO PUSH2 0x1B5B JUMPI STOP JUMPDEST DUP2 PUSH1 0x0 MSTORE PUSH1 0x0 PUSH1 0x20 MSTORE PUSH1 0x40 PUSH1 0x0 KECCAK256 DUP2 PUSH1 0x0 MSTORE PUSH1 0x20 MSTORE PUSH1 0x40 PUSH1 0x0 KECCAK256 PUSH1 0x1 PUSH1 0xFF NOT DUP3 SLOAD AND OR SWAP1 SSTORE CALLER SWAP2 PUSH32 0x2F8788117E7EFF1D82E926EC794901D17C78024A50270940304540A733656F0D PUSH1 0x0 DUP1 LOG4 STOP JUMPDEST CALLVALUE PUSH2 0x13A JUMPI PUSH1 0x20 CALLDATASIZE PUSH1 0x3 NOT ADD SLT PUSH2 0x13A JUMPI PUSH1 0x4 CALLDATALOAD PUSH1 0x0 MSTORE PUSH1 0x0 PUSH1 0x20 MSTORE PUSH1 0x20 PUSH1 0x1 PUSH1 0x40 PUSH1 0x0 KECCAK256 ADD SLOAD PUSH1 0x40 MLOAD SWAP1 DUP2 MSTORE RETURN JUMPDEST CALLVALUE PUSH2 0x13A JUMPI PUSH1 0x20 CALLDATASIZE PUSH1 0x3 NOT ADD SLT PUSH2 0x13A JUMPI PUSH1 0x4 CALLDATALOAD PUSH1 0x0 MSTORE PUSH1 0x4 PUSH1 0x20 MSTORE PUSH1 0x40 PUSH1 0x0 KECCAK256 PUSH1 0x40 MLOAD SWAP1 PUSH2 0x1C06 DUP3 PUSH2 0x1F73 JUMP JUMPDEST PUSH1 0x1 DUP1 PUSH1 0xA0 SHL SUB DUP2 SLOAD AND DUP3 MSTORE PUSH1 0x1 DUP2 ADD SLOAD PUSH1 0x20 DUP4 ADD MSTORE PUSH1 0x2 DUP2 ADD SLOAD PUSH1 0x40 DUP4 ADD MSTORE PUSH1 0x3 DUP2 ADD SLOAD PUSH1 0x60 DUP4 ADD MSTORE PUSH2 0xFFFF PUSH1 0x4 DUP3 ADD SLOAD PUSH1 0x1 PUSH1 0x1 PUSH1 0x40 SHL SUB DUP2 AND PUSH1 0x80 DUP6 ADD MSTORE PUSH2 0x1C5A PUSH1 0xFF DUP3 PUSH1 0x40 SHR AND PUSH1 0xA0 DUP7 ADD PUSH2 0x1F2D JUMP JUMPDEST PUSH1 0x48 SHR AND PUSH1 0xC0 DUP4 ADD MSTORE PUSH1 0x5 DUP2 ADD SLOAD PUSH1 0xE0 DUP4 ADD MSTORE PUSH1 0x40 MLOAD PUSH1 0x6 DUP3 ADD DUP1 SLOAD PUSH1 0x0 SWAP2 PUSH2 0x1C82 DUP3 PUSH2 0x1F39 JUMP JUMPDEST DUP1 DUP6 MSTORE SWAP2 PUSH1 0x1 DUP2 AND SWAP1 DUP2 ISZERO PUSH2 0x1E55 JUMPI POP PUSH1 0x1 EQ PUSH2 0x1E17 JUMPI JUMPDEST POP POP SWAP2 DUP2 PUSH2 0x1CB4 PUSH1 0xB SWAP4 PUSH1 0x1 PUSH1 0x1 PUSH1 0x40 SHL SUB SWAP6 SUB DUP3 PUSH2 0x1FAA JUMP JUMPDEST PUSH2 0x100 DUP6 ADD MSTORE PUSH1 0x7 DUP2 ADD SLOAD PUSH2 0x120 DUP6 ADD MSTORE PUSH1 0x8 DUP2 ADD SLOAD PUSH1 0xFF DUP2 AND ISZERO ISZERO PUSH2 0x140 DUP7 ADD MSTORE PUSH4 0xFFFFFFFF DUP2 PUSH1 0x8 SHR AND PUSH2 0x160 DUP7 ADD MSTORE PUSH1 0xFF DUP2 PUSH1 0x28 SHR AND ISZERO ISZERO PUSH2 0x180 DUP7 ADD MSTORE PUSH1 0xFF DUP2 PUSH1 0x30 SHR AND ISZERO ISZERO PUSH2 0x1A0 DUP7 ADD MSTORE PUSH1 0xFF DUP2 PUSH1 0x38 SHR AND ISZERO ISZERO PUSH2 0x1C0 DUP7 ADD MSTORE PUSH1 0xFF DUP2 PUSH1 0x40 SHR AND ISZERO ISZERO PUSH2 0x1E0 DUP7 ADD MSTORE PUSH1 0x1 DUP1 PUSH1 0xA0 SHL SUB SWAP1 PUSH1 0x48 SHR AND PUSH2 0x200 DUP6 ADD MSTORE PUSH1 0x9 DUP2 ADD SLOAD PUSH2 0x220 DUP6 ADD MSTORE PUSH1 0xA DUP2 ADD SLOAD PUSH2 0x240 DUP6 ADD MSTORE ADD SLOAD PUSH2 0xFFFF DUP2 AND PUSH2 0x260 DUP5 ADD MSTORE PUSH1 0x10 SHR AND PUSH2 0x280 DUP3 ADD MSTORE PUSH1 0x1 DUP1 PUSH1 0xA0 SHL SUB DUP2 MLOAD AND ISZERO PUSH2 0x7A9 JUMPI PUSH2 0x160 SWAP1 PUSH1 0x1 DUP1 PUSH1 0xA0 SHL SUB DUP2 MLOAD AND SWAP1 PUSH1 0x20 DUP2 ADD MLOAD SWAP1 PUSH1 0x40 DUP2 ADD MLOAD PUSH1 0x1 PUSH1 0x1 PUSH1 0x40 SHL SUB PUSH1 0x80 DUP4 ADD MLOAD AND PUSH4 0xFFFFFFFF DUP7 DUP5 ADD MLOAD AND PUSH2 0x180 DUP5 ADD MLOAD ISZERO ISZERO PUSH2 0x1A0 DUP6 ADD MLOAD ISZERO ISZERO SWAP2 PUSH2 0x1C0 DUP7 ADD MLOAD ISZERO ISZERO SWAP4 PUSH2 0x1E0 DUP8 ADD MLOAD ISZERO ISZERO SWAP6 PUSH2 0x220 PUSH1 0x1 DUP1 PUSH1 0xA0 SHL SUB PUSH2 0x200 DUP11 ADD MLOAD AND SWAP9 ADD MLOAD SWAP9 PUSH1 0x40 MLOAD SWAP11 DUP12 MSTORE PUSH1 0x20 DUP12 ADD MSTORE PUSH1 0x40 DUP11 ADD MSTORE PUSH1 0x60 DUP10 ADD MSTORE PUSH1 0x80 DUP9 ADD MSTORE PUSH1 0xA0 DUP8 ADD MSTORE PUSH1 0xC0 DUP7 ADD MSTORE PUSH1 0xE0 DUP6 ADD MSTORE PUSH2 0x100 DUP5 ADD MSTORE PUSH2 0x120 DUP4 ADD MSTORE PUSH2 0x140 DUP3 ADD MSTORE RETURN JUMPDEST PUSH1 0x0 SWAP1 DUP2 MSTORE PUSH1 0x20 DUP2 KECCAK256 SWAP1 SWAP3 POP JUMPDEST DUP2 DUP4 LT PUSH2 0x1E3B JUMPI POP POP DUP2 ADD PUSH1 0x20 ADD DUP2 PUSH2 0x1CB4 PUSH2 0x1C9A JUMP JUMPDEST PUSH1 0x1 DUP2 PUSH1 0x20 SWAP3 SWAP5 SWAP4 SWAP5 SLOAD DUP4 DUP6 DUP9 ADD ADD MSTORE ADD SWAP2 ADD SWAP2 SWAP1 PUSH2 0x1E24 JUMP JUMPDEST PUSH1 0xFF NOT AND PUSH1 0x20 DUP1 DUP8 ADD SWAP2 SWAP1 SWAP2 MSTORE SWAP3 ISZERO ISZERO PUSH1 0x5 SHL DUP6 ADD SWAP1 SWAP3 ADD SWAP3 POP DUP4 SWAP2 POP PUSH2 0x1CB4 SWAP1 POP PUSH2 0x1C9A JUMP JUMPDEST CALLVALUE PUSH2 0x13A JUMPI PUSH1 0x20 CALLDATASIZE PUSH1 0x3 NOT ADD SLT PUSH2 0x13A JUMPI PUSH1 0x4 CALLDATALOAD SWAP1 PUSH4 0xFFFFFFFF PUSH1 0xE0 SHL DUP3 AND DUP1 SWAP3 SUB PUSH2 0x13A JUMPI PUSH1 0x20 SWAP2 PUSH4 0x7965DB0B PUSH1 0xE0 SHL DUP2 EQ SWAP1 DUP2 ISZERO PUSH2 0x1EBE JUMPI JUMPDEST POP ISZERO ISZERO DUP2 MSTORE RETURN JUMPDEST PUSH4 0x1FFC9A7 PUSH1 0xE0 SHL EQ SWAP1 POP DUP4 PUSH2 0x1EB7 JUMP JUMPDEST PUSH1 0x24 CALLDATALOAD SWAP1 PUSH1 0x1 PUSH1 0x1 PUSH1 0xA0 SHL SUB DUP3 AND DUP3 SUB PUSH2 0x13A JUMPI JUMP JUMPDEST PUSH1 0x0 JUMPDEST DUP4 DUP2 LT PUSH2 0x1EF8 JUMPI POP POP PUSH1 0x0 SWAP2 ADD MSTORE JUMP JUMPDEST DUP2 DUP2 ADD MLOAD DUP4 DUP3 ADD MSTORE PUSH1 0x20 ADD PUSH2 0x1EE8 JUMP JUMPDEST SWAP1 PUSH1 0x20 SWAP2 PUSH2 0x1F21 DUP2 MLOAD DUP1 SWAP3 DUP2 DUP6 MSTORE DUP6 DUP1 DUP7 ADD SWAP2 ADD PUSH2 0x1EE5 JUMP JUMPDEST PUSH1 0x1F ADD PUSH1 0x1F NOT AND ADD ADD SWAP1 JUMP JUMPDEST PUSH1 0x2 DUP3 LT ISZERO PUSH2 0x793 JUMPI MSTORE JUMP JUMPDEST SWAP1 PUSH1 0x1 DUP3 DUP2 SHR SWAP3 AND DUP1 ISZERO PUSH2 0x1F69 JUMPI JUMPDEST PUSH1 0x20 DUP4 LT EQ PUSH2 0x1F53 JUMPI JUMP JUMPDEST PUSH4 0x4E487B71 PUSH1 0xE0 SHL PUSH1 0x0 MSTORE PUSH1 0x22 PUSH1 0x4 MSTORE PUSH1 0x24 PUSH1 0x0 REVERT JUMPDEST SWAP2 PUSH1 0x7F AND SWAP2 PUSH2 0x1F48 JUMP JUMPDEST PUSH2 0x2A0 DUP2 ADD SWAP1 DUP2 LT PUSH1 0x1 PUSH1 0x1 PUSH1 0x40 SHL SUB DUP3 GT OR PUSH2 0x11D4 JUMPI PUSH1 0x40 MSTORE JUMP JUMPDEST PUSH1 0x80 DUP2 ADD SWAP1 DUP2 LT PUSH1 0x1 PUSH1 0x1 PUSH1 0x40 SHL SUB DUP3 GT OR PUSH2 0x11D4 JUMPI PUSH1 0x40 MSTORE JUMP JUMPDEST SWAP1 PUSH1 0x1F DUP1 NOT SWAP2 ADD AND DUP2 ADD SWAP1 DUP2 LT PUSH1 0x1 PUSH1 0x1 PUSH1 0x40 SHL SUB DUP3 GT OR PUSH2 0x11D4 JUMPI PUSH1 0x40 MSTORE JUMP JUMPDEST CALLDATALOAD PUSH1 0x1 PUSH1 0x1 PUSH1 0x40 SHL SUB DUP2 AND DUP2 SUB PUSH2 0x13A JUMPI SWAP1 JUMP JUMPDEST CALLDATALOAD PUSH2 0xFFFF DUP2 AND DUP2 SUB PUSH2 0x13A JUMPI SWAP1 JUMP JUMPDEST CALLDATALOAD PUSH4 0xFFFFFFFF DUP2 AND DUP2 SUB PUSH2 0x13A JUMPI SWAP1 JUMP JUMPDEST CALLDATALOAD DUP1 ISZERO ISZERO DUP2 SUB PUSH2 0x13A JUMPI SWAP1 JUMP JUMPDEST CALLDATALOAD PUSH1 0x1 PUSH1 0x1 PUSH1 0xA0 SHL SUB DUP2 AND DUP2 SUB PUSH2 0x13A JUMPI SWAP1 JUMP JUMPDEST SWAP1 CALLDATALOAD SWAP1 PUSH1 0x1E NOT DUP2 CALLDATASIZE SUB ADD DUP3 SLT ISZERO PUSH2 0x13A JUMPI ADD DUP1 CALLDATALOAD SWAP1 PUSH1 0x1 PUSH1 0x1 PUSH1 0x40 SHL SUB DUP3 GT PUSH2 0x13A JUMPI PUSH1 0x20 ADD SWAP2 DUP2 CALLDATASIZE SUB DUP4 SGT PUSH2 0x13A JUMPI JUMP JUMPDEST PUSH1 0x1 PUSH1 0x1 PUSH1 0x40 SHL SUB DUP2 GT PUSH2 0x11D4 JUMPI PUSH1 0x1F ADD PUSH1 0x1F NOT AND PUSH1 0x20 ADD SWAP1 JUMP JUMPDEST CALLER PUSH1 0x0 SWAP1 DUP2 MSTORE PUSH32 0xD142EFB147CD07881263FA4F60F77935FE75E436DD3C66B782B237F8530F2CA1 PUSH1 0x20 SWAP1 DUP2 MSTORE PUSH1 0x40 DUP1 DUP4 KECCAK256 SLOAD SWAP1 SWAP3 PUSH32 0x93714EE7E3775F280F9AB925A5B649B6E87F18AE11F75082555FC719F33F9766 SWAP2 PUSH1 0xFF AND ISZERO PUSH2 0x20D1 JUMPI POP POP POP POP JUMP JUMPDEST PUSH2 0x20DA CALLER PUSH2 0x255F JUMP JUMPDEST SWAP2 DUP5 MLOAD SWAP1 PUSH2 0x20E7 DUP3 PUSH2 0x1F8F JUMP JUMPDEST PUSH1 0x42 DUP3 MSTORE DUP5 DUP3 ADD SWAP3 PUSH1 0x60 CALLDATASIZE DUP6 CALLDATACOPY DUP3 MLOAD ISZERO PUSH2 0x2236 JUMPI PUSH1 0x30 DUP5 MSTORE8 DUP3 MLOAD SWAP1 PUSH1 0x1 SWAP2 PUSH1 0x1 LT ISZERO PUSH2 0x2236 JUMPI SWAP1 PUSH1 0x78 PUSH1 0x21 DUP6 ADD MSTORE8 PUSH1 0x41 SWAP2 JUMPDEST DUP2 DUP4 GT PUSH2 0x21C8 JUMPI POP POP POP PUSH2 0x2198 JUMPI PUSH1 0x48 PUSH2 0x379 SWAP4 DUP7 SWAP4 PUSH2 0x217C SWAP4 PUSH2 0x216D SWAP9 MLOAD SWAP9 DUP10 SWAP4 PUSH23 0x20B1B1B2B9B9A1B7B73A3937B61D1030B1B1B7BAB73A1 PUSH1 0x4D SHL DUP11 DUP7 ADD MSTORE PUSH2 0x320 DUP2 MLOAD DUP1 SWAP3 DUP13 PUSH1 0x37 DUP10 ADD SWAP2 ADD PUSH2 0x1EE5 JUMP JUMPDEST ADD SUB PUSH1 0x28 DUP2 ADD DUP8 MSTORE ADD DUP6 PUSH2 0x1FAA JUMP JUMPDEST MLOAD SWAP3 DUP4 SWAP3 PUSH3 0x461BCD PUSH1 0xE5 SHL DUP5 MSTORE PUSH1 0x4 DUP5 ADD MSTORE PUSH1 0x24 DUP4 ADD SWAP1 PUSH2 0x1F08 JUMP JUMPDEST PUSH1 0x64 DUP5 DUP7 MLOAD SWAP1 PUSH3 0x461BCD PUSH1 0xE5 SHL DUP3 MSTORE DUP1 PUSH1 0x4 DUP4 ADD MSTORE PUSH1 0x24 DUP3 ADD MSTORE PUSH1 0x0 DUP1 MLOAD PUSH1 0x20 PUSH2 0x26F6 DUP4 CODECOPY DUP2 MLOAD SWAP2 MSTORE PUSH1 0x44 DUP3 ADD MSTORE REVERT JUMPDEST SWAP1 SWAP2 SWAP3 PUSH1 0xF DUP2 AND PUSH1 0x10 DUP2 LT ISZERO PUSH2 0x2222 JUMPI PUSH16 0x181899199A1A9B1B9C1CB0B131B232B3 PUSH1 0x81 SHL SWAP1 BYTE PUSH2 0x21F8 DUP6 DUP8 PUSH2 0x254E JUMP JUMPDEST MSTORE8 PUSH1 0x4 SHR SWAP3 DUP1 ISZERO PUSH2 0x220E JUMPI PUSH1 0x0 NOT ADD SWAP2 SWAP1 PUSH2 0x2119 JUMP JUMPDEST PUSH4 0x4E487B71 PUSH1 0xE0 SHL DUP3 MSTORE PUSH1 0x11 PUSH1 0x4 MSTORE PUSH1 0x24 DUP3 REVERT JUMPDEST PUSH4 0x4E487B71 PUSH1 0xE0 SHL DUP4 MSTORE PUSH1 0x32 PUSH1 0x4 MSTORE PUSH1 0x24 DUP4 REVERT JUMPDEST PUSH4 0x4E487B71 PUSH1 0xE0 SHL DUP2 MSTORE PUSH1 0x32 PUSH1 0x4 MSTORE PUSH1 0x24 SWAP1 REVERT JUMPDEST PUSH1 0x0 SWAP1 DUP1 DUP3 MSTORE PUSH1 0x20 SWAP1 DUP3 DUP3 MSTORE PUSH1 0x40 SWAP3 DUP4 DUP2 KECCAK256 CALLER DUP3 MSTORE DUP4 MSTORE PUSH1 0xFF DUP5 DUP3 KECCAK256 SLOAD AND ISZERO PUSH2 0x2273 JUMPI POP POP POP POP JUMP JUMPDEST PUSH2 0x227C CALLER PUSH2 0x255F JUMP JUMPDEST SWAP2 DUP5 MLOAD SWAP1 PUSH2 0x2289 DUP3 PUSH2 0x1F8F JUMP JUMPDEST PUSH1 0x42 DUP3 MSTORE DUP5 DUP3 ADD SWAP3 PUSH1 0x60 CALLDATASIZE DUP6 CALLDATACOPY DUP3 MLOAD ISZERO PUSH2 0x2236 JUMPI PUSH1 0x30 DUP5 MSTORE8 DUP3 MLOAD SWAP1 PUSH1 0x1 SWAP2 PUSH1 0x1 LT ISZERO PUSH2 0x2236 JUMPI SWAP1 PUSH1 0x78 PUSH1 0x21 DUP6 ADD MSTORE8 PUSH1 0x41 SWAP2 JUMPDEST DUP2 DUP4 GT PUSH2 0x230F JUMPI POP POP POP PUSH2 0x2198 JUMPI PUSH1 0x48 PUSH2 0x379 SWAP4 DUP7 SWAP4 PUSH2 0x217C SWAP4 PUSH2 0x216D SWAP9 MLOAD SWAP9 DUP10 SWAP4 PUSH23 0x20B1B1B2B9B9A1B7B73A3937B61D1030B1B1B7BAB73A1 PUSH1 0x4D SHL DUP11 DUP7 ADD MSTORE PUSH2 0x320 DUP2 MLOAD DUP1 SWAP3 DUP13 PUSH1 0x37 DUP10 ADD SWAP2 ADD PUSH2 0x1EE5 JUMP JUMPDEST SWAP1 SWAP2 SWAP3 PUSH1 0xF DUP2 AND PUSH1 0x10 DUP2 LT ISZERO PUSH2 0x2222 JUMPI PUSH16 0x181899199A1A9B1B9C1CB0B131B232B3 PUSH1 0x81 SHL SWAP1 BYTE PUSH2 0x233F DUP6 DUP8 PUSH2 0x254E JUMP JUMPDEST MSTORE8 PUSH1 0x4 SHR SWAP3 DUP1 ISZERO PUSH2 0x220E JUMPI PUSH1 0x0 NOT ADD SWAP2 SWAP1 PUSH2 0x22BB JUMP JUMPDEST SWAP1 PUSH1 0x0 SWAP2 DUP1 DUP4 MSTORE DUP3 PUSH1 0x20 MSTORE PUSH1 0x40 DUP4 KECCAK256 SWAP2 PUSH1 0x1 DUP1 PUSH1 0xA0 SHL SUB AND SWAP2 DUP3 DUP5 MSTORE PUSH1 0x20 MSTORE PUSH1 0xFF PUSH1 0x40 DUP5 KECCAK256 SLOAD AND PUSH2 0x2385 JUMPI POP POP POP JUMP JUMPDEST DUP1 DUP4 MSTORE DUP3 PUSH1 0x20 MSTORE PUSH1 0x40 DUP4 KECCAK256 DUP3 DUP5 MSTORE PUSH1 0x20 MSTORE PUSH1 0x40 DUP4 KECCAK256 PUSH1 0xFF NOT DUP2 SLOAD AND SWAP1 SSTORE PUSH32 0xF6391F5C32D9C69D2A47EA670B442974B53935D1EDC7FD64EB21E047A839171B CALLER SWAP4 DUP1 LOG4 JUMP JUMPDEST PUSH1 0x40 MLOAD PUSH4 0xA9059CBB PUSH1 0xE0 SHL PUSH1 0x20 DUP3 ADD MSTORE PUSH1 0x1 PUSH1 0x1 PUSH1 0xA0 SHL SUB SWAP1 SWAP3 AND PUSH1 0x24 DUP4 ADD MSTORE PUSH1 0x44 DUP1 DUP4 ADD SWAP4 SWAP1 SWAP4 MSTORE SWAP2 DUP2 MSTORE PUSH1 0x80 DUP2 ADD SWAP2 PUSH1 0x1 PUSH1 0x1 PUSH1 0x40 SHL SUB DUP4 GT DUP3 DUP5 LT OR PUSH2 0x11D4 JUMPI PUSH2 0x2418 SWAP3 PUSH1 0x40 MSTORE PUSH2 0x241A JUMP JUMPDEST JUMP JUMPDEST PUSH1 0x1 DUP1 PUSH1 0xA0 SHL SUB AND SWAP1 PUSH1 0x40 MLOAD PUSH1 0x40 DUP2 ADD SWAP1 DUP1 DUP3 LT PUSH1 0x1 PUSH1 0x1 PUSH1 0x40 SHL SUB DUP4 GT OR PUSH2 0x11D4 JUMPI PUSH2 0x24A9 SWAP2 PUSH1 0x40 MSTORE PUSH1 0x20 SWAP4 DUP5 DUP3 MSTORE PUSH32 0x5361666545524332303A206C6F772D6C6576656C2063616C6C206661696C6564 DUP6 DUP4 ADD MSTORE PUSH1 0x0 DUP1 DUP6 DUP8 DUP3 SWAP8 MLOAD SWAP2 ADD DUP3 DUP6 GAS CALL RETURNDATASIZE ISZERO PUSH2 0x2546 JUMPI RETURNDATASIZE SWAP2 PUSH2 0x248E DUP4 PUSH2 0x2052 JUMP JUMPDEST SWAP3 PUSH2 0x249C PUSH1 0x40 MLOAD SWAP5 DUP6 PUSH2 0x1FAA JUMP JUMPDEST DUP4 MSTORE RETURNDATASIZE DUP7 DUP9 DUP6 ADD RETURNDATACOPY PUSH2 0x265C JUMP JUMPDEST DUP1 MLOAD SWAP2 DUP3 ISZERO SWAP2 DUP5 DUP4 ISZERO PUSH2 0x251B JUMPI JUMPDEST POP POP POP SWAP1 POP ISZERO PUSH2 0x24C4 JUMPI POP JUMP JUMPDEST PUSH1 0x84 SWAP1 PUSH1 0x40 MLOAD SWAP1 PUSH3 0x461BCD PUSH1 0xE5 SHL DUP3 MSTORE PUSH1 0x4 DUP3 ADD MSTORE PUSH1 0x2A PUSH1 0x24 DUP3 ADD MSTORE PUSH32 0x5361666545524332303A204552433230206F7065726174696F6E20646964206E PUSH1 0x44 DUP3 ADD MSTORE PUSH10 0x1BDD081CDD58D8D95959 PUSH1 0xB2 SHL PUSH1 0x64 DUP3 ADD MSTORE REVERT JUMPDEST SWAP2 SWAP4 DUP2 DUP1 SWAP5 POP ADD SUB SLT PUSH2 0x2542 JUMPI DUP3 ADD MLOAD SWAP1 DUP2 ISZERO ISZERO DUP3 SUB PUSH2 0x253F JUMPI POP DUP1 CODESIZE DUP1 DUP5 PUSH2 0x24B7 JUMP JUMPDEST DUP1 REVERT JUMPDEST POP DUP1 REVERT JUMPDEST PUSH1 0x60 SWAP2 PUSH2 0x265C JUMP JUMPDEST SWAP1 DUP2 MLOAD DUP2 LT ISZERO PUSH2 0x408 JUMPI ADD PUSH1 0x20 ADD SWAP1 JUMP JUMPDEST PUSH1 0x40 MLOAD SWAP1 PUSH1 0x60 DUP3 ADD DUP3 DUP2 LT PUSH1 0x1 PUSH1 0x1 PUSH1 0x40 SHL SUB DUP3 GT OR PUSH2 0x11D4 JUMPI PUSH1 0x40 MSTORE PUSH1 0x2A DUP3 MSTORE PUSH1 0x20 DUP3 ADD PUSH1 0x40 CALLDATASIZE DUP3 CALLDATACOPY DUP3 MLOAD ISZERO PUSH2 0x408 JUMPI PUSH1 0x30 SWAP1 MSTORE8 DUP2 MLOAD PUSH1 0x1 SWAP1 PUSH1 0x1 LT ISZERO PUSH2 0x408 JUMPI PUSH1 0x78 PUSH1 0x21 DUP5 ADD MSTORE8 PUSH1 0x29 SWAP1 JUMPDEST DUP1 DUP3 GT PUSH2 0x25EE JUMPI POP POP PUSH2 0x25BC JUMPI SWAP1 JUMP JUMPDEST PUSH1 0x64 PUSH1 0x40 MLOAD PUSH3 0x461BCD PUSH1 0xE5 SHL DUP2 MSTORE PUSH1 0x20 PUSH1 0x4 DUP3 ADD MSTORE PUSH1 0x20 PUSH1 0x24 DUP3 ADD MSTORE PUSH1 0x0 DUP1 MLOAD PUSH1 0x20 PUSH2 0x26F6 DUP4 CODECOPY DUP2 MLOAD SWAP2 MSTORE PUSH1 0x44 DUP3 ADD MSTORE REVERT JUMPDEST SWAP1 SWAP2 PUSH1 0xF DUP2 AND PUSH1 0x10 DUP2 LT ISZERO PUSH2 0x2647 JUMPI PUSH16 0x181899199A1A9B1B9C1CB0B131B232B3 PUSH1 0x81 SHL SWAP1 BYTE PUSH2 0x261D DUP5 DUP7 PUSH2 0x254E JUMP JUMPDEST MSTORE8 PUSH1 0x4 SHR SWAP2 DUP1 ISZERO PUSH2 0x2632 JUMPI PUSH1 0x0 NOT ADD SWAP1 PUSH2 0x25AC JUMP JUMPDEST PUSH1 0x24 PUSH1 0x0 PUSH4 0x4E487B71 PUSH1 0xE0 SHL DUP2 MSTORE PUSH1 0x11 PUSH1 0x4 MSTORE REVERT JUMPDEST PUSH1 0x24 PUSH1 0x0 PUSH4 0x4E487B71 PUSH1 0xE0 SHL DUP2 MSTORE PUSH1 0x32 PUSH1 0x4 MSTORE REVERT JUMPDEST SWAP2 SWAP3 SWAP1 ISZERO PUSH2 0x26BE JUMPI POP DUP2 MLOAD ISZERO PUSH2 0x2670 JUMPI POP SWAP1 JUMP JUMPDEST EXTCODESIZE ISZERO PUSH2 0x2679 JUMPI SWAP1 JUMP JUMPDEST PUSH1 0x40 MLOAD PUSH3 0x461BCD PUSH1 0xE5 SHL DUP2 MSTORE PUSH1 0x20 PUSH1 0x4 DUP3 ADD MSTORE PUSH1 0x1D PUSH1 0x24 DUP3 ADD MSTORE PUSH32 0x416464726573733A2063616C6C20746F206E6F6E2D636F6E7472616374000000 PUSH1 0x44 DUP3 ADD MSTORE PUSH1 0x64 SWAP1 REVERT JUMPDEST DUP3 MLOAD SWAP1 SWAP2 POP ISZERO PUSH2 0x26D1 JUMPI POP DUP1 MLOAD SWAP1 PUSH1 0x20 ADD REVERT JUMPDEST PUSH1 0x40 MLOAD PUSH3 0x461BCD PUSH1 0xE5 SHL DUP2 MSTORE PUSH1 0x20 PUSH1 0x4 DUP3 ADD MSTORE SWAP1 DUP2 SWAP1 PUSH2 0x379 SWAP1 PUSH1 0x24 DUP4 ADD SWAP1 PUSH2 0x1F08 JUMP INVALID MSTORE8 PUSH21 0x72696E67733A20686578206C656E67746820696E73 PUSH22 0x6666696369656E74A26469706673582212205B43CD5E DUP13 0xBF CALLDATACOPY SWAP12 TSTORE 0xF9 0xCB 0xC8 NUMBER 0xAB 0x2A 0xE5 PUSH8 0xAD7AFDA13CE4E30C OR 0xAB PUSH24 0x5F8E879064736F6C63430008180033000000000000000000 "},"methodIdentifiers":{"DEFAULT_ADMIN_ROLE()":"a217fddf","MARKETPLACE_ROLE()":"c3439f3f","REPAYMENT_MANAGER_ROLE()":"3e824d5c","createCredit((uint256,uint256,uint64,uint8,uint16,bytes32,string,bytes32,bool,uint32,bool,address,uint256,uint256,uint16,string))":"873f170f","creditScore()":"39da3152","creditToken()":"899e5d85","getAllCreditIds()":"a5c3f464","getCredit(uint256)":"da304e4d","getCreditSummary(uint256)":"058384fa","getRoleAdmin(bytes32)":"248a9ca3","grantRole(bytes32,address)":"2f2ff15d","hasRole(bytes32,address)":"91d14854","markDefault(uint256)":"e1d927c8","markSettled(uint256)":"7e5634b9","nextCreditId()":"fc00b798","platformMinScore()":"6c681f1c","releaseCollateral(uint256,address)":"532c6b37","renounceRole(bytes32,address)":"36568abe","revokeRole(bytes32,address)":"d547741f","seizeCollateral(uint256,address)":"ac9cf4db","setFunded(uint256,uint64)":"420f7810","setPlatformMinScore(uint32)":"def45c1a","supportsInterface(bytes4)":"01ffc9a7"}}}}}