{"contracts/CreditScore.sol":{"CreditScore":{"abi":[{"inputs":[{"internalType":"address","name":"admin","type":"address"},{"internalType":"address","name":"scorer","type":"address"}],"stateMutability":"nonpayable","type":"constructor"},{"anonymous":false,"inputs":[{"indexed":true,"internalType":"address","name":"borrower","type":"address"},{"indexed":false,"internalType":"uint32","name":"successfulRepayments","type":"uint32"},{"indexed":false,"internalType":"uint32","name":"defaults","type":"uint32"},{"indexed":false,"internalType":"uint256","name":"score","type":"uint256"}],"name":"RepaymentPerformanceUpdated","type":"event"},{"anonymous":false,"inputs":[{"indexed":true,"internalType":"bytes32","name":"role","type":"bytes32"},{"indexed":true,"internalType":"bytes32","name":"previousAdminRole","type":"bytes32"},{"indexed":true,"internalType":"bytes32","name":"newAdminRole","type":"bytes32"}],"name":"RoleAdminChanged","type":"event"},{"anonymous":false,"inputs":[{"indexed":true,"internalType":"bytes32","name":"role","type":"bytes32"},{"indexed":true,"internalType":"address","name":"account","type":"address"},{"indexed":true,"internalType":"address","name":"sender","type":"address"}],"name":"RoleGranted","type":"event"},{"anonymous":false,"inputs":[{"indexed":true,"internalType":"bytes32","name":"role","type":"bytes32"},{"indexed":true,"internalType":"address","name":"account","type":"address"},{"indexed":true,"internalType":"address","name":"sender","type":"address"}],"name":"RoleRevoked","type":"event"},{"anonymous":false,"inputs":[{"indexed":true,"internalType":"address","name":"wallet","type":"address"},{"indexed":false,"internalType":"uint256","name":"score","type":"uint256"},{"components":[{"internalType":"uint32","name":"txFrequency","type":"uint32"},{"internalType":"uint32","name":"defiInteractionCount","type":"uint32"},{"internalType":"uint32","name":"successfulRepayments","type":"uint32"},{"internalType":"uint32","name":"defaults","type":"uint32"},{"internalType":"uint32","name":"avgGasUsed","type":"uint32"},{"internalType":"uint64","name":"measuredAt","type":"uint64"}],"indexed":false,"internalType":"struct CreditScore.WalletMetrics","name":"metrics","type":"tuple"},{"indexed":false,"internalType":"string","name":"evidenceURI","type":"string"},{"indexed":false,"internalType":"bytes32","name":"evidenceHash","type":"bytes32"}],"name":"ScoreUpdated","type":"event"},{"inputs":[],"name":"DEFAULT_ADMIN_ROLE","outputs":[{"internalType":"bytes32","name":"","type":"bytes32"}],"stateMutability":"view","type":"function"},{"inputs":[],"name":"REPAYMENT_MANAGER_ROLE","outputs":[{"internalType":"bytes32","name":"","type":"bytes32"}],"stateMutability":"view","type":"function"},{"inputs":[],"name":"SCORER_ROLE","outputs":[{"internalType":"bytes32","name":"","type":"bytes32"}],"stateMutability":"view","type":"function"},{"inputs":[{"components":[{"internalType":"uint32","name":"txFrequency","type":"uint32"},{"internalType":"uint32","name":"defiInteractionCount","type":"uint32"},{"internalType":"uint32","name":"successfulRepayments","type":"uint32"},{"internalType":"uint32","name":"defaults","type":"uint32"},{"internalType":"uint32","name":"avgGasUsed","type":"uint32"},{"internalType":"uint64","name":"measuredAt","type":"uint64"}],"internalType":"struct CreditScore.WalletMetrics","name":"m","type":"tuple"}],"name":"computeScore","outputs":[{"internalType":"uint256","name":"","type":"uint256"}],"stateMutability":"pure","type":"function"},{"inputs":[{"internalType":"bytes32","name":"role","type":"bytes32"}],"name":"getRoleAdmin","outputs":[{"internalType":"bytes32","name":"","type":"bytes32"}],"stateMutability":"view","type":"function"},{"inputs":[{"internalType":"address","name":"wallet","type":"address"}],"name":"getScore","outputs":[{"internalType":"uint256","name":"","type":"uint256"}],"stateMutability":"view","type":"function"},{"inputs":[{"internalType":"bytes32","name":"role","type":"bytes32"},{"internalType":"address","name":"account","type":"address"}],"name":"grantRole","outputs":[],"stateMutability":"nonpayable","type":"function"},{"inputs":[{"internalType":"bytes32","name":"role","type":"bytes32"},{"internalType":"address","name":"account","type":"address"}],"name":"hasRole","outputs":[{"internalType":"bool","name":"","type":"bool"}],"stateMutability":"view","type":"function"},{"inputs":[{"internalType":"address","name":"","type":"address"}],"name":"metrics","outputs":[{"internalType":"uint32","name":"txFrequency","type":"uint32"},{"internalType":"uint32","name":"defiInteractionCount","type":"uint32"},{"internalType":"uint32","name":"successfulRepayments","type":"uint32"},{"internalType":"uint32","name":"defaults","type":"uint32"},{"internalType":"uint32","name":"avgGasUsed","type":"uint32"},{"internalType":"uint64","name":"measuredAt","type":"uint64"}],"stateMutability":"view","type":"function"},{"inputs":[{"internalType":"address","name":"borrower","type":"address"}],"name":"recordDefault","outputs":[],"stateMutability":"nonpayable","type":"function"},{"inputs":[{"internalType":"address","name":"borrower","type":"address"},{"internalType":"bool","name":"success","type":"bool"}],"name":"recordRepayment","outputs":[],"stateMutability":"nonpayable","type":"function"},{"inputs":[{"internalType":"bytes32","name":"role","type":"bytes32"},{"internalType":"address","name":"account","type":"address"}],"name":"renounceRole","outputs":[],"stateMutability":"nonpayable","type":"function"},{"inputs":[{"internalType":"bytes32","name":"role","type":"bytes32"},{"internalType":"address","name":"account","type":"address"}],"name":"revokeRole","outputs":[],"stateMutability":"nonpayable","type":"function"},{"inputs":[{"internalType":"address","name":"","type":"address"}],"name":"score","outputs":[{"internalType":"uint256","name":"","type":"uint256"}],"stateMutability":"view","type":"function"},{"inputs":[{"internalType":"bytes4","name":"interfaceId","type":"bytes4"}],"name":"supportsInterface","outputs":[{"internalType":"bool","name":"","type":"bool"}],"stateMutability":"view","type":"function"},{"inputs":[{"internalType":"address","name":"wallet","type":"address"},{"components":[{"internalType":"uint32","name":"txFrequency","type":"uint32"},{"internalType":"uint32","name":"defiInteractionCount","type":"uint32"},{"internalType":"uint32","name":"successfulRepayments","type":"uint32"},{"internalType":"uint32","name":"defaults","type":"uint32"},{"internalType":"uint32","name":"avgGasUsed","type":"uint32"},{"internalType":"uint64","name":"measuredAt","type":"uint64"}],"internalType":"struct CreditScore.WalletMetrics","name":"newMetrics","type":"tuple"},{"internalType":"string","name":"evidenceURI","type":"string"},{"internalType":"bytes32","name":"evidenceHash","type":"bytes32"}],"name":"updateFromMetrics","outputs":[],"stateMutability":"nonpayable","type":"function"}],"evm":{"bytecode":{"linkReferences":{},"object":"6080346200014d57620015b790601f38839003908101601f19168201906001600160401b038211838310176200015257808391604095869485528339810103126200014d576200004f8162000168565b6200005e602080930162000168565b9060009283805283815284842060018060a01b0380931690818652825260ff86862054161562000114575b507f7f3f5c26f2e002e717c4feeca3fac851759df70cd9d703d83098f12a7ad024ca91828552848252858520931692838552815260ff858520541615620000da575b845161141990816200017e8239f35b8184528381528484209083855252838320600160ff1982541617905560008051602062001597833981519152339380a438808080620000cb565b8480528482528585208186528252858520805460ff19166001179055339085600080516020620015978339815191528180a43862000089565b600080fd5b634e487b7160e01b600052604160045260246000fd5b51906001600160a01b03821682036200014d5756fe6080806040526004908136101561001557600080fd5b60003560e01c90816301ffc9a714610bb45750806313673bd114610abd578063248a9ca314610a8f5780632f2ff15d146109dd57806336568abe1461094d5780633e824d5c14610912578063776f3843146101b85780638df7352c1461082557806391d14854146107d8578063995305fc146102c9578063a217fddf146102ad578063a4d6d49514610272578063d0e64ec5146101f2578063d47875d0146101b8578063d547741f146101775763d8d5c4c3146100d157600080fd5b346101725760c036600319011261017257604051906100ef82610c32565b3563ffffffff908181168103610172578252602435818116810361017257602083015260443581811681036101725760408301526064358181168103610172576060830152608435908116810361017257608082015260a43567ffffffffffffffff81168103610172578161016a9160a06020940152610d3f565b604051908152f35b600080fd5b5034610172576040366003190112610172576101b69035610196610c1c565b908060005260006020526101b1600160406000200154611109565b611215565b005b34610172576020366003190112610172576001600160a01b036101d9610c06565b1660005260026020526020604060002054604051908152f35b34610172576020366003190112610172576001600160a01b03610213610c06565b16600052600160205260c060406000205467ffffffffffffffff63ffffffff91604051928082168452808260201c166020850152808260401c166040850152808260601c1660608501528160801c16608084015260a01c1660a0820152f35b346101725760003660031901126101725760206040517f7f3f5c26f2e002e717c4feeca3fac851759df70cd9d703d83098f12a7ad024ca8152f35b3461017257600036600319011261017257602060405160008152f35b503461017257610120366003190112610172576102e4610c06565b60c03660231901126101725767ffffffffffffffff60e435116101725736602360e4350112156101725767ffffffffffffffff60e43583013511610172573660e435838101350160240111610172573360009081527f8ee9d8d0a7f7bb18428ece8ceaf9b54f8f381e4ec39fb83041a9a4d41598963660205260409020547f7f3f5c26f2e002e717c4feeca3fac851759df70cd9d703d83098f12a7ad024ca9060ff16156105f057506001600160a01b03811660009081526001602052604090209060243563ffffffff8116900361017257815463ffffffff60443516604435036101725767ffffffff0000000060443560201b169063ffffffff602435169067ffffffffffffffff19161717825563ffffffff606435166064350361017257815463ffffffff60401b191660643560401b63ffffffff60401b1617825563ffffffff608435166084350361017257815463ffffffff60601b191660843560601b63ffffffff60601b1617825563ffffffff60a4351660a435036101725781549167ffffffffffffffff60c4351660c43503610172576bffffffffffffffffffffffff60801b1990921660a43560801b63ffffffff60801b161760c43560a01b67ffffffffffffffff60a01b16179091556040517fe6de2a2bbac06d36c45208ebe5114b2ca0cacd8280088a5b016be1540d2102df919061051a906104e881610c32565b602435815260443560208201526064356040820152608435606082015260a435608082015260c43560a0820152610d3f565b9060018060a01b03811660005260026020528160406000205560405191825263ffffffff60243516602083015263ffffffff60443516604083015263ffffffff60643516606083015263ffffffff60843516608083015263ffffffff60a4351660a083015267ffffffffffffffff60c4351660c083015261012060e083015260e435840135610120830152816101409160e435860135602460e4350184840137600060e4359690960135828101840196909652610104356101008301526001600160a01b031694601f01601f19168101030190a2005b90506105fb336112d3565b9060405161060881610c64565b60428152602081019160603684378151156107c357603083538151600190600110156107ae57607860218401536041905b8082116107415750506106fd57916106ef602094926106cb60486044966040519384916106bc8b84019876020b1b1b2b9b9a1b7b73a3937b61d1030b1b1b7bab73a1604d1b8a52610693815180928f603789019101611289565b8401917001034b99036b4b9b9b4b733903937b6329607d1b603784015251809386840190611289565b01036028810184520182610c80565b60405195869462461bcd60e51b865285015251809281602486015285850190611289565b601f01601f19168101030190fd5b60405162461bcd60e51b8152602081860181905260248201527f537472696e67733a20686578206c656e67746820696e73756666696369656e746044820152606490fd5b9091600f81166010811015610799576f181899199a1a9b1b9c1cb0b131b232b360811b901a61077084866112ac565b53861c918015610784576000190190610639565b601187634e487b7160e01b6000525260246000fd5b603288634e487b7160e01b6000525260246000fd5b603286634e487b7160e01b6000525260246000fd5b603285634e487b7160e01b6000525260246000fd5b5034610172576040366003190112610172576107f2610c1c565b9035600052600060205260406000209060018060a01b0316600052602052602060ff604060002054166040519015158152f35b346101725760203660031901126101725761083e610c06565b610846610f0d565b60018060a01b03168060005260016020527f1ac40b94dd3dfceda4d62efd9d2bb32e8301fc87fd027652d82f3c9a446bd802604060002063ffffffff6108b461089482845460601c16610ca2565b835463ffffffff60601b191660609190911b63ffffffff60601b16178355565b61090d6108c86108c384610ccd565b610d3f565b92856000526002602052836040600020555492604051938385948260601c169160401c168460409194939294606082019563ffffffff80921683521660208201520152565b0390a2005b346101725760003660031901126101725760206040517f93714ee7e3775f280f9ab925a5b649b6e87f18ae11f75082555fc719f33f97668152f35b503461017257604036600319011261017257610967610c1c565b336001600160a01b03821603610981576101b69135611215565b60405162461bcd60e51b8152602081840152602f60248201527f416363657373436f6e74726f6c3a2063616e206f6e6c792072656e6f756e636560448201526e103937b632b9903337b91039b2b63360891b6064820152608490fd5b503461017257604036600319011261017257356109f8610c1c565b816000526000602052610a12600160406000200154611109565b81600052600060205260406000209060018060a01b0316908160005260205260ff6040600020541615610a4157005b8160005260006020526040600020816000526020526040600020600160ff1982541617905533917f2f8788117e7eff1d82e926ec794901d17c78024a50270940304540a733656f0d600080a4005b5034610172576020366003190112610172573560005260006020526020600160406000200154604051908152f35b3461017257604036600319011261017257610ad6610c06565b602435908115158203610172577f1ac40b94dd3dfceda4d62efd9d2bb32e8301fc87fd027652d82f3c9a446bd80290610b0d610f0d565b6001600160a01b031660008181526001602052604090209092610b79575b610b376108c382610ccd565b6000848152600260209081526040918290208390559254815163ffffffff82841c81168252606092831c1694810194909452908301919091528190810161090d565b610baf610b8f63ffffffff835460401c16610ca2565b825463ffffffff60401b191660409190911b63ffffffff60401b16178255565b610b2b565b823461017257602036600319011261017257359063ffffffff60e01b821680920361017257602091637965db0b60e01b8114908115610bf5575b5015158152f35b6301ffc9a760e01b14905083610bee565b600435906001600160a01b038216820361017257565b602435906001600160a01b038216820361017257565b60c0810190811067ffffffffffffffff821117610c4e57604052565b634e487b7160e01b600052604160045260246000fd5b6080810190811067ffffffffffffffff821117610c4e57604052565b90601f8019910116810190811067ffffffffffffffff821117610c4e57604052565b90600163ffffffff80931601918211610cb757565b634e487b7160e01b600052601160045260246000fd5b90604051610cda81610c32565b60a067ffffffffffffffff82945463ffffffff8082168552808260201c166020860152808260401c166040860152808260601c1660608601528160801c166080850152821c16910152565b91908203918211610cb757565b91908201809211610cb757565b805163ffffffff6403fffffffc8183169260021b16600492808204841490151715610ef85760dc811015610ef0575b81602085015116600681029080820460061490151715610edb5760b4811015610ed257905b82604086015116602381029080820460231490151715610e8f5761011880821015610eca5750925b80606087015116607881029080820460781490151715610eb5576080906101a480821015610ead5750965b01511662055730811115610ea4576205572f198101908111610e8f576103e890046050811015610e87575b935b61012c918201809211610e725750610e349291610e2f91610d32565b610d32565b80610e3f8385610d32565b1015610e6a57610e5792610e5291610d25565b610d25565b6103e8808211610e65575090565b905090565b505050600090565b601190634e487b7160e01b6000525260246000fd5b506050610e11565b601185634e487b7160e01b6000525260246000fd5b50600093610e13565b905096610de6565b601186634e487b7160e01b6000525260246000fd5b905092610dbb565b5060b490610d93565b601184634e487b7160e01b6000525260246000fd5b5060dc610d6e565b601183634e487b7160e01b6000525260246000fd5b3360009081527fd142efb147cd07881263fa4f60f77935fe75e436dd3c66b782b237f8530f2ca16020908152604080832054909291907f93714ee7e3775f280f9ab925a5b649b6e87f18ae11f75082555fc719f33f97669060ff1615610f735750505050565b610f7c336112d3565b90845190610f8982610c64565b604282528382019460603687378251156110f55760308653825190600191600110156110f55790607860218501536041915b81831161108757505050611045578461102160486106ef9360449798519889916110128984019876020b1b1b2b9b9a1b7b73a3937b61d1030b1b1b7bab73a1604d1b8a52610693815180928d603789019101611289565b01036028810189520187610c80565b5194859362461bcd60e51b8552600485015251809281602486015285850190611289565b60648386519062461bcd60e51b825280600483015260248201527f537472696e67733a20686578206c656e67746820696e73756666696369656e746044820152fd5b909192600f811660108110156110e1576f181899199a1a9b1b9c1cb0b131b232b360811b901a6110b785876112ac565b5360041c9280156110cd57600019019190610fbb565b634e487b7160e01b82526011600452602482fd5b634e487b7160e01b83526032600452602483fd5b634e487b7160e01b81526032600452602490fd5b60008181526020818152604092838320338452825260ff8484205416156111305750505050565b611139336112d3565b9084519061114682610c64565b604282528382019460603687378251156110f55760308653825190600191600110156110f55790607860218501536041915b8183116111cf57505050611045578461102160486106ef9360449798519889916110128984019876020b1b1b2b9b9a1b7b73a3937b61d1030b1b1b7bab73a1604d1b8a52610693815180928d603789019101611289565b909192600f811660108110156110e1576f181899199a1a9b1b9c1cb0b131b232b360811b901a6111ff85876112ac565b5360041c9280156110cd57600019019190611178565b9060009180835282602052604083209160018060a01b03169182845260205260ff60408420541661124557505050565b80835282602052604083208284526020526040832060ff1981541690557ff6391f5c32d9c69d2a47ea670b442974b53935d1edc7fd64eb21e047a839171b339380a4565b60005b83811061129c5750506000910152565b818101518382015260200161128c565b9081518110156112bd570160200190565b634e487b7160e01b600052603260045260246000fd5b604051906060820182811067ffffffffffffffff821117610c4e57604052602a82526020820160403682378251156112bd57603090538151600190600110156112bd57607860218401536029905b8082116113755750506113315790565b606460405162461bcd60e51b815260206004820152602060248201527f537472696e67733a20686578206c656e67746820696e73756666696369656e746044820152fd5b9091600f811660108110156113ce576f181899199a1a9b1b9c1cb0b131b232b360811b901a6113a484866112ac565b5360041c9180156113b9576000190190611321565b60246000634e487b7160e01b81526011600452fd5b60246000634e487b7160e01b81526032600452fdfea26469706673582212202e41288bf4f5b12bb4ddcca531e19e13815f0b7092a9e62d0f3f6917542410eb64736f6c634300081800332f8788117e7eff1d82e926ec794901d17c78024a50270940304540a733656f0d","opcodes":"PUSH1 0x80 CALLVALUE PUSH3 0x14D JUMPI PUSH3 0x15B7 SWAP1 PUSH1 0x1F CODESIZE DUP4 SWAP1 SUB SWAP1 DUP2 ADD PUSH1 0x1F NOT AND DUP3 ADD SWAP1 PUSH1 0x1 PUSH1 0x1 PUSH1 0x40 SHL SUB DUP3 GT DUP4 DUP4 LT OR PUSH3 0x152 JUMPI DUP1 DUP4 SWAP2 PUSH1 0x40 SWAP6 DUP7 SWAP5 DUP6 MSTORE DUP4 CODECOPY DUP2 ADD SUB SLT PUSH3 0x14D JUMPI PUSH3 0x4F DUP2 PUSH3 0x168 JUMP JUMPDEST PUSH3 0x5E PUSH1 0x20 DUP1 SWAP4 ADD PUSH3 0x168 JUMP JUMPDEST SWAP1 PUSH1 0x0 SWAP3 DUP4 DUP1 MSTORE DUP4 DUP2 MSTORE DUP5 DUP5 KECCAK256 PUSH1 0x1 DUP1 PUSH1 0xA0 SHL SUB DUP1 SWAP4 AND SWAP1 DUP2 DUP7 MSTORE DUP3 MSTORE PUSH1 0xFF DUP7 DUP7 KECCAK256 SLOAD AND ISZERO PUSH3 0x114 JUMPI JUMPDEST POP PUSH32 0x7F3F5C26F2E002E717C4FEECA3FAC851759DF70CD9D703D83098F12A7AD024CA SWAP2 DUP3 DUP6 MSTORE DUP5 DUP3 MSTORE DUP6 DUP6 KECCAK256 SWAP4 AND SWAP3 DUP4 DUP6 MSTORE DUP2 MSTORE PUSH1 0xFF DUP6 DUP6 KECCAK256 SLOAD AND ISZERO PUSH3 0xDA JUMPI JUMPDEST DUP5 MLOAD PUSH2 0x1419 SWAP1 DUP2 PUSH3 0x17E DUP3 CODECOPY RETURN JUMPDEST DUP2 DUP5 MSTORE DUP4 DUP2 MSTORE DUP5 DUP5 KECCAK256 SWAP1 DUP4 DUP6 MSTORE MSTORE DUP4 DUP4 KECCAK256 PUSH1 0x1 PUSH1 0xFF NOT DUP3 SLOAD AND OR SWAP1 SSTORE PUSH1 0x0 DUP1 MLOAD PUSH1 0x20 PUSH3 0x1597 DUP4 CODECOPY DUP2 MLOAD SWAP2 MSTORE CALLER SWAP4 DUP1 LOG4 CODESIZE DUP1 DUP1 DUP1 PUSH3 0xCB JUMP JUMPDEST DUP5 DUP1 MSTORE DUP5 DUP3 MSTORE DUP6 DUP6 KECCAK256 DUP2 DUP7 MSTORE DUP3 MSTORE DUP6 DUP6 KECCAK256 DUP1 SLOAD PUSH1 0xFF NOT AND PUSH1 0x1 OR SWAP1 SSTORE CALLER SWAP1 DUP6 PUSH1 0x0 DUP1 MLOAD PUSH1 0x20 PUSH3 0x1597 DUP4 CODECOPY DUP2 MLOAD SWAP2 MSTORE DUP2 DUP1 LOG4 CODESIZE PUSH3 0x89 JUMP JUMPDEST PUSH1 0x0 DUP1 REVERT JUMPDEST PUSH4 0x4E487B71 PUSH1 0xE0 SHL PUSH1 0x0 MSTORE PUSH1 0x41 PUSH1 0x4 MSTORE PUSH1 0x24 PUSH1 0x0 REVERT JUMPDEST MLOAD SWAP1 PUSH1 0x1 PUSH1 0x1 PUSH1 0xA0 SHL SUB DUP3 AND DUP3 SUB PUSH3 0x14D JUMPI JUMP INVALID PUSH1 0x80 DUP1 PUSH1 0x40 MSTORE PUSH1 0x4 SWAP1 DUP2 CALLDATASIZE LT ISZERO PUSH2 0x15 JUMPI PUSH1 0x0 DUP1 REVERT JUMPDEST PUSH1 0x0 CALLDATALOAD PUSH1 0xE0 SHR SWAP1 DUP2 PUSH4 0x1FFC9A7 EQ PUSH2 0xBB4 JUMPI POP DUP1 PUSH4 0x13673BD1 EQ PUSH2 0xABD JUMPI DUP1 PUSH4 0x248A9CA3 EQ PUSH2 0xA8F JUMPI DUP1 PUSH4 0x2F2FF15D EQ PUSH2 0x9DD JUMPI DUP1 PUSH4 0x36568ABE EQ PUSH2 0x94D JUMPI DUP1 PUSH4 0x3E824D5C EQ PUSH2 0x912 JUMPI DUP1 PUSH4 0x776F3843 EQ PUSH2 0x1B8 JUMPI DUP1 PUSH4 0x8DF7352C EQ PUSH2 0x825 JUMPI DUP1 PUSH4 0x91D14854 EQ PUSH2 0x7D8 JUMPI DUP1 PUSH4 0x995305FC EQ PUSH2 0x2C9 JUMPI DUP1 PUSH4 0xA217FDDF EQ PUSH2 0x2AD JUMPI DUP1 PUSH4 0xA4D6D495 EQ PUSH2 0x272 JUMPI DUP1 PUSH4 0xD0E64EC5 EQ PUSH2 0x1F2 JUMPI DUP1 PUSH4 0xD47875D0 EQ PUSH2 0x1B8 JUMPI DUP1 PUSH4 0xD547741F EQ PUSH2 0x177 JUMPI PUSH4 0xD8D5C4C3 EQ PUSH2 0xD1 JUMPI PUSH1 0x0 DUP1 REVERT JUMPDEST CALLVALUE PUSH2 0x172 JUMPI PUSH1 0xC0 CALLDATASIZE PUSH1 0x3 NOT ADD SLT PUSH2 0x172 JUMPI PUSH1 0x40 MLOAD SWAP1 PUSH2 0xEF DUP3 PUSH2 0xC32 JUMP JUMPDEST CALLDATALOAD PUSH4 0xFFFFFFFF SWAP1 DUP2 DUP2 AND DUP2 SUB PUSH2 0x172 JUMPI DUP3 MSTORE PUSH1 0x24 CALLDATALOAD DUP2 DUP2 AND DUP2 SUB PUSH2 0x172 JUMPI PUSH1 0x20 DUP4 ADD MSTORE PUSH1 0x44 CALLDATALOAD DUP2 DUP2 AND DUP2 SUB PUSH2 0x172 JUMPI PUSH1 0x40 DUP4 ADD MSTORE PUSH1 0x64 CALLDATALOAD DUP2 DUP2 AND DUP2 SUB PUSH2 0x172 JUMPI PUSH1 0x60 DUP4 ADD MSTORE PUSH1 0x84 CALLDATALOAD SWAP1 DUP2 AND DUP2 SUB PUSH2 0x172 JUMPI PUSH1 0x80 DUP3 ADD MSTORE PUSH1 0xA4 CALLDATALOAD PUSH8 0xFFFFFFFFFFFFFFFF DUP2 AND DUP2 SUB PUSH2 0x172 JUMPI DUP2 PUSH2 0x16A SWAP2 PUSH1 0xA0 PUSH1 0x20 SWAP5 ADD MSTORE PUSH2 0xD3F JUMP JUMPDEST PUSH1 0x40 MLOAD SWAP1 DUP2 MSTORE RETURN JUMPDEST PUSH1 0x0 DUP1 REVERT JUMPDEST POP CALLVALUE PUSH2 0x172 JUMPI PUSH1 0x40 CALLDATASIZE PUSH1 0x3 NOT ADD SLT PUSH2 0x172 JUMPI PUSH2 0x1B6 SWAP1 CALLDATALOAD PUSH2 0x196 PUSH2 0xC1C JUMP JUMPDEST SWAP1 DUP1 PUSH1 0x0 MSTORE PUSH1 0x0 PUSH1 0x20 MSTORE PUSH2 0x1B1 PUSH1 0x1 PUSH1 0x40 PUSH1 0x0 KECCAK256 ADD SLOAD PUSH2 0x1109 JUMP JUMPDEST PUSH2 0x1215 JUMP JUMPDEST STOP JUMPDEST CALLVALUE PUSH2 0x172 JUMPI PUSH1 0x20 CALLDATASIZE PUSH1 0x3 NOT ADD SLT PUSH2 0x172 JUMPI PUSH1 0x1 PUSH1 0x1 PUSH1 0xA0 SHL SUB PUSH2 0x1D9 PUSH2 0xC06 JUMP JUMPDEST AND PUSH1 0x0 MSTORE PUSH1 0x2 PUSH1 0x20 MSTORE PUSH1 0x20 PUSH1 0x40 PUSH1 0x0 KECCAK256 SLOAD PUSH1 0x40 MLOAD SWAP1 DUP2 MSTORE RETURN JUMPDEST CALLVALUE PUSH2 0x172 JUMPI PUSH1 0x20 CALLDATASIZE PUSH1 0x3 NOT ADD SLT PUSH2 0x172 JUMPI PUSH1 0x1 PUSH1 0x1 PUSH1 0xA0 SHL SUB PUSH2 0x213 PUSH2 0xC06 JUMP JUMPDEST AND PUSH1 0x0 MSTORE PUSH1 0x1 PUSH1 0x20 MSTORE PUSH1 0xC0 PUSH1 0x40 PUSH1 0x0 KECCAK256 SLOAD PUSH8 0xFFFFFFFFFFFFFFFF PUSH4 0xFFFFFFFF SWAP2 PUSH1 0x40 MLOAD SWAP3 DUP1 DUP3 AND DUP5 MSTORE DUP1 DUP3 PUSH1 0x20 SHR AND PUSH1 0x20 DUP6 ADD MSTORE DUP1 DUP3 PUSH1 0x40 SHR AND PUSH1 0x40 DUP6 ADD MSTORE DUP1 DUP3 PUSH1 0x60 SHR AND PUSH1 0x60 DUP6 ADD MSTORE DUP2 PUSH1 0x80 SHR AND PUSH1 0x80 DUP5 ADD MSTORE PUSH1 0xA0 SHR AND PUSH1 0xA0 DUP3 ADD MSTORE RETURN JUMPDEST CALLVALUE PUSH2 0x172 JUMPI PUSH1 0x0 CALLDATASIZE PUSH1 0x3 NOT ADD SLT PUSH2 0x172 JUMPI PUSH1 0x20 PUSH1 0x40 MLOAD PUSH32 0x7F3F5C26F2E002E717C4FEECA3FAC851759DF70CD9D703D83098F12A7AD024CA DUP2 MSTORE RETURN JUMPDEST CALLVALUE PUSH2 0x172 JUMPI PUSH1 0x0 CALLDATASIZE PUSH1 0x3 NOT ADD SLT PUSH2 0x172 JUMPI PUSH1 0x20 PUSH1 0x40 MLOAD PUSH1 0x0 DUP2 MSTORE RETURN JUMPDEST POP CALLVALUE PUSH2 0x172 JUMPI PUSH2 0x120 CALLDATASIZE PUSH1 0x3 NOT ADD SLT PUSH2 0x172 JUMPI PUSH2 0x2E4 PUSH2 0xC06 JUMP JUMPDEST PUSH1 0xC0 CALLDATASIZE PUSH1 0x23 NOT ADD SLT PUSH2 0x172 JUMPI PUSH8 0xFFFFFFFFFFFFFFFF PUSH1 0xE4 CALLDATALOAD GT PUSH2 0x172 JUMPI CALLDATASIZE PUSH1 0x23 PUSH1 0xE4 CALLDATALOAD ADD SLT ISZERO PUSH2 0x172 JUMPI PUSH8 0xFFFFFFFFFFFFFFFF PUSH1 0xE4 CALLDATALOAD DUP4 ADD CALLDATALOAD GT PUSH2 0x172 JUMPI CALLDATASIZE PUSH1 0xE4 CALLDATALOAD DUP4 DUP2 ADD CALLDATALOAD ADD PUSH1 0x24 ADD GT PUSH2 0x172 JUMPI CALLER PUSH1 0x0 SWAP1 DUP2 MSTORE PUSH32 0x8EE9D8D0A7F7BB18428ECE8CEAF9B54F8F381E4EC39FB83041A9A4D415989636 PUSH1 0x20 MSTORE PUSH1 0x40 SWAP1 KECCAK256 SLOAD PUSH32 0x7F3F5C26F2E002E717C4FEECA3FAC851759DF70CD9D703D83098F12A7AD024CA SWAP1 PUSH1 0xFF AND ISZERO PUSH2 0x5F0 JUMPI POP PUSH1 0x1 PUSH1 0x1 PUSH1 0xA0 SHL SUB DUP2 AND PUSH1 0x0 SWAP1 DUP2 MSTORE PUSH1 0x1 PUSH1 0x20 MSTORE PUSH1 0x40 SWAP1 KECCAK256 SWAP1 PUSH1 0x24 CALLDATALOAD PUSH4 0xFFFFFFFF DUP2 AND SWAP1 SUB PUSH2 0x172 JUMPI DUP2 SLOAD PUSH4 0xFFFFFFFF PUSH1 0x44 CALLDATALOAD AND PUSH1 0x44 CALLDATALOAD SUB PUSH2 0x172 JUMPI PUSH8 0xFFFFFFFF00000000 PUSH1 0x44 CALLDATALOAD PUSH1 0x20 SHL AND SWAP1 PUSH4 0xFFFFFFFF PUSH1 0x24 CALLDATALOAD AND SWAP1 PUSH8 0xFFFFFFFFFFFFFFFF NOT AND OR OR DUP3 SSTORE PUSH4 0xFFFFFFFF PUSH1 0x64 CALLDATALOAD AND PUSH1 0x64 CALLDATALOAD SUB PUSH2 0x172 JUMPI DUP2 SLOAD PUSH4 0xFFFFFFFF PUSH1 0x40 SHL NOT AND PUSH1 0x64 CALLDATALOAD PUSH1 0x40 SHL PUSH4 0xFFFFFFFF PUSH1 0x40 SHL AND OR DUP3 SSTORE PUSH4 0xFFFFFFFF PUSH1 0x84 CALLDATALOAD AND PUSH1 0x84 CALLDATALOAD SUB PUSH2 0x172 JUMPI DUP2 SLOAD PUSH4 0xFFFFFFFF PUSH1 0x60 SHL NOT AND PUSH1 0x84 CALLDATALOAD PUSH1 0x60 SHL PUSH4 0xFFFFFFFF PUSH1 0x60 SHL AND OR DUP3 SSTORE PUSH4 0xFFFFFFFF PUSH1 0xA4 CALLDATALOAD AND PUSH1 0xA4 CALLDATALOAD SUB PUSH2 0x172 JUMPI DUP2 SLOAD SWAP2 PUSH8 0xFFFFFFFFFFFFFFFF PUSH1 0xC4 CALLDATALOAD AND PUSH1 0xC4 CALLDATALOAD SUB PUSH2 0x172 JUMPI PUSH12 0xFFFFFFFFFFFFFFFFFFFFFFFF PUSH1 0x80 SHL NOT SWAP1 SWAP3 AND PUSH1 0xA4 CALLDATALOAD PUSH1 0x80 SHL PUSH4 0xFFFFFFFF PUSH1 0x80 SHL AND OR PUSH1 0xC4 CALLDATALOAD PUSH1 0xA0 SHL PUSH8 0xFFFFFFFFFFFFFFFF PUSH1 0xA0 SHL AND OR SWAP1 SWAP2 SSTORE PUSH1 0x40 MLOAD PUSH32 0xE6DE2A2BBAC06D36C45208EBE5114B2CA0CACD8280088A5B016BE1540D2102DF SWAP2 SWAP1 PUSH2 0x51A SWAP1 PUSH2 0x4E8 DUP2 PUSH2 0xC32 JUMP JUMPDEST PUSH1 0x24 CALLDATALOAD DUP2 MSTORE PUSH1 0x44 CALLDATALOAD PUSH1 0x20 DUP3 ADD MSTORE PUSH1 0x64 CALLDATALOAD PUSH1 0x40 DUP3 ADD MSTORE PUSH1 0x84 CALLDATALOAD PUSH1 0x60 DUP3 ADD MSTORE PUSH1 0xA4 CALLDATALOAD PUSH1 0x80 DUP3 ADD MSTORE PUSH1 0xC4 CALLDATALOAD PUSH1 0xA0 DUP3 ADD MSTORE PUSH2 0xD3F JUMP JUMPDEST SWAP1 PUSH1 0x1 DUP1 PUSH1 0xA0 SHL SUB DUP2 AND PUSH1 0x0 MSTORE PUSH1 0x2 PUSH1 0x20 MSTORE DUP2 PUSH1 0x40 PUSH1 0x0 KECCAK256 SSTORE PUSH1 0x40 MLOAD SWAP2 DUP3 MSTORE PUSH4 0xFFFFFFFF PUSH1 0x24 CALLDATALOAD AND PUSH1 0x20 DUP4 ADD MSTORE PUSH4 0xFFFFFFFF PUSH1 0x44 CALLDATALOAD AND PUSH1 0x40 DUP4 ADD MSTORE PUSH4 0xFFFFFFFF PUSH1 0x64 CALLDATALOAD AND PUSH1 0x60 DUP4 ADD MSTORE PUSH4 0xFFFFFFFF PUSH1 0x84 CALLDATALOAD AND PUSH1 0x80 DUP4 ADD MSTORE PUSH4 0xFFFFFFFF PUSH1 0xA4 CALLDATALOAD AND PUSH1 0xA0 DUP4 ADD MSTORE PUSH8 0xFFFFFFFFFFFFFFFF PUSH1 0xC4 CALLDATALOAD AND PUSH1 0xC0 DUP4 ADD MSTORE PUSH2 0x120 PUSH1 0xE0 DUP4 ADD MSTORE PUSH1 0xE4 CALLDATALOAD DUP5 ADD CALLDATALOAD PUSH2 0x120 DUP4 ADD MSTORE DUP2 PUSH2 0x140 SWAP2 PUSH1 0xE4 CALLDATALOAD DUP7 ADD CALLDATALOAD PUSH1 0x24 PUSH1 0xE4 CALLDATALOAD ADD DUP5 DUP5 ADD CALLDATACOPY PUSH1 0x0 PUSH1 0xE4 CALLDATALOAD SWAP7 SWAP1 SWAP7 ADD CALLDATALOAD DUP3 DUP2 ADD DUP5 ADD SWAP7 SWAP1 SWAP7 MSTORE PUSH2 0x104 CALLDATALOAD PUSH2 0x100 DUP4 ADD MSTORE PUSH1 0x1 PUSH1 0x1 PUSH1 0xA0 SHL SUB AND SWAP5 PUSH1 0x1F ADD PUSH1 0x1F NOT AND DUP2 ADD SUB ADD SWAP1 LOG2 STOP JUMPDEST SWAP1 POP PUSH2 0x5FB CALLER PUSH2 0x12D3 JUMP JUMPDEST SWAP1 PUSH1 0x40 MLOAD PUSH2 0x608 DUP2 PUSH2 0xC64 JUMP JUMPDEST PUSH1 0x42 DUP2 MSTORE PUSH1 0x20 DUP2 ADD SWAP2 PUSH1 0x60 CALLDATASIZE DUP5 CALLDATACOPY DUP2 MLOAD ISZERO PUSH2 0x7C3 JUMPI PUSH1 0x30 DUP4 MSTORE8 DUP2 MLOAD PUSH1 0x1 SWAP1 PUSH1 0x1 LT ISZERO PUSH2 0x7AE JUMPI PUSH1 0x78 PUSH1 0x21 DUP5 ADD MSTORE8 PUSH1 0x41 SWAP1 JUMPDEST DUP1 DUP3 GT PUSH2 0x741 JUMPI POP POP PUSH2 0x6FD JUMPI SWAP2 PUSH2 0x6EF PUSH1 0x20 SWAP5 SWAP3 PUSH2 0x6CB PUSH1 0x48 PUSH1 0x44 SWAP7 PUSH1 0x40 MLOAD SWAP4 DUP5 SWAP2 PUSH2 0x6BC DUP12 DUP5 ADD SWAP9 PUSH23 0x20B1B1B2B9B9A1B7B73A3937B61D1030B1B1B7BAB73A1 PUSH1 0x4D SHL DUP11 MSTORE PUSH2 0x693 DUP2 MLOAD DUP1 SWAP3 DUP16 PUSH1 0x37 DUP10 ADD SWAP2 ADD PUSH2 0x1289 JUMP JUMPDEST DUP5 ADD SWAP2 PUSH17 0x1034B99036B4B9B9B4B733903937B6329 PUSH1 0x7D SHL PUSH1 0x37 DUP5 ADD MSTORE MLOAD DUP1 SWAP4 DUP7 DUP5 ADD SWAP1 PUSH2 0x1289 JUMP JUMPDEST ADD SUB PUSH1 0x28 DUP2 ADD DUP5 MSTORE ADD DUP3 PUSH2 0xC80 JUMP JUMPDEST PUSH1 0x40 MLOAD SWAP6 DUP7 SWAP5 PUSH3 0x461BCD PUSH1 0xE5 SHL DUP7 MSTORE DUP6 ADD MSTORE MLOAD DUP1 SWAP3 DUP2 PUSH1 0x24 DUP7 ADD MSTORE DUP6 DUP6 ADD SWAP1 PUSH2 0x1289 JUMP JUMPDEST PUSH1 0x1F ADD PUSH1 0x1F NOT AND DUP2 ADD SUB ADD SWAP1 REVERT JUMPDEST PUSH1 0x40 MLOAD PUSH3 0x461BCD PUSH1 0xE5 SHL DUP2 MSTORE PUSH1 0x20 DUP2 DUP7 ADD DUP2 SWAP1 MSTORE PUSH1 0x24 DUP3 ADD MSTORE PUSH32 0x537472696E67733A20686578206C656E67746820696E73756666696369656E74 PUSH1 0x44 DUP3 ADD MSTORE PUSH1 0x64 SWAP1 REVERT JUMPDEST SWAP1 SWAP2 PUSH1 0xF DUP2 AND PUSH1 0x10 DUP2 LT ISZERO PUSH2 0x799 JUMPI PUSH16 0x181899199A1A9B1B9C1CB0B131B232B3 PUSH1 0x81 SHL SWAP1 BYTE PUSH2 0x770 DUP5 DUP7 PUSH2 0x12AC JUMP JUMPDEST MSTORE8 DUP7 SHR SWAP2 DUP1 ISZERO PUSH2 0x784 JUMPI PUSH1 0x0 NOT ADD SWAP1 PUSH2 0x639 JUMP JUMPDEST PUSH1 0x11 DUP8 PUSH4 0x4E487B71 PUSH1 0xE0 SHL PUSH1 0x0 MSTORE MSTORE PUSH1 0x24 PUSH1 0x0 REVERT JUMPDEST PUSH1 0x32 DUP9 PUSH4 0x4E487B71 PUSH1 0xE0 SHL PUSH1 0x0 MSTORE MSTORE PUSH1 0x24 PUSH1 0x0 REVERT JUMPDEST PUSH1 0x32 DUP7 PUSH4 0x4E487B71 PUSH1 0xE0 SHL PUSH1 0x0 MSTORE MSTORE PUSH1 0x24 PUSH1 0x0 REVERT JUMPDEST PUSH1 0x32 DUP6 PUSH4 0x4E487B71 PUSH1 0xE0 SHL PUSH1 0x0 MSTORE MSTORE PUSH1 0x24 PUSH1 0x0 REVERT JUMPDEST POP CALLVALUE PUSH2 0x172 JUMPI PUSH1 0x40 CALLDATASIZE PUSH1 0x3 NOT ADD SLT PUSH2 0x172 JUMPI PUSH2 0x7F2 PUSH2 0xC1C JUMP JUMPDEST SWAP1 CALLDATALOAD PUSH1 0x0 MSTORE PUSH1 0x0 PUSH1 0x20 MSTORE PUSH1 0x40 PUSH1 0x0 KECCAK256 SWAP1 PUSH1 0x1 DUP1 PUSH1 0xA0 SHL SUB AND PUSH1 0x0 MSTORE PUSH1 0x20 MSTORE PUSH1 0x20 PUSH1 0xFF PUSH1 0x40 PUSH1 0x0 KECCAK256 SLOAD AND PUSH1 0x40 MLOAD SWAP1 ISZERO ISZERO DUP2 MSTORE RETURN JUMPDEST CALLVALUE PUSH2 0x172 JUMPI PUSH1 0x20 CALLDATASIZE PUSH1 0x3 NOT ADD SLT PUSH2 0x172 JUMPI PUSH2 0x83E PUSH2 0xC06 JUMP JUMPDEST PUSH2 0x846 PUSH2 0xF0D JUMP JUMPDEST PUSH1 0x1 DUP1 PUSH1 0xA0 SHL SUB AND DUP1 PUSH1 0x0 MSTORE PUSH1 0x1 PUSH1 0x20 MSTORE PUSH32 0x1AC40B94DD3DFCEDA4D62EFD9D2BB32E8301FC87FD027652D82F3C9A446BD802 PUSH1 0x40 PUSH1 0x0 KECCAK256 PUSH4 0xFFFFFFFF PUSH2 0x8B4 PUSH2 0x894 DUP3 DUP5 SLOAD PUSH1 0x60 SHR AND PUSH2 0xCA2 JUMP JUMPDEST DUP4 SLOAD PUSH4 0xFFFFFFFF PUSH1 0x60 SHL NOT AND PUSH1 0x60 SWAP2 SWAP1 SWAP2 SHL PUSH4 0xFFFFFFFF PUSH1 0x60 SHL AND OR DUP4 SSTORE JUMP JUMPDEST PUSH2 0x90D PUSH2 0x8C8 PUSH2 0x8C3 DUP5 PUSH2 0xCCD JUMP JUMPDEST PUSH2 0xD3F JUMP JUMPDEST SWAP3 DUP6 PUSH1 0x0 MSTORE PUSH1 0x2 PUSH1 0x20 MSTORE DUP4 PUSH1 0x40 PUSH1 0x0 KECCAK256 SSTORE SLOAD SWAP3 PUSH1 0x40 MLOAD SWAP4 DUP4 DUP6 SWAP5 DUP3 PUSH1 0x60 SHR AND SWAP2 PUSH1 0x40 SHR AND DUP5 PUSH1 0x40 SWAP2 SWAP5 SWAP4 SWAP3 SWAP5 PUSH1 0x60 DUP3 ADD SWAP6 PUSH4 0xFFFFFFFF DUP1 SWAP3 AND DUP4 MSTORE AND PUSH1 0x20 DUP3 ADD MSTORE ADD MSTORE JUMP JUMPDEST SUB SWAP1 LOG2 STOP JUMPDEST CALLVALUE PUSH2 0x172 JUMPI PUSH1 0x0 CALLDATASIZE PUSH1 0x3 NOT ADD SLT PUSH2 0x172 JUMPI PUSH1 0x20 PUSH1 0x40 MLOAD PUSH32 0x93714EE7E3775F280F9AB925A5B649B6E87F18AE11F75082555FC719F33F9766 DUP2 MSTORE RETURN JUMPDEST POP CALLVALUE PUSH2 0x172 JUMPI PUSH1 0x40 CALLDATASIZE PUSH1 0x3 NOT ADD SLT PUSH2 0x172 JUMPI PUSH2 0x967 PUSH2 0xC1C JUMP JUMPDEST CALLER PUSH1 0x1 PUSH1 0x1 PUSH1 0xA0 SHL SUB DUP3 AND SUB PUSH2 0x981 JUMPI PUSH2 0x1B6 SWAP2 CALLDATALOAD PUSH2 0x1215 JUMP JUMPDEST PUSH1 0x40 MLOAD PUSH3 0x461BCD PUSH1 0xE5 SHL DUP2 MSTORE PUSH1 0x20 DUP2 DUP5 ADD MSTORE PUSH1 0x2F PUSH1 0x24 DUP3 ADD MSTORE PUSH32 0x416363657373436F6E74726F6C3A2063616E206F6E6C792072656E6F756E6365 PUSH1 0x44 DUP3 ADD MSTORE PUSH15 0x103937B632B9903337B91039B2B633 PUSH1 0x89 SHL PUSH1 0x64 DUP3 ADD MSTORE PUSH1 0x84 SWAP1 REVERT JUMPDEST POP CALLVALUE PUSH2 0x172 JUMPI PUSH1 0x40 CALLDATASIZE PUSH1 0x3 NOT ADD SLT PUSH2 0x172 JUMPI CALLDATALOAD PUSH2 0x9F8 PUSH2 0xC1C JUMP JUMPDEST DUP2 PUSH1 0x0 MSTORE PUSH1 0x0 PUSH1 0x20 MSTORE PUSH2 0xA12 PUSH1 0x1 PUSH1 0x40 PUSH1 0x0 KECCAK256 ADD SLOAD PUSH2 0x1109 JUMP JUMPDEST DUP2 PUSH1 0x0 MSTORE PUSH1 0x0 PUSH1 0x20 MSTORE PUSH1 0x40 PUSH1 0x0 KECCAK256 SWAP1 PUSH1 0x1 DUP1 PUSH1 0xA0 SHL SUB AND SWAP1 DUP2 PUSH1 0x0 MSTORE PUSH1 0x20 MSTORE PUSH1 0xFF PUSH1 0x40 PUSH1 0x0 KECCAK256 SLOAD AND ISZERO PUSH2 0xA41 JUMPI STOP JUMPDEST DUP2 PUSH1 0x0 MSTORE PUSH1 0x0 PUSH1 0x20 MSTORE PUSH1 0x40 PUSH1 0x0 KECCAK256 DUP2 PUSH1 0x0 MSTORE PUSH1 0x20 MSTORE PUSH1 0x40 PUSH1 0x0 KECCAK256 PUSH1 0x1 PUSH1 0xFF NOT DUP3 SLOAD AND OR SWAP1 SSTORE CALLER SWAP2 PUSH32 0x2F8788117E7EFF1D82E926EC794901D17C78024A50270940304540A733656F0D PUSH1 0x0 DUP1 LOG4 STOP JUMPDEST POP CALLVALUE PUSH2 0x172 JUMPI PUSH1 0x20 CALLDATASIZE PUSH1 0x3 NOT ADD SLT PUSH2 0x172 JUMPI CALLDATALOAD PUSH1 0x0 MSTORE PUSH1 0x0 PUSH1 0x20 MSTORE PUSH1 0x20 PUSH1 0x1 PUSH1 0x40 PUSH1 0x0 KECCAK256 ADD SLOAD PUSH1 0x40 MLOAD SWAP1 DUP2 MSTORE RETURN JUMPDEST CALLVALUE PUSH2 0x172 JUMPI PUSH1 0x40 CALLDATASIZE PUSH1 0x3 NOT ADD SLT PUSH2 0x172 JUMPI PUSH2 0xAD6 PUSH2 0xC06 JUMP JUMPDEST PUSH1 0x24 CALLDATALOAD SWAP1 DUP2 ISZERO ISZERO DUP3 SUB PUSH2 0x172 JUMPI PUSH32 0x1AC40B94DD3DFCEDA4D62EFD9D2BB32E8301FC87FD027652D82F3C9A446BD802 SWAP1 PUSH2 0xB0D PUSH2 0xF0D JUMP JUMPDEST PUSH1 0x1 PUSH1 0x1 PUSH1 0xA0 SHL SUB AND PUSH1 0x0 DUP2 DUP2 MSTORE PUSH1 0x1 PUSH1 0x20 MSTORE PUSH1 0x40 SWAP1 KECCAK256 SWAP1 SWAP3 PUSH2 0xB79 JUMPI JUMPDEST PUSH2 0xB37 PUSH2 0x8C3 DUP3 PUSH2 0xCCD JUMP JUMPDEST PUSH1 0x0 DUP5 DUP2 MSTORE PUSH1 0x2 PUSH1 0x20 SWAP1 DUP2 MSTORE PUSH1 0x40 SWAP2 DUP3 SWAP1 KECCAK256 DUP4 SWAP1 SSTORE SWAP3 SLOAD DUP2 MLOAD PUSH4 0xFFFFFFFF DUP3 DUP5 SHR DUP2 AND DUP3 MSTORE PUSH1 0x60 SWAP3 DUP4 SHR AND SWAP5 DUP2 ADD SWAP5 SWAP1 SWAP5 MSTORE SWAP1 DUP4 ADD SWAP2 SWAP1 SWAP2 MSTORE DUP2 SWAP1 DUP2 ADD PUSH2 0x90D JUMP JUMPDEST PUSH2 0xBAF PUSH2 0xB8F PUSH4 0xFFFFFFFF DUP4 SLOAD PUSH1 0x40 SHR AND PUSH2 0xCA2 JUMP JUMPDEST DUP3 SLOAD PUSH4 0xFFFFFFFF PUSH1 0x40 SHL NOT AND PUSH1 0x40 SWAP2 SWAP1 SWAP2 SHL PUSH4 0xFFFFFFFF PUSH1 0x40 SHL AND OR DUP3 SSTORE JUMP JUMPDEST PUSH2 0xB2B JUMP JUMPDEST DUP3 CALLVALUE PUSH2 0x172 JUMPI PUSH1 0x20 CALLDATASIZE PUSH1 0x3 NOT ADD SLT PUSH2 0x172 JUMPI CALLDATALOAD SWAP1 PUSH4 0xFFFFFFFF PUSH1 0xE0 SHL DUP3 AND DUP1 SWAP3 SUB PUSH2 0x172 JUMPI PUSH1 0x20 SWAP2 PUSH4 0x7965DB0B PUSH1 0xE0 SHL DUP2 EQ SWAP1 DUP2 ISZERO PUSH2 0xBF5 JUMPI JUMPDEST POP ISZERO ISZERO DUP2 MSTORE RETURN JUMPDEST PUSH4 0x1FFC9A7 PUSH1 0xE0 SHL EQ SWAP1 POP DUP4 PUSH2 0xBEE JUMP JUMPDEST PUSH1 0x4 CALLDATALOAD SWAP1 PUSH1 0x1 PUSH1 0x1 PUSH1 0xA0 SHL SUB DUP3 AND DUP3 SUB PUSH2 0x172 JUMPI JUMP JUMPDEST PUSH1 0x24 CALLDATALOAD SWAP1 PUSH1 0x1 PUSH1 0x1 PUSH1 0xA0 SHL SUB DUP3 AND DUP3 SUB PUSH2 0x172 JUMPI JUMP JUMPDEST PUSH1 0xC0 DUP2 ADD SWAP1 DUP2 LT PUSH8 0xFFFFFFFFFFFFFFFF DUP3 GT OR PUSH2 0xC4E JUMPI PUSH1 0x40 MSTORE JUMP JUMPDEST PUSH4 0x4E487B71 PUSH1 0xE0 SHL PUSH1 0x0 MSTORE PUSH1 0x41 PUSH1 0x4 MSTORE PUSH1 0x24 PUSH1 0x0 REVERT JUMPDEST PUSH1 0x80 DUP2 ADD SWAP1 DUP2 LT PUSH8 0xFFFFFFFFFFFFFFFF DUP3 GT OR PUSH2 0xC4E JUMPI PUSH1 0x40 MSTORE JUMP JUMPDEST SWAP1 PUSH1 0x1F DUP1 NOT SWAP2 ADD AND DUP2 ADD SWAP1 DUP2 LT PUSH8 0xFFFFFFFFFFFFFFFF DUP3 GT OR PUSH2 0xC4E JUMPI PUSH1 0x40 MSTORE JUMP JUMPDEST SWAP1 PUSH1 0x1 PUSH4 0xFFFFFFFF DUP1 SWAP4 AND ADD SWAP2 DUP3 GT PUSH2 0xCB7 JUMPI JUMP JUMPDEST PUSH4 0x4E487B71 PUSH1 0xE0 SHL PUSH1 0x0 MSTORE PUSH1 0x11 PUSH1 0x4 MSTORE PUSH1 0x24 PUSH1 0x0 REVERT JUMPDEST SWAP1 PUSH1 0x40 MLOAD PUSH2 0xCDA DUP2 PUSH2 0xC32 JUMP JUMPDEST PUSH1 0xA0 PUSH8 0xFFFFFFFFFFFFFFFF DUP3 SWAP5 SLOAD PUSH4 0xFFFFFFFF DUP1 DUP3 AND DUP6 MSTORE DUP1 DUP3 PUSH1 0x20 SHR AND PUSH1 0x20 DUP7 ADD MSTORE DUP1 DUP3 PUSH1 0x40 SHR AND PUSH1 0x40 DUP7 ADD MSTORE DUP1 DUP3 PUSH1 0x60 SHR AND PUSH1 0x60 DUP7 ADD MSTORE DUP2 PUSH1 0x80 SHR AND PUSH1 0x80 DUP6 ADD MSTORE DUP3 SHR AND SWAP2 ADD MSTORE JUMP JUMPDEST SWAP2 SWAP1 DUP3 SUB SWAP2 DUP3 GT PUSH2 0xCB7 JUMPI JUMP JUMPDEST SWAP2 SWAP1 DUP3 ADD DUP1 SWAP3 GT PUSH2 0xCB7 JUMPI JUMP JUMPDEST DUP1 MLOAD PUSH4 0xFFFFFFFF PUSH5 0x3FFFFFFFC DUP2 DUP4 AND SWAP3 PUSH1 0x2 SHL AND PUSH1 0x4 SWAP3 DUP1 DUP3 DIV DUP5 EQ SWAP1 ISZERO OR ISZERO PUSH2 0xEF8 JUMPI PUSH1 0xDC DUP2 LT ISZERO PUSH2 0xEF0 JUMPI JUMPDEST DUP2 PUSH1 0x20 DUP6 ADD MLOAD AND PUSH1 0x6 DUP2 MUL SWAP1 DUP1 DUP3 DIV PUSH1 0x6 EQ SWAP1 ISZERO OR ISZERO PUSH2 0xEDB JUMPI PUSH1 0xB4 DUP2 LT ISZERO PUSH2 0xED2 JUMPI SWAP1 JUMPDEST DUP3 PUSH1 0x40 DUP7 ADD MLOAD AND PUSH1 0x23 DUP2 MUL SWAP1 DUP1 DUP3 DIV PUSH1 0x23 EQ SWAP1 ISZERO OR ISZERO PUSH2 0xE8F JUMPI PUSH2 0x118 DUP1 DUP3 LT ISZERO PUSH2 0xECA JUMPI POP SWAP3 JUMPDEST DUP1 PUSH1 0x60 DUP8 ADD MLOAD AND PUSH1 0x78 DUP2 MUL SWAP1 DUP1 DUP3 DIV PUSH1 0x78 EQ SWAP1 ISZERO OR ISZERO PUSH2 0xEB5 JUMPI PUSH1 0x80 SWAP1 PUSH2 0x1A4 DUP1 DUP3 LT ISZERO PUSH2 0xEAD JUMPI POP SWAP7 JUMPDEST ADD MLOAD AND PUSH3 0x55730 DUP2 GT ISZERO PUSH2 0xEA4 JUMPI PUSH3 0x5572F NOT DUP2 ADD SWAP1 DUP2 GT PUSH2 0xE8F JUMPI PUSH2 0x3E8 SWAP1 DIV PUSH1 0x50 DUP2 LT ISZERO PUSH2 0xE87 JUMPI JUMPDEST SWAP4 JUMPDEST PUSH2 0x12C SWAP2 DUP3 ADD DUP1 SWAP3 GT PUSH2 0xE72 JUMPI POP PUSH2 0xE34 SWAP3 SWAP2 PUSH2 0xE2F SWAP2 PUSH2 0xD32 JUMP JUMPDEST PUSH2 0xD32 JUMP JUMPDEST DUP1 PUSH2 0xE3F DUP4 DUP6 PUSH2 0xD32 JUMP JUMPDEST LT ISZERO PUSH2 0xE6A JUMPI PUSH2 0xE57 SWAP3 PUSH2 0xE52 SWAP2 PUSH2 0xD25 JUMP JUMPDEST PUSH2 0xD25 JUMP JUMPDEST PUSH2 0x3E8 DUP1 DUP3 GT PUSH2 0xE65 JUMPI POP SWAP1 JUMP JUMPDEST SWAP1 POP SWAP1 JUMP JUMPDEST POP POP POP PUSH1 0x0 SWAP1 JUMP JUMPDEST PUSH1 0x11 SWAP1 PUSH4 0x4E487B71 PUSH1 0xE0 SHL PUSH1 0x0 MSTORE MSTORE PUSH1 0x24 PUSH1 0x0 REVERT JUMPDEST POP PUSH1 0x50 PUSH2 0xE11 JUMP JUMPDEST PUSH1 0x11 DUP6 PUSH4 0x4E487B71 PUSH1 0xE0 SHL PUSH1 0x0 MSTORE MSTORE PUSH1 0x24 PUSH1 0x0 REVERT JUMPDEST POP PUSH1 0x0 SWAP4 PUSH2 0xE13 JUMP JUMPDEST SWAP1 POP SWAP7 PUSH2 0xDE6 JUMP JUMPDEST PUSH1 0x11 DUP7 PUSH4 0x4E487B71 PUSH1 0xE0 SHL PUSH1 0x0 MSTORE MSTORE PUSH1 0x24 PUSH1 0x0 REVERT JUMPDEST SWAP1 POP SWAP3 PUSH2 0xDBB JUMP JUMPDEST POP PUSH1 0xB4 SWAP1 PUSH2 0xD93 JUMP JUMPDEST PUSH1 0x11 DUP5 PUSH4 0x4E487B71 PUSH1 0xE0 SHL PUSH1 0x0 MSTORE MSTORE PUSH1 0x24 PUSH1 0x0 REVERT JUMPDEST POP PUSH1 0xDC PUSH2 0xD6E JUMP JUMPDEST PUSH1 0x11 DUP4 PUSH4 0x4E487B71 PUSH1 0xE0 SHL PUSH1 0x0 MSTORE MSTORE PUSH1 0x24 PUSH1 0x0 REVERT JUMPDEST CALLER PUSH1 0x0 SWAP1 DUP2 MSTORE PUSH32 0xD142EFB147CD07881263FA4F60F77935FE75E436DD3C66B782B237F8530F2CA1 PUSH1 0x20 SWAP1 DUP2 MSTORE PUSH1 0x40 DUP1 DUP4 KECCAK256 SLOAD SWAP1 SWAP3 SWAP2 SWAP1 PUSH32 0x93714EE7E3775F280F9AB925A5B649B6E87F18AE11F75082555FC719F33F9766 SWAP1 PUSH1 0xFF AND ISZERO PUSH2 0xF73 JUMPI POP POP POP POP JUMP JUMPDEST PUSH2 0xF7C CALLER PUSH2 0x12D3 JUMP JUMPDEST SWAP1 DUP5 MLOAD SWAP1 PUSH2 0xF89 DUP3 PUSH2 0xC64 JUMP JUMPDEST PUSH1 0x42 DUP3 MSTORE DUP4 DUP3 ADD SWAP5 PUSH1 0x60 CALLDATASIZE DUP8 CALLDATACOPY DUP3 MLOAD ISZERO PUSH2 0x10F5 JUMPI PUSH1 0x30 DUP7 MSTORE8 DUP3 MLOAD SWAP1 PUSH1 0x1 SWAP2 PUSH1 0x1 LT ISZERO PUSH2 0x10F5 JUMPI SWAP1 PUSH1 0x78 PUSH1 0x21 DUP6 ADD MSTORE8 PUSH1 0x41 SWAP2 JUMPDEST DUP2 DUP4 GT PUSH2 0x1087 JUMPI POP POP POP PUSH2 0x1045 JUMPI DUP5 PUSH2 0x1021 PUSH1 0x48 PUSH2 0x6EF SWAP4 PUSH1 0x44 SWAP8 SWAP9 MLOAD SWAP9 DUP10 SWAP2 PUSH2 0x1012 DUP10 DUP5 ADD SWAP9 PUSH23 0x20B1B1B2B9B9A1B7B73A3937B61D1030B1B1B7BAB73A1 PUSH1 0x4D SHL DUP11 MSTORE PUSH2 0x693 DUP2 MLOAD DUP1 SWAP3 DUP14 PUSH1 0x37 DUP10 ADD SWAP2 ADD PUSH2 0x1289 JUMP JUMPDEST ADD SUB PUSH1 0x28 DUP2 ADD DUP10 MSTORE ADD DUP8 PUSH2 0xC80 JUMP JUMPDEST MLOAD SWAP5 DUP6 SWAP4 PUSH3 0x461BCD PUSH1 0xE5 SHL DUP6 MSTORE PUSH1 0x4 DUP6 ADD MSTORE MLOAD DUP1 SWAP3 DUP2 PUSH1 0x24 DUP7 ADD MSTORE DUP6 DUP6 ADD SWAP1 PUSH2 0x1289 JUMP JUMPDEST PUSH1 0x64 DUP4 DUP7 MLOAD SWAP1 PUSH3 0x461BCD PUSH1 0xE5 SHL DUP3 MSTORE DUP1 PUSH1 0x4 DUP4 ADD MSTORE PUSH1 0x24 DUP3 ADD MSTORE PUSH32 0x537472696E67733A20686578206C656E67746820696E73756666696369656E74 PUSH1 0x44 DUP3 ADD MSTORE REVERT JUMPDEST SWAP1 SWAP2 SWAP3 PUSH1 0xF DUP2 AND PUSH1 0x10 DUP2 LT ISZERO PUSH2 0x10E1 JUMPI PUSH16 0x181899199A1A9B1B9C1CB0B131B232B3 PUSH1 0x81 SHL SWAP1 BYTE PUSH2 0x10B7 DUP6 DUP8 PUSH2 0x12AC JUMP JUMPDEST MSTORE8 PUSH1 0x4 SHR SWAP3 DUP1 ISZERO PUSH2 0x10CD JUMPI PUSH1 0x0 NOT ADD SWAP2 SWAP1 PUSH2 0xFBB JUMP JUMPDEST PUSH4 0x4E487B71 PUSH1 0xE0 SHL DUP3 MSTORE PUSH1 0x11 PUSH1 0x4 MSTORE PUSH1 0x24 DUP3 REVERT JUMPDEST PUSH4 0x4E487B71 PUSH1 0xE0 SHL DUP4 MSTORE PUSH1 0x32 PUSH1 0x4 MSTORE PUSH1 0x24 DUP4 REVERT JUMPDEST PUSH4 0x4E487B71 PUSH1 0xE0 SHL DUP2 MSTORE PUSH1 0x32 PUSH1 0x4 MSTORE PUSH1 0x24 SWAP1 REVERT JUMPDEST PUSH1 0x0 DUP2 DUP2 MSTORE PUSH1 0x20 DUP2 DUP2 MSTORE PUSH1 0x40 SWAP3 DUP4 DUP4 KECCAK256 CALLER DUP5 MSTORE DUP3 MSTORE PUSH1 0xFF DUP5 DUP5 KECCAK256 SLOAD AND ISZERO PUSH2 0x1130 JUMPI POP POP POP POP JUMP JUMPDEST PUSH2 0x1139 CALLER PUSH2 0x12D3 JUMP JUMPDEST SWAP1 DUP5 MLOAD SWAP1 PUSH2 0x1146 DUP3 PUSH2 0xC64 JUMP JUMPDEST PUSH1 0x42 DUP3 MSTORE DUP4 DUP3 ADD SWAP5 PUSH1 0x60 CALLDATASIZE DUP8 CALLDATACOPY DUP3 MLOAD ISZERO PUSH2 0x10F5 JUMPI PUSH1 0x30 DUP7 MSTORE8 DUP3 MLOAD SWAP1 PUSH1 0x1 SWAP2 PUSH1 0x1 LT ISZERO PUSH2 0x10F5 JUMPI SWAP1 PUSH1 0x78 PUSH1 0x21 DUP6 ADD MSTORE8 PUSH1 0x41 SWAP2 JUMPDEST DUP2 DUP4 GT PUSH2 0x11CF JUMPI POP POP POP PUSH2 0x1045 JUMPI DUP5 PUSH2 0x1021 PUSH1 0x48 PUSH2 0x6EF SWAP4 PUSH1 0x44 SWAP8 SWAP9 MLOAD SWAP9 DUP10 SWAP2 PUSH2 0x1012 DUP10 DUP5 ADD SWAP9 PUSH23 0x20B1B1B2B9B9A1B7B73A3937B61D1030B1B1B7BAB73A1 PUSH1 0x4D SHL DUP11 MSTORE PUSH2 0x693 DUP2 MLOAD DUP1 SWAP3 DUP14 PUSH1 0x37 DUP10 ADD SWAP2 ADD PUSH2 0x1289 JUMP JUMPDEST SWAP1 SWAP2 SWAP3 PUSH1 0xF DUP2 AND PUSH1 0x10 DUP2 LT ISZERO PUSH2 0x10E1 JUMPI PUSH16 0x181899199A1A9B1B9C1CB0B131B232B3 PUSH1 0x81 SHL SWAP1 BYTE PUSH2 0x11FF DUP6 DUP8 PUSH2 0x12AC JUMP JUMPDEST MSTORE8 PUSH1 0x4 SHR SWAP3 DUP1 ISZERO PUSH2 0x10CD JUMPI PUSH1 0x0 NOT ADD SWAP2 SWAP1 PUSH2 0x1178 JUMP JUMPDEST SWAP1 PUSH1 0x0 SWAP2 DUP1 DUP4 MSTORE DUP3 PUSH1 0x20 MSTORE PUSH1 0x40 DUP4 KECCAK256 SWAP2 PUSH1 0x1 DUP1 PUSH1 0xA0 SHL SUB AND SWAP2 DUP3 DUP5 MSTORE PUSH1 0x20 MSTORE PUSH1 0xFF PUSH1 0x40 DUP5 KECCAK256 SLOAD AND PUSH2 0x1245 JUMPI POP POP POP JUMP JUMPDEST DUP1 DUP4 MSTORE DUP3 PUSH1 0x20 MSTORE PUSH1 0x40 DUP4 KECCAK256 DUP3 DUP5 MSTORE PUSH1 0x20 MSTORE PUSH1 0x40 DUP4 KECCAK256 PUSH1 0xFF NOT DUP2 SLOAD AND SWAP1 SSTORE PUSH32 0xF6391F5C32D9C69D2A47EA670B442974B53935D1EDC7FD64EB21E047A839171B CALLER SWAP4 DUP1 LOG4 JUMP JUMPDEST PUSH1 0x0 JUMPDEST DUP4 DUP2 LT PUSH2 0x129C JUMPI POP POP PUSH1 0x0 SWAP2 ADD MSTORE JUMP JUMPDEST DUP2 DUP2 ADD MLOAD DUP4 DUP3 ADD MSTORE PUSH1 0x20 ADD PUSH2 0x128C JUMP JUMPDEST SWAP1 DUP2 MLOAD DUP2 LT ISZERO PUSH2 0x12BD JUMPI ADD PUSH1 0x20 ADD SWAP1 JUMP JUMPDEST PUSH4 0x4E487B71 PUSH1 0xE0 SHL PUSH1 0x0 MSTORE PUSH1 0x32 PUSH1 0x4 MSTORE PUSH1 0x24 PUSH1 0x0 REVERT JUMPDEST PUSH1 0x40 MLOAD SWAP1 PUSH1 0x60 DUP3 ADD DUP3 DUP2 LT PUSH8 0xFFFFFFFFFFFFFFFF DUP3 GT OR PUSH2 0xC4E JUMPI PUSH1 0x40 MSTORE PUSH1 0x2A DUP3 MSTORE PUSH1 0x20 DUP3 ADD PUSH1 0x40 CALLDATASIZE DUP3 CALLDATACOPY DUP3 MLOAD ISZERO PUSH2 0x12BD JUMPI PUSH1 0x30 SWAP1 MSTORE8 DUP2 MLOAD PUSH1 0x1 SWAP1 PUSH1 0x1 LT ISZERO PUSH2 0x12BD JUMPI PUSH1 0x78 PUSH1 0x21 DUP5 ADD MSTORE8 PUSH1 0x29 SWAP1 JUMPDEST DUP1 DUP3 GT PUSH2 0x1375 JUMPI POP POP PUSH2 0x1331 JUMPI SWAP1 JUMP JUMPDEST PUSH1 0x64 PUSH1 0x40 MLOAD PUSH3 0x461BCD PUSH1 0xE5 SHL DUP2 MSTORE PUSH1 0x20 PUSH1 0x4 DUP3 ADD MSTORE PUSH1 0x20 PUSH1 0x24 DUP3 ADD MSTORE PUSH32 0x537472696E67733A20686578206C656E67746820696E73756666696369656E74 PUSH1 0x44 DUP3 ADD MSTORE REVERT JUMPDEST SWAP1 SWAP2 PUSH1 0xF DUP2 AND PUSH1 0x10 DUP2 LT ISZERO PUSH2 0x13CE JUMPI PUSH16 0x181899199A1A9B1B9C1CB0B131B232B3 PUSH1 0x81 SHL SWAP1 BYTE PUSH2 0x13A4 DUP5 DUP7 PUSH2 0x12AC JUMP JUMPDEST MSTORE8 PUSH1 0x4 SHR SWAP2 DUP1 ISZERO PUSH2 0x13B9 JUMPI PUSH1 0x0 NOT ADD SWAP1 PUSH2 0x1321 JUMP JUMPDEST PUSH1 0x24 PUSH1 0x0 PUSH4 0x4E487B71 PUSH1 0xE0 SHL DUP2 MSTORE PUSH1 0x11 PUSH1 0x4 MSTORE REVERT JUMPDEST PUSH1 0x24 PUSH1 0x0 PUSH4 0x4E487B71 PUSH1 0xE0 SHL DUP2 MSTORE PUSH1 0x32 PUSH1 0x4 MSTORE REVERT INVALID LOG2 PUSH5 0x6970667358 0x22 SLT KECCAK256 0x2E COINBASE 0x28 DUP12 DELEGATECALL CREATE2 0xB1 0x2B 0xB4 0xDD 0xCC 0xA5 BALANCE 0xE1 SWAP15 SGT DUP2 PUSH0 SIGNEXTEND PUSH17 0x92A9E62D0F3F6917542410EB64736F6C63 NUMBER STOP ADDMOD XOR STOP CALLER 0x2F DUP8 DUP9 GT PUSH31 0x7EFF1D82E926EC794901D17C78024A50270940304540A733656F0D00000000 "},"methodIdentifiers":{"DEFAULT_ADMIN_ROLE()":"a217fddf","REPAYMENT_MANAGER_ROLE()":"3e824d5c","SCORER_ROLE()":"a4d6d495","computeScore((uint32,uint32,uint32,uint32,uint32,uint64))":"d8d5c4c3","getRoleAdmin(bytes32)":"248a9ca3","getScore(address)":"d47875d0","grantRole(bytes32,address)":"2f2ff15d","hasRole(bytes32,address)":"91d14854","metrics(address)":"d0e64ec5","recordDefault(address)":"8df7352c","recordRepayment(address,bool)":"13673bd1","renounceRole(bytes32,address)":"36568abe","revokeRole(bytes32,address)":"d547741f","score(address)":"776f3843","supportsInterface(bytes4)":"01ffc9a7","updateFromMetrics(address,(uint32,uint32,uint32,uint32,uint32,uint64),string,bytes32)":"995305fc"}}}}}