{"contracts/RepaymentManager.sol":{"RepaymentManager":{"abi":[{"inputs":[{"internalType":"address","name":"usdcAddress","type":"address"},{"internalType":"address","name":"factoryAddress","type":"address"},{"internalType":"address","name":"tokenAddress","type":"address"},{"internalType":"address","name":"scoreAddress","type":"address"},{"internalType":"address","name":"admin","type":"address"},{"internalType":"uint64","name":"gracePeriodSeconds","type":"uint64"}],"stateMutability":"nonpayable","type":"constructor"},{"inputs":[{"internalType":"uint256","name":"amount","type":"uint256"}],"name":"AmountOutOfRange","type":"error"},{"inputs":[{"internalType":"uint256","name":"creditId","type":"uint256"}],"name":"InvalidState","type":"error"},{"inputs":[{"internalType":"uint256","name":"creditId","type":"uint256"}],"name":"UnauthorizedBorrower","type":"error"},{"anonymous":false,"inputs":[{"indexed":true,"internalType":"uint256","name":"creditId","type":"uint256"},{"indexed":true,"internalType":"address","name":"firstInvestor","type":"address"},{"indexed":false,"internalType":"uint64","name":"activatedAt","type":"uint64"}],"name":"CreditActivated","type":"event"},{"anonymous":false,"inputs":[{"indexed":true,"internalType":"uint256","name":"creditId","type":"uint256"},{"indexed":true,"internalType":"address","name":"borrower","type":"address"},{"indexed":false,"internalType":"uint64","name":"timestamp","type":"uint64"}],"name":"CreditDefaultTriggered","type":"event"},{"anonymous":false,"inputs":[{"indexed":true,"internalType":"uint256","name":"creditId","type":"uint256"},{"indexed":true,"internalType":"address","name":"borrower","type":"address"},{"indexed":true,"internalType":"address","name":"currentHolder","type":"address"},{"indexed":false,"internalType":"uint256","name":"amountUSDC","type":"uint256"},{"indexed":false,"internalType":"uint256","name":"totalRepaid","type":"uint256"},{"indexed":false,"internalType":"uint256","name":"remainingAmount","type":"uint256"}],"name":"RepaymentMade","type":"event"},{"anonymous":false,"inputs":[{"indexed":true,"internalType":"bytes32","name":"role","type":"bytes32"},{"indexed":true,"internalType":"bytes32","name":"previousAdminRole","type":"bytes32"},{"indexed":true,"internalType":"bytes32","name":"newAdminRole","type":"bytes32"}],"name":"RoleAdminChanged","type":"event"},{"anonymous":false,"inputs":[{"indexed":true,"internalType":"bytes32","name":"role","type":"bytes32"},{"indexed":true,"internalType":"address","name":"account","type":"address"},{"indexed":true,"internalType":"address","name":"sender","type":"address"}],"name":"RoleGranted","type":"event"},{"anonymous":false,"inputs":[{"indexed":true,"internalType":"bytes32","name":"role","type":"bytes32"},{"indexed":true,"internalType":"address","name":"account","type":"address"},{"indexed":true,"internalType":"address","name":"sender","type":"address"}],"name":"RoleRevoked","type":"event"},{"inputs":[],"name":"DEFAULT_ADMIN_ROLE","outputs":[{"internalType":"bytes32","name":"","type":"bytes32"}],"stateMutability":"view","type":"function"},{"inputs":[],"name":"MARKETPLACE_ROLE","outputs":[{"internalType":"bytes32","name":"","type":"bytes32"}],"stateMutability":"view","type":"function"},{"inputs":[{"internalType":"uint256","name":"creditId","type":"uint256"},{"internalType":"address","name":"firstInvestor","type":"address"}],"name":"activateCredit","outputs":[],"stateMutability":"nonpayable","type":"function"},{"inputs":[],"name":"creditScore","outputs":[{"internalType":"contract IScore","name":"","type":"address"}],"stateMutability":"view","type":"function"},{"inputs":[],"name":"creditToken","outputs":[{"internalType":"contract IERC721","name":"","type":"address"}],"stateMutability":"view","type":"function"},{"inputs":[],"name":"defaultGracePeriod","outputs":[{"internalType":"uint64","name":"","type":"uint64"}],"stateMutability":"view","type":"function"},{"inputs":[],"name":"factory","outputs":[{"internalType":"contract IFactoryReadWrite","name":"","type":"address"}],"stateMutability":"view","type":"function"},{"inputs":[{"internalType":"bytes32","name":"role","type":"bytes32"}],"name":"getRoleAdmin","outputs":[{"internalType":"bytes32","name":"","type":"bytes32"}],"stateMutability":"view","type":"function"},{"inputs":[{"internalType":"bytes32","name":"role","type":"bytes32"},{"internalType":"address","name":"account","type":"address"}],"name":"grantRole","outputs":[],"stateMutability":"nonpayable","type":"function"},{"inputs":[{"internalType":"bytes32","name":"role","type":"bytes32"},{"internalType":"address","name":"account","type":"address"}],"name":"hasRole","outputs":[{"internalType":"bool","name":"","type":"bool"}],"stateMutability":"view","type":"function"},{"inputs":[{"internalType":"bytes32","name":"role","type":"bytes32"},{"internalType":"address","name":"account","type":"address"}],"name":"renounceRole","outputs":[],"stateMutability":"nonpayable","type":"function"},{"inputs":[{"internalType":"uint256","name":"creditId","type":"uint256"},{"internalType":"uint256","name":"amountUSDC","type":"uint256"}],"name":"repay","outputs":[],"stateMutability":"nonpayable","type":"function"},{"inputs":[{"internalType":"uint256","name":"","type":"uint256"}],"name":"repaymentStates","outputs":[{"internalType":"uint256","name":"totalRepaid","type":"uint256"},{"internalType":"uint64","name":"activatedAt","type":"uint64"},{"internalType":"bool","name":"active","type":"bool"},{"internalType":"bool","name":"defaulted","type":"bool"},{"internalType":"bool","name":"settled","type":"bool"}],"stateMutability":"view","type":"function"},{"inputs":[{"internalType":"bytes32","name":"role","type":"bytes32"},{"internalType":"address","name":"account","type":"address"}],"name":"revokeRole","outputs":[],"stateMutability":"nonpayable","type":"function"},{"inputs":[{"internalType":"bytes4","name":"interfaceId","type":"bytes4"}],"name":"supportsInterface","outputs":[{"internalType":"bool","name":"","type":"bool"}],"stateMutability":"view","type":"function"},{"inputs":[{"internalType":"uint256","name":"creditId","type":"uint256"}],"name":"triggerDefault","outputs":[],"stateMutability":"nonpayable","type":"function"},{"inputs":[],"name":"usdc","outputs":[{"internalType":"contract IERC20","name":"","type":"address"}],"stateMutability":"view","type":"function"}],"evm":{"bytecode":{"linkReferences":{},"object":"61012034620001cb576001600160401b0390601f62001b4538819003918201601f1916830192919084841183851017620001d0578160c09284926040968752833981010312620001cb576200005481620001e6565b906200006360208201620001e6565b62000070848301620001e6565b926200007f60608401620001e6565b9060a06200009060808601620001e6565b9401519687168703620001cb576001805560018060a01b0394858094818094166080521660a0521660c0521660e0526101009384526000918280528260205283832091169081835260205260ff8383205416156200017f575b5050516119499182620001fc8339608051828181610542015281816105b50152610f7f015260a0518281816103f301528181610676015281816106c1015281816107a70152818161080501528181610a260152610bc4015260c0518281816104bc01528181610b0d0152610cf3015260e05182818161070201528181610d2e0152610fc4015251818181610b5c0152610c4a0152f35b81805281602052828220818352602052828220600160ff1982541617905533917f2f8788117e7eff1d82e926ec794901d17c78024a50270940304540a733656f0d8180a43880620000e9565b600080fd5b634e487b7160e01b600052604160045260246000fd5b51906001600160a01b0382168203620001cb5756fe608080604052600436101561001357600080fd5b600090813560e01c90816301ffc9a7146111c757508063248a9ca31461119b578063261e4f8d146111345780632f2ff15d1461108657806336568abe14610ff357806339da315214610fae5780633e413bee14610f695780636382539214610b80578063705d5f2414610b3c578063899e5d8514610af757806391d1485414610aac578063a217fddf14610a90578063c3439f3f14610a55578063c45a015514610a10578063d547741f146109d0578063d8aed145146103b95763fbacbca0146100dc57600080fd5b346103b65760403660031901126103b6576004356100f861121c565b3360009081527fda104853dc3972fb943ce0ee89200279d8af13db255ed28fb43e685524f21b1960209081526040909120549192917f0ea61da3a8a09ad801432653699f8c1860b1ae9d2ea4a141fadfd63227717bc89060ff1615610215575081845260028152600160408520019283549360ff8560401c168015610208575b80156101fb575b6101e257680100000000000000006001600160401b03421668ffffffffffffffffff199690961686171790556040519384526001600160a01b0316927f231d59ef921621c73a3de705fbb66906d4af994b68b1a72fb918511acd3929239190a380f35b60405163102aa0d560e31b815260048101859052602490fd5b5060ff8560501c1661017f565b5060ff8560481c16610178565b61021e33611773565b6040519061022b8261124a565b604282528382019260603685378251156103a057603084538251600190600110156103a057607860218501536041905b808211610346575050610303576102ff936102af936102e7936102d8604894604051978576020b1b1b2b9b9a1b7b73a3937b61d1030b1b1b7bab73a1604d1b8a9788015282519283916037890191016115c1565b8401917001034b99036b4b9b9b4b733903937b6329607d1b6037840152518093868401906115c1565b01036028810184520182611265565b60405162461bcd60e51b8152918291600483016115e4565b0390fd5b6064846040519062461bcd60e51b825280600483015260248201527f537472696e67733a20686578206c656e67746820696e73756666696369656e746044820152fd5b9091600f811660108110156103a0576f181899199a1a9b1b9c1cb0b131b232b360811b901a6103758487611762565b5360041c91801561038a57600019019061025b565b634e487b7160e01b600052601160045260246000fd5b634e487b7160e01b600052603260045260246000fd5b80fd5b50346103b65760403660031901126103b6576103d361156b565b6040516302c1c27d60e11b815260048035908201526101609081816024817f00000000000000000000000000000000000000000000000000000000000000006001600160a01b03165afa80156109c5578390849385938691879188918995610983575b505060043588526002602052604088209215918215610970575b8215610968575b508115610960575b50801561094f575b801561093e575b61092557336001600160a01b0384160361090c5761048d81548661133d565b60243515908115610900575b506108e7576040516331a9108f60e11b81526004803590820152946020866024817f00000000000000000000000000000000000000000000000000000000000000006001600160a01b03165afa9586156108dc57879661089c575b506040516323b872dd60e01b60208201523360248201523060448201526024356064820152606481528060a08101106001600160401b0360a083011117610886578060a061056692016040527f0000000000000000000000000000000000000000000000000000000000000000611610565b60405163a9059cbb60e01b602082015260018060a01b03871660248201526024356044820152604481528060808101106001600160401b03608083011117610886578060806105d992016040527f0000000000000000000000000000000000000000000000000000000000000000611610565b81546024358101811161038a5760243581018084558897906105fb908461133d565b9060405191602435835260243584016020840152604083015260018060a01b03169033907f710b32f9fecc9010fd99b98612d7f16e7ed7444b091ca7bf0273bce245c7ea24606060043592a46024350114610659575b846001805580f35b60010180546aff00ff00000000000000001916600160501b1790557f00000000000000000000000000000000000000000000000000000000000000006001600160a01b03163b156107a057604051637e5634b960e01b815260048035908201528481602481837f00000000000000000000000000000000000000000000000000000000000000006001600160a01b03165af190811561087b578591610867575b50506107a5575b7f00000000000000000000000000000000000000000000000000000000000000006001600160a01b031691823b156107a0576040516313673bd160e01b81526001600160a01b0390921660048301526001600160401b031642111560248201529082908290604490829084905af1801561079557610781575b808080610651565b61078a90611237565b6103b6578038610779565b6040513d84823e3d90fd5b505050fd5b7f00000000000000000000000000000000000000000000000000000000000000006001600160a01b03163b156108585760405163532c6b3760e01b815260048035908201526001600160a01b0382166024820152838180604481010381837f00000000000000000000000000000000000000000000000000000000000000006001600160a01b03165af190811561085c578491610844575b5050610700565b61084d90611237565b61085857823861083d565b5050fd5b6040513d86823e3d90fd5b61087090611237565b6107a05783386106f9565b6040513d87823e3d90fd5b634e487b7160e01b600052604160045260246000fd5b9095506020813d6020116108d4575b816108b860209383611265565b810103126108d0576108c990611286565b94386104f4565b8680fd5b3d91506108ab565b6040513d89823e3d90fd5b604051630cd8516360e31b815260248035600483015290fd5b90506024351138610499565b602460405163af67655d60e01b81526004356004820152fd5b602460405163102aa0d560e31b81526004356004820152fd5b5060ff600182015460501c1661046e565b5060ff600182015460481c16610467565b90503861045f565b915038610457565b600184015460401c60ff16159250610450565b95509550505050506109aa9250803d106109be575b6109a28183611265565b8101906112a7565b509698959750949550919250903880610436565b503d610998565b6040513d85823e3d90fd5b50346103b65760403660031901126103b657610a0d6004356109f061121c565b9080845283602052610a08600160408620015461134a565b6114f7565b80f35b50346103b657806003193601126103b6576040517f00000000000000000000000000000000000000000000000000000000000000006001600160a01b03168152602090f35b50346103b657806003193601126103b65760206040517f0ea61da3a8a09ad801432653699f8c1860b1ae9d2ea4a141fadfd63227717bc88152f35b50346103b657806003193601126103b657602090604051908152f35b50346103b65760403660031901126103b6576040610ac861121c565b91600435815280602052209060018060a01b0316600052602052602060ff604060002054166040519015158152f35b50346103b657806003193601126103b6576040517f00000000000000000000000000000000000000000000000000000000000000006001600160a01b03168152602090f35b50346103b657806003193601126103b65760206040516001600160401b037f0000000000000000000000000000000000000000000000000000000000000000168152f35b50346103b657602080600319360112610f6557600435610b9e61156b565b6040516302c1c27d60e11b8152600481018290526001600160a01b0392610160916024907f0000000000000000000000000000000000000000000000000000000000000000861684828481845afa908115610f5a578892898a978b809381928297610f26575b50508a8d526002895260408d209315918215610f13575b8215610f0b575b508115610f03575b508015610ef2575b8015610ee1575b610eb6576001600160401b039788167f0000000000000000000000000000000000000000000000000000000000000000891601888111610ece578816421115610eb65781541015610e9e57600101805469ffff000000000000000019166901000000000000000000179055803b15610e9a57604051631c3b24f960e31b8152600481018890528981868183865af18015610e8f57610e76575b509088939291604051916331a9108f60e11b8352886004840152868386818d7f0000000000000000000000000000000000000000000000000000000000000000165afa928315610e6b578693610e30575b50610dd1575b5050867f00000000000000000000000000000000000000000000000000000000000000001696873b15610dcd5783928392604051948593849263237dcd4b60e21b8452169a8b60048401525af1801561079557610db5575b50507fcf0783de41697ff9cf01931c13b85fabbb448efd2f40de77b54555f3f5fe35c9916040519042168152a36001805580f35b610dbe90611237565b610dc9578438610d81565b8480fd5b8380fd5b803b15610dc95760405163ac9cf4db60e01b8152600481018990526001600160a01b0392909216602483015284908290604490829084905af190811561085c57849115610d2957610e2190611237565b610e2c578238610d29565b8280fd5b9092508681813d8311610e64575b610e488183611265565b81010312610e6057610e5990611286565b9138610d23565b8580fd5b503d610e3e565b6040513d88823e3d90fd5b610e8590999194939299611237565b9790919238610cd2565b6040513d8c823e3d90fd5b8880fd5b60405163102aa0d560e31b8152600481018990528590fd5b60405163102aa0d560e31b8152600481018a90528690fd5b634e487b7160e01b8c526011600452868cfd5b5060ff600183015460501c16610c39565b5060ff600183015460481c16610c32565b905038610c2a565b915038610c22565b600185015460401c60ff16159250610c1b565b959a50955050505050610f459250803d106109be576109a28183611265565b50959b90975095929450919250903880610c04565b6040513d8a823e3d90fd5b5080fd5b50346103b657806003193601126103b6576040517f00000000000000000000000000000000000000000000000000000000000000006001600160a01b03168152602090f35b50346103b657806003193601126103b6576040517f00000000000000000000000000000000000000000000000000000000000000006001600160a01b03168152602090f35b50346103b65760403660031901126103b65761100d61121c565b336001600160a01b0382160361102957610a0d906004356114f7565b60405162461bcd60e51b815260206004820152602f60248201527f416363657373436f6e74726f6c3a2063616e206f6e6c792072656e6f756e636560448201526e103937b632b9903337b91039b2b63360891b6064820152608490fd5b50346103b65760403660031901126103b6576004356110a361121c565b818352826020526110ba600160408520015461134a565b818352602083815260408085206001600160a01b039093168086529290915283205460ff16156110e8578280f35b818352826020526040832081845260205260408320600160ff1982541617905533917f2f8788117e7eff1d82e926ec794901d17c78024a50270940304540a733656f0d8480a438808280f35b50346103b65760203660031901126103b657604060a091600435815260026020522060ff600182549201546040519283526001600160401b0381166020840152818160401c1615156040840152818160481c161515606084015260501c1615156080820152f35b50346103b65760203660031901126103b657600160406020926004358152808452200154604051908152f35b905034610f65576020366003190112610f655760043563ffffffff60e01b8116809103610e2c5760209250637965db0b60e01b811490811561120b575b5015158152f35b6301ffc9a760e01b14905038611204565b602435906001600160a01b038216820361123257565b600080fd5b6001600160401b03811161088657604052565b608081019081106001600160401b0382111761088657604052565b90601f801991011681019081106001600160401b0382111761088657604052565b51906001600160a01b038216820361123257565b5190811515820361123257565b9081610160910312611232576112bc81611286565b9160208201519160408101519160608201516001600160401b03811681036112325791608081015163ffffffff8116810361123257916112fe60a0830161129a565b9161130b60c0820161129a565b9161131860e0830161129a565b91611326610100820161129a565b916101406113376101208401611286565b92015190565b9190820391821161038a57565b6000818152602090808252604092838220338352835260ff8483205416156113725750505050565b61137b33611773565b8451916113878361124a565b604283528483019360603686378351156114e35760308553835190600191600110156114e35790607860218601536041915b81831161147557505050611433576102af93859361141d9361140e6048946102ff9951988576020b1b1b2b9b9a1b7b73a3937b61d1030b1b1b7bab73a1604d1b8b9788015282519283916037890191016115c1565b01036028810185520183611265565b5162461bcd60e51b8152918291600483016115e4565b60648486519062461bcd60e51b825280600483015260248201527f537472696e67733a20686578206c656e67746820696e73756666696369656e746044820152fd5b909192600f811660108110156114cf576f181899199a1a9b1b9c1cb0b131b232b360811b901a6114a58588611762565b5360041c9280156114bb576000190191906113b9565b634e487b7160e01b82526011600452602482fd5b634e487b7160e01b83526032600452602483fd5b634e487b7160e01b81526032600452602490fd5b9060009180835282602052604083209160018060a01b03169182845260205260ff60408420541661152757505050565b80835282602052604083208284526020526040832060ff1981541690557ff6391f5c32d9c69d2a47ea670b442974b53935d1edc7fd64eb21e047a839171b339380a4565b60026001541461157c576002600155565b60405162461bcd60e51b815260206004820152601f60248201527f5265656e7472616e637947756172643a207265656e7472616e742063616c6c006044820152606490fd5b60005b8381106115d45750506000910152565b81810151838201526020016115c4565b6040916020825261160481518092816020860152602086860191016115c1565b601f01601f1916010190565b60018060a01b031690604051604081016001600160401b039082811082821117610886576040526020938483527f5361666545524332303a206c6f772d6c6576656c2063616c6c206661696c6564858401526000808587829751910182855af1903d15611753573d92831161173f57906116aa9392916040519261169d88601f19601f8401160185611265565b83523d868885013e611882565b9081519083821592831561171d575b5050509050156116c65750565b6084906040519062461bcd60e51b82526004820152602a60248201527f5361666545524332303a204552433230206f7065726174696f6e20646964206e6044820152691bdd081cdd58d8d9595960b21b6064820152fd5b8480929394500103126103b6575081611736910161129a565b803883816116b9565b634e487b7160e01b85526041600452602485fd5b906116aa939250606091611882565b9081518110156103a0570160200190565b60405190606082018281106001600160401b0382111761088657604052602a82526020820160403682378251156103a057603090538151600190600110156103a057607860218401536029905b8082116118145750506117d05790565b606460405162461bcd60e51b815260206004820152602060248201527f537472696e67733a20686578206c656e67746820696e73756666696369656e746044820152fd5b9091600f8116601081101561186d576f181899199a1a9b1b9c1cb0b131b232b360811b901a6118438486611762565b5360041c9180156118585760001901906117c0565b60246000634e487b7160e01b81526011600452fd5b60246000634e487b7160e01b81526032600452fd5b919290156118e45750815115611896575090565b3b1561189f5790565b60405162461bcd60e51b815260206004820152601d60248201527f416464726573733a2063616c6c20746f206e6f6e2d636f6e74726163740000006044820152606490fd5b8251909150156118f75750805190602001fd5b60405162461bcd60e51b81529081906102ff90600483016115e456fea264697066735822122096030e7c35b8a07d318a5d3262c779101ad0dad8df0a15efab47c2083f8e3ceb64736f6c63430008180033","opcodes":"PUSH2 0x120 CALLVALUE PUSH3 0x1CB JUMPI PUSH1 0x1 PUSH1 0x1 PUSH1 0x40 SHL SUB SWAP1 PUSH1 0x1F PUSH3 0x1B45 CODESIZE DUP2 SWAP1 SUB SWAP2 DUP3 ADD PUSH1 0x1F NOT AND DUP4 ADD SWAP3 SWAP2 SWAP1 DUP5 DUP5 GT DUP4 DUP6 LT OR PUSH3 0x1D0 JUMPI DUP2 PUSH1 0xC0 SWAP3 DUP5 SWAP3 PUSH1 0x40 SWAP7 DUP8 MSTORE DUP4 CODECOPY DUP2 ADD SUB SLT PUSH3 0x1CB JUMPI PUSH3 0x54 DUP2 PUSH3 0x1E6 JUMP JUMPDEST SWAP1 PUSH3 0x63 PUSH1 0x20 DUP3 ADD PUSH3 0x1E6 JUMP JUMPDEST PUSH3 0x70 DUP5 DUP4 ADD PUSH3 0x1E6 JUMP JUMPDEST SWAP3 PUSH3 0x7F PUSH1 0x60 DUP5 ADD PUSH3 0x1E6 JUMP JUMPDEST SWAP1 PUSH1 0xA0 PUSH3 0x90 PUSH1 0x80 DUP7 ADD PUSH3 0x1E6 JUMP JUMPDEST SWAP5 ADD MLOAD SWAP7 DUP8 AND DUP8 SUB PUSH3 0x1CB JUMPI PUSH1 0x1 DUP1 SSTORE PUSH1 0x1 DUP1 PUSH1 0xA0 SHL SUB SWAP5 DUP6 DUP1 SWAP5 DUP2 DUP1 SWAP5 AND PUSH1 0x80 MSTORE AND PUSH1 0xA0 MSTORE AND PUSH1 0xC0 MSTORE AND PUSH1 0xE0 MSTORE PUSH2 0x100 SWAP4 DUP5 MSTORE PUSH1 0x0 SWAP2 DUP3 DUP1 MSTORE DUP3 PUSH1 0x20 MSTORE DUP4 DUP4 KECCAK256 SWAP2 AND SWAP1 DUP2 DUP4 MSTORE PUSH1 0x20 MSTORE PUSH1 0xFF DUP4 DUP4 KECCAK256 SLOAD AND ISZERO PUSH3 0x17F JUMPI JUMPDEST POP POP MLOAD PUSH2 0x1949 SWAP2 DUP3 PUSH3 0x1FC DUP4 CODECOPY PUSH1 0x80 MLOAD DUP3 DUP2 DUP2 PUSH2 0x542 ADD MSTORE DUP2 DUP2 PUSH2 0x5B5 ADD MSTORE PUSH2 0xF7F ADD MSTORE PUSH1 0xA0 MLOAD DUP3 DUP2 DUP2 PUSH2 0x3F3 ADD MSTORE DUP2 DUP2 PUSH2 0x676 ADD MSTORE DUP2 DUP2 PUSH2 0x6C1 ADD MSTORE DUP2 DUP2 PUSH2 0x7A7 ADD MSTORE DUP2 DUP2 PUSH2 0x805 ADD MSTORE DUP2 DUP2 PUSH2 0xA26 ADD MSTORE PUSH2 0xBC4 ADD MSTORE PUSH1 0xC0 MLOAD DUP3 DUP2 DUP2 PUSH2 0x4BC ADD MSTORE DUP2 DUP2 PUSH2 0xB0D ADD MSTORE PUSH2 0xCF3 ADD MSTORE PUSH1 0xE0 MLOAD DUP3 DUP2 DUP2 PUSH2 0x702 ADD MSTORE DUP2 DUP2 PUSH2 0xD2E ADD MSTORE PUSH2 0xFC4 ADD MSTORE MLOAD DUP2 DUP2 DUP2 PUSH2 0xB5C ADD MSTORE PUSH2 0xC4A ADD MSTORE RETURN JUMPDEST DUP2 DUP1 MSTORE DUP2 PUSH1 0x20 MSTORE DUP3 DUP3 KECCAK256 DUP2 DUP4 MSTORE PUSH1 0x20 MSTORE DUP3 DUP3 KECCAK256 PUSH1 0x1 PUSH1 0xFF NOT DUP3 SLOAD AND OR SWAP1 SSTORE CALLER SWAP2 PUSH32 0x2F8788117E7EFF1D82E926EC794901D17C78024A50270940304540A733656F0D DUP2 DUP1 LOG4 CODESIZE DUP1 PUSH3 0xE9 JUMP JUMPDEST PUSH1 0x0 DUP1 REVERT JUMPDEST PUSH4 0x4E487B71 PUSH1 0xE0 SHL PUSH1 0x0 MSTORE PUSH1 0x41 PUSH1 0x4 MSTORE PUSH1 0x24 PUSH1 0x0 REVERT JUMPDEST MLOAD SWAP1 PUSH1 0x1 PUSH1 0x1 PUSH1 0xA0 SHL SUB DUP3 AND DUP3 SUB PUSH3 0x1CB JUMPI JUMP INVALID PUSH1 0x80 DUP1 PUSH1 0x40 MSTORE PUSH1 0x4 CALLDATASIZE LT ISZERO PUSH2 0x13 JUMPI PUSH1 0x0 DUP1 REVERT JUMPDEST PUSH1 0x0 SWAP1 DUP2 CALLDATALOAD PUSH1 0xE0 SHR SWAP1 DUP2 PUSH4 0x1FFC9A7 EQ PUSH2 0x11C7 JUMPI POP DUP1 PUSH4 0x248A9CA3 EQ PUSH2 0x119B JUMPI DUP1 PUSH4 0x261E4F8D EQ PUSH2 0x1134 JUMPI DUP1 PUSH4 0x2F2FF15D EQ PUSH2 0x1086 JUMPI DUP1 PUSH4 0x36568ABE EQ PUSH2 0xFF3 JUMPI DUP1 PUSH4 0x39DA3152 EQ PUSH2 0xFAE JUMPI DUP1 PUSH4 0x3E413BEE EQ PUSH2 0xF69 JUMPI DUP1 PUSH4 0x63825392 EQ PUSH2 0xB80 JUMPI DUP1 PUSH4 0x705D5F24 EQ PUSH2 0xB3C JUMPI DUP1 PUSH4 0x899E5D85 EQ PUSH2 0xAF7 JUMPI DUP1 PUSH4 0x91D14854 EQ PUSH2 0xAAC JUMPI DUP1 PUSH4 0xA217FDDF EQ PUSH2 0xA90 JUMPI DUP1 PUSH4 0xC3439F3F EQ PUSH2 0xA55 JUMPI DUP1 PUSH4 0xC45A0155 EQ PUSH2 0xA10 JUMPI DUP1 PUSH4 0xD547741F EQ PUSH2 0x9D0 JUMPI DUP1 PUSH4 0xD8AED145 EQ PUSH2 0x3B9 JUMPI PUSH4 0xFBACBCA0 EQ PUSH2 0xDC JUMPI PUSH1 0x0 DUP1 REVERT JUMPDEST CALLVALUE PUSH2 0x3B6 JUMPI PUSH1 0x40 CALLDATASIZE PUSH1 0x3 NOT ADD SLT PUSH2 0x3B6 JUMPI PUSH1 0x4 CALLDATALOAD PUSH2 0xF8 PUSH2 0x121C JUMP JUMPDEST CALLER PUSH1 0x0 SWAP1 DUP2 MSTORE PUSH32 0xDA104853DC3972FB943CE0EE89200279D8AF13DB255ED28FB43E685524F21B19 PUSH1 0x20 SWAP1 DUP2 MSTORE PUSH1 0x40 SWAP1 SWAP2 KECCAK256 SLOAD SWAP2 SWAP3 SWAP2 PUSH32 0xEA61DA3A8A09AD801432653699F8C1860B1AE9D2EA4A141FADFD63227717BC8 SWAP1 PUSH1 0xFF AND ISZERO PUSH2 0x215 JUMPI POP DUP2 DUP5 MSTORE PUSH1 0x2 DUP2 MSTORE PUSH1 0x1 PUSH1 0x40 DUP6 KECCAK256 ADD SWAP3 DUP4 SLOAD SWAP4 PUSH1 0xFF DUP6 PUSH1 0x40 SHR AND DUP1 ISZERO PUSH2 0x208 JUMPI JUMPDEST DUP1 ISZERO PUSH2 0x1FB JUMPI JUMPDEST PUSH2 0x1E2 JUMPI PUSH9 0x10000000000000000 PUSH1 0x1 PUSH1 0x1 PUSH1 0x40 SHL SUB TIMESTAMP AND PUSH9 0xFFFFFFFFFFFFFFFFFF NOT SWAP7 SWAP1 SWAP7 AND DUP7 OR OR SWAP1 SSTORE PUSH1 0x40 MLOAD SWAP4 DUP5 MSTORE PUSH1 0x1 PUSH1 0x1 PUSH1 0xA0 SHL SUB AND SWAP3 PUSH32 0x231D59EF921621C73A3DE705FBB66906D4AF994B68B1A72FB918511ACD392923 SWAP2 SWAP1 LOG3 DUP1 RETURN JUMPDEST PUSH1 0x40 MLOAD PUSH4 0x102AA0D5 PUSH1 0xE3 SHL DUP2 MSTORE PUSH1 0x4 DUP2 ADD DUP6 SWAP1 MSTORE PUSH1 0x24 SWAP1 REVERT JUMPDEST POP PUSH1 0xFF DUP6 PUSH1 0x50 SHR AND PUSH2 0x17F JUMP JUMPDEST POP PUSH1 0xFF DUP6 PUSH1 0x48 SHR AND PUSH2 0x178 JUMP JUMPDEST PUSH2 0x21E CALLER PUSH2 0x1773 JUMP JUMPDEST PUSH1 0x40 MLOAD SWAP1 PUSH2 0x22B DUP3 PUSH2 0x124A JUMP JUMPDEST PUSH1 0x42 DUP3 MSTORE DUP4 DUP3 ADD SWAP3 PUSH1 0x60 CALLDATASIZE DUP6 CALLDATACOPY DUP3 MLOAD ISZERO PUSH2 0x3A0 JUMPI PUSH1 0x30 DUP5 MSTORE8 DUP3 MLOAD PUSH1 0x1 SWAP1 PUSH1 0x1 LT ISZERO PUSH2 0x3A0 JUMPI PUSH1 0x78 PUSH1 0x21 DUP6 ADD MSTORE8 PUSH1 0x41 SWAP1 JUMPDEST DUP1 DUP3 GT PUSH2 0x346 JUMPI POP POP PUSH2 0x303 JUMPI PUSH2 0x2FF SWAP4 PUSH2 0x2AF SWAP4 PUSH2 0x2E7 SWAP4 PUSH2 0x2D8 PUSH1 0x48 SWAP5 PUSH1 0x40 MLOAD SWAP8 DUP6 PUSH23 0x20B1B1B2B9B9A1B7B73A3937B61D1030B1B1B7BAB73A1 PUSH1 0x4D SHL DUP11 SWAP8 DUP9 ADD MSTORE DUP3 MLOAD SWAP3 DUP4 SWAP2 PUSH1 0x37 DUP10 ADD SWAP2 ADD PUSH2 0x15C1 JUMP JUMPDEST DUP5 ADD SWAP2 PUSH17 0x1034B99036B4B9B9B4B733903937B6329 PUSH1 0x7D SHL PUSH1 0x37 DUP5 ADD MSTORE MLOAD DUP1 SWAP4 DUP7 DUP5 ADD SWAP1 PUSH2 0x15C1 JUMP JUMPDEST ADD SUB PUSH1 0x28 DUP2 ADD DUP5 MSTORE ADD DUP3 PUSH2 0x1265 JUMP JUMPDEST PUSH1 0x40 MLOAD PUSH3 0x461BCD PUSH1 0xE5 SHL DUP2 MSTORE SWAP2 DUP3 SWAP2 PUSH1 0x4 DUP4 ADD PUSH2 0x15E4 JUMP JUMPDEST SUB SWAP1 REVERT JUMPDEST PUSH1 0x64 DUP5 PUSH1 0x40 MLOAD SWAP1 PUSH3 0x461BCD PUSH1 0xE5 SHL DUP3 MSTORE DUP1 PUSH1 0x4 DUP4 ADD MSTORE PUSH1 0x24 DUP3 ADD MSTORE PUSH32 0x537472696E67733A20686578206C656E67746820696E73756666696369656E74 PUSH1 0x44 DUP3 ADD MSTORE REVERT JUMPDEST SWAP1 SWAP2 PUSH1 0xF DUP2 AND PUSH1 0x10 DUP2 LT ISZERO PUSH2 0x3A0 JUMPI PUSH16 0x181899199A1A9B1B9C1CB0B131B232B3 PUSH1 0x81 SHL SWAP1 BYTE PUSH2 0x375 DUP5 DUP8 PUSH2 0x1762 JUMP JUMPDEST MSTORE8 PUSH1 0x4 SHR SWAP2 DUP1 ISZERO PUSH2 0x38A JUMPI PUSH1 0x0 NOT ADD SWAP1 PUSH2 0x25B JUMP JUMPDEST PUSH4 0x4E487B71 PUSH1 0xE0 SHL PUSH1 0x0 MSTORE PUSH1 0x11 PUSH1 0x4 MSTORE PUSH1 0x24 PUSH1 0x0 REVERT JUMPDEST PUSH4 0x4E487B71 PUSH1 0xE0 SHL PUSH1 0x0 MSTORE PUSH1 0x32 PUSH1 0x4 MSTORE PUSH1 0x24 PUSH1 0x0 REVERT JUMPDEST DUP1 REVERT JUMPDEST POP CALLVALUE PUSH2 0x3B6 JUMPI PUSH1 0x40 CALLDATASIZE PUSH1 0x3 NOT ADD SLT PUSH2 0x3B6 JUMPI PUSH2 0x3D3 PUSH2 0x156B JUMP JUMPDEST PUSH1 0x40 MLOAD PUSH4 0x2C1C27D PUSH1 0xE1 SHL DUP2 MSTORE PUSH1 0x4 DUP1 CALLDATALOAD SWAP1 DUP3 ADD MSTORE PUSH2 0x160 SWAP1 DUP2 DUP2 PUSH1 0x24 DUP2 PUSH32 0x0 PUSH1 0x1 PUSH1 0x1 PUSH1 0xA0 SHL SUB AND GAS STATICCALL DUP1 ISZERO PUSH2 0x9C5 JUMPI DUP4 SWAP1 DUP5 SWAP4 DUP6 SWAP4 DUP7 SWAP2 DUP8 SWAP2 DUP9 SWAP2 DUP10 SWAP6 PUSH2 0x983 JUMPI JUMPDEST POP POP PUSH1 0x4 CALLDATALOAD DUP9 MSTORE PUSH1 0x2 PUSH1 0x20 MSTORE PUSH1 0x40 DUP9 KECCAK256 SWAP3 ISZERO SWAP2 DUP3 ISZERO PUSH2 0x970 JUMPI JUMPDEST DUP3 ISZERO PUSH2 0x968 JUMPI JUMPDEST POP DUP2 ISZERO PUSH2 0x960 JUMPI JUMPDEST POP DUP1 ISZERO PUSH2 0x94F JUMPI JUMPDEST DUP1 ISZERO PUSH2 0x93E JUMPI JUMPDEST PUSH2 0x925 JUMPI CALLER PUSH1 0x1 PUSH1 0x1 PUSH1 0xA0 SHL SUB DUP5 AND SUB PUSH2 0x90C JUMPI PUSH2 0x48D DUP2 SLOAD DUP7 PUSH2 0x133D JUMP JUMPDEST PUSH1 0x24 CALLDATALOAD ISZERO SWAP1 DUP2 ISZERO PUSH2 0x900 JUMPI JUMPDEST POP PUSH2 0x8E7 JUMPI PUSH1 0x40 MLOAD PUSH4 0x31A9108F PUSH1 0xE1 SHL DUP2 MSTORE PUSH1 0x4 DUP1 CALLDATALOAD SWAP1 DUP3 ADD MSTORE SWAP5 PUSH1 0x20 DUP7 PUSH1 0x24 DUP2 PUSH32 0x0 PUSH1 0x1 PUSH1 0x1 PUSH1 0xA0 SHL SUB AND GAS STATICCALL SWAP6 DUP7 ISZERO PUSH2 0x8DC JUMPI DUP8 SWAP7 PUSH2 0x89C JUMPI JUMPDEST POP PUSH1 0x40 MLOAD PUSH4 0x23B872DD PUSH1 0xE0 SHL PUSH1 0x20 DUP3 ADD MSTORE CALLER PUSH1 0x24 DUP3 ADD MSTORE ADDRESS PUSH1 0x44 DUP3 ADD MSTORE PUSH1 0x24 CALLDATALOAD PUSH1 0x64 DUP3 ADD MSTORE PUSH1 0x64 DUP2 MSTORE DUP1 PUSH1 0xA0 DUP2 ADD LT PUSH1 0x1 PUSH1 0x1 PUSH1 0x40 SHL SUB PUSH1 0xA0 DUP4 ADD GT OR PUSH2 0x886 JUMPI DUP1 PUSH1 0xA0 PUSH2 0x566 SWAP3 ADD PUSH1 0x40 MSTORE PUSH32 0x0 PUSH2 0x1610 JUMP JUMPDEST PUSH1 0x40 MLOAD PUSH4 0xA9059CBB PUSH1 0xE0 SHL PUSH1 0x20 DUP3 ADD MSTORE PUSH1 0x1 DUP1 PUSH1 0xA0 SHL SUB DUP8 AND PUSH1 0x24 DUP3 ADD MSTORE PUSH1 0x24 CALLDATALOAD PUSH1 0x44 DUP3 ADD MSTORE PUSH1 0x44 DUP2 MSTORE DUP1 PUSH1 0x80 DUP2 ADD LT PUSH1 0x1 PUSH1 0x1 PUSH1 0x40 SHL SUB PUSH1 0x80 DUP4 ADD GT OR PUSH2 0x886 JUMPI DUP1 PUSH1 0x80 PUSH2 0x5D9 SWAP3 ADD PUSH1 0x40 MSTORE PUSH32 0x0 PUSH2 0x1610 JUMP JUMPDEST DUP2 SLOAD PUSH1 0x24 CALLDATALOAD DUP2 ADD DUP2 GT PUSH2 0x38A JUMPI PUSH1 0x24 CALLDATALOAD DUP2 ADD DUP1 DUP5 SSTORE DUP9 SWAP8 SWAP1 PUSH2 0x5FB SWAP1 DUP5 PUSH2 0x133D JUMP JUMPDEST SWAP1 PUSH1 0x40 MLOAD SWAP2 PUSH1 0x24 CALLDATALOAD DUP4 MSTORE PUSH1 0x24 CALLDATALOAD DUP5 ADD PUSH1 0x20 DUP5 ADD MSTORE PUSH1 0x40 DUP4 ADD MSTORE PUSH1 0x1 DUP1 PUSH1 0xA0 SHL SUB AND SWAP1 CALLER SWAP1 PUSH32 0x710B32F9FECC9010FD99B98612D7F16E7ED7444B091CA7BF0273BCE245C7EA24 PUSH1 0x60 PUSH1 0x4 CALLDATALOAD SWAP3 LOG4 PUSH1 0x24 CALLDATALOAD ADD EQ PUSH2 0x659 JUMPI JUMPDEST DUP5 PUSH1 0x1 DUP1 SSTORE DUP1 RETURN JUMPDEST PUSH1 0x1 ADD DUP1 SLOAD PUSH11 0xFF00FF0000000000000000 NOT AND PUSH1 0x1 PUSH1 0x50 SHL OR SWAP1 SSTORE PUSH32 0x0 PUSH1 0x1 PUSH1 0x1 PUSH1 0xA0 SHL SUB AND EXTCODESIZE ISZERO PUSH2 0x7A0 JUMPI PUSH1 0x40 MLOAD PUSH4 0x7E5634B9 PUSH1 0xE0 SHL DUP2 MSTORE PUSH1 0x4 DUP1 CALLDATALOAD SWAP1 DUP3 ADD MSTORE DUP5 DUP2 PUSH1 0x24 DUP2 DUP4 PUSH32 0x0 PUSH1 0x1 PUSH1 0x1 PUSH1 0xA0 SHL SUB AND GAS CALL SWAP1 DUP2 ISZERO PUSH2 0x87B JUMPI DUP6 SWAP2 PUSH2 0x867 JUMPI JUMPDEST POP POP PUSH2 0x7A5 JUMPI JUMPDEST PUSH32 0x0 PUSH1 0x1 PUSH1 0x1 PUSH1 0xA0 SHL SUB AND SWAP2 DUP3 EXTCODESIZE ISZERO PUSH2 0x7A0 JUMPI PUSH1 0x40 MLOAD PUSH4 0x13673BD1 PUSH1 0xE0 SHL DUP2 MSTORE PUSH1 0x1 PUSH1 0x1 PUSH1 0xA0 SHL SUB SWAP1 SWAP3 AND PUSH1 0x4 DUP4 ADD MSTORE PUSH1 0x1 PUSH1 0x1 PUSH1 0x40 SHL SUB AND TIMESTAMP GT ISZERO PUSH1 0x24 DUP3 ADD MSTORE SWAP1 DUP3 SWAP1 DUP3 SWAP1 PUSH1 0x44 SWAP1 DUP3 SWAP1 DUP5 SWAP1 GAS CALL DUP1 ISZERO PUSH2 0x795 JUMPI PUSH2 0x781 JUMPI JUMPDEST DUP1 DUP1 DUP1 PUSH2 0x651 JUMP JUMPDEST PUSH2 0x78A SWAP1 PUSH2 0x1237 JUMP JUMPDEST PUSH2 0x3B6 JUMPI DUP1 CODESIZE PUSH2 0x779 JUMP JUMPDEST PUSH1 0x40 MLOAD RETURNDATASIZE DUP5 DUP3 RETURNDATACOPY RETURNDATASIZE SWAP1 REVERT JUMPDEST POP POP POP REVERT JUMPDEST PUSH32 0x0 PUSH1 0x1 PUSH1 0x1 PUSH1 0xA0 SHL SUB AND EXTCODESIZE ISZERO PUSH2 0x858 JUMPI PUSH1 0x40 MLOAD PUSH4 0x532C6B37 PUSH1 0xE0 SHL DUP2 MSTORE PUSH1 0x4 DUP1 CALLDATALOAD SWAP1 DUP3 ADD MSTORE PUSH1 0x1 PUSH1 0x1 PUSH1 0xA0 SHL SUB DUP3 AND PUSH1 0x24 DUP3 ADD MSTORE DUP4 DUP2 DUP1 PUSH1 0x44 DUP2 ADD SUB DUP2 DUP4 PUSH32 0x0 PUSH1 0x1 PUSH1 0x1 PUSH1 0xA0 SHL SUB AND GAS CALL SWAP1 DUP2 ISZERO PUSH2 0x85C JUMPI DUP5 SWAP2 PUSH2 0x844 JUMPI JUMPDEST POP POP PUSH2 0x700 JUMP JUMPDEST PUSH2 0x84D SWAP1 PUSH2 0x1237 JUMP JUMPDEST PUSH2 0x858 JUMPI DUP3 CODESIZE PUSH2 0x83D JUMP JUMPDEST POP POP REVERT JUMPDEST PUSH1 0x40 MLOAD RETURNDATASIZE DUP7 DUP3 RETURNDATACOPY RETURNDATASIZE SWAP1 REVERT JUMPDEST PUSH2 0x870 SWAP1 PUSH2 0x1237 JUMP JUMPDEST PUSH2 0x7A0 JUMPI DUP4 CODESIZE PUSH2 0x6F9 JUMP JUMPDEST PUSH1 0x40 MLOAD RETURNDATASIZE DUP8 DUP3 RETURNDATACOPY RETURNDATASIZE SWAP1 REVERT JUMPDEST PUSH4 0x4E487B71 PUSH1 0xE0 SHL PUSH1 0x0 MSTORE PUSH1 0x41 PUSH1 0x4 MSTORE PUSH1 0x24 PUSH1 0x0 REVERT JUMPDEST SWAP1 SWAP6 POP PUSH1 0x20 DUP2 RETURNDATASIZE PUSH1 0x20 GT PUSH2 0x8D4 JUMPI JUMPDEST DUP2 PUSH2 0x8B8 PUSH1 0x20 SWAP4 DUP4 PUSH2 0x1265 JUMP JUMPDEST DUP2 ADD SUB SLT PUSH2 0x8D0 JUMPI PUSH2 0x8C9 SWAP1 PUSH2 0x1286 JUMP JUMPDEST SWAP5 CODESIZE PUSH2 0x4F4 JUMP JUMPDEST DUP7 DUP1 REVERT JUMPDEST RETURNDATASIZE SWAP2 POP PUSH2 0x8AB JUMP JUMPDEST PUSH1 0x40 MLOAD RETURNDATASIZE DUP10 DUP3 RETURNDATACOPY RETURNDATASIZE SWAP1 REVERT JUMPDEST PUSH1 0x40 MLOAD PUSH4 0xCD85163 PUSH1 0xE3 SHL DUP2 MSTORE PUSH1 0x24 DUP1 CALLDATALOAD PUSH1 0x4 DUP4 ADD MSTORE SWAP1 REVERT JUMPDEST SWAP1 POP PUSH1 0x24 CALLDATALOAD GT CODESIZE PUSH2 0x499 JUMP JUMPDEST PUSH1 0x24 PUSH1 0x40 MLOAD PUSH4 0xAF67655D PUSH1 0xE0 SHL DUP2 MSTORE PUSH1 0x4 CALLDATALOAD PUSH1 0x4 DUP3 ADD MSTORE REVERT JUMPDEST PUSH1 0x24 PUSH1 0x40 MLOAD PUSH4 0x102AA0D5 PUSH1 0xE3 SHL DUP2 MSTORE PUSH1 0x4 CALLDATALOAD PUSH1 0x4 DUP3 ADD MSTORE REVERT JUMPDEST POP PUSH1 0xFF PUSH1 0x1 DUP3 ADD SLOAD PUSH1 0x50 SHR AND PUSH2 0x46E JUMP JUMPDEST POP PUSH1 0xFF PUSH1 0x1 DUP3 ADD SLOAD PUSH1 0x48 SHR AND PUSH2 0x467 JUMP JUMPDEST SWAP1 POP CODESIZE PUSH2 0x45F JUMP JUMPDEST SWAP2 POP CODESIZE PUSH2 0x457 JUMP JUMPDEST PUSH1 0x1 DUP5 ADD SLOAD PUSH1 0x40 SHR PUSH1 0xFF AND ISZERO SWAP3 POP PUSH2 0x450 JUMP JUMPDEST SWAP6 POP SWAP6 POP POP POP POP POP PUSH2 0x9AA SWAP3 POP DUP1 RETURNDATASIZE LT PUSH2 0x9BE JUMPI JUMPDEST PUSH2 0x9A2 DUP2 DUP4 PUSH2 0x1265 JUMP JUMPDEST DUP2 ADD SWAP1 PUSH2 0x12A7 JUMP JUMPDEST POP SWAP7 SWAP9 SWAP6 SWAP8 POP SWAP5 SWAP6 POP SWAP2 SWAP3 POP SWAP1 CODESIZE DUP1 PUSH2 0x436 JUMP JUMPDEST POP RETURNDATASIZE PUSH2 0x998 JUMP JUMPDEST PUSH1 0x40 MLOAD RETURNDATASIZE DUP6 DUP3 RETURNDATACOPY RETURNDATASIZE SWAP1 REVERT JUMPDEST POP CALLVALUE PUSH2 0x3B6 JUMPI PUSH1 0x40 CALLDATASIZE PUSH1 0x3 NOT ADD SLT PUSH2 0x3B6 JUMPI PUSH2 0xA0D PUSH1 0x4 CALLDATALOAD PUSH2 0x9F0 PUSH2 0x121C JUMP JUMPDEST SWAP1 DUP1 DUP5 MSTORE DUP4 PUSH1 0x20 MSTORE PUSH2 0xA08 PUSH1 0x1 PUSH1 0x40 DUP7 KECCAK256 ADD SLOAD PUSH2 0x134A JUMP JUMPDEST PUSH2 0x14F7 JUMP JUMPDEST DUP1 RETURN JUMPDEST POP CALLVALUE PUSH2 0x3B6 JUMPI DUP1 PUSH1 0x3 NOT CALLDATASIZE ADD SLT PUSH2 0x3B6 JUMPI PUSH1 0x40 MLOAD PUSH32 0x0 PUSH1 0x1 PUSH1 0x1 PUSH1 0xA0 SHL SUB AND DUP2 MSTORE PUSH1 0x20 SWAP1 RETURN JUMPDEST POP CALLVALUE PUSH2 0x3B6 JUMPI DUP1 PUSH1 0x3 NOT CALLDATASIZE ADD SLT PUSH2 0x3B6 JUMPI PUSH1 0x20 PUSH1 0x40 MLOAD PUSH32 0xEA61DA3A8A09AD801432653699F8C1860B1AE9D2EA4A141FADFD63227717BC8 DUP2 MSTORE RETURN JUMPDEST POP CALLVALUE PUSH2 0x3B6 JUMPI DUP1 PUSH1 0x3 NOT CALLDATASIZE ADD SLT PUSH2 0x3B6 JUMPI PUSH1 0x20 SWAP1 PUSH1 0x40 MLOAD SWAP1 DUP2 MSTORE RETURN JUMPDEST POP CALLVALUE PUSH2 0x3B6 JUMPI PUSH1 0x40 CALLDATASIZE PUSH1 0x3 NOT ADD SLT PUSH2 0x3B6 JUMPI PUSH1 0x40 PUSH2 0xAC8 PUSH2 0x121C JUMP JUMPDEST SWAP2 PUSH1 0x4 CALLDATALOAD DUP2 MSTORE DUP1 PUSH1 0x20 MSTORE KECCAK256 SWAP1 PUSH1 0x1 DUP1 PUSH1 0xA0 SHL SUB AND PUSH1 0x0 MSTORE PUSH1 0x20 MSTORE PUSH1 0x20 PUSH1 0xFF PUSH1 0x40 PUSH1 0x0 KECCAK256 SLOAD AND PUSH1 0x40 MLOAD SWAP1 ISZERO ISZERO DUP2 MSTORE RETURN JUMPDEST POP CALLVALUE PUSH2 0x3B6 JUMPI DUP1 PUSH1 0x3 NOT CALLDATASIZE ADD SLT PUSH2 0x3B6 JUMPI PUSH1 0x40 MLOAD PUSH32 0x0 PUSH1 0x1 PUSH1 0x1 PUSH1 0xA0 SHL SUB AND DUP2 MSTORE PUSH1 0x20 SWAP1 RETURN JUMPDEST POP CALLVALUE PUSH2 0x3B6 JUMPI DUP1 PUSH1 0x3 NOT CALLDATASIZE ADD SLT PUSH2 0x3B6 JUMPI PUSH1 0x20 PUSH1 0x40 MLOAD PUSH1 0x1 PUSH1 0x1 PUSH1 0x40 SHL SUB PUSH32 0x0 AND DUP2 MSTORE RETURN JUMPDEST POP CALLVALUE PUSH2 0x3B6 JUMPI PUSH1 0x20 DUP1 PUSH1 0x3 NOT CALLDATASIZE ADD SLT PUSH2 0xF65 JUMPI PUSH1 0x4 CALLDATALOAD PUSH2 0xB9E PUSH2 0x156B JUMP JUMPDEST PUSH1 0x40 MLOAD PUSH4 0x2C1C27D PUSH1 0xE1 SHL DUP2 MSTORE PUSH1 0x4 DUP2 ADD DUP3 SWAP1 MSTORE PUSH1 0x1 PUSH1 0x1 PUSH1 0xA0 SHL SUB SWAP3 PUSH2 0x160 SWAP2 PUSH1 0x24 SWAP1 PUSH32 0x0 DUP7 AND DUP5 DUP3 DUP5 DUP2 DUP5 GAS STATICCALL SWAP1 DUP2 ISZERO PUSH2 0xF5A JUMPI DUP9 SWAP3 DUP10 DUP11 SWAP8 DUP12 DUP1 SWAP4 DUP2 SWAP3 DUP3 SWAP8 PUSH2 0xF26 JUMPI JUMPDEST POP POP DUP11 DUP14 MSTORE PUSH1 0x2 DUP10 MSTORE PUSH1 0x40 DUP14 KECCAK256 SWAP4 ISZERO SWAP2 DUP3 ISZERO PUSH2 0xF13 JUMPI JUMPDEST DUP3 ISZERO PUSH2 0xF0B JUMPI JUMPDEST POP DUP2 ISZERO PUSH2 0xF03 JUMPI JUMPDEST POP DUP1 ISZERO PUSH2 0xEF2 JUMPI JUMPDEST DUP1 ISZERO PUSH2 0xEE1 JUMPI JUMPDEST PUSH2 0xEB6 JUMPI PUSH1 0x1 PUSH1 0x1 PUSH1 0x40 SHL SUB SWAP8 DUP9 AND PUSH32 0x0 DUP10 AND ADD DUP9 DUP2 GT PUSH2 0xECE JUMPI DUP9 AND TIMESTAMP GT ISZERO PUSH2 0xEB6 JUMPI DUP2 SLOAD LT ISZERO PUSH2 0xE9E JUMPI PUSH1 0x1 ADD DUP1 SLOAD PUSH10 0xFFFF0000000000000000 NOT AND PUSH10 0x1000000000000000000 OR SWAP1 SSTORE DUP1 EXTCODESIZE ISZERO PUSH2 0xE9A JUMPI PUSH1 0x40 MLOAD PUSH4 0x1C3B24F9 PUSH1 0xE3 SHL DUP2 MSTORE PUSH1 0x4 DUP2 ADD DUP9 SWAP1 MSTORE DUP10 DUP2 DUP7 DUP2 DUP4 DUP7 GAS CALL DUP1 ISZERO PUSH2 0xE8F JUMPI PUSH2 0xE76 JUMPI JUMPDEST POP SWAP1 DUP9 SWAP4 SWAP3 SWAP2 PUSH1 0x40 MLOAD SWAP2 PUSH4 0x31A9108F PUSH1 0xE1 SHL DUP4 MSTORE DUP9 PUSH1 0x4 DUP5 ADD MSTORE DUP7 DUP4 DUP7 DUP2 DUP14 PUSH32 0x0 AND GAS STATICCALL SWAP3 DUP4 ISZERO PUSH2 0xE6B JUMPI DUP7 SWAP4 PUSH2 0xE30 JUMPI JUMPDEST POP PUSH2 0xDD1 JUMPI JUMPDEST POP POP DUP7 PUSH32 0x0 AND SWAP7 DUP8 EXTCODESIZE ISZERO PUSH2 0xDCD JUMPI DUP4 SWAP3 DUP4 SWAP3 PUSH1 0x40 MLOAD SWAP5 DUP6 SWAP4 DUP5 SWAP3 PUSH4 0x237DCD4B PUSH1 0xE2 SHL DUP5 MSTORE AND SWAP11 DUP12 PUSH1 0x4 DUP5 ADD MSTORE GAS CALL DUP1 ISZERO PUSH2 0x795 JUMPI PUSH2 0xDB5 JUMPI JUMPDEST POP POP PUSH32 0xCF0783DE41697FF9CF01931C13B85FABBB448EFD2F40DE77B54555F3F5FE35C9 SWAP2 PUSH1 0x40 MLOAD SWAP1 TIMESTAMP AND DUP2 MSTORE LOG3 PUSH1 0x1 DUP1 SSTORE DUP1 RETURN JUMPDEST PUSH2 0xDBE SWAP1 PUSH2 0x1237 JUMP JUMPDEST PUSH2 0xDC9 JUMPI DUP5 CODESIZE PUSH2 0xD81 JUMP JUMPDEST DUP5 DUP1 REVERT JUMPDEST DUP4 DUP1 REVERT JUMPDEST DUP1 EXTCODESIZE ISZERO PUSH2 0xDC9 JUMPI PUSH1 0x40 MLOAD PUSH4 0xAC9CF4DB PUSH1 0xE0 SHL DUP2 MSTORE PUSH1 0x4 DUP2 ADD DUP10 SWAP1 MSTORE PUSH1 0x1 PUSH1 0x1 PUSH1 0xA0 SHL SUB SWAP3 SWAP1 SWAP3 AND PUSH1 0x24 DUP4 ADD MSTORE DUP5 SWAP1 DUP3 SWAP1 PUSH1 0x44 SWAP1 DUP3 SWAP1 DUP5 SWAP1 GAS CALL SWAP1 DUP2 ISZERO PUSH2 0x85C JUMPI DUP5 SWAP2 ISZERO PUSH2 0xD29 JUMPI PUSH2 0xE21 SWAP1 PUSH2 0x1237 JUMP JUMPDEST PUSH2 0xE2C JUMPI DUP3 CODESIZE PUSH2 0xD29 JUMP JUMPDEST DUP3 DUP1 REVERT JUMPDEST SWAP1 SWAP3 POP DUP7 DUP2 DUP2 RETURNDATASIZE DUP4 GT PUSH2 0xE64 JUMPI JUMPDEST PUSH2 0xE48 DUP2 DUP4 PUSH2 0x1265 JUMP JUMPDEST DUP2 ADD SUB SLT PUSH2 0xE60 JUMPI PUSH2 0xE59 SWAP1 PUSH2 0x1286 JUMP JUMPDEST SWAP2 CODESIZE PUSH2 0xD23 JUMP JUMPDEST DUP6 DUP1 REVERT JUMPDEST POP RETURNDATASIZE PUSH2 0xE3E JUMP JUMPDEST PUSH1 0x40 MLOAD RETURNDATASIZE DUP9 DUP3 RETURNDATACOPY RETURNDATASIZE SWAP1 REVERT JUMPDEST PUSH2 0xE85 SWAP1 SWAP10 SWAP2 SWAP5 SWAP4 SWAP3 SWAP10 PUSH2 0x1237 JUMP JUMPDEST SWAP8 SWAP1 SWAP2 SWAP3 CODESIZE PUSH2 0xCD2 JUMP JUMPDEST PUSH1 0x40 MLOAD RETURNDATASIZE DUP13 DUP3 RETURNDATACOPY RETURNDATASIZE SWAP1 REVERT JUMPDEST DUP9 DUP1 REVERT JUMPDEST PUSH1 0x40 MLOAD PUSH4 0x102AA0D5 PUSH1 0xE3 SHL DUP2 MSTORE PUSH1 0x4 DUP2 ADD DUP10 SWAP1 MSTORE DUP6 SWAP1 REVERT JUMPDEST PUSH1 0x40 MLOAD PUSH4 0x102AA0D5 PUSH1 0xE3 SHL DUP2 MSTORE PUSH1 0x4 DUP2 ADD DUP11 SWAP1 MSTORE DUP7 SWAP1 REVERT JUMPDEST PUSH4 0x4E487B71 PUSH1 0xE0 SHL DUP13 MSTORE PUSH1 0x11 PUSH1 0x4 MSTORE DUP7 DUP13 REVERT JUMPDEST POP PUSH1 0xFF PUSH1 0x1 DUP4 ADD SLOAD PUSH1 0x50 SHR AND PUSH2 0xC39 JUMP JUMPDEST POP PUSH1 0xFF PUSH1 0x1 DUP4 ADD SLOAD PUSH1 0x48 SHR AND PUSH2 0xC32 JUMP JUMPDEST SWAP1 POP CODESIZE PUSH2 0xC2A JUMP JUMPDEST SWAP2 POP CODESIZE PUSH2 0xC22 JUMP JUMPDEST PUSH1 0x1 DUP6 ADD SLOAD PUSH1 0x40 SHR PUSH1 0xFF AND ISZERO SWAP3 POP PUSH2 0xC1B JUMP JUMPDEST SWAP6 SWAP11 POP SWAP6 POP POP POP POP POP PUSH2 0xF45 SWAP3 POP DUP1 RETURNDATASIZE LT PUSH2 0x9BE JUMPI PUSH2 0x9A2 DUP2 DUP4 PUSH2 0x1265 JUMP JUMPDEST POP SWAP6 SWAP12 SWAP1 SWAP8 POP SWAP6 SWAP3 SWAP5 POP SWAP2 SWAP3 POP SWAP1 CODESIZE DUP1 PUSH2 0xC04 JUMP JUMPDEST PUSH1 0x40 MLOAD RETURNDATASIZE DUP11 DUP3 RETURNDATACOPY RETURNDATASIZE SWAP1 REVERT JUMPDEST POP DUP1 REVERT JUMPDEST POP CALLVALUE PUSH2 0x3B6 JUMPI DUP1 PUSH1 0x3 NOT CALLDATASIZE ADD SLT PUSH2 0x3B6 JUMPI PUSH1 0x40 MLOAD PUSH32 0x0 PUSH1 0x1 PUSH1 0x1 PUSH1 0xA0 SHL SUB AND DUP2 MSTORE PUSH1 0x20 SWAP1 RETURN JUMPDEST POP CALLVALUE PUSH2 0x3B6 JUMPI DUP1 PUSH1 0x3 NOT CALLDATASIZE ADD SLT PUSH2 0x3B6 JUMPI PUSH1 0x40 MLOAD PUSH32 0x0 PUSH1 0x1 PUSH1 0x1 PUSH1 0xA0 SHL SUB AND DUP2 MSTORE PUSH1 0x20 SWAP1 RETURN JUMPDEST POP CALLVALUE PUSH2 0x3B6 JUMPI PUSH1 0x40 CALLDATASIZE PUSH1 0x3 NOT ADD SLT PUSH2 0x3B6 JUMPI PUSH2 0x100D PUSH2 0x121C JUMP JUMPDEST CALLER PUSH1 0x1 PUSH1 0x1 PUSH1 0xA0 SHL SUB DUP3 AND SUB PUSH2 0x1029 JUMPI PUSH2 0xA0D SWAP1 PUSH1 0x4 CALLDATALOAD PUSH2 0x14F7 JUMP JUMPDEST PUSH1 0x40 MLOAD PUSH3 0x461BCD PUSH1 0xE5 SHL DUP2 MSTORE PUSH1 0x20 PUSH1 0x4 DUP3 ADD MSTORE PUSH1 0x2F PUSH1 0x24 DUP3 ADD MSTORE PUSH32 0x416363657373436F6E74726F6C3A2063616E206F6E6C792072656E6F756E6365 PUSH1 0x44 DUP3 ADD MSTORE PUSH15 0x103937B632B9903337B91039B2B633 PUSH1 0x89 SHL PUSH1 0x64 DUP3 ADD MSTORE PUSH1 0x84 SWAP1 REVERT JUMPDEST POP CALLVALUE PUSH2 0x3B6 JUMPI PUSH1 0x40 CALLDATASIZE PUSH1 0x3 NOT ADD SLT PUSH2 0x3B6 JUMPI PUSH1 0x4 CALLDATALOAD PUSH2 0x10A3 PUSH2 0x121C JUMP JUMPDEST DUP2 DUP4 MSTORE DUP3 PUSH1 0x20 MSTORE PUSH2 0x10BA PUSH1 0x1 PUSH1 0x40 DUP6 KECCAK256 ADD SLOAD PUSH2 0x134A JUMP JUMPDEST DUP2 DUP4 MSTORE PUSH1 0x20 DUP4 DUP2 MSTORE PUSH1 0x40 DUP1 DUP6 KECCAK256 PUSH1 0x1 PUSH1 0x1 PUSH1 0xA0 SHL SUB SWAP1 SWAP4 AND DUP1 DUP7 MSTORE SWAP3 SWAP1 SWAP2 MSTORE DUP4 KECCAK256 SLOAD PUSH1 0xFF AND ISZERO PUSH2 0x10E8 JUMPI DUP3 DUP1 RETURN JUMPDEST DUP2 DUP4 MSTORE DUP3 PUSH1 0x20 MSTORE PUSH1 0x40 DUP4 KECCAK256 DUP2 DUP5 MSTORE PUSH1 0x20 MSTORE PUSH1 0x40 DUP4 KECCAK256 PUSH1 0x1 PUSH1 0xFF NOT DUP3 SLOAD AND OR SWAP1 SSTORE CALLER SWAP2 PUSH32 0x2F8788117E7EFF1D82E926EC794901D17C78024A50270940304540A733656F0D DUP5 DUP1 LOG4 CODESIZE DUP1 DUP3 DUP1 RETURN JUMPDEST POP CALLVALUE PUSH2 0x3B6 JUMPI PUSH1 0x20 CALLDATASIZE PUSH1 0x3 NOT ADD SLT PUSH2 0x3B6 JUMPI PUSH1 0x40 PUSH1 0xA0 SWAP2 PUSH1 0x4 CALLDATALOAD DUP2 MSTORE PUSH1 0x2 PUSH1 0x20 MSTORE KECCAK256 PUSH1 0xFF PUSH1 0x1 DUP3 SLOAD SWAP3 ADD SLOAD PUSH1 0x40 MLOAD SWAP3 DUP4 MSTORE PUSH1 0x1 PUSH1 0x1 PUSH1 0x40 SHL SUB DUP2 AND PUSH1 0x20 DUP5 ADD MSTORE DUP2 DUP2 PUSH1 0x40 SHR AND ISZERO ISZERO PUSH1 0x40 DUP5 ADD MSTORE DUP2 DUP2 PUSH1 0x48 SHR AND ISZERO ISZERO PUSH1 0x60 DUP5 ADD MSTORE PUSH1 0x50 SHR AND ISZERO ISZERO PUSH1 0x80 DUP3 ADD MSTORE RETURN JUMPDEST POP CALLVALUE PUSH2 0x3B6 JUMPI PUSH1 0x20 CALLDATASIZE PUSH1 0x3 NOT ADD SLT PUSH2 0x3B6 JUMPI PUSH1 0x1 PUSH1 0x40 PUSH1 0x20 SWAP3 PUSH1 0x4 CALLDATALOAD DUP2 MSTORE DUP1 DUP5 MSTORE KECCAK256 ADD SLOAD PUSH1 0x40 MLOAD SWAP1 DUP2 MSTORE RETURN JUMPDEST SWAP1 POP CALLVALUE PUSH2 0xF65 JUMPI PUSH1 0x20 CALLDATASIZE PUSH1 0x3 NOT ADD SLT PUSH2 0xF65 JUMPI PUSH1 0x4 CALLDATALOAD PUSH4 0xFFFFFFFF PUSH1 0xE0 SHL DUP2 AND DUP1 SWAP2 SUB PUSH2 0xE2C JUMPI PUSH1 0x20 SWAP3 POP PUSH4 0x7965DB0B PUSH1 0xE0 SHL DUP2 EQ SWAP1 DUP2 ISZERO PUSH2 0x120B JUMPI JUMPDEST POP ISZERO ISZERO DUP2 MSTORE RETURN JUMPDEST PUSH4 0x1FFC9A7 PUSH1 0xE0 SHL EQ SWAP1 POP CODESIZE PUSH2 0x1204 JUMP JUMPDEST PUSH1 0x24 CALLDATALOAD SWAP1 PUSH1 0x1 PUSH1 0x1 PUSH1 0xA0 SHL SUB DUP3 AND DUP3 SUB PUSH2 0x1232 JUMPI JUMP JUMPDEST PUSH1 0x0 DUP1 REVERT JUMPDEST PUSH1 0x1 PUSH1 0x1 PUSH1 0x40 SHL SUB DUP2 GT PUSH2 0x886 JUMPI PUSH1 0x40 MSTORE JUMP JUMPDEST PUSH1 0x80 DUP2 ADD SWAP1 DUP2 LT PUSH1 0x1 PUSH1 0x1 PUSH1 0x40 SHL SUB DUP3 GT OR PUSH2 0x886 JUMPI PUSH1 0x40 MSTORE JUMP JUMPDEST SWAP1 PUSH1 0x1F DUP1 NOT SWAP2 ADD AND DUP2 ADD SWAP1 DUP2 LT PUSH1 0x1 PUSH1 0x1 PUSH1 0x40 SHL SUB DUP3 GT OR PUSH2 0x886 JUMPI PUSH1 0x40 MSTORE JUMP JUMPDEST MLOAD SWAP1 PUSH1 0x1 PUSH1 0x1 PUSH1 0xA0 SHL SUB DUP3 AND DUP3 SUB PUSH2 0x1232 JUMPI JUMP JUMPDEST MLOAD SWAP1 DUP2 ISZERO ISZERO DUP3 SUB PUSH2 0x1232 JUMPI JUMP JUMPDEST SWAP1 DUP2 PUSH2 0x160 SWAP2 SUB SLT PUSH2 0x1232 JUMPI PUSH2 0x12BC DUP2 PUSH2 0x1286 JUMP JUMPDEST SWAP2 PUSH1 0x20 DUP3 ADD MLOAD SWAP2 PUSH1 0x40 DUP2 ADD MLOAD SWAP2 PUSH1 0x60 DUP3 ADD MLOAD PUSH1 0x1 PUSH1 0x1 PUSH1 0x40 SHL SUB DUP2 AND DUP2 SUB PUSH2 0x1232 JUMPI SWAP2 PUSH1 0x80 DUP2 ADD MLOAD PUSH4 0xFFFFFFFF DUP2 AND DUP2 SUB PUSH2 0x1232 JUMPI SWAP2 PUSH2 0x12FE PUSH1 0xA0 DUP4 ADD PUSH2 0x129A JUMP JUMPDEST SWAP2 PUSH2 0x130B PUSH1 0xC0 DUP3 ADD PUSH2 0x129A JUMP JUMPDEST SWAP2 PUSH2 0x1318 PUSH1 0xE0 DUP4 ADD PUSH2 0x129A JUMP JUMPDEST SWAP2 PUSH2 0x1326 PUSH2 0x100 DUP3 ADD PUSH2 0x129A JUMP JUMPDEST SWAP2 PUSH2 0x140 PUSH2 0x1337 PUSH2 0x120 DUP5 ADD PUSH2 0x1286 JUMP JUMPDEST SWAP3 ADD MLOAD SWAP1 JUMP JUMPDEST SWAP2 SWAP1 DUP3 SUB SWAP2 DUP3 GT PUSH2 0x38A JUMPI JUMP JUMPDEST PUSH1 0x0 DUP2 DUP2 MSTORE PUSH1 0x20 SWAP1 DUP1 DUP3 MSTORE PUSH1 0x40 SWAP3 DUP4 DUP3 KECCAK256 CALLER DUP4 MSTORE DUP4 MSTORE PUSH1 0xFF DUP5 DUP4 KECCAK256 SLOAD AND ISZERO PUSH2 0x1372 JUMPI POP POP POP POP JUMP JUMPDEST PUSH2 0x137B CALLER PUSH2 0x1773 JUMP JUMPDEST DUP5 MLOAD SWAP2 PUSH2 0x1387 DUP4 PUSH2 0x124A JUMP JUMPDEST PUSH1 0x42 DUP4 MSTORE DUP5 DUP4 ADD SWAP4 PUSH1 0x60 CALLDATASIZE DUP7 CALLDATACOPY DUP4 MLOAD ISZERO PUSH2 0x14E3 JUMPI PUSH1 0x30 DUP6 MSTORE8 DUP4 MLOAD SWAP1 PUSH1 0x1 SWAP2 PUSH1 0x1 LT ISZERO PUSH2 0x14E3 JUMPI SWAP1 PUSH1 0x78 PUSH1 0x21 DUP7 ADD MSTORE8 PUSH1 0x41 SWAP2 JUMPDEST DUP2 DUP4 GT PUSH2 0x1475 JUMPI POP POP POP PUSH2 0x1433 JUMPI PUSH2 0x2AF SWAP4 DUP6 SWAP4 PUSH2 0x141D SWAP4 PUSH2 0x140E PUSH1 0x48 SWAP5 PUSH2 0x2FF SWAP10 MLOAD SWAP9 DUP6 PUSH23 0x20B1B1B2B9B9A1B7B73A3937B61D1030B1B1B7BAB73A1 PUSH1 0x4D SHL DUP12 SWAP8 DUP9 ADD MSTORE DUP3 MLOAD SWAP3 DUP4 SWAP2 PUSH1 0x37 DUP10 ADD SWAP2 ADD PUSH2 0x15C1 JUMP JUMPDEST ADD SUB PUSH1 0x28 DUP2 ADD DUP6 MSTORE ADD DUP4 PUSH2 0x1265 JUMP JUMPDEST MLOAD PUSH3 0x461BCD PUSH1 0xE5 SHL DUP2 MSTORE SWAP2 DUP3 SWAP2 PUSH1 0x4 DUP4 ADD PUSH2 0x15E4 JUMP JUMPDEST PUSH1 0x64 DUP5 DUP7 MLOAD SWAP1 PUSH3 0x461BCD PUSH1 0xE5 SHL DUP3 MSTORE DUP1 PUSH1 0x4 DUP4 ADD MSTORE PUSH1 0x24 DUP3 ADD MSTORE PUSH32 0x537472696E67733A20686578206C656E67746820696E73756666696369656E74 PUSH1 0x44 DUP3 ADD MSTORE REVERT JUMPDEST SWAP1 SWAP2 SWAP3 PUSH1 0xF DUP2 AND PUSH1 0x10 DUP2 LT ISZERO PUSH2 0x14CF JUMPI PUSH16 0x181899199A1A9B1B9C1CB0B131B232B3 PUSH1 0x81 SHL SWAP1 BYTE PUSH2 0x14A5 DUP6 DUP9 PUSH2 0x1762 JUMP JUMPDEST MSTORE8 PUSH1 0x4 SHR SWAP3 DUP1 ISZERO PUSH2 0x14BB JUMPI PUSH1 0x0 NOT ADD SWAP2 SWAP1 PUSH2 0x13B9 JUMP JUMPDEST PUSH4 0x4E487B71 PUSH1 0xE0 SHL DUP3 MSTORE PUSH1 0x11 PUSH1 0x4 MSTORE PUSH1 0x24 DUP3 REVERT JUMPDEST PUSH4 0x4E487B71 PUSH1 0xE0 SHL DUP4 MSTORE PUSH1 0x32 PUSH1 0x4 MSTORE PUSH1 0x24 DUP4 REVERT JUMPDEST PUSH4 0x4E487B71 PUSH1 0xE0 SHL DUP2 MSTORE PUSH1 0x32 PUSH1 0x4 MSTORE PUSH1 0x24 SWAP1 REVERT JUMPDEST SWAP1 PUSH1 0x0 SWAP2 DUP1 DUP4 MSTORE DUP3 PUSH1 0x20 MSTORE PUSH1 0x40 DUP4 KECCAK256 SWAP2 PUSH1 0x1 DUP1 PUSH1 0xA0 SHL SUB AND SWAP2 DUP3 DUP5 MSTORE PUSH1 0x20 MSTORE PUSH1 0xFF PUSH1 0x40 DUP5 KECCAK256 SLOAD AND PUSH2 0x1527 JUMPI POP POP POP JUMP JUMPDEST DUP1 DUP4 MSTORE DUP3 PUSH1 0x20 MSTORE PUSH1 0x40 DUP4 KECCAK256 DUP3 DUP5 MSTORE PUSH1 0x20 MSTORE PUSH1 0x40 DUP4 KECCAK256 PUSH1 0xFF NOT DUP2 SLOAD AND SWAP1 SSTORE PUSH32 0xF6391F5C32D9C69D2A47EA670B442974B53935D1EDC7FD64EB21E047A839171B CALLER SWAP4 DUP1 LOG4 JUMP JUMPDEST PUSH1 0x2 PUSH1 0x1 SLOAD EQ PUSH2 0x157C JUMPI PUSH1 0x2 PUSH1 0x1 SSTORE JUMP JUMPDEST PUSH1 0x40 MLOAD PUSH3 0x461BCD PUSH1 0xE5 SHL DUP2 MSTORE PUSH1 0x20 PUSH1 0x4 DUP3 ADD MSTORE PUSH1 0x1F PUSH1 0x24 DUP3 ADD MSTORE PUSH32 0x5265656E7472616E637947756172643A207265656E7472616E742063616C6C00 PUSH1 0x44 DUP3 ADD MSTORE PUSH1 0x64 SWAP1 REVERT JUMPDEST PUSH1 0x0 JUMPDEST DUP4 DUP2 LT PUSH2 0x15D4 JUMPI POP POP PUSH1 0x0 SWAP2 ADD MSTORE JUMP JUMPDEST DUP2 DUP2 ADD MLOAD DUP4 DUP3 ADD MSTORE PUSH1 0x20 ADD PUSH2 0x15C4 JUMP JUMPDEST PUSH1 0x40 SWAP2 PUSH1 0x20 DUP3 MSTORE PUSH2 0x1604 DUP2 MLOAD DUP1 SWAP3 DUP2 PUSH1 0x20 DUP7 ADD MSTORE PUSH1 0x20 DUP7 DUP7 ADD SWAP2 ADD PUSH2 0x15C1 JUMP JUMPDEST PUSH1 0x1F ADD PUSH1 0x1F NOT AND ADD ADD SWAP1 JUMP JUMPDEST PUSH1 0x1 DUP1 PUSH1 0xA0 SHL SUB AND SWAP1 PUSH1 0x40 MLOAD PUSH1 0x40 DUP2 ADD PUSH1 0x1 PUSH1 0x1 PUSH1 0x40 SHL SUB SWAP1 DUP3 DUP2 LT DUP3 DUP3 GT OR PUSH2 0x886 JUMPI PUSH1 0x40 MSTORE PUSH1 0x20 SWAP4 DUP5 DUP4 MSTORE PUSH32 0x5361666545524332303A206C6F772D6C6576656C2063616C6C206661696C6564 DUP6 DUP5 ADD MSTORE PUSH1 0x0 DUP1 DUP6 DUP8 DUP3 SWAP8 MLOAD SWAP2 ADD DUP3 DUP6 GAS CALL SWAP1 RETURNDATASIZE ISZERO PUSH2 0x1753 JUMPI RETURNDATASIZE SWAP3 DUP4 GT PUSH2 0x173F JUMPI SWAP1 PUSH2 0x16AA SWAP4 SWAP3 SWAP2 PUSH1 0x40 MLOAD SWAP3 PUSH2 0x169D DUP9 PUSH1 0x1F NOT PUSH1 0x1F DUP5 ADD AND ADD DUP6 PUSH2 0x1265 JUMP JUMPDEST DUP4 MSTORE RETURNDATASIZE DUP7 DUP9 DUP6 ADD RETURNDATACOPY PUSH2 0x1882 JUMP JUMPDEST SWAP1 DUP2 MLOAD SWAP1 DUP4 DUP3 ISZERO SWAP3 DUP4 ISZERO PUSH2 0x171D JUMPI JUMPDEST POP POP POP SWAP1 POP ISZERO PUSH2 0x16C6 JUMPI POP JUMP JUMPDEST PUSH1 0x84 SWAP1 PUSH1 0x40 MLOAD SWAP1 PUSH3 0x461BCD PUSH1 0xE5 SHL DUP3 MSTORE PUSH1 0x4 DUP3 ADD MSTORE PUSH1 0x2A PUSH1 0x24 DUP3 ADD MSTORE PUSH32 0x5361666545524332303A204552433230206F7065726174696F6E20646964206E PUSH1 0x44 DUP3 ADD MSTORE PUSH10 0x1BDD081CDD58D8D95959 PUSH1 0xB2 SHL PUSH1 0x64 DUP3 ADD MSTORE REVERT JUMPDEST DUP5 DUP1 SWAP3 SWAP4 SWAP5 POP ADD SUB SLT PUSH2 0x3B6 JUMPI POP DUP2 PUSH2 0x1736 SWAP2 ADD PUSH2 0x129A JUMP JUMPDEST DUP1 CODESIZE DUP4 DUP2 PUSH2 0x16B9 JUMP JUMPDEST PUSH4 0x4E487B71 PUSH1 0xE0 SHL DUP6 MSTORE PUSH1 0x41 PUSH1 0x4 MSTORE PUSH1 0x24 DUP6 REVERT JUMPDEST SWAP1 PUSH2 0x16AA SWAP4 SWAP3 POP PUSH1 0x60 SWAP2 PUSH2 0x1882 JUMP JUMPDEST SWAP1 DUP2 MLOAD DUP2 LT ISZERO PUSH2 0x3A0 JUMPI ADD PUSH1 0x20 ADD SWAP1 JUMP JUMPDEST PUSH1 0x40 MLOAD SWAP1 PUSH1 0x60 DUP3 ADD DUP3 DUP2 LT PUSH1 0x1 PUSH1 0x1 PUSH1 0x40 SHL SUB DUP3 GT OR PUSH2 0x886 JUMPI PUSH1 0x40 MSTORE PUSH1 0x2A DUP3 MSTORE PUSH1 0x20 DUP3 ADD PUSH1 0x40 CALLDATASIZE DUP3 CALLDATACOPY DUP3 MLOAD ISZERO PUSH2 0x3A0 JUMPI PUSH1 0x30 SWAP1 MSTORE8 DUP2 MLOAD PUSH1 0x1 SWAP1 PUSH1 0x1 LT ISZERO PUSH2 0x3A0 JUMPI PUSH1 0x78 PUSH1 0x21 DUP5 ADD MSTORE8 PUSH1 0x29 SWAP1 JUMPDEST DUP1 DUP3 GT PUSH2 0x1814 JUMPI POP POP PUSH2 0x17D0 JUMPI SWAP1 JUMP JUMPDEST PUSH1 0x64 PUSH1 0x40 MLOAD PUSH3 0x461BCD PUSH1 0xE5 SHL DUP2 MSTORE PUSH1 0x20 PUSH1 0x4 DUP3 ADD MSTORE PUSH1 0x20 PUSH1 0x24 DUP3 ADD MSTORE PUSH32 0x537472696E67733A20686578206C656E67746820696E73756666696369656E74 PUSH1 0x44 DUP3 ADD MSTORE REVERT JUMPDEST SWAP1 SWAP2 PUSH1 0xF DUP2 AND PUSH1 0x10 DUP2 LT ISZERO PUSH2 0x186D JUMPI PUSH16 0x181899199A1A9B1B9C1CB0B131B232B3 PUSH1 0x81 SHL SWAP1 BYTE PUSH2 0x1843 DUP5 DUP7 PUSH2 0x1762 JUMP JUMPDEST MSTORE8 PUSH1 0x4 SHR SWAP2 DUP1 ISZERO PUSH2 0x1858 JUMPI PUSH1 0x0 NOT ADD SWAP1 PUSH2 0x17C0 JUMP JUMPDEST PUSH1 0x24 PUSH1 0x0 PUSH4 0x4E487B71 PUSH1 0xE0 SHL DUP2 MSTORE PUSH1 0x11 PUSH1 0x4 MSTORE REVERT JUMPDEST PUSH1 0x24 PUSH1 0x0 PUSH4 0x4E487B71 PUSH1 0xE0 SHL DUP2 MSTORE PUSH1 0x32 PUSH1 0x4 MSTORE REVERT JUMPDEST SWAP2 SWAP3 SWAP1 ISZERO PUSH2 0x18E4 JUMPI POP DUP2 MLOAD ISZERO PUSH2 0x1896 JUMPI POP SWAP1 JUMP JUMPDEST EXTCODESIZE ISZERO PUSH2 0x189F JUMPI SWAP1 JUMP JUMPDEST PUSH1 0x40 MLOAD PUSH3 0x461BCD PUSH1 0xE5 SHL DUP2 MSTORE PUSH1 0x20 PUSH1 0x4 DUP3 ADD MSTORE PUSH1 0x1D PUSH1 0x24 DUP3 ADD MSTORE PUSH32 0x416464726573733A2063616C6C20746F206E6F6E2D636F6E7472616374000000 PUSH1 0x44 DUP3 ADD MSTORE PUSH1 0x64 SWAP1 REVERT JUMPDEST DUP3 MLOAD SWAP1 SWAP2 POP ISZERO PUSH2 0x18F7 JUMPI POP DUP1 MLOAD SWAP1 PUSH1 0x20 ADD REVERT JUMPDEST PUSH1 0x40 MLOAD PUSH3 0x461BCD PUSH1 0xE5 SHL DUP2 MSTORE SWAP1 DUP2 SWAP1 PUSH2 0x2FF SWAP1 PUSH1 0x4 DUP4 ADD PUSH2 0x15E4 JUMP INVALID LOG2 PUSH5 0x6970667358 0x22 SLT KECCAK256 SWAP7 SUB 0xE PUSH29 0x35B8A07D318A5D3262C779101AD0DAD8DF0A15EFAB47C2083F8E3CEB64 PUSH20 0x6F6C634300081800330000000000000000000000 "},"methodIdentifiers":{"DEFAULT_ADMIN_ROLE()":"a217fddf","MARKETPLACE_ROLE()":"c3439f3f","activateCredit(uint256,address)":"fbacbca0","creditScore()":"39da3152","creditToken()":"899e5d85","defaultGracePeriod()":"705d5f24","factory()":"c45a0155","getRoleAdmin(bytes32)":"248a9ca3","grantRole(bytes32,address)":"2f2ff15d","hasRole(bytes32,address)":"91d14854","renounceRole(bytes32,address)":"36568abe","repay(uint256,uint256)":"d8aed145","repaymentStates(uint256)":"261e4f8d","revokeRole(bytes32,address)":"d547741f","supportsInterface(bytes4)":"01ffc9a7","triggerDefault(uint256)":"63825392","usdc()":"3e413bee"}}}}}