{"contracts/Marketplace.sol":{"Marketplace":{"abi":[{"inputs":[{"internalType":"address","name":"usdcAddress","type":"address"},{"internalType":"address","name":"factoryAddress","type":"address"},{"internalType":"address","name":"tokenAddress","type":"address"},{"internalType":"address","name":"repaymentAddress","type":"address"},{"internalType":"address","name":"admin","type":"address"}],"stateMutability":"nonpayable","type":"constructor"},{"inputs":[{"internalType":"uint256","name":"creditId","type":"uint256"}],"name":"Expired","type":"error"},{"inputs":[{"internalType":"uint256","name":"creditId","type":"uint256"}],"name":"InvalidListing","type":"error"},{"inputs":[],"name":"Unauthorized","type":"error"},{"anonymous":false,"inputs":[{"indexed":true,"internalType":"uint256","name":"creditId","type":"uint256"},{"indexed":true,"internalType":"address","name":"borrower","type":"address"},{"indexed":true,"internalType":"address","name":"investor","type":"address"},{"indexed":false,"internalType":"uint256","name":"amountUSDC","type":"uint256"}],"name":"CreditFunded","type":"event"},{"anonymous":false,"inputs":[{"indexed":true,"internalType":"uint256","name":"creditId","type":"uint256"},{"indexed":true,"internalType":"address","name":"seller","type":"address"},{"indexed":false,"internalType":"uint256","name":"priceUSDC","type":"uint256"},{"indexed":false,"internalType":"bool","name":"primary","type":"bool"},{"indexed":false,"internalType":"uint64","name":"expiresAt","type":"uint64"}],"name":"CreditListed","type":"event"},{"anonymous":false,"inputs":[{"indexed":true,"internalType":"uint256","name":"creditId","type":"uint256"},{"indexed":true,"internalType":"address","name":"seller","type":"address"}],"name":"ListingCancelled","type":"event"},{"anonymous":false,"inputs":[{"indexed":true,"internalType":"bytes32","name":"role","type":"bytes32"},{"indexed":true,"internalType":"bytes32","name":"previousAdminRole","type":"bytes32"},{"indexed":true,"internalType":"bytes32","name":"newAdminRole","type":"bytes32"}],"name":"RoleAdminChanged","type":"event"},{"anonymous":false,"inputs":[{"indexed":true,"internalType":"bytes32","name":"role","type":"bytes32"},{"indexed":true,"internalType":"address","name":"account","type":"address"},{"indexed":true,"internalType":"address","name":"sender","type":"address"}],"name":"RoleGranted","type":"event"},{"anonymous":false,"inputs":[{"indexed":true,"internalType":"bytes32","name":"role","type":"bytes32"},{"indexed":true,"internalType":"address","name":"account","type":"address"},{"indexed":true,"internalType":"address","name":"sender","type":"address"}],"name":"RoleRevoked","type":"event"},{"anonymous":false,"inputs":[{"indexed":true,"internalType":"uint256","name":"creditId","type":"uint256"},{"indexed":true,"internalType":"address","name":"seller","type":"address"},{"indexed":true,"internalType":"address","name":"buyer","type":"address"},{"indexed":false,"internalType":"uint256","name":"amountUSDC","type":"uint256"}],"name":"SecondaryTrade","type":"event"},{"inputs":[],"name":"DEFAULT_ADMIN_ROLE","outputs":[{"internalType":"bytes32","name":"","type":"bytes32"}],"stateMutability":"view","type":"function"},{"inputs":[{"internalType":"uint256","name":"creditId","type":"uint256"}],"name":"buy","outputs":[],"stateMutability":"nonpayable","type":"function"},{"inputs":[{"internalType":"uint256","name":"creditId","type":"uint256"}],"name":"cancelListing","outputs":[],"stateMutability":"nonpayable","type":"function"},{"inputs":[],"name":"factory","outputs":[{"internalType":"contract IFactory","name":"","type":"address"}],"stateMutability":"view","type":"function"},{"inputs":[{"internalType":"bytes32","name":"role","type":"bytes32"}],"name":"getRoleAdmin","outputs":[{"internalType":"bytes32","name":"","type":"bytes32"}],"stateMutability":"view","type":"function"},{"inputs":[{"internalType":"bytes32","name":"role","type":"bytes32"},{"internalType":"address","name":"account","type":"address"}],"name":"grantRole","outputs":[],"stateMutability":"nonpayable","type":"function"},{"inputs":[{"internalType":"bytes32","name":"role","type":"bytes32"},{"internalType":"address","name":"account","type":"address"}],"name":"hasRole","outputs":[{"internalType":"bool","name":"","type":"bool"}],"stateMutability":"view","type":"function"},{"inputs":[{"internalType":"uint256","name":"creditId","type":"uint256"},{"internalType":"uint256","name":"priceUSDC","type":"uint256"},{"internalType":"uint64","name":"expiresAt","type":"uint64"}],"name":"listPrimary","outputs":[],"stateMutability":"nonpayable","type":"function"},{"inputs":[{"internalType":"uint256","name":"creditId","type":"uint256"},{"internalType":"uint256","name":"priceUSDC","type":"uint256"},{"internalType":"uint64","name":"expiresAt","type":"uint64"}],"name":"listSecondary","outputs":[],"stateMutability":"nonpayable","type":"function"},{"inputs":[{"internalType":"uint256","name":"","type":"uint256"}],"name":"listings","outputs":[{"internalType":"address","name":"seller","type":"address"},{"internalType":"uint256","name":"priceUSDC","type":"uint256"},{"internalType":"uint64","name":"expiresAt","type":"uint64"},{"internalType":"bool","name":"primary","type":"bool"},{"internalType":"bool","name":"active","type":"bool"}],"stateMutability":"view","type":"function"},{"inputs":[{"internalType":"bytes32","name":"role","type":"bytes32"},{"internalType":"address","name":"account","type":"address"}],"name":"renounceRole","outputs":[],"stateMutability":"nonpayable","type":"function"},{"inputs":[],"name":"repaymentManager","outputs":[{"internalType":"contract IRepaymentManager","name":"","type":"address"}],"stateMutability":"view","type":"function"},{"inputs":[{"internalType":"bytes32","name":"role","type":"bytes32"},{"internalType":"address","name":"account","type":"address"}],"name":"revokeRole","outputs":[],"stateMutability":"nonpayable","type":"function"},{"inputs":[{"internalType":"bytes4","name":"interfaceId","type":"bytes4"}],"name":"supportsInterface","outputs":[{"internalType":"bool","name":"","type":"bool"}],"stateMutability":"view","type":"function"},{"inputs":[],"name":"token","outputs":[{"internalType":"contract IERC721","name":"","type":"address"}],"stateMutability":"view","type":"function"},{"inputs":[],"name":"usdc","outputs":[{"internalType":"contract IERC20","name":"","type":"address"}],"stateMutability":"view","type":"function"}],"evm":{"bytecode":{"linkReferences":{},"object":"610100346200019f57601f620018a238819003918201601f191683019291906001600160401b03841183851017620001a4578160a092849260409687528339810103126200019f576200005281620001ba565b6200006060208301620001ba565b6200006d848401620001ba565b926200008a60806200008260608401620001ba565b9201620001ba565b600180556001600160a01b0393841660805291831660a05292821660c05291811660e0526000808052602081815284822092909316808252919092528282205460ff161562000153575b82516116d29081620001d082396080518181816105e9015281816106530152610de0015260a05181818161015a015281816104f7015281816107290152818161078501528181610a780152610b3f015260c05181818160e6015281816101b4015281816106a20152610b94015260e0518181816107bd0152610d9b0152f35b81805281602052828220818352602052828220600160ff1982541617905533917f2f8788117e7eff1d82e926ec794901d17c78024a50270940304540a733656f0d8180a43880620000d4565b600080fd5b634e487b7160e01b600052604160045260246000fd5b51906001600160a01b03821682036200019f5756fe608080604052600436101561001357600080fd5b600090813560e01c90816301ffc9a714610ffe57508063248a9ca314610fd25780632f2ff15d14610f32578063305a67a814610e9457806336568abe14610e0f5780633e413bee14610dca5780635481288e14610d855780638daace8114610afe57806391d1485414610ac3578063a217fddf14610aa7578063c45a015514610a62578063d547741f14610a30578063d96a094a14610484578063de74e57b14610417578063fb12351b146101185763fc0c546a146100d157600080fd5b346101155780600319360112610115576040517f00000000000000000000000000000000000000000000000000000000000000006001600160a01b03168152602090f35b80fd5b5034610115576101273661107e565b929161013161153f565b6040516302c1c27d60e11b81526004810182905261016094906001600160a01b039086816024817f000000000000000000000000000000000000000000000000000000000000000086165afa96871561040c5786978791889389918a936103c9575b50506040516331a9108f60e11b81526004810188905260209a908b816024817f00000000000000000000000000000000000000000000000000000000000000008b165afa9081156103be578b91610385575b508616331480159190610378575b5061036757831561035f575b508215610357575b50811561034e575b811561031d575b50610304579380956102cb60409685885191610231836110a8565b3383528483019689885260028b8501946001600160401b03809316998a8752606082019460019e8f9b8c885260808501988d8a528152858c52209251166bffffffffffffffffffffffff60a01b83541617825551898201550193511660ff60401b84549251151560401b169168ffffffffffffffffff19161717825551151560ff60481b825491151560481b169060ff60481b1916179055565b60405194855284015260408301527fe1e5c95239d9a42be484889a0d78e843f62b8c58b85f64b5db0f79c557a2e88460603393a3805580f35b604051636a5084fd60e01b815260048101849052602490fd5b80915060011b908082046002149015171561033a57841138610216565b634e487b7160e01b86526011600452602486fd5b8515915061020f565b915038610207565b9250386101ff565b6040516282b42960e81b8152600490fd5b86163314159050386101f3565b90508b81813d83116103b7575b61039c81836110ec565b810103126103b3576103ad9061110d565b386101e5565b8a80fd5b503d610392565b6040513d8d823e3d90fd5b9350935050506103ef929750803d10610405575b6103e781836110ec565b81019061112e565b5050509350949a95915092509891923880610193565b503d6103dd565b6040513d88823e3d90fd5b503461011557602036600319011261011557604060a091600435815260026020522060ff600180841b0382541691600260018201549101549060405193845260208401526001600160401b0381166040840152818160401c161515606084015260481c1615156080820152f35b50346101155760203660031901126101155761049e61153f565b600435815260026020526040812060028101549060ff8260481c16156108a2576001600160401b0382168015159081610a26575b50610a0d576040516302c1c27d60e11b815260048035908201526101609283826024817f00000000000000000000000000000000000000000000000000000000000000006001600160a01b03165afa9384156109155785948693879288926109db575b505081156109d3575b506108a25760ff60481b19166002830155815460018301546040516323b872dd60e01b60208201523360248201526001600160a01b03909216604483015260648083019190915281526105926084826110ec565b604051908160408101106001600160401b036040840111176109bf576040828101905260208083527f5361666545524332303a206c6f772d6c6576656c2063616c6c206661696c65648184015281518792839201827f00000000000000000000000000000000000000000000000000000000000000006001600160a01b03165af13d156109b2573d906001600160401b03821161099e57906106809291604051916106476020601f19601f84011601846110ec565b82523d88602084013e5b7f00000000000000000000000000000000000000000000000000000000000000006001600160a01b031661160b565b8051908115918215610978575b50501561092057815484906001600160a01b037f000000000000000000000000000000000000000000000000000000000000000081169116813b1561087b57604051632142170760e11b81526001600160a01b039190911660048083019190915233602483015235604482015291908290606490829084905af1801561091557610902575b50600282015460401c60ff16156108bb576108a2577f00000000000000000000000000000000000000000000000000000000000000006001600160a01b03163b1561087b57604051630420f78160e41b81526004803590820152426001600160401b0316602482015283908181604481837f00000000000000000000000000000000000000000000000000000000000000006001600160a01b03165af1801561087f5761088e575b507f00000000000000000000000000000000000000000000000000000000000000006001600160a01b0316803b1561088a578180916044604051809481936307dd65e560e51b835260043560048401523360248401525af1801561087f57610867575b50506001015460405190815233916001600160a01b031690600435907f05752034aae1537cca294911b27f56b419fa7eb15fbedd9607c7c142c55d685890602090a45b6001805580f35b610870906110d9565b61087b57823861081d565b8280fd5b6040513d84823e3d90fd5b5080fd5b610897906110d9565b61087b5782386107ba565b6024604051636a5084fd60e01b81526004356004820152fd5b5090506001808060a01b038254169101549060405191825233917ff39024ef21a57610bf910cd6d28a0095e6fdbadcb1ace015d534fd6b3297434e602060043592a4610860565b61090e909491946110d9565b9238610712565b6040513d87823e3d90fd5b60405162461bcd60e51b815260206004820152602a60248201527f5361666545524332303a204552433230206f7065726174696f6e20646964206e6044820152691bdd081cdd58d8d9595960b21b6064820152608490fd5b819250906020918101031261099a5760206109939101611121565b388061068d565b8480fd5b634e487b7160e01b87526041600452602487fd5b9061068091606090610651565b634e487b7160e01b86526041600452602486fd5b90503861053e565b9250929550506109f79250803d10610405576103e781836110ec565b5050509450959250969350509492903880610535565b6024604051637c06dd7560e11b81526004356004820152fd5b90504211386104d2565b503461011557610a5f610a4236611053565b9080845283602052610a5a60016040862001546111c4565b6114cb565b80f35b50346101155780600319360112610115576040517f00000000000000000000000000000000000000000000000000000000000000006001600160a01b03168152602090f35b5034610115578060031936011261011557602090604051908152f35b50346101155760ff6040602092610ad936611053565b9082528185528282206001600160a01b03909116825284522054604051911615158152f35b503461011557610b0d3661107e565b610b1892919261153f565b6040516302c1c27d60e11b8152600481018390526001600160a01b039161016080836024817f000000000000000000000000000000000000000000000000000000000000000088165afa8015610d7a57879388928992610d4a575b50506040516331a9108f60e11b8152600481018790526020949085816024817f00000000000000000000000000000000000000000000000000000000000000008b165afa908115610d3f578a91610d06575b5086339116036103675715918215610cfe575b508115610cf6575b508015610cee575b610cd55790610c9a869260405194610bff866110a8565b338652838601888152604087019260026001600160401b038092169889865260608101938985526080820195600187528c8b52838a5260408b209251166bffffffffffffffffffffffff60a01b8354161782555160018201550193511660ff60401b84549251151560401b169168ffffffffffffffffff19161717825551151560ff60481b825491151560481b169060ff60481b1916179055565b60405194855284015260408301527fe1e5c95239d9a42be484889a0d78e843f62b8c58b85f64b5db0f79c557a2e88460603393a36001805580f35b604051636a5084fd60e01b815260048101859052602490fd5b508415610be8565b905038610be0565b915038610bd8565b90508581813d8311610d38575b610d1d81836110ec565b81010312610d3457610d2e9061110d565b38610bc5565b8980fd5b503d610d13565b6040513d8c823e3d90fd5b91509150610d65929350803d10610405576103e781836110ec565b50505095509695509250505092903880610b73565b6040513d89823e3d90fd5b50346101155780600319360112610115576040517f00000000000000000000000000000000000000000000000000000000000000006001600160a01b03168152602090f35b50346101155780600319360112610115576040517f00000000000000000000000000000000000000000000000000000000000000006001600160a01b03168152602090f35b503461011557610e1e36611053565b336001600160a01b03821603610e3757610a5f916114cb565b60405162461bcd60e51b815260206004820152602f60248201527f416363657373436f6e74726f6c3a2063616e206f6e6c792072656e6f756e636560448201526e103937b632b9903337b91039b2b63360891b6064820152608490fd5b503461011557602036600319011261011557600435808252600260205260408220906002820180549260ff8460481c161561030457546001600160a01b0316923384141580610f12575b6103675760ff60481b191690557f8e25282255ab31897df2b0456bb993ac7f84d376861aefd84901d2d63a7428a28380a380f35b50848052846020526040852033865260205260ff60408620541615610ede565b503461011557610f4136611053565b81835282602052610f5860016040852001546111c4565b818352602083815260408085206001600160a01b039093168086529290915283205460ff1615610f86578280f35b818352826020526040832081845260205260408320600160ff1982541617905533917f2f8788117e7eff1d82e926ec794901d17c78024a50270940304540a733656f0d8480a438808280f35b503461011557602036600319011261011557600160406020926004358152808452200154604051908152f35b90503461088a57602036600319011261088a5760043563ffffffff60e01b811680910361087b5760209250637965db0b60e01b8114908115611042575b5015158152f35b6301ffc9a760e01b1490503861103b565b604090600319011261107957600435906024356001600160a01b03811681036110795790565b600080fd5b60609060031901126110795760043590602435906044356001600160401b03811681036110795790565b60a081019081106001600160401b038211176110c357604052565b634e487b7160e01b600052604160045260246000fd5b6001600160401b0381116110c357604052565b90601f801991011681019081106001600160401b038211176110c357604052565b51906001600160a01b038216820361107957565b5190811515820361107957565b9081610160910312611079576111438161110d565b9160208201519160408101519160608201516001600160401b03811681036110795791608081015163ffffffff81168103611079579161118560a08301611121565b9161119260c08201611121565b9161119f60e08301611121565b916111ad6101008201611121565b916101406111be610120840161110d565b92015190565b6000818152602090808252604092838220338352835260ff8483205416156111ec5750505050565b83516001600160401b0391903360608201848111838210176109bf578752602a825285820192873685378251156114b75760308453825191600192600110156114a3576078602185015360295b83811161143957506113f7579087519460808601908682109082111761099e578852604285528685019560603688378551156113e357603087538551600110156113e35790607860218701536041915b81831161137557505050611333579385936113199361130a6048946112e17f416363657373436f6e74726f6c3a206163636f756e74200000000000000000009961132f9b519a8b978801525180926037880190611595565b8401917001034b99036b4b9b9b4b733903937b6329607d1b603784015251809386840190611595565b010360288101855201836110ec565b5162461bcd60e51b8152918291600483016115b8565b0390fd5b60648587519062461bcd60e51b825280600483015260248201527f537472696e67733a20686578206c656e67746820696e73756666696369656e746044820152fd5b909192600f811660108110156113cf576f181899199a1a9b1b9c1cb0b131b232b360811b901a6113a585896115e4565b5360041c9280156113bb57600019019190611289565b634e487b7160e01b82526011600452602482fd5b634e487b7160e01b83526032600452602483fd5b634e487b7160e01b81526032600452602490fd5b60648789519062461bcd60e51b825280600483015260248201527f537472696e67733a20686578206c656e67746820696e73756666696369656e746044820152fd5b90600f8116601081101561148f576f181899199a1a9b1b9c1cb0b131b232b360811b901a61146783876115e4565b5360041c90801561147b5760001901611239565b634e487b7160e01b88526011600452602488fd5b634e487b7160e01b89526032600452602489fd5b634e487b7160e01b87526032600452602487fd5b634e487b7160e01b86526032600452602486fd5b9060009180835282602052604083209160018060a01b03169182845260205260ff6040842054166114fb57505050565b80835282602052604083208284526020526040832060ff1981541690557ff6391f5c32d9c69d2a47ea670b442974b53935d1edc7fd64eb21e047a839171b339380a4565b600260015414611550576002600155565b60405162461bcd60e51b815260206004820152601f60248201527f5265656e7472616e637947756172643a207265656e7472616e742063616c6c006044820152606490fd5b60005b8381106115a85750506000910152565b8181015183820152602001611598565b604091602082526115d88151809281602086015260208686019101611595565b601f01601f1916010190565b9081518110156115f5570160200190565b634e487b7160e01b600052603260045260246000fd5b9192901561166d575081511561161f575090565b3b156116285790565b60405162461bcd60e51b815260206004820152601d60248201527f416464726573733a2063616c6c20746f206e6f6e2d636f6e74726163740000006044820152606490fd5b8251909150156116805750805190602001fd5b60405162461bcd60e51b815290819061132f90600483016115b856fea2646970667358221220ecd8489a3fa8731148c8ac0ef44c40dc51700fc514c0b2367c5fa2b47ad08f3d64736f6c63430008180033","opcodes":"PUSH2 0x100 CALLVALUE PUSH3 0x19F JUMPI PUSH1 0x1F PUSH3 0x18A2 CODESIZE DUP2 SWAP1 SUB SWAP2 DUP3 ADD PUSH1 0x1F NOT AND DUP4 ADD SWAP3 SWAP2 SWAP1 PUSH1 0x1 PUSH1 0x1 PUSH1 0x40 SHL SUB DUP5 GT DUP4 DUP6 LT OR PUSH3 0x1A4 JUMPI DUP2 PUSH1 0xA0 SWAP3 DUP5 SWAP3 PUSH1 0x40 SWAP7 DUP8 MSTORE DUP4 CODECOPY DUP2 ADD SUB SLT PUSH3 0x19F JUMPI PUSH3 0x52 DUP2 PUSH3 0x1BA JUMP JUMPDEST PUSH3 0x60 PUSH1 0x20 DUP4 ADD PUSH3 0x1BA JUMP JUMPDEST PUSH3 0x6D DUP5 DUP5 ADD PUSH3 0x1BA JUMP JUMPDEST SWAP3 PUSH3 0x8A PUSH1 0x80 PUSH3 0x82 PUSH1 0x60 DUP5 ADD PUSH3 0x1BA JUMP JUMPDEST SWAP3 ADD PUSH3 0x1BA JUMP JUMPDEST PUSH1 0x1 DUP1 SSTORE PUSH1 0x1 PUSH1 0x1 PUSH1 0xA0 SHL SUB SWAP4 DUP5 AND PUSH1 0x80 MSTORE SWAP2 DUP4 AND PUSH1 0xA0 MSTORE SWAP3 DUP3 AND PUSH1 0xC0 MSTORE SWAP2 DUP2 AND PUSH1 0xE0 MSTORE PUSH1 0x0 DUP1 DUP1 MSTORE PUSH1 0x20 DUP2 DUP2 MSTORE DUP5 DUP3 KECCAK256 SWAP3 SWAP1 SWAP4 AND DUP1 DUP3 MSTORE SWAP2 SWAP1 SWAP3 MSTORE DUP3 DUP3 KECCAK256 SLOAD PUSH1 0xFF AND ISZERO PUSH3 0x153 JUMPI JUMPDEST DUP3 MLOAD PUSH2 0x16D2 SWAP1 DUP2 PUSH3 0x1D0 DUP3 CODECOPY PUSH1 0x80 MLOAD DUP2 DUP2 DUP2 PUSH2 0x5E9 ADD MSTORE DUP2 DUP2 PUSH2 0x653 ADD MSTORE PUSH2 0xDE0 ADD MSTORE PUSH1 0xA0 MLOAD DUP2 DUP2 DUP2 PUSH2 0x15A ADD MSTORE DUP2 DUP2 PUSH2 0x4F7 ADD MSTORE DUP2 DUP2 PUSH2 0x729 ADD MSTORE DUP2 DUP2 PUSH2 0x785 ADD MSTORE DUP2 DUP2 PUSH2 0xA78 ADD MSTORE PUSH2 0xB3F ADD MSTORE PUSH1 0xC0 MLOAD DUP2 DUP2 DUP2 PUSH1 0xE6 ADD MSTORE DUP2 DUP2 PUSH2 0x1B4 ADD MSTORE DUP2 DUP2 PUSH2 0x6A2 ADD MSTORE PUSH2 0xB94 ADD MSTORE PUSH1 0xE0 MLOAD DUP2 DUP2 DUP2 PUSH2 0x7BD ADD MSTORE PUSH2 0xD9B ADD MSTORE RETURN JUMPDEST DUP2 DUP1 MSTORE DUP2 PUSH1 0x20 MSTORE DUP3 DUP3 KECCAK256 DUP2 DUP4 MSTORE PUSH1 0x20 MSTORE DUP3 DUP3 KECCAK256 PUSH1 0x1 PUSH1 0xFF NOT DUP3 SLOAD AND OR SWAP1 SSTORE CALLER SWAP2 PUSH32 0x2F8788117E7EFF1D82E926EC794901D17C78024A50270940304540A733656F0D DUP2 DUP1 LOG4 CODESIZE DUP1 PUSH3 0xD4 JUMP JUMPDEST PUSH1 0x0 DUP1 REVERT JUMPDEST PUSH4 0x4E487B71 PUSH1 0xE0 SHL PUSH1 0x0 MSTORE PUSH1 0x41 PUSH1 0x4 MSTORE PUSH1 0x24 PUSH1 0x0 REVERT JUMPDEST MLOAD SWAP1 PUSH1 0x1 PUSH1 0x1 PUSH1 0xA0 SHL SUB DUP3 AND DUP3 SUB PUSH3 0x19F JUMPI JUMP INVALID PUSH1 0x80 DUP1 PUSH1 0x40 MSTORE PUSH1 0x4 CALLDATASIZE LT ISZERO PUSH2 0x13 JUMPI PUSH1 0x0 DUP1 REVERT JUMPDEST PUSH1 0x0 SWAP1 DUP2 CALLDATALOAD PUSH1 0xE0 SHR SWAP1 DUP2 PUSH4 0x1FFC9A7 EQ PUSH2 0xFFE JUMPI POP DUP1 PUSH4 0x248A9CA3 EQ PUSH2 0xFD2 JUMPI DUP1 PUSH4 0x2F2FF15D EQ PUSH2 0xF32 JUMPI DUP1 PUSH4 0x305A67A8 EQ PUSH2 0xE94 JUMPI DUP1 PUSH4 0x36568ABE EQ PUSH2 0xE0F JUMPI DUP1 PUSH4 0x3E413BEE EQ PUSH2 0xDCA JUMPI DUP1 PUSH4 0x5481288E EQ PUSH2 0xD85 JUMPI DUP1 PUSH4 0x8DAACE81 EQ PUSH2 0xAFE JUMPI DUP1 PUSH4 0x91D14854 EQ PUSH2 0xAC3 JUMPI DUP1 PUSH4 0xA217FDDF EQ PUSH2 0xAA7 JUMPI DUP1 PUSH4 0xC45A0155 EQ PUSH2 0xA62 JUMPI DUP1 PUSH4 0xD547741F EQ PUSH2 0xA30 JUMPI DUP1 PUSH4 0xD96A094A EQ PUSH2 0x484 JUMPI DUP1 PUSH4 0xDE74E57B EQ PUSH2 0x417 JUMPI DUP1 PUSH4 0xFB12351B EQ PUSH2 0x118 JUMPI PUSH4 0xFC0C546A EQ PUSH2 0xD1 JUMPI PUSH1 0x0 DUP1 REVERT JUMPDEST CALLVALUE PUSH2 0x115 JUMPI DUP1 PUSH1 0x3 NOT CALLDATASIZE ADD SLT PUSH2 0x115 JUMPI PUSH1 0x40 MLOAD PUSH32 0x0 PUSH1 0x1 PUSH1 0x1 PUSH1 0xA0 SHL SUB AND DUP2 MSTORE PUSH1 0x20 SWAP1 RETURN JUMPDEST DUP1 REVERT JUMPDEST POP CALLVALUE PUSH2 0x115 JUMPI PUSH2 0x127 CALLDATASIZE PUSH2 0x107E JUMP JUMPDEST SWAP3 SWAP2 PUSH2 0x131 PUSH2 0x153F JUMP JUMPDEST PUSH1 0x40 MLOAD PUSH4 0x2C1C27D PUSH1 0xE1 SHL DUP2 MSTORE PUSH1 0x4 DUP2 ADD DUP3 SWAP1 MSTORE PUSH2 0x160 SWAP5 SWAP1 PUSH1 0x1 PUSH1 0x1 PUSH1 0xA0 SHL SUB SWAP1 DUP7 DUP2 PUSH1 0x24 DUP2 PUSH32 0x0 DUP7 AND GAS STATICCALL SWAP7 DUP8 ISZERO PUSH2 0x40C JUMPI DUP7 SWAP8 DUP8 SWAP2 DUP9 SWAP4 DUP10 SWAP2 DUP11 SWAP4 PUSH2 0x3C9 JUMPI JUMPDEST POP POP PUSH1 0x40 MLOAD PUSH4 0x31A9108F PUSH1 0xE1 SHL DUP2 MSTORE PUSH1 0x4 DUP2 ADD DUP9 SWAP1 MSTORE PUSH1 0x20 SWAP11 SWAP1 DUP12 DUP2 PUSH1 0x24 DUP2 PUSH32 0x0 DUP12 AND GAS STATICCALL SWAP1 DUP2 ISZERO PUSH2 0x3BE JUMPI DUP12 SWAP2 PUSH2 0x385 JUMPI JUMPDEST POP DUP7 AND CALLER EQ DUP1 ISZERO SWAP2 SWAP1 PUSH2 0x378 JUMPI JUMPDEST POP PUSH2 0x367 JUMPI DUP4 ISZERO PUSH2 0x35F JUMPI JUMPDEST POP DUP3 ISZERO PUSH2 0x357 JUMPI JUMPDEST POP DUP2 ISZERO PUSH2 0x34E JUMPI JUMPDEST DUP2 ISZERO PUSH2 0x31D JUMPI JUMPDEST POP PUSH2 0x304 JUMPI SWAP4 DUP1 SWAP6 PUSH2 0x2CB PUSH1 0x40 SWAP7 DUP6 DUP9 MLOAD SWAP2 PUSH2 0x231 DUP4 PUSH2 0x10A8 JUMP JUMPDEST CALLER DUP4 MSTORE DUP5 DUP4 ADD SWAP7 DUP10 DUP9 MSTORE PUSH1 0x2 DUP12 DUP6 ADD SWAP5 PUSH1 0x1 PUSH1 0x1 PUSH1 0x40 SHL SUB DUP1 SWAP4 AND SWAP10 DUP11 DUP8 MSTORE PUSH1 0x60 DUP3 ADD SWAP5 PUSH1 0x1 SWAP15 DUP16 SWAP12 DUP13 DUP9 MSTORE PUSH1 0x80 DUP6 ADD SWAP9 DUP14 DUP11 MSTORE DUP2 MSTORE DUP6 DUP13 MSTORE KECCAK256 SWAP3 MLOAD AND PUSH12 0xFFFFFFFFFFFFFFFFFFFFFFFF PUSH1 0xA0 SHL DUP4 SLOAD AND OR DUP3 SSTORE MLOAD DUP10 DUP3 ADD SSTORE ADD SWAP4 MLOAD AND PUSH1 0xFF PUSH1 0x40 SHL DUP5 SLOAD SWAP3 MLOAD ISZERO ISZERO PUSH1 0x40 SHL AND SWAP2 PUSH9 0xFFFFFFFFFFFFFFFFFF NOT AND OR OR DUP3 SSTORE MLOAD ISZERO ISZERO PUSH1 0xFF PUSH1 0x48 SHL DUP3 SLOAD SWAP2 ISZERO ISZERO PUSH1 0x48 SHL AND SWAP1 PUSH1 0xFF PUSH1 0x48 SHL NOT AND OR SWAP1 SSTORE JUMP JUMPDEST PUSH1 0x40 MLOAD SWAP5 DUP6 MSTORE DUP5 ADD MSTORE PUSH1 0x40 DUP4 ADD MSTORE PUSH32 0xE1E5C95239D9A42BE484889A0D78E843F62B8C58B85F64B5DB0F79C557A2E884 PUSH1 0x60 CALLER SWAP4 LOG3 DUP1 SSTORE DUP1 RETURN JUMPDEST PUSH1 0x40 MLOAD PUSH4 0x6A5084FD PUSH1 0xE0 SHL DUP2 MSTORE PUSH1 0x4 DUP2 ADD DUP5 SWAP1 MSTORE PUSH1 0x24 SWAP1 REVERT JUMPDEST DUP1 SWAP2 POP PUSH1 0x1 SHL SWAP1 DUP1 DUP3 DIV PUSH1 0x2 EQ SWAP1 ISZERO OR ISZERO PUSH2 0x33A JUMPI DUP5 GT CODESIZE PUSH2 0x216 JUMP JUMPDEST PUSH4 0x4E487B71 PUSH1 0xE0 SHL DUP7 MSTORE PUSH1 0x11 PUSH1 0x4 MSTORE PUSH1 0x24 DUP7 REVERT JUMPDEST DUP6 ISZERO SWAP2 POP PUSH2 0x20F JUMP JUMPDEST SWAP2 POP CODESIZE PUSH2 0x207 JUMP JUMPDEST SWAP3 POP CODESIZE PUSH2 0x1FF JUMP JUMPDEST PUSH1 0x40 MLOAD PUSH3 0x82B429 PUSH1 0xE8 SHL DUP2 MSTORE PUSH1 0x4 SWAP1 REVERT JUMPDEST DUP7 AND CALLER EQ ISZERO SWAP1 POP CODESIZE PUSH2 0x1F3 JUMP JUMPDEST SWAP1 POP DUP12 DUP2 DUP2 RETURNDATASIZE DUP4 GT PUSH2 0x3B7 JUMPI JUMPDEST PUSH2 0x39C DUP2 DUP4 PUSH2 0x10EC JUMP JUMPDEST DUP2 ADD SUB SLT PUSH2 0x3B3 JUMPI PUSH2 0x3AD SWAP1 PUSH2 0x110D JUMP JUMPDEST CODESIZE PUSH2 0x1E5 JUMP JUMPDEST DUP11 DUP1 REVERT JUMPDEST POP RETURNDATASIZE PUSH2 0x392 JUMP JUMPDEST PUSH1 0x40 MLOAD RETURNDATASIZE DUP14 DUP3 RETURNDATACOPY RETURNDATASIZE SWAP1 REVERT JUMPDEST SWAP4 POP SWAP4 POP POP POP PUSH2 0x3EF SWAP3 SWAP8 POP DUP1 RETURNDATASIZE LT PUSH2 0x405 JUMPI JUMPDEST PUSH2 0x3E7 DUP2 DUP4 PUSH2 0x10EC JUMP JUMPDEST DUP2 ADD SWAP1 PUSH2 0x112E JUMP JUMPDEST POP POP POP SWAP4 POP SWAP5 SWAP11 SWAP6 SWAP2 POP SWAP3 POP SWAP9 SWAP2 SWAP3 CODESIZE DUP1 PUSH2 0x193 JUMP JUMPDEST POP RETURNDATASIZE PUSH2 0x3DD JUMP JUMPDEST PUSH1 0x40 MLOAD RETURNDATASIZE DUP9 DUP3 RETURNDATACOPY RETURNDATASIZE SWAP1 REVERT JUMPDEST POP CALLVALUE PUSH2 0x115 JUMPI PUSH1 0x20 CALLDATASIZE PUSH1 0x3 NOT ADD SLT PUSH2 0x115 JUMPI PUSH1 0x40 PUSH1 0xA0 SWAP2 PUSH1 0x4 CALLDATALOAD DUP2 MSTORE PUSH1 0x2 PUSH1 0x20 MSTORE KECCAK256 PUSH1 0xFF PUSH1 0x1 DUP1 DUP5 SHL SUB DUP3 SLOAD AND SWAP2 PUSH1 0x2 PUSH1 0x1 DUP3 ADD SLOAD SWAP2 ADD SLOAD SWAP1 PUSH1 0x40 MLOAD SWAP4 DUP5 MSTORE PUSH1 0x20 DUP5 ADD MSTORE PUSH1 0x1 PUSH1 0x1 PUSH1 0x40 SHL SUB DUP2 AND PUSH1 0x40 DUP5 ADD MSTORE DUP2 DUP2 PUSH1 0x40 SHR AND ISZERO ISZERO PUSH1 0x60 DUP5 ADD MSTORE PUSH1 0x48 SHR AND ISZERO ISZERO PUSH1 0x80 DUP3 ADD MSTORE RETURN JUMPDEST POP CALLVALUE PUSH2 0x115 JUMPI PUSH1 0x20 CALLDATASIZE PUSH1 0x3 NOT ADD SLT PUSH2 0x115 JUMPI PUSH2 0x49E PUSH2 0x153F JUMP JUMPDEST PUSH1 0x4 CALLDATALOAD DUP2 MSTORE PUSH1 0x2 PUSH1 0x20 MSTORE PUSH1 0x40 DUP2 KECCAK256 PUSH1 0x2 DUP2 ADD SLOAD SWAP1 PUSH1 0xFF DUP3 PUSH1 0x48 SHR AND ISZERO PUSH2 0x8A2 JUMPI PUSH1 0x1 PUSH1 0x1 PUSH1 0x40 SHL SUB DUP3 AND DUP1 ISZERO ISZERO SWAP1 DUP2 PUSH2 0xA26 JUMPI JUMPDEST POP PUSH2 0xA0D JUMPI PUSH1 0x40 MLOAD PUSH4 0x2C1C27D PUSH1 0xE1 SHL DUP2 MSTORE PUSH1 0x4 DUP1 CALLDATALOAD SWAP1 DUP3 ADD MSTORE PUSH2 0x160 SWAP3 DUP4 DUP3 PUSH1 0x24 DUP2 PUSH32 0x0 PUSH1 0x1 PUSH1 0x1 PUSH1 0xA0 SHL SUB AND GAS STATICCALL SWAP4 DUP5 ISZERO PUSH2 0x915 JUMPI DUP6 SWAP5 DUP7 SWAP4 DUP8 SWAP3 DUP9 SWAP3 PUSH2 0x9DB JUMPI JUMPDEST POP POP DUP2 ISZERO PUSH2 0x9D3 JUMPI JUMPDEST POP PUSH2 0x8A2 JUMPI PUSH1 0xFF PUSH1 0x48 SHL NOT AND PUSH1 0x2 DUP4 ADD SSTORE DUP2 SLOAD PUSH1 0x1 DUP4 ADD SLOAD PUSH1 0x40 MLOAD PUSH4 0x23B872DD PUSH1 0xE0 SHL PUSH1 0x20 DUP3 ADD MSTORE CALLER PUSH1 0x24 DUP3 ADD MSTORE PUSH1 0x1 PUSH1 0x1 PUSH1 0xA0 SHL SUB SWAP1 SWAP3 AND PUSH1 0x44 DUP4 ADD MSTORE PUSH1 0x64 DUP1 DUP4 ADD SWAP2 SWAP1 SWAP2 MSTORE DUP2 MSTORE PUSH2 0x592 PUSH1 0x84 DUP3 PUSH2 0x10EC JUMP JUMPDEST PUSH1 0x40 MLOAD SWAP1 DUP2 PUSH1 0x40 DUP2 ADD LT PUSH1 0x1 PUSH1 0x1 PUSH1 0x40 SHL SUB PUSH1 0x40 DUP5 ADD GT OR PUSH2 0x9BF JUMPI PUSH1 0x40 DUP3 DUP2 ADD SWAP1 MSTORE PUSH1 0x20 DUP1 DUP4 MSTORE PUSH32 0x5361666545524332303A206C6F772D6C6576656C2063616C6C206661696C6564 DUP2 DUP5 ADD MSTORE DUP2 MLOAD DUP8 SWAP3 DUP4 SWAP3 ADD DUP3 PUSH32 0x0 PUSH1 0x1 PUSH1 0x1 PUSH1 0xA0 SHL SUB AND GAS CALL RETURNDATASIZE ISZERO PUSH2 0x9B2 JUMPI RETURNDATASIZE SWAP1 PUSH1 0x1 PUSH1 0x1 PUSH1 0x40 SHL SUB DUP3 GT PUSH2 0x99E JUMPI SWAP1 PUSH2 0x680 SWAP3 SWAP2 PUSH1 0x40 MLOAD SWAP2 PUSH2 0x647 PUSH1 0x20 PUSH1 0x1F NOT PUSH1 0x1F DUP5 ADD AND ADD DUP5 PUSH2 0x10EC JUMP JUMPDEST DUP3 MSTORE RETURNDATASIZE DUP9 PUSH1 0x20 DUP5 ADD RETURNDATACOPY JUMPDEST PUSH32 0x0 PUSH1 0x1 PUSH1 0x1 PUSH1 0xA0 SHL SUB AND PUSH2 0x160B JUMP JUMPDEST DUP1 MLOAD SWAP1 DUP2 ISZERO SWAP2 DUP3 ISZERO PUSH2 0x978 JUMPI JUMPDEST POP POP ISZERO PUSH2 0x920 JUMPI DUP2 SLOAD DUP5 SWAP1 PUSH1 0x1 PUSH1 0x1 PUSH1 0xA0 SHL SUB PUSH32 0x0 DUP2 AND SWAP2 AND DUP2 EXTCODESIZE ISZERO PUSH2 0x87B JUMPI PUSH1 0x40 MLOAD PUSH4 0x21421707 PUSH1 0xE1 SHL DUP2 MSTORE PUSH1 0x1 PUSH1 0x1 PUSH1 0xA0 SHL SUB SWAP2 SWAP1 SWAP2 AND PUSH1 0x4 DUP1 DUP4 ADD SWAP2 SWAP1 SWAP2 MSTORE CALLER PUSH1 0x24 DUP4 ADD MSTORE CALLDATALOAD PUSH1 0x44 DUP3 ADD MSTORE SWAP2 SWAP1 DUP3 SWAP1 PUSH1 0x64 SWAP1 DUP3 SWAP1 DUP5 SWAP1 GAS CALL DUP1 ISZERO PUSH2 0x915 JUMPI PUSH2 0x902 JUMPI JUMPDEST POP PUSH1 0x2 DUP3 ADD SLOAD PUSH1 0x40 SHR PUSH1 0xFF AND ISZERO PUSH2 0x8BB JUMPI PUSH2 0x8A2 JUMPI PUSH32 0x0 PUSH1 0x1 PUSH1 0x1 PUSH1 0xA0 SHL SUB AND EXTCODESIZE ISZERO PUSH2 0x87B JUMPI PUSH1 0x40 MLOAD PUSH4 0x420F781 PUSH1 0xE4 SHL DUP2 MSTORE PUSH1 0x4 DUP1 CALLDATALOAD SWAP1 DUP3 ADD MSTORE TIMESTAMP PUSH1 0x1 PUSH1 0x1 PUSH1 0x40 SHL SUB AND PUSH1 0x24 DUP3 ADD MSTORE DUP4 SWAP1 DUP2 DUP2 PUSH1 0x44 DUP2 DUP4 PUSH32 0x0 PUSH1 0x1 PUSH1 0x1 PUSH1 0xA0 SHL SUB AND GAS CALL DUP1 ISZERO PUSH2 0x87F JUMPI PUSH2 0x88E JUMPI JUMPDEST POP PUSH32 0x0 PUSH1 0x1 PUSH1 0x1 PUSH1 0xA0 SHL SUB AND DUP1 EXTCODESIZE ISZERO PUSH2 0x88A JUMPI DUP2 DUP1 SWAP2 PUSH1 0x44 PUSH1 0x40 MLOAD DUP1 SWAP5 DUP2 SWAP4 PUSH4 0x7DD65E5 PUSH1 0xE5 SHL DUP4 MSTORE PUSH1 0x4 CALLDATALOAD PUSH1 0x4 DUP5 ADD MSTORE CALLER PUSH1 0x24 DUP5 ADD MSTORE GAS CALL DUP1 ISZERO PUSH2 0x87F JUMPI PUSH2 0x867 JUMPI JUMPDEST POP POP PUSH1 0x1 ADD SLOAD PUSH1 0x40 MLOAD SWAP1 DUP2 MSTORE CALLER SWAP2 PUSH1 0x1 PUSH1 0x1 PUSH1 0xA0 SHL SUB AND SWAP1 PUSH1 0x4 CALLDATALOAD SWAP1 PUSH32 0x5752034AAE1537CCA294911B27F56B419FA7EB15FBEDD9607C7C142C55D6858 SWAP1 PUSH1 0x20 SWAP1 LOG4 JUMPDEST PUSH1 0x1 DUP1 SSTORE DUP1 RETURN JUMPDEST PUSH2 0x870 SWAP1 PUSH2 0x10D9 JUMP JUMPDEST PUSH2 0x87B JUMPI DUP3 CODESIZE PUSH2 0x81D JUMP JUMPDEST DUP3 DUP1 REVERT JUMPDEST PUSH1 0x40 MLOAD RETURNDATASIZE DUP5 DUP3 RETURNDATACOPY RETURNDATASIZE SWAP1 REVERT JUMPDEST POP DUP1 REVERT JUMPDEST PUSH2 0x897 SWAP1 PUSH2 0x10D9 JUMP JUMPDEST PUSH2 0x87B JUMPI DUP3 CODESIZE PUSH2 0x7BA JUMP JUMPDEST PUSH1 0x24 PUSH1 0x40 MLOAD PUSH4 0x6A5084FD PUSH1 0xE0 SHL DUP2 MSTORE PUSH1 0x4 CALLDATALOAD PUSH1 0x4 DUP3 ADD MSTORE REVERT JUMPDEST POP SWAP1 POP PUSH1 0x1 DUP1 DUP1 PUSH1 0xA0 SHL SUB DUP3 SLOAD AND SWAP2 ADD SLOAD SWAP1 PUSH1 0x40 MLOAD SWAP2 DUP3 MSTORE CALLER SWAP2 PUSH32 0xF39024EF21A57610BF910CD6D28A0095E6FDBADCB1ACE015D534FD6B3297434E PUSH1 0x20 PUSH1 0x4 CALLDATALOAD SWAP3 LOG4 PUSH2 0x860 JUMP JUMPDEST PUSH2 0x90E SWAP1 SWAP5 SWAP2 SWAP5 PUSH2 0x10D9 JUMP JUMPDEST SWAP3 CODESIZE PUSH2 0x712 JUMP JUMPDEST PUSH1 0x40 MLOAD RETURNDATASIZE DUP8 DUP3 RETURNDATACOPY RETURNDATASIZE SWAP1 REVERT JUMPDEST PUSH1 0x40 MLOAD PUSH3 0x461BCD PUSH1 0xE5 SHL DUP2 MSTORE PUSH1 0x20 PUSH1 0x4 DUP3 ADD MSTORE PUSH1 0x2A PUSH1 0x24 DUP3 ADD MSTORE PUSH32 0x5361666545524332303A204552433230206F7065726174696F6E20646964206E PUSH1 0x44 DUP3 ADD MSTORE PUSH10 0x1BDD081CDD58D8D95959 PUSH1 0xB2 SHL PUSH1 0x64 DUP3 ADD MSTORE PUSH1 0x84 SWAP1 REVERT JUMPDEST DUP2 SWAP3 POP SWAP1 PUSH1 0x20 SWAP2 DUP2 ADD SUB SLT PUSH2 0x99A JUMPI PUSH1 0x20 PUSH2 0x993 SWAP2 ADD PUSH2 0x1121 JUMP JUMPDEST CODESIZE DUP1 PUSH2 0x68D JUMP JUMPDEST DUP5 DUP1 REVERT JUMPDEST PUSH4 0x4E487B71 PUSH1 0xE0 SHL DUP8 MSTORE PUSH1 0x41 PUSH1 0x4 MSTORE PUSH1 0x24 DUP8 REVERT JUMPDEST SWAP1 PUSH2 0x680 SWAP2 PUSH1 0x60 SWAP1 PUSH2 0x651 JUMP JUMPDEST PUSH4 0x4E487B71 PUSH1 0xE0 SHL DUP7 MSTORE PUSH1 0x41 PUSH1 0x4 MSTORE PUSH1 0x24 DUP7 REVERT JUMPDEST SWAP1 POP CODESIZE PUSH2 0x53E JUMP JUMPDEST SWAP3 POP SWAP3 SWAP6 POP POP PUSH2 0x9F7 SWAP3 POP DUP1 RETURNDATASIZE LT PUSH2 0x405 JUMPI PUSH2 0x3E7 DUP2 DUP4 PUSH2 0x10EC JUMP JUMPDEST POP POP POP SWAP5 POP SWAP6 SWAP3 POP SWAP7 SWAP4 POP POP SWAP5 SWAP3 SWAP1 CODESIZE DUP1 PUSH2 0x535 JUMP JUMPDEST PUSH1 0x24 PUSH1 0x40 MLOAD PUSH4 0x7C06DD75 PUSH1 0xE1 SHL DUP2 MSTORE PUSH1 0x4 CALLDATALOAD PUSH1 0x4 DUP3 ADD MSTORE REVERT JUMPDEST SWAP1 POP TIMESTAMP GT CODESIZE PUSH2 0x4D2 JUMP JUMPDEST POP CALLVALUE PUSH2 0x115 JUMPI PUSH2 0xA5F PUSH2 0xA42 CALLDATASIZE PUSH2 0x1053 JUMP JUMPDEST SWAP1 DUP1 DUP5 MSTORE DUP4 PUSH1 0x20 MSTORE PUSH2 0xA5A PUSH1 0x1 PUSH1 0x40 DUP7 KECCAK256 ADD SLOAD PUSH2 0x11C4 JUMP JUMPDEST PUSH2 0x14CB JUMP JUMPDEST DUP1 RETURN JUMPDEST POP CALLVALUE PUSH2 0x115 JUMPI DUP1 PUSH1 0x3 NOT CALLDATASIZE ADD SLT PUSH2 0x115 JUMPI PUSH1 0x40 MLOAD PUSH32 0x0 PUSH1 0x1 PUSH1 0x1 PUSH1 0xA0 SHL SUB AND DUP2 MSTORE PUSH1 0x20 SWAP1 RETURN JUMPDEST POP CALLVALUE PUSH2 0x115 JUMPI DUP1 PUSH1 0x3 NOT CALLDATASIZE ADD SLT PUSH2 0x115 JUMPI PUSH1 0x20 SWAP1 PUSH1 0x40 MLOAD SWAP1 DUP2 MSTORE RETURN JUMPDEST POP CALLVALUE PUSH2 0x115 JUMPI PUSH1 0xFF PUSH1 0x40 PUSH1 0x20 SWAP3 PUSH2 0xAD9 CALLDATASIZE PUSH2 0x1053 JUMP JUMPDEST SWAP1 DUP3 MSTORE DUP2 DUP6 MSTORE DUP3 DUP3 KECCAK256 PUSH1 0x1 PUSH1 0x1 PUSH1 0xA0 SHL SUB SWAP1 SWAP2 AND DUP3 MSTORE DUP5 MSTORE KECCAK256 SLOAD PUSH1 0x40 MLOAD SWAP2 AND ISZERO ISZERO DUP2 MSTORE RETURN JUMPDEST POP CALLVALUE PUSH2 0x115 JUMPI PUSH2 0xB0D CALLDATASIZE PUSH2 0x107E JUMP JUMPDEST PUSH2 0xB18 SWAP3 SWAP2 SWAP3 PUSH2 0x153F JUMP JUMPDEST PUSH1 0x40 MLOAD PUSH4 0x2C1C27D PUSH1 0xE1 SHL DUP2 MSTORE PUSH1 0x4 DUP2 ADD DUP4 SWAP1 MSTORE PUSH1 0x1 PUSH1 0x1 PUSH1 0xA0 SHL SUB SWAP2 PUSH2 0x160 DUP1 DUP4 PUSH1 0x24 DUP2 PUSH32 0x0 DUP9 AND GAS STATICCALL DUP1 ISZERO PUSH2 0xD7A JUMPI DUP8 SWAP4 DUP9 SWAP3 DUP10 SWAP3 PUSH2 0xD4A JUMPI JUMPDEST POP POP PUSH1 0x40 MLOAD PUSH4 0x31A9108F PUSH1 0xE1 SHL DUP2 MSTORE PUSH1 0x4 DUP2 ADD DUP8 SWAP1 MSTORE PUSH1 0x20 SWAP5 SWAP1 DUP6 DUP2 PUSH1 0x24 DUP2 PUSH32 0x0 DUP12 AND GAS STATICCALL SWAP1 DUP2 ISZERO PUSH2 0xD3F JUMPI DUP11 SWAP2 PUSH2 0xD06 JUMPI JUMPDEST POP DUP7 CALLER SWAP2 AND SUB PUSH2 0x367 JUMPI ISZERO SWAP2 DUP3 ISZERO PUSH2 0xCFE JUMPI JUMPDEST POP DUP2 ISZERO PUSH2 0xCF6 JUMPI JUMPDEST POP DUP1 ISZERO PUSH2 0xCEE JUMPI JUMPDEST PUSH2 0xCD5 JUMPI SWAP1 PUSH2 0xC9A DUP7 SWAP3 PUSH1 0x40 MLOAD SWAP5 PUSH2 0xBFF DUP7 PUSH2 0x10A8 JUMP JUMPDEST CALLER DUP7 MSTORE DUP4 DUP7 ADD DUP9 DUP2 MSTORE PUSH1 0x40 DUP8 ADD SWAP3 PUSH1 0x2 PUSH1 0x1 PUSH1 0x1 PUSH1 0x40 SHL SUB DUP1 SWAP3 AND SWAP9 DUP10 DUP7 MSTORE PUSH1 0x60 DUP2 ADD SWAP4 DUP10 DUP6 MSTORE PUSH1 0x80 DUP3 ADD SWAP6 PUSH1 0x1 DUP8 MSTORE DUP13 DUP12 MSTORE DUP4 DUP11 MSTORE PUSH1 0x40 DUP12 KECCAK256 SWAP3 MLOAD AND PUSH12 0xFFFFFFFFFFFFFFFFFFFFFFFF PUSH1 0xA0 SHL DUP4 SLOAD AND OR DUP3 SSTORE MLOAD PUSH1 0x1 DUP3 ADD SSTORE ADD SWAP4 MLOAD AND PUSH1 0xFF PUSH1 0x40 SHL DUP5 SLOAD SWAP3 MLOAD ISZERO ISZERO PUSH1 0x40 SHL AND SWAP2 PUSH9 0xFFFFFFFFFFFFFFFFFF NOT AND OR OR DUP3 SSTORE MLOAD ISZERO ISZERO PUSH1 0xFF PUSH1 0x48 SHL DUP3 SLOAD SWAP2 ISZERO ISZERO PUSH1 0x48 SHL AND SWAP1 PUSH1 0xFF PUSH1 0x48 SHL NOT AND OR SWAP1 SSTORE JUMP JUMPDEST PUSH1 0x40 MLOAD SWAP5 DUP6 MSTORE DUP5 ADD MSTORE PUSH1 0x40 DUP4 ADD MSTORE PUSH32 0xE1E5C95239D9A42BE484889A0D78E843F62B8C58B85F64B5DB0F79C557A2E884 PUSH1 0x60 CALLER SWAP4 LOG3 PUSH1 0x1 DUP1 SSTORE DUP1 RETURN JUMPDEST PUSH1 0x40 MLOAD PUSH4 0x6A5084FD PUSH1 0xE0 SHL DUP2 MSTORE PUSH1 0x4 DUP2 ADD DUP6 SWAP1 MSTORE PUSH1 0x24 SWAP1 REVERT JUMPDEST POP DUP5 ISZERO PUSH2 0xBE8 JUMP JUMPDEST SWAP1 POP CODESIZE PUSH2 0xBE0 JUMP JUMPDEST SWAP2 POP CODESIZE PUSH2 0xBD8 JUMP JUMPDEST SWAP1 POP DUP6 DUP2 DUP2 RETURNDATASIZE DUP4 GT PUSH2 0xD38 JUMPI JUMPDEST PUSH2 0xD1D DUP2 DUP4 PUSH2 0x10EC JUMP JUMPDEST DUP2 ADD SUB SLT PUSH2 0xD34 JUMPI PUSH2 0xD2E SWAP1 PUSH2 0x110D JUMP JUMPDEST CODESIZE PUSH2 0xBC5 JUMP JUMPDEST DUP10 DUP1 REVERT JUMPDEST POP RETURNDATASIZE PUSH2 0xD13 JUMP JUMPDEST PUSH1 0x40 MLOAD RETURNDATASIZE DUP13 DUP3 RETURNDATACOPY RETURNDATASIZE SWAP1 REVERT JUMPDEST SWAP2 POP SWAP2 POP PUSH2 0xD65 SWAP3 SWAP4 POP DUP1 RETURNDATASIZE LT PUSH2 0x405 JUMPI PUSH2 0x3E7 DUP2 DUP4 PUSH2 0x10EC JUMP JUMPDEST POP POP POP SWAP6 POP SWAP7 SWAP6 POP SWAP3 POP POP POP SWAP3 SWAP1 CODESIZE DUP1 PUSH2 0xB73 JUMP JUMPDEST PUSH1 0x40 MLOAD RETURNDATASIZE DUP10 DUP3 RETURNDATACOPY RETURNDATASIZE SWAP1 REVERT JUMPDEST POP CALLVALUE PUSH2 0x115 JUMPI DUP1 PUSH1 0x3 NOT CALLDATASIZE ADD SLT PUSH2 0x115 JUMPI PUSH1 0x40 MLOAD PUSH32 0x0 PUSH1 0x1 PUSH1 0x1 PUSH1 0xA0 SHL SUB AND DUP2 MSTORE PUSH1 0x20 SWAP1 RETURN JUMPDEST POP CALLVALUE PUSH2 0x115 JUMPI DUP1 PUSH1 0x3 NOT CALLDATASIZE ADD SLT PUSH2 0x115 JUMPI PUSH1 0x40 MLOAD PUSH32 0x0 PUSH1 0x1 PUSH1 0x1 PUSH1 0xA0 SHL SUB AND DUP2 MSTORE PUSH1 0x20 SWAP1 RETURN JUMPDEST POP CALLVALUE PUSH2 0x115 JUMPI PUSH2 0xE1E CALLDATASIZE PUSH2 0x1053 JUMP JUMPDEST CALLER PUSH1 0x1 PUSH1 0x1 PUSH1 0xA0 SHL SUB DUP3 AND SUB PUSH2 0xE37 JUMPI PUSH2 0xA5F SWAP2 PUSH2 0x14CB JUMP JUMPDEST PUSH1 0x40 MLOAD PUSH3 0x461BCD PUSH1 0xE5 SHL DUP2 MSTORE PUSH1 0x20 PUSH1 0x4 DUP3 ADD MSTORE PUSH1 0x2F PUSH1 0x24 DUP3 ADD MSTORE PUSH32 0x416363657373436F6E74726F6C3A2063616E206F6E6C792072656E6F756E6365 PUSH1 0x44 DUP3 ADD MSTORE PUSH15 0x103937B632B9903337B91039B2B633 PUSH1 0x89 SHL PUSH1 0x64 DUP3 ADD MSTORE PUSH1 0x84 SWAP1 REVERT JUMPDEST POP CALLVALUE PUSH2 0x115 JUMPI PUSH1 0x20 CALLDATASIZE PUSH1 0x3 NOT ADD SLT PUSH2 0x115 JUMPI PUSH1 0x4 CALLDATALOAD DUP1 DUP3 MSTORE PUSH1 0x2 PUSH1 0x20 MSTORE PUSH1 0x40 DUP3 KECCAK256 SWAP1 PUSH1 0x2 DUP3 ADD DUP1 SLOAD SWAP3 PUSH1 0xFF DUP5 PUSH1 0x48 SHR AND ISZERO PUSH2 0x304 JUMPI SLOAD PUSH1 0x1 PUSH1 0x1 PUSH1 0xA0 SHL SUB AND SWAP3 CALLER DUP5 EQ ISZERO DUP1 PUSH2 0xF12 JUMPI JUMPDEST PUSH2 0x367 JUMPI PUSH1 0xFF PUSH1 0x48 SHL NOT AND SWAP1 SSTORE PUSH32 0x8E25282255AB31897DF2B0456BB993AC7F84D376861AEFD84901D2D63A7428A2 DUP4 DUP1 LOG3 DUP1 RETURN JUMPDEST POP DUP5 DUP1 MSTORE DUP5 PUSH1 0x20 MSTORE PUSH1 0x40 DUP6 KECCAK256 CALLER DUP7 MSTORE PUSH1 0x20 MSTORE PUSH1 0xFF PUSH1 0x40 DUP7 KECCAK256 SLOAD AND ISZERO PUSH2 0xEDE JUMP JUMPDEST POP CALLVALUE PUSH2 0x115 JUMPI PUSH2 0xF41 CALLDATASIZE PUSH2 0x1053 JUMP JUMPDEST DUP2 DUP4 MSTORE DUP3 PUSH1 0x20 MSTORE PUSH2 0xF58 PUSH1 0x1 PUSH1 0x40 DUP6 KECCAK256 ADD SLOAD PUSH2 0x11C4 JUMP JUMPDEST DUP2 DUP4 MSTORE PUSH1 0x20 DUP4 DUP2 MSTORE PUSH1 0x40 DUP1 DUP6 KECCAK256 PUSH1 0x1 PUSH1 0x1 PUSH1 0xA0 SHL SUB SWAP1 SWAP4 AND DUP1 DUP7 MSTORE SWAP3 SWAP1 SWAP2 MSTORE DUP4 KECCAK256 SLOAD PUSH1 0xFF AND ISZERO PUSH2 0xF86 JUMPI DUP3 DUP1 RETURN JUMPDEST DUP2 DUP4 MSTORE DUP3 PUSH1 0x20 MSTORE PUSH1 0x40 DUP4 KECCAK256 DUP2 DUP5 MSTORE PUSH1 0x20 MSTORE PUSH1 0x40 DUP4 KECCAK256 PUSH1 0x1 PUSH1 0xFF NOT DUP3 SLOAD AND OR SWAP1 SSTORE CALLER SWAP2 PUSH32 0x2F8788117E7EFF1D82E926EC794901D17C78024A50270940304540A733656F0D DUP5 DUP1 LOG4 CODESIZE DUP1 DUP3 DUP1 RETURN JUMPDEST POP CALLVALUE PUSH2 0x115 JUMPI PUSH1 0x20 CALLDATASIZE PUSH1 0x3 NOT ADD SLT PUSH2 0x115 JUMPI PUSH1 0x1 PUSH1 0x40 PUSH1 0x20 SWAP3 PUSH1 0x4 CALLDATALOAD DUP2 MSTORE DUP1 DUP5 MSTORE KECCAK256 ADD SLOAD PUSH1 0x40 MLOAD SWAP1 DUP2 MSTORE RETURN JUMPDEST SWAP1 POP CALLVALUE PUSH2 0x88A JUMPI PUSH1 0x20 CALLDATASIZE PUSH1 0x3 NOT ADD SLT PUSH2 0x88A JUMPI PUSH1 0x4 CALLDATALOAD PUSH4 0xFFFFFFFF PUSH1 0xE0 SHL DUP2 AND DUP1 SWAP2 SUB PUSH2 0x87B JUMPI PUSH1 0x20 SWAP3 POP PUSH4 0x7965DB0B PUSH1 0xE0 SHL DUP2 EQ SWAP1 DUP2 ISZERO PUSH2 0x1042 JUMPI JUMPDEST POP ISZERO ISZERO DUP2 MSTORE RETURN JUMPDEST PUSH4 0x1FFC9A7 PUSH1 0xE0 SHL EQ SWAP1 POP CODESIZE PUSH2 0x103B JUMP JUMPDEST PUSH1 0x40 SWAP1 PUSH1 0x3 NOT ADD SLT PUSH2 0x1079 JUMPI PUSH1 0x4 CALLDATALOAD SWAP1 PUSH1 0x24 CALLDATALOAD PUSH1 0x1 PUSH1 0x1 PUSH1 0xA0 SHL SUB DUP2 AND DUP2 SUB PUSH2 0x1079 JUMPI SWAP1 JUMP JUMPDEST PUSH1 0x0 DUP1 REVERT JUMPDEST PUSH1 0x60 SWAP1 PUSH1 0x3 NOT ADD SLT PUSH2 0x1079 JUMPI PUSH1 0x4 CALLDATALOAD SWAP1 PUSH1 0x24 CALLDATALOAD SWAP1 PUSH1 0x44 CALLDATALOAD PUSH1 0x1 PUSH1 0x1 PUSH1 0x40 SHL SUB DUP2 AND DUP2 SUB PUSH2 0x1079 JUMPI SWAP1 JUMP JUMPDEST PUSH1 0xA0 DUP2 ADD SWAP1 DUP2 LT PUSH1 0x1 PUSH1 0x1 PUSH1 0x40 SHL SUB DUP3 GT OR PUSH2 0x10C3 JUMPI PUSH1 0x40 MSTORE JUMP JUMPDEST PUSH4 0x4E487B71 PUSH1 0xE0 SHL PUSH1 0x0 MSTORE PUSH1 0x41 PUSH1 0x4 MSTORE PUSH1 0x24 PUSH1 0x0 REVERT JUMPDEST PUSH1 0x1 PUSH1 0x1 PUSH1 0x40 SHL SUB DUP2 GT PUSH2 0x10C3 JUMPI PUSH1 0x40 MSTORE JUMP JUMPDEST SWAP1 PUSH1 0x1F DUP1 NOT SWAP2 ADD AND DUP2 ADD SWAP1 DUP2 LT PUSH1 0x1 PUSH1 0x1 PUSH1 0x40 SHL SUB DUP3 GT OR PUSH2 0x10C3 JUMPI PUSH1 0x40 MSTORE JUMP JUMPDEST MLOAD SWAP1 PUSH1 0x1 PUSH1 0x1 PUSH1 0xA0 SHL SUB DUP3 AND DUP3 SUB PUSH2 0x1079 JUMPI JUMP JUMPDEST MLOAD SWAP1 DUP2 ISZERO ISZERO DUP3 SUB PUSH2 0x1079 JUMPI JUMP JUMPDEST SWAP1 DUP2 PUSH2 0x160 SWAP2 SUB SLT PUSH2 0x1079 JUMPI PUSH2 0x1143 DUP2 PUSH2 0x110D JUMP JUMPDEST SWAP2 PUSH1 0x20 DUP3 ADD MLOAD SWAP2 PUSH1 0x40 DUP2 ADD MLOAD SWAP2 PUSH1 0x60 DUP3 ADD MLOAD PUSH1 0x1 PUSH1 0x1 PUSH1 0x40 SHL SUB DUP2 AND DUP2 SUB PUSH2 0x1079 JUMPI SWAP2 PUSH1 0x80 DUP2 ADD MLOAD PUSH4 0xFFFFFFFF DUP2 AND DUP2 SUB PUSH2 0x1079 JUMPI SWAP2 PUSH2 0x1185 PUSH1 0xA0 DUP4 ADD PUSH2 0x1121 JUMP JUMPDEST SWAP2 PUSH2 0x1192 PUSH1 0xC0 DUP3 ADD PUSH2 0x1121 JUMP JUMPDEST SWAP2 PUSH2 0x119F PUSH1 0xE0 DUP4 ADD PUSH2 0x1121 JUMP JUMPDEST SWAP2 PUSH2 0x11AD PUSH2 0x100 DUP3 ADD PUSH2 0x1121 JUMP JUMPDEST SWAP2 PUSH2 0x140 PUSH2 0x11BE PUSH2 0x120 DUP5 ADD PUSH2 0x110D JUMP JUMPDEST SWAP3 ADD MLOAD SWAP1 JUMP JUMPDEST PUSH1 0x0 DUP2 DUP2 MSTORE PUSH1 0x20 SWAP1 DUP1 DUP3 MSTORE PUSH1 0x40 SWAP3 DUP4 DUP3 KECCAK256 CALLER DUP4 MSTORE DUP4 MSTORE PUSH1 0xFF DUP5 DUP4 KECCAK256 SLOAD AND ISZERO PUSH2 0x11EC JUMPI POP POP POP POP JUMP JUMPDEST DUP4 MLOAD PUSH1 0x1 PUSH1 0x1 PUSH1 0x40 SHL SUB SWAP2 SWAP1 CALLER PUSH1 0x60 DUP3 ADD DUP5 DUP2 GT DUP4 DUP3 LT OR PUSH2 0x9BF JUMPI DUP8 MSTORE PUSH1 0x2A DUP3 MSTORE DUP6 DUP3 ADD SWAP3 DUP8 CALLDATASIZE DUP6 CALLDATACOPY DUP3 MLOAD ISZERO PUSH2 0x14B7 JUMPI PUSH1 0x30 DUP5 MSTORE8 DUP3 MLOAD SWAP2 PUSH1 0x1 SWAP3 PUSH1 0x1 LT ISZERO PUSH2 0x14A3 JUMPI PUSH1 0x78 PUSH1 0x21 DUP6 ADD MSTORE8 PUSH1 0x29 JUMPDEST DUP4 DUP2 GT PUSH2 0x1439 JUMPI POP PUSH2 0x13F7 JUMPI SWAP1 DUP8 MLOAD SWAP5 PUSH1 0x80 DUP7 ADD SWAP1 DUP7 DUP3 LT SWAP1 DUP3 GT OR PUSH2 0x99E JUMPI DUP9 MSTORE PUSH1 0x42 DUP6 MSTORE DUP7 DUP6 ADD SWAP6 PUSH1 0x60 CALLDATASIZE DUP9 CALLDATACOPY DUP6 MLOAD ISZERO PUSH2 0x13E3 JUMPI PUSH1 0x30 DUP8 MSTORE8 DUP6 MLOAD PUSH1 0x1 LT ISZERO PUSH2 0x13E3 JUMPI SWAP1 PUSH1 0x78 PUSH1 0x21 DUP8 ADD MSTORE8 PUSH1 0x41 SWAP2 JUMPDEST DUP2 DUP4 GT PUSH2 0x1375 JUMPI POP POP POP PUSH2 0x1333 JUMPI SWAP4 DUP6 SWAP4 PUSH2 0x1319 SWAP4 PUSH2 0x130A PUSH1 0x48 SWAP5 PUSH2 0x12E1 PUSH32 0x416363657373436F6E74726F6C3A206163636F756E7420000000000000000000 SWAP10 PUSH2 0x132F SWAP12 MLOAD SWAP11 DUP12 SWAP8 DUP9 ADD MSTORE MLOAD DUP1 SWAP3 PUSH1 0x37 DUP9 ADD SWAP1 PUSH2 0x1595 JUMP JUMPDEST DUP5 ADD SWAP2 PUSH17 0x1034B99036B4B9B9B4B733903937B6329 PUSH1 0x7D SHL PUSH1 0x37 DUP5 ADD MSTORE MLOAD DUP1 SWAP4 DUP7 DUP5 ADD SWAP1 PUSH2 0x1595 JUMP JUMPDEST ADD SUB PUSH1 0x28 DUP2 ADD DUP6 MSTORE ADD DUP4 PUSH2 0x10EC JUMP JUMPDEST MLOAD PUSH3 0x461BCD PUSH1 0xE5 SHL DUP2 MSTORE SWAP2 DUP3 SWAP2 PUSH1 0x4 DUP4 ADD PUSH2 0x15B8 JUMP JUMPDEST SUB SWAP1 REVERT JUMPDEST PUSH1 0x64 DUP6 DUP8 MLOAD SWAP1 PUSH3 0x461BCD PUSH1 0xE5 SHL DUP3 MSTORE DUP1 PUSH1 0x4 DUP4 ADD MSTORE PUSH1 0x24 DUP3 ADD MSTORE PUSH32 0x537472696E67733A20686578206C656E67746820696E73756666696369656E74 PUSH1 0x44 DUP3 ADD MSTORE REVERT JUMPDEST SWAP1 SWAP2 SWAP3 PUSH1 0xF DUP2 AND PUSH1 0x10 DUP2 LT ISZERO PUSH2 0x13CF JUMPI PUSH16 0x181899199A1A9B1B9C1CB0B131B232B3 PUSH1 0x81 SHL SWAP1 BYTE PUSH2 0x13A5 DUP6 DUP10 PUSH2 0x15E4 JUMP JUMPDEST MSTORE8 PUSH1 0x4 SHR SWAP3 DUP1 ISZERO PUSH2 0x13BB JUMPI PUSH1 0x0 NOT ADD SWAP2 SWAP1 PUSH2 0x1289 JUMP JUMPDEST PUSH4 0x4E487B71 PUSH1 0xE0 SHL DUP3 MSTORE PUSH1 0x11 PUSH1 0x4 MSTORE PUSH1 0x24 DUP3 REVERT JUMPDEST PUSH4 0x4E487B71 PUSH1 0xE0 SHL DUP4 MSTORE PUSH1 0x32 PUSH1 0x4 MSTORE PUSH1 0x24 DUP4 REVERT JUMPDEST PUSH4 0x4E487B71 PUSH1 0xE0 SHL DUP2 MSTORE PUSH1 0x32 PUSH1 0x4 MSTORE PUSH1 0x24 SWAP1 REVERT JUMPDEST PUSH1 0x64 DUP8 DUP10 MLOAD SWAP1 PUSH3 0x461BCD PUSH1 0xE5 SHL DUP3 MSTORE DUP1 PUSH1 0x4 DUP4 ADD MSTORE PUSH1 0x24 DUP3 ADD MSTORE PUSH32 0x537472696E67733A20686578206C656E67746820696E73756666696369656E74 PUSH1 0x44 DUP3 ADD MSTORE REVERT JUMPDEST SWAP1 PUSH1 0xF DUP2 AND PUSH1 0x10 DUP2 LT ISZERO PUSH2 0x148F JUMPI PUSH16 0x181899199A1A9B1B9C1CB0B131B232B3 PUSH1 0x81 SHL SWAP1 BYTE PUSH2 0x1467 DUP4 DUP8 PUSH2 0x15E4 JUMP JUMPDEST MSTORE8 PUSH1 0x4 SHR SWAP1 DUP1 ISZERO PUSH2 0x147B JUMPI PUSH1 0x0 NOT ADD PUSH2 0x1239 JUMP JUMPDEST PUSH4 0x4E487B71 PUSH1 0xE0 SHL DUP9 MSTORE PUSH1 0x11 PUSH1 0x4 MSTORE PUSH1 0x24 DUP9 REVERT JUMPDEST PUSH4 0x4E487B71 PUSH1 0xE0 SHL DUP10 MSTORE PUSH1 0x32 PUSH1 0x4 MSTORE PUSH1 0x24 DUP10 REVERT JUMPDEST PUSH4 0x4E487B71 PUSH1 0xE0 SHL DUP8 MSTORE PUSH1 0x32 PUSH1 0x4 MSTORE PUSH1 0x24 DUP8 REVERT JUMPDEST PUSH4 0x4E487B71 PUSH1 0xE0 SHL DUP7 MSTORE PUSH1 0x32 PUSH1 0x4 MSTORE PUSH1 0x24 DUP7 REVERT JUMPDEST SWAP1 PUSH1 0x0 SWAP2 DUP1 DUP4 MSTORE DUP3 PUSH1 0x20 MSTORE PUSH1 0x40 DUP4 KECCAK256 SWAP2 PUSH1 0x1 DUP1 PUSH1 0xA0 SHL SUB AND SWAP2 DUP3 DUP5 MSTORE PUSH1 0x20 MSTORE PUSH1 0xFF PUSH1 0x40 DUP5 KECCAK256 SLOAD AND PUSH2 0x14FB JUMPI POP POP POP JUMP JUMPDEST DUP1 DUP4 MSTORE DUP3 PUSH1 0x20 MSTORE PUSH1 0x40 DUP4 KECCAK256 DUP3 DUP5 MSTORE PUSH1 0x20 MSTORE PUSH1 0x40 DUP4 KECCAK256 PUSH1 0xFF NOT DUP2 SLOAD AND SWAP1 SSTORE PUSH32 0xF6391F5C32D9C69D2A47EA670B442974B53935D1EDC7FD64EB21E047A839171B CALLER SWAP4 DUP1 LOG4 JUMP JUMPDEST PUSH1 0x2 PUSH1 0x1 SLOAD EQ PUSH2 0x1550 JUMPI PUSH1 0x2 PUSH1 0x1 SSTORE JUMP JUMPDEST PUSH1 0x40 MLOAD PUSH3 0x461BCD PUSH1 0xE5 SHL DUP2 MSTORE PUSH1 0x20 PUSH1 0x4 DUP3 ADD MSTORE PUSH1 0x1F PUSH1 0x24 DUP3 ADD MSTORE PUSH32 0x5265656E7472616E637947756172643A207265656E7472616E742063616C6C00 PUSH1 0x44 DUP3 ADD MSTORE PUSH1 0x64 SWAP1 REVERT JUMPDEST PUSH1 0x0 JUMPDEST DUP4 DUP2 LT PUSH2 0x15A8 JUMPI POP POP PUSH1 0x0 SWAP2 ADD MSTORE JUMP JUMPDEST DUP2 DUP2 ADD MLOAD DUP4 DUP3 ADD MSTORE PUSH1 0x20 ADD PUSH2 0x1598 JUMP JUMPDEST PUSH1 0x40 SWAP2 PUSH1 0x20 DUP3 MSTORE PUSH2 0x15D8 DUP2 MLOAD DUP1 SWAP3 DUP2 PUSH1 0x20 DUP7 ADD MSTORE PUSH1 0x20 DUP7 DUP7 ADD SWAP2 ADD PUSH2 0x1595 JUMP JUMPDEST PUSH1 0x1F ADD PUSH1 0x1F NOT AND ADD ADD SWAP1 JUMP JUMPDEST SWAP1 DUP2 MLOAD DUP2 LT ISZERO PUSH2 0x15F5 JUMPI ADD PUSH1 0x20 ADD SWAP1 JUMP JUMPDEST PUSH4 0x4E487B71 PUSH1 0xE0 SHL PUSH1 0x0 MSTORE PUSH1 0x32 PUSH1 0x4 MSTORE PUSH1 0x24 PUSH1 0x0 REVERT JUMPDEST SWAP2 SWAP3 SWAP1 ISZERO PUSH2 0x166D JUMPI POP DUP2 MLOAD ISZERO PUSH2 0x161F JUMPI POP SWAP1 JUMP JUMPDEST EXTCODESIZE ISZERO PUSH2 0x1628 JUMPI SWAP1 JUMP JUMPDEST PUSH1 0x40 MLOAD PUSH3 0x461BCD PUSH1 0xE5 SHL DUP2 MSTORE PUSH1 0x20 PUSH1 0x4 DUP3 ADD MSTORE PUSH1 0x1D PUSH1 0x24 DUP3 ADD MSTORE PUSH32 0x416464726573733A2063616C6C20746F206E6F6E2D636F6E7472616374000000 PUSH1 0x44 DUP3 ADD MSTORE PUSH1 0x64 SWAP1 REVERT JUMPDEST DUP3 MLOAD SWAP1 SWAP2 POP ISZERO PUSH2 0x1680 JUMPI POP DUP1 MLOAD SWAP1 PUSH1 0x20 ADD REVERT JUMPDEST PUSH1 0x40 MLOAD PUSH3 0x461BCD PUSH1 0xE5 SHL DUP2 MSTORE SWAP1 DUP2 SWAP1 PUSH2 0x132F SWAP1 PUSH1 0x4 DUP4 ADD PUSH2 0x15B8 JUMP INVALID LOG2 PUSH5 0x6970667358 0x22 SLT KECCAK256 0xEC 0xD8 BASEFEE SWAP11 EXTCODEHASH 0xA8 PUSH20 0x1148C8AC0EF44C40DC51700FC514C0B2367C5FA2 0xB4 PUSH27 0xD08F3D64736F6C6343000818003300000000000000000000000000 "},"methodIdentifiers":{"DEFAULT_ADMIN_ROLE()":"a217fddf","buy(uint256)":"d96a094a","cancelListing(uint256)":"305a67a8","factory()":"c45a0155","getRoleAdmin(bytes32)":"248a9ca3","grantRole(bytes32,address)":"2f2ff15d","hasRole(bytes32,address)":"91d14854","listPrimary(uint256,uint256,uint64)":"fb12351b","listSecondary(uint256,uint256,uint64)":"8daace81","listings(uint256)":"de74e57b","renounceRole(bytes32,address)":"36568abe","repaymentManager()":"5481288e","revokeRole(bytes32,address)":"d547741f","supportsInterface(bytes4)":"01ffc9a7","token()":"fc0c546a","usdc()":"3e413bee"}}}}}