{
  "_format": "hh-sol-artifact-1",
  "contractName": "Marketplace",
  "sourceName": "contracts/Marketplace.sol",
  "abi": [
    {
      "inputs": [
        {
          "internalType": "address",
          "name": "usdcAddress",
          "type": "address"
        },
        {
          "internalType": "address",
          "name": "factoryAddress",
          "type": "address"
        },
        {
          "internalType": "address",
          "name": "tokenAddress",
          "type": "address"
        },
        {
          "internalType": "address",
          "name": "repaymentAddress",
          "type": "address"
        },
        {
          "internalType": "address",
          "name": "admin",
          "type": "address"
        }
      ],
      "stateMutability": "nonpayable",
      "type": "constructor"
    },
    {
      "inputs": [
        {
          "internalType": "uint256",
          "name": "creditId",
          "type": "uint256"
        }
      ],
      "name": "Expired",
      "type": "error"
    },
    {
      "inputs": [
        {
          "internalType": "uint256",
          "name": "creditId",
          "type": "uint256"
        }
      ],
      "name": "InvalidListing",
      "type": "error"
    },
    {
      "inputs": [],
      "name": "Unauthorized",
      "type": "error"
    },
    {
      "anonymous": false,
      "inputs": [
        {
          "indexed": true,
          "internalType": "uint256",
          "name": "creditId",
          "type": "uint256"
        },
        {
          "indexed": true,
          "internalType": "address",
          "name": "borrower",
          "type": "address"
        },
        {
          "indexed": true,
          "internalType": "address",
          "name": "investor",
          "type": "address"
        },
        {
          "indexed": false,
          "internalType": "uint256",
          "name": "amountUSDC",
          "type": "uint256"
        }
      ],
      "name": "CreditFunded",
      "type": "event"
    },
    {
      "anonymous": false,
      "inputs": [
        {
          "indexed": true,
          "internalType": "uint256",
          "name": "creditId",
          "type": "uint256"
        },
        {
          "indexed": true,
          "internalType": "address",
          "name": "seller",
          "type": "address"
        },
        {
          "indexed": false,
          "internalType": "uint256",
          "name": "priceUSDC",
          "type": "uint256"
        },
        {
          "indexed": false,
          "internalType": "bool",
          "name": "primary",
          "type": "bool"
        },
        {
          "indexed": false,
          "internalType": "uint64",
          "name": "expiresAt",
          "type": "uint64"
        }
      ],
      "name": "CreditListed",
      "type": "event"
    },
    {
      "anonymous": false,
      "inputs": [
        {
          "indexed": true,
          "internalType": "uint256",
          "name": "creditId",
          "type": "uint256"
        },
        {
          "indexed": true,
          "internalType": "address",
          "name": "seller",
          "type": "address"
        }
      ],
      "name": "ListingCancelled",
      "type": "event"
    },
    {
      "anonymous": false,
      "inputs": [
        {
          "indexed": true,
          "internalType": "bytes32",
          "name": "role",
          "type": "bytes32"
        },
        {
          "indexed": true,
          "internalType": "bytes32",
          "name": "previousAdminRole",
          "type": "bytes32"
        },
        {
          "indexed": true,
          "internalType": "bytes32",
          "name": "newAdminRole",
          "type": "bytes32"
        }
      ],
      "name": "RoleAdminChanged",
      "type": "event"
    },
    {
      "anonymous": false,
      "inputs": [
        {
          "indexed": true,
          "internalType": "bytes32",
          "name": "role",
          "type": "bytes32"
        },
        {
          "indexed": true,
          "internalType": "address",
          "name": "account",
          "type": "address"
        },
        {
          "indexed": true,
          "internalType": "address",
          "name": "sender",
          "type": "address"
        }
      ],
      "name": "RoleGranted",
      "type": "event"
    },
    {
      "anonymous": false,
      "inputs": [
        {
          "indexed": true,
          "internalType": "bytes32",
          "name": "role",
          "type": "bytes32"
        },
        {
          "indexed": true,
          "internalType": "address",
          "name": "account",
          "type": "address"
        },
        {
          "indexed": true,
          "internalType": "address",
          "name": "sender",
          "type": "address"
        }
      ],
      "name": "RoleRevoked",
      "type": "event"
    },
    {
      "anonymous": false,
      "inputs": [
        {
          "indexed": true,
          "internalType": "uint256",
          "name": "creditId",
          "type": "uint256"
        },
        {
          "indexed": true,
          "internalType": "address",
          "name": "seller",
          "type": "address"
        },
        {
          "indexed": true,
          "internalType": "address",
          "name": "buyer",
          "type": "address"
        },
        {
          "indexed": false,
          "internalType": "uint256",
          "name": "amountUSDC",
          "type": "uint256"
        }
      ],
      "name": "SecondaryTrade",
      "type": "event"
    },
    {
      "inputs": [],
      "name": "DEFAULT_ADMIN_ROLE",
      "outputs": [
        {
          "internalType": "bytes32",
          "name": "",
          "type": "bytes32"
        }
      ],
      "stateMutability": "view",
      "type": "function"
    },
    {
      "inputs": [
        {
          "internalType": "uint256",
          "name": "creditId",
          "type": "uint256"
        }
      ],
      "name": "buy",
      "outputs": [],
      "stateMutability": "nonpayable",
      "type": "function"
    },
    {
      "inputs": [
        {
          "internalType": "uint256",
          "name": "creditId",
          "type": "uint256"
        }
      ],
      "name": "cancelListing",
      "outputs": [],
      "stateMutability": "nonpayable",
      "type": "function"
    },
    {
      "inputs": [],
      "name": "factory",
      "outputs": [
        {
          "internalType": "contract IFactory",
          "name": "",
          "type": "address"
        }
      ],
      "stateMutability": "view",
      "type": "function"
    },
    {
      "inputs": [
        {
          "internalType": "bytes32",
          "name": "role",
          "type": "bytes32"
        }
      ],
      "name": "getRoleAdmin",
      "outputs": [
        {
          "internalType": "bytes32",
          "name": "",
          "type": "bytes32"
        }
      ],
      "stateMutability": "view",
      "type": "function"
    },
    {
      "inputs": [
        {
          "internalType": "bytes32",
          "name": "role",
          "type": "bytes32"
        },
        {
          "internalType": "address",
          "name": "account",
          "type": "address"
        }
      ],
      "name": "grantRole",
      "outputs": [],
      "stateMutability": "nonpayable",
      "type": "function"
    },
    {
      "inputs": [
        {
          "internalType": "bytes32",
          "name": "role",
          "type": "bytes32"
        },
        {
          "internalType": "address",
          "name": "account",
          "type": "address"
        }
      ],
      "name": "hasRole",
      "outputs": [
        {
          "internalType": "bool",
          "name": "",
          "type": "bool"
        }
      ],
      "stateMutability": "view",
      "type": "function"
    },
    {
      "inputs": [
        {
          "internalType": "uint256",
          "name": "creditId",
          "type": "uint256"
        },
        {
          "internalType": "uint256",
          "name": "priceUSDC",
          "type": "uint256"
        },
        {
          "internalType": "uint64",
          "name": "expiresAt",
          "type": "uint64"
        }
      ],
      "name": "listPrimary",
      "outputs": [],
      "stateMutability": "nonpayable",
      "type": "function"
    },
    {
      "inputs": [
        {
          "internalType": "uint256",
          "name": "creditId",
          "type": "uint256"
        },
        {
          "internalType": "uint256",
          "name": "priceUSDC",
          "type": "uint256"
        },
        {
          "internalType": "uint64",
          "name": "expiresAt",
          "type": "uint64"
        }
      ],
      "name": "listSecondary",
      "outputs": [],
      "stateMutability": "nonpayable",
      "type": "function"
    },
    {
      "inputs": [
        {
          "internalType": "uint256",
          "name": "",
          "type": "uint256"
        }
      ],
      "name": "listings",
      "outputs": [
        {
          "internalType": "address",
          "name": "seller",
          "type": "address"
        },
        {
          "internalType": "uint256",
          "name": "priceUSDC",
          "type": "uint256"
        },
        {
          "internalType": "uint64",
          "name": "expiresAt",
          "type": "uint64"
        },
        {
          "internalType": "bool",
          "name": "primary",
          "type": "bool"
        },
        {
          "internalType": "bool",
          "name": "active",
          "type": "bool"
        }
      ],
      "stateMutability": "view",
      "type": "function"
    },
    {
      "inputs": [
        {
          "internalType": "bytes32",
          "name": "role",
          "type": "bytes32"
        },
        {
          "internalType": "address",
          "name": "account",
          "type": "address"
        }
      ],
      "name": "renounceRole",
      "outputs": [],
      "stateMutability": "nonpayable",
      "type": "function"
    },
    {
      "inputs": [],
      "name": "repaymentManager",
      "outputs": [
        {
          "internalType": "contract IRepaymentManager",
          "name": "",
          "type": "address"
        }
      ],
      "stateMutability": "view",
      "type": "function"
    },
    {
      "inputs": [
        {
          "internalType": "bytes32",
          "name": "role",
          "type": "bytes32"
        },
        {
          "internalType": "address",
          "name": "account",
          "type": "address"
        }
      ],
      "name": "revokeRole",
      "outputs": [],
      "stateMutability": "nonpayable",
      "type": "function"
    },
    {
      "inputs": [
        {
          "internalType": "bytes4",
          "name": "interfaceId",
          "type": "bytes4"
        }
      ],
      "name": "supportsInterface",
      "outputs": [
        {
          "internalType": "bool",
          "name": "",
          "type": "bool"
        }
      ],
      "stateMutability": "view",
      "type": "function"
    },
    {
      "inputs": [],
      "name": "token",
      "outputs": [
        {
          "internalType": "contract IERC721",
          "name": "",
          "type": "address"
        }
      ],
      "stateMutability": "view",
      "type": "function"
    },
    {
      "inputs": [],
      "name": "usdc",
      "outputs": [
        {
          "internalType": "contract IERC20",
          "name": "",
          "type": "address"
        }
      ],
      "stateMutability": "view",
      "type": "function"
    }
  ],
  "bytecode": "0x610100346200019f57601f620018a238819003918201601f191683019291906001600160401b03841183851017620001a4578160a092849260409687528339810103126200019f576200005281620001ba565b6200006060208301620001ba565b6200006d848401620001ba565b926200008a60806200008260608401620001ba565b9201620001ba565b600180556001600160a01b0393841660805291831660a05292821660c05291811660e0526000808052602081815284822092909316808252919092528282205460ff161562000153575b82516116d29081620001d082396080518181816105e9015281816106530152610de0015260a05181818161015a015281816104f7015281816107290152818161078501528181610a780152610b3f015260c05181818160e6015281816101b4015281816106a20152610b94015260e0518181816107bd0152610d9b0152f35b81805281602052828220818352602052828220600160ff1982541617905533917f2f8788117e7eff1d82e926ec794901d17c78024a50270940304540a733656f0d8180a43880620000d4565b600080fd5b634e487b7160e01b600052604160045260246000fd5b51906001600160a01b03821682036200019f5756fe608080604052600436101561001357600080fd5b600090813560e01c90816301ffc9a714610ffe57508063248a9ca314610fd25780632f2ff15d14610f32578063305a67a814610e9457806336568abe14610e0f5780633e413bee14610dca5780635481288e14610d855780638daace8114610afe57806391d1485414610ac3578063a217fddf14610aa7578063c45a015514610a62578063d547741f14610a30578063d96a094a14610484578063de74e57b14610417578063fb12351b146101185763fc0c546a146100d157600080fd5b346101155780600319360112610115576040517f00000000000000000000000000000000000000000000000000000000000000006001600160a01b03168152602090f35b80fd5b5034610115576101273661107e565b929161013161153f565b6040516302c1c27d60e11b81526004810182905261016094906001600160a01b039086816024817f000000000000000000000000000000000000000000000000000000000000000086165afa96871561040c5786978791889389918a936103c9575b50506040516331a9108f60e11b81526004810188905260209a908b816024817f00000000000000000000000000000000000000000000000000000000000000008b165afa9081156103be578b91610385575b508616331480159190610378575b5061036757831561035f575b508215610357575b50811561034e575b811561031d575b50610304579380956102cb60409685885191610231836110a8565b3383528483019689885260028b8501946001600160401b03809316998a8752606082019460019e8f9b8c885260808501988d8a528152858c52209251166bffffffffffffffffffffffff60a01b83541617825551898201550193511660ff60401b84549251151560401b169168ffffffffffffffffff19161717825551151560ff60481b825491151560481b169060ff60481b1916179055565b60405194855284015260408301527fe1e5c95239d9a42be484889a0d78e843f62b8c58b85f64b5db0f79c557a2e88460603393a3805580f35b604051636a5084fd60e01b815260048101849052602490fd5b80915060011b908082046002149015171561033a57841138610216565b634e487b7160e01b86526011600452602486fd5b8515915061020f565b915038610207565b9250386101ff565b6040516282b42960e81b8152600490fd5b86163314159050386101f3565b90508b81813d83116103b7575b61039c81836110ec565b810103126103b3576103ad9061110d565b386101e5565b8a80fd5b503d610392565b6040513d8d823e3d90fd5b9350935050506103ef929750803d10610405575b6103e781836110ec565b81019061112e565b5050509350949a95915092509891923880610193565b503d6103dd565b6040513d88823e3d90fd5b503461011557602036600319011261011557604060a091600435815260026020522060ff600180841b0382541691600260018201549101549060405193845260208401526001600160401b0381166040840152818160401c161515606084015260481c1615156080820152f35b50346101155760203660031901126101155761049e61153f565b600435815260026020526040812060028101549060ff8260481c16156108a2576001600160401b0382168015159081610a26575b50610a0d576040516302c1c27d60e11b815260048035908201526101609283826024817f00000000000000000000000000000000000000000000000000000000000000006001600160a01b03165afa9384156109155785948693879288926109db575b505081156109d3575b506108a25760ff60481b19166002830155815460018301546040516323b872dd60e01b60208201523360248201526001600160a01b03909216604483015260648083019190915281526105926084826110ec565b604051908160408101106001600160401b036040840111176109bf576040828101905260208083527f5361666545524332303a206c6f772d6c6576656c2063616c6c206661696c65648184015281518792839201827f00000000000000000000000000000000000000000000000000000000000000006001600160a01b03165af13d156109b2573d906001600160401b03821161099e57906106809291604051916106476020601f19601f84011601846110ec565b82523d88602084013e5b7f00000000000000000000000000000000000000000000000000000000000000006001600160a01b031661160b565b8051908115918215610978575b50501561092057815484906001600160a01b037f000000000000000000000000000000000000000000000000000000000000000081169116813b1561087b57604051632142170760e11b81526001600160a01b039190911660048083019190915233602483015235604482015291908290606490829084905af1801561091557610902575b50600282015460401c60ff16156108bb576108a2577f00000000000000000000000000000000000000000000000000000000000000006001600160a01b03163b1561087b57604051630420f78160e41b81526004803590820152426001600160401b0316602482015283908181604481837f00000000000000000000000000000000000000000000000000000000000000006001600160a01b03165af1801561087f5761088e575b507f00000000000000000000000000000000000000000000000000000000000000006001600160a01b0316803b1561088a578180916044604051809481936307dd65e560e51b835260043560048401523360248401525af1801561087f57610867575b50506001015460405190815233916001600160a01b031690600435907f05752034aae1537cca294911b27f56b419fa7eb15fbedd9607c7c142c55d685890602090a45b6001805580f35b610870906110d9565b61087b57823861081d565b8280fd5b6040513d84823e3d90fd5b5080fd5b610897906110d9565b61087b5782386107ba565b6024604051636a5084fd60e01b81526004356004820152fd5b5090506001808060a01b038254169101549060405191825233917ff39024ef21a57610bf910cd6d28a0095e6fdbadcb1ace015d534fd6b3297434e602060043592a4610860565b61090e909491946110d9565b9238610712565b6040513d87823e3d90fd5b60405162461bcd60e51b815260206004820152602a60248201527f5361666545524332303a204552433230206f7065726174696f6e20646964206e6044820152691bdd081cdd58d8d9595960b21b6064820152608490fd5b819250906020918101031261099a5760206109939101611121565b388061068d565b8480fd5b634e487b7160e01b87526041600452602487fd5b9061068091606090610651565b634e487b7160e01b86526041600452602486fd5b90503861053e565b9250929550506109f79250803d10610405576103e781836110ec565b5050509450959250969350509492903880610535565b6024604051637c06dd7560e11b81526004356004820152fd5b90504211386104d2565b503461011557610a5f610a4236611053565b9080845283602052610a5a60016040862001546111c4565b6114cb565b80f35b50346101155780600319360112610115576040517f00000000000000000000000000000000000000000000000000000000000000006001600160a01b03168152602090f35b5034610115578060031936011261011557602090604051908152f35b50346101155760ff6040602092610ad936611053565b9082528185528282206001600160a01b03909116825284522054604051911615158152f35b503461011557610b0d3661107e565b610b1892919261153f565b6040516302c1c27d60e11b8152600481018390526001600160a01b039161016080836024817f000000000000000000000000000000000000000000000000000000000000000088165afa8015610d7a57879388928992610d4a575b50506040516331a9108f60e11b8152600481018790526020949085816024817f00000000000000000000000000000000000000000000000000000000000000008b165afa908115610d3f578a91610d06575b5086339116036103675715918215610cfe575b508115610cf6575b508015610cee575b610cd55790610c9a869260405194610bff866110a8565b338652838601888152604087019260026001600160401b038092169889865260608101938985526080820195600187528c8b52838a5260408b209251166bffffffffffffffffffffffff60a01b8354161782555160018201550193511660ff60401b84549251151560401b169168ffffffffffffffffff19161717825551151560ff60481b825491151560481b169060ff60481b1916179055565b60405194855284015260408301527fe1e5c95239d9a42be484889a0d78e843f62b8c58b85f64b5db0f79c557a2e88460603393a36001805580f35b604051636a5084fd60e01b815260048101859052602490fd5b508415610be8565b905038610be0565b915038610bd8565b90508581813d8311610d38575b610d1d81836110ec565b81010312610d3457610d2e9061110d565b38610bc5565b8980fd5b503d610d13565b6040513d8c823e3d90fd5b91509150610d65929350803d10610405576103e781836110ec565b50505095509695509250505092903880610b73565b6040513d89823e3d90fd5b50346101155780600319360112610115576040517f00000000000000000000000000000000000000000000000000000000000000006001600160a01b03168152602090f35b50346101155780600319360112610115576040517f00000000000000000000000000000000000000000000000000000000000000006001600160a01b03168152602090f35b503461011557610e1e36611053565b336001600160a01b03821603610e3757610a5f916114cb565b60405162461bcd60e51b815260206004820152602f60248201527f416363657373436f6e74726f6c3a2063616e206f6e6c792072656e6f756e636560448201526e103937b632b9903337b91039b2b63360891b6064820152608490fd5b503461011557602036600319011261011557600435808252600260205260408220906002820180549260ff8460481c161561030457546001600160a01b0316923384141580610f12575b6103675760ff60481b191690557f8e25282255ab31897df2b0456bb993ac7f84d376861aefd84901d2d63a7428a28380a380f35b50848052846020526040852033865260205260ff60408620541615610ede565b503461011557610f4136611053565b81835282602052610f5860016040852001546111c4565b818352602083815260408085206001600160a01b039093168086529290915283205460ff1615610f86578280f35b818352826020526040832081845260205260408320600160ff1982541617905533917f2f8788117e7eff1d82e926ec794901d17c78024a50270940304540a733656f0d8480a438808280f35b503461011557602036600319011261011557600160406020926004358152808452200154604051908152f35b90503461088a57602036600319011261088a5760043563ffffffff60e01b811680910361087b5760209250637965db0b60e01b8114908115611042575b5015158152f35b6301ffc9a760e01b1490503861103b565b604090600319011261107957600435906024356001600160a01b03811681036110795790565b600080fd5b60609060031901126110795760043590602435906044356001600160401b03811681036110795790565b60a081019081106001600160401b038211176110c357604052565b634e487b7160e01b600052604160045260246000fd5b6001600160401b0381116110c357604052565b90601f801991011681019081106001600160401b038211176110c357604052565b51906001600160a01b038216820361107957565b5190811515820361107957565b9081610160910312611079576111438161110d565b9160208201519160408101519160608201516001600160401b03811681036110795791608081015163ffffffff81168103611079579161118560a08301611121565b9161119260c08201611121565b9161119f60e08301611121565b916111ad6101008201611121565b916101406111be610120840161110d565b92015190565b6000818152602090808252604092838220338352835260ff8483205416156111ec5750505050565b83516001600160401b0391903360608201848111838210176109bf578752602a825285820192873685378251156114b75760308453825191600192600110156114a3576078602185015360295b83811161143957506113f7579087519460808601908682109082111761099e578852604285528685019560603688378551156113e357603087538551600110156113e35790607860218701536041915b81831161137557505050611333579385936113199361130a6048946112e17f416363657373436f6e74726f6c3a206163636f756e74200000000000000000009961132f9b519a8b978801525180926037880190611595565b8401917001034b99036b4b9b9b4b733903937b6329607d1b603784015251809386840190611595565b010360288101855201836110ec565b5162461bcd60e51b8152918291600483016115b8565b0390fd5b60648587519062461bcd60e51b825280600483015260248201527f537472696e67733a20686578206c656e67746820696e73756666696369656e746044820152fd5b909192600f811660108110156113cf576f181899199a1a9b1b9c1cb0b131b232b360811b901a6113a585896115e4565b5360041c9280156113bb57600019019190611289565b634e487b7160e01b82526011600452602482fd5b634e487b7160e01b83526032600452602483fd5b634e487b7160e01b81526032600452602490fd5b60648789519062461bcd60e51b825280600483015260248201527f537472696e67733a20686578206c656e67746820696e73756666696369656e746044820152fd5b90600f8116601081101561148f576f181899199a1a9b1b9c1cb0b131b232b360811b901a61146783876115e4565b5360041c90801561147b5760001901611239565b634e487b7160e01b88526011600452602488fd5b634e487b7160e01b89526032600452602489fd5b634e487b7160e01b87526032600452602487fd5b634e487b7160e01b86526032600452602486fd5b9060009180835282602052604083209160018060a01b03169182845260205260ff6040842054166114fb57505050565b80835282602052604083208284526020526040832060ff1981541690557ff6391f5c32d9c69d2a47ea670b442974b53935d1edc7fd64eb21e047a839171b339380a4565b600260015414611550576002600155565b60405162461bcd60e51b815260206004820152601f60248201527f5265656e7472616e637947756172643a207265656e7472616e742063616c6c006044820152606490fd5b60005b8381106115a85750506000910152565b8181015183820152602001611598565b604091602082526115d88151809281602086015260208686019101611595565b601f01601f1916010190565b9081518110156115f5570160200190565b634e487b7160e01b600052603260045260246000fd5b9192901561166d575081511561161f575090565b3b156116285790565b60405162461bcd60e51b815260206004820152601d60248201527f416464726573733a2063616c6c20746f206e6f6e2d636f6e74726163740000006044820152606490fd5b8251909150156116805750805190602001fd5b60405162461bcd60e51b815290819061132f90600483016115b856fea2646970667358221220ecd8489a3fa8731148c8ac0ef44c40dc51700fc514c0b2367c5fa2b47ad08f3d64736f6c63430008180033",
  "linkReferences": {},
  "deployedLinkReferences": {}
}