{
  "_format": "hh-sol-artifact-1",
  "contractName": "CreditScore",
  "sourceName": "contracts/CreditScore.sol",
  "abi": [
    {
      "inputs": [
        {
          "internalType": "address",
          "name": "admin",
          "type": "address"
        },
        {
          "internalType": "address",
          "name": "scorer",
          "type": "address"
        }
      ],
      "stateMutability": "nonpayable",
      "type": "constructor"
    },
    {
      "anonymous": false,
      "inputs": [
        {
          "indexed": true,
          "internalType": "address",
          "name": "borrower",
          "type": "address"
        },
        {
          "indexed": false,
          "internalType": "uint32",
          "name": "successfulRepayments",
          "type": "uint32"
        },
        {
          "indexed": false,
          "internalType": "uint32",
          "name": "defaults",
          "type": "uint32"
        },
        {
          "indexed": false,
          "internalType": "uint256",
          "name": "score",
          "type": "uint256"
        }
      ],
      "name": "RepaymentPerformanceUpdated",
      "type": "event"
    },
    {
      "anonymous": false,
      "inputs": [
        {
          "indexed": true,
          "internalType": "bytes32",
          "name": "role",
          "type": "bytes32"
        },
        {
          "indexed": true,
          "internalType": "bytes32",
          "name": "previousAdminRole",
          "type": "bytes32"
        },
        {
          "indexed": true,
          "internalType": "bytes32",
          "name": "newAdminRole",
          "type": "bytes32"
        }
      ],
      "name": "RoleAdminChanged",
      "type": "event"
    },
    {
      "anonymous": false,
      "inputs": [
        {
          "indexed": true,
          "internalType": "bytes32",
          "name": "role",
          "type": "bytes32"
        },
        {
          "indexed": true,
          "internalType": "address",
          "name": "account",
          "type": "address"
        },
        {
          "indexed": true,
          "internalType": "address",
          "name": "sender",
          "type": "address"
        }
      ],
      "name": "RoleGranted",
      "type": "event"
    },
    {
      "anonymous": false,
      "inputs": [
        {
          "indexed": true,
          "internalType": "bytes32",
          "name": "role",
          "type": "bytes32"
        },
        {
          "indexed": true,
          "internalType": "address",
          "name": "account",
          "type": "address"
        },
        {
          "indexed": true,
          "internalType": "address",
          "name": "sender",
          "type": "address"
        }
      ],
      "name": "RoleRevoked",
      "type": "event"
    },
    {
      "anonymous": false,
      "inputs": [
        {
          "indexed": true,
          "internalType": "address",
          "name": "wallet",
          "type": "address"
        },
        {
          "indexed": false,
          "internalType": "uint256",
          "name": "score",
          "type": "uint256"
        },
        {
          "components": [
            {
              "internalType": "uint32",
              "name": "txFrequency",
              "type": "uint32"
            },
            {
              "internalType": "uint32",
              "name": "defiInteractionCount",
              "type": "uint32"
            },
            {
              "internalType": "uint32",
              "name": "successfulRepayments",
              "type": "uint32"
            },
            {
              "internalType": "uint32",
              "name": "defaults",
              "type": "uint32"
            },
            {
              "internalType": "uint32",
              "name": "avgGasUsed",
              "type": "uint32"
            },
            {
              "internalType": "uint64",
              "name": "measuredAt",
              "type": "uint64"
            }
          ],
          "indexed": false,
          "internalType": "struct CreditScore.WalletMetrics",
          "name": "metrics",
          "type": "tuple"
        },
        {
          "indexed": false,
          "internalType": "string",
          "name": "evidenceURI",
          "type": "string"
        },
        {
          "indexed": false,
          "internalType": "bytes32",
          "name": "evidenceHash",
          "type": "bytes32"
        }
      ],
      "name": "ScoreUpdated",
      "type": "event"
    },
    {
      "inputs": [],
      "name": "DEFAULT_ADMIN_ROLE",
      "outputs": [
        {
          "internalType": "bytes32",
          "name": "",
          "type": "bytes32"
        }
      ],
      "stateMutability": "view",
      "type": "function"
    },
    {
      "inputs": [],
      "name": "REPAYMENT_MANAGER_ROLE",
      "outputs": [
        {
          "internalType": "bytes32",
          "name": "",
          "type": "bytes32"
        }
      ],
      "stateMutability": "view",
      "type": "function"
    },
    {
      "inputs": [],
      "name": "SCORER_ROLE",
      "outputs": [
        {
          "internalType": "bytes32",
          "name": "",
          "type": "bytes32"
        }
      ],
      "stateMutability": "view",
      "type": "function"
    },
    {
      "inputs": [
        {
          "components": [
            {
              "internalType": "uint32",
              "name": "txFrequency",
              "type": "uint32"
            },
            {
              "internalType": "uint32",
              "name": "defiInteractionCount",
              "type": "uint32"
            },
            {
              "internalType": "uint32",
              "name": "successfulRepayments",
              "type": "uint32"
            },
            {
              "internalType": "uint32",
              "name": "defaults",
              "type": "uint32"
            },
            {
              "internalType": "uint32",
              "name": "avgGasUsed",
              "type": "uint32"
            },
            {
              "internalType": "uint64",
              "name": "measuredAt",
              "type": "uint64"
            }
          ],
          "internalType": "struct CreditScore.WalletMetrics",
          "name": "m",
          "type": "tuple"
        }
      ],
      "name": "computeScore",
      "outputs": [
        {
          "internalType": "uint256",
          "name": "",
          "type": "uint256"
        }
      ],
      "stateMutability": "pure",
      "type": "function"
    },
    {
      "inputs": [
        {
          "internalType": "bytes32",
          "name": "role",
          "type": "bytes32"
        }
      ],
      "name": "getRoleAdmin",
      "outputs": [
        {
          "internalType": "bytes32",
          "name": "",
          "type": "bytes32"
        }
      ],
      "stateMutability": "view",
      "type": "function"
    },
    {
      "inputs": [
        {
          "internalType": "address",
          "name": "wallet",
          "type": "address"
        }
      ],
      "name": "getScore",
      "outputs": [
        {
          "internalType": "uint256",
          "name": "",
          "type": "uint256"
        }
      ],
      "stateMutability": "view",
      "type": "function"
    },
    {
      "inputs": [
        {
          "internalType": "bytes32",
          "name": "role",
          "type": "bytes32"
        },
        {
          "internalType": "address",
          "name": "account",
          "type": "address"
        }
      ],
      "name": "grantRole",
      "outputs": [],
      "stateMutability": "nonpayable",
      "type": "function"
    },
    {
      "inputs": [
        {
          "internalType": "bytes32",
          "name": "role",
          "type": "bytes32"
        },
        {
          "internalType": "address",
          "name": "account",
          "type": "address"
        }
      ],
      "name": "hasRole",
      "outputs": [
        {
          "internalType": "bool",
          "name": "",
          "type": "bool"
        }
      ],
      "stateMutability": "view",
      "type": "function"
    },
    {
      "inputs": [
        {
          "internalType": "address",
          "name": "",
          "type": "address"
        }
      ],
      "name": "metrics",
      "outputs": [
        {
          "internalType": "uint32",
          "name": "txFrequency",
          "type": "uint32"
        },
        {
          "internalType": "uint32",
          "name": "defiInteractionCount",
          "type": "uint32"
        },
        {
          "internalType": "uint32",
          "name": "successfulRepayments",
          "type": "uint32"
        },
        {
          "internalType": "uint32",
          "name": "defaults",
          "type": "uint32"
        },
        {
          "internalType": "uint32",
          "name": "avgGasUsed",
          "type": "uint32"
        },
        {
          "internalType": "uint64",
          "name": "measuredAt",
          "type": "uint64"
        }
      ],
      "stateMutability": "view",
      "type": "function"
    },
    {
      "inputs": [
        {
          "internalType": "address",
          "name": "borrower",
          "type": "address"
        }
      ],
      "name": "recordDefault",
      "outputs": [],
      "stateMutability": "nonpayable",
      "type": "function"
    },
    {
      "inputs": [
        {
          "internalType": "address",
          "name": "borrower",
          "type": "address"
        },
        {
          "internalType": "bool",
          "name": "success",
          "type": "bool"
        }
      ],
      "name": "recordRepayment",
      "outputs": [],
      "stateMutability": "nonpayable",
      "type": "function"
    },
    {
      "inputs": [
        {
          "internalType": "bytes32",
          "name": "role",
          "type": "bytes32"
        },
        {
          "internalType": "address",
          "name": "account",
          "type": "address"
        }
      ],
      "name": "renounceRole",
      "outputs": [],
      "stateMutability": "nonpayable",
      "type": "function"
    },
    {
      "inputs": [
        {
          "internalType": "bytes32",
          "name": "role",
          "type": "bytes32"
        },
        {
          "internalType": "address",
          "name": "account",
          "type": "address"
        }
      ],
      "name": "revokeRole",
      "outputs": [],
      "stateMutability": "nonpayable",
      "type": "function"
    },
    {
      "inputs": [
        {
          "internalType": "address",
          "name": "",
          "type": "address"
        }
      ],
      "name": "score",
      "outputs": [
        {
          "internalType": "uint256",
          "name": "",
          "type": "uint256"
        }
      ],
      "stateMutability": "view",
      "type": "function"
    },
    {
      "inputs": [
        {
          "internalType": "bytes4",
          "name": "interfaceId",
          "type": "bytes4"
        }
      ],
      "name": "supportsInterface",
      "outputs": [
        {
          "internalType": "bool",
          "name": "",
          "type": "bool"
        }
      ],
      "stateMutability": "view",
      "type": "function"
    },
    {
      "inputs": [
        {
          "internalType": "address",
          "name": "wallet",
          "type": "address"
        },
        {
          "components": [
            {
              "internalType": "uint32",
              "name": "txFrequency",
              "type": "uint32"
            },
            {
              "internalType": "uint32",
              "name": "defiInteractionCount",
              "type": "uint32"
            },
            {
              "internalType": "uint32",
              "name": "successfulRepayments",
              "type": "uint32"
            },
            {
              "internalType": "uint32",
              "name": "defaults",
              "type": "uint32"
            },
            {
              "internalType": "uint32",
              "name": "avgGasUsed",
              "type": "uint32"
            },
            {
              "internalType": "uint64",
              "name": "measuredAt",
              "type": "uint64"
            }
          ],
          "internalType": "struct CreditScore.WalletMetrics",
          "name": "newMetrics",
          "type": "tuple"
        },
        {
          "internalType": "string",
          "name": "evidenceURI",
          "type": "string"
        },
        {
          "internalType": "bytes32",
          "name": "evidenceHash",
          "type": "bytes32"
        }
      ],
      "name": "updateFromMetrics",
      "outputs": [],
      "stateMutability": "nonpayable",
      "type": "function"
    }
  ],
  "bytecode": "0x6080346200014d57620015b790601f38839003908101601f19168201906001600160401b038211838310176200015257808391604095869485528339810103126200014d576200004f8162000168565b6200005e602080930162000168565b9060009283805283815284842060018060a01b0380931690818652825260ff86862054161562000114575b507f7f3f5c26f2e002e717c4feeca3fac851759df70cd9d703d83098f12a7ad024ca91828552848252858520931692838552815260ff858520541615620000da575b845161141990816200017e8239f35b8184528381528484209083855252838320600160ff1982541617905560008051602062001597833981519152339380a438808080620000cb565b8480528482528585208186528252858520805460ff19166001179055339085600080516020620015978339815191528180a43862000089565b600080fd5b634e487b7160e01b600052604160045260246000fd5b51906001600160a01b03821682036200014d5756fe6080806040526004908136101561001557600080fd5b60003560e01c90816301ffc9a714610bb45750806313673bd114610abd578063248a9ca314610a8f5780632f2ff15d146109dd57806336568abe1461094d5780633e824d5c14610912578063776f3843146101b85780638df7352c1461082557806391d14854146107d8578063995305fc146102c9578063a217fddf146102ad578063a4d6d49514610272578063d0e64ec5146101f2578063d47875d0146101b8578063d547741f146101775763d8d5c4c3146100d157600080fd5b346101725760c036600319011261017257604051906100ef82610c32565b3563ffffffff908181168103610172578252602435818116810361017257602083015260443581811681036101725760408301526064358181168103610172576060830152608435908116810361017257608082015260a43567ffffffffffffffff81168103610172578161016a9160a06020940152610d3f565b604051908152f35b600080fd5b5034610172576040366003190112610172576101b69035610196610c1c565b908060005260006020526101b1600160406000200154611109565b611215565b005b34610172576020366003190112610172576001600160a01b036101d9610c06565b1660005260026020526020604060002054604051908152f35b34610172576020366003190112610172576001600160a01b03610213610c06565b16600052600160205260c060406000205467ffffffffffffffff63ffffffff91604051928082168452808260201c166020850152808260401c166040850152808260601c1660608501528160801c16608084015260a01c1660a0820152f35b346101725760003660031901126101725760206040517f7f3f5c26f2e002e717c4feeca3fac851759df70cd9d703d83098f12a7ad024ca8152f35b3461017257600036600319011261017257602060405160008152f35b503461017257610120366003190112610172576102e4610c06565b60c03660231901126101725767ffffffffffffffff60e435116101725736602360e4350112156101725767ffffffffffffffff60e43583013511610172573660e435838101350160240111610172573360009081527f8ee9d8d0a7f7bb18428ece8ceaf9b54f8f381e4ec39fb83041a9a4d41598963660205260409020547f7f3f5c26f2e002e717c4feeca3fac851759df70cd9d703d83098f12a7ad024ca9060ff16156105f057506001600160a01b03811660009081526001602052604090209060243563ffffffff8116900361017257815463ffffffff60443516604435036101725767ffffffff0000000060443560201b169063ffffffff602435169067ffffffffffffffff19161717825563ffffffff606435166064350361017257815463ffffffff60401b191660643560401b63ffffffff60401b1617825563ffffffff608435166084350361017257815463ffffffff60601b191660843560601b63ffffffff60601b1617825563ffffffff60a4351660a435036101725781549167ffffffffffffffff60c4351660c43503610172576bffffffffffffffffffffffff60801b1990921660a43560801b63ffffffff60801b161760c43560a01b67ffffffffffffffff60a01b16179091556040517fe6de2a2bbac06d36c45208ebe5114b2ca0cacd8280088a5b016be1540d2102df919061051a906104e881610c32565b602435815260443560208201526064356040820152608435606082015260a435608082015260c43560a0820152610d3f565b9060018060a01b03811660005260026020528160406000205560405191825263ffffffff60243516602083015263ffffffff60443516604083015263ffffffff60643516606083015263ffffffff60843516608083015263ffffffff60a4351660a083015267ffffffffffffffff60c4351660c083015261012060e083015260e435840135610120830152816101409160e435860135602460e4350184840137600060e4359690960135828101840196909652610104356101008301526001600160a01b031694601f01601f19168101030190a2005b90506105fb336112d3565b9060405161060881610c64565b60428152602081019160603684378151156107c357603083538151600190600110156107ae57607860218401536041905b8082116107415750506106fd57916106ef602094926106cb60486044966040519384916106bc8b84019876020b1b1b2b9b9a1b7b73a3937b61d1030b1b1b7bab73a1604d1b8a52610693815180928f603789019101611289565b8401917001034b99036b4b9b9b4b733903937b6329607d1b603784015251809386840190611289565b01036028810184520182610c80565b60405195869462461bcd60e51b865285015251809281602486015285850190611289565b601f01601f19168101030190fd5b60405162461bcd60e51b8152602081860181905260248201527f537472696e67733a20686578206c656e67746820696e73756666696369656e746044820152606490fd5b9091600f81166010811015610799576f181899199a1a9b1b9c1cb0b131b232b360811b901a61077084866112ac565b53861c918015610784576000190190610639565b601187634e487b7160e01b6000525260246000fd5b603288634e487b7160e01b6000525260246000fd5b603286634e487b7160e01b6000525260246000fd5b603285634e487b7160e01b6000525260246000fd5b5034610172576040366003190112610172576107f2610c1c565b9035600052600060205260406000209060018060a01b0316600052602052602060ff604060002054166040519015158152f35b346101725760203660031901126101725761083e610c06565b610846610f0d565b60018060a01b03168060005260016020527f1ac40b94dd3dfceda4d62efd9d2bb32e8301fc87fd027652d82f3c9a446bd802604060002063ffffffff6108b461089482845460601c16610ca2565b835463ffffffff60601b191660609190911b63ffffffff60601b16178355565b61090d6108c86108c384610ccd565b610d3f565b92856000526002602052836040600020555492604051938385948260601c169160401c168460409194939294606082019563ffffffff80921683521660208201520152565b0390a2005b346101725760003660031901126101725760206040517f93714ee7e3775f280f9ab925a5b649b6e87f18ae11f75082555fc719f33f97668152f35b503461017257604036600319011261017257610967610c1c565b336001600160a01b03821603610981576101b69135611215565b60405162461bcd60e51b8152602081840152602f60248201527f416363657373436f6e74726f6c3a2063616e206f6e6c792072656e6f756e636560448201526e103937b632b9903337b91039b2b63360891b6064820152608490fd5b503461017257604036600319011261017257356109f8610c1c565b816000526000602052610a12600160406000200154611109565b81600052600060205260406000209060018060a01b0316908160005260205260ff6040600020541615610a4157005b8160005260006020526040600020816000526020526040600020600160ff1982541617905533917f2f8788117e7eff1d82e926ec794901d17c78024a50270940304540a733656f0d600080a4005b5034610172576020366003190112610172573560005260006020526020600160406000200154604051908152f35b3461017257604036600319011261017257610ad6610c06565b602435908115158203610172577f1ac40b94dd3dfceda4d62efd9d2bb32e8301fc87fd027652d82f3c9a446bd80290610b0d610f0d565b6001600160a01b031660008181526001602052604090209092610b79575b610b376108c382610ccd565b6000848152600260209081526040918290208390559254815163ffffffff82841c81168252606092831c1694810194909452908301919091528190810161090d565b610baf610b8f63ffffffff835460401c16610ca2565b825463ffffffff60401b191660409190911b63ffffffff60401b16178255565b610b2b565b823461017257602036600319011261017257359063ffffffff60e01b821680920361017257602091637965db0b60e01b8114908115610bf5575b5015158152f35b6301ffc9a760e01b14905083610bee565b600435906001600160a01b038216820361017257565b602435906001600160a01b038216820361017257565b60c0810190811067ffffffffffffffff821117610c4e57604052565b634e487b7160e01b600052604160045260246000fd5b6080810190811067ffffffffffffffff821117610c4e57604052565b90601f8019910116810190811067ffffffffffffffff821117610c4e57604052565b90600163ffffffff80931601918211610cb757565b634e487b7160e01b600052601160045260246000fd5b90604051610cda81610c32565b60a067ffffffffffffffff82945463ffffffff8082168552808260201c166020860152808260401c166040860152808260601c1660608601528160801c166080850152821c16910152565b91908203918211610cb757565b91908201809211610cb757565b805163ffffffff6403fffffffc8183169260021b16600492808204841490151715610ef85760dc811015610ef0575b81602085015116600681029080820460061490151715610edb5760b4811015610ed257905b82604086015116602381029080820460231490151715610e8f5761011880821015610eca5750925b80606087015116607881029080820460781490151715610eb5576080906101a480821015610ead5750965b01511662055730811115610ea4576205572f198101908111610e8f576103e890046050811015610e87575b935b61012c918201809211610e725750610e349291610e2f91610d32565b610d32565b80610e3f8385610d32565b1015610e6a57610e5792610e5291610d25565b610d25565b6103e8808211610e65575090565b905090565b505050600090565b601190634e487b7160e01b6000525260246000fd5b506050610e11565b601185634e487b7160e01b6000525260246000fd5b50600093610e13565b905096610de6565b601186634e487b7160e01b6000525260246000fd5b905092610dbb565b5060b490610d93565b601184634e487b7160e01b6000525260246000fd5b5060dc610d6e565b601183634e487b7160e01b6000525260246000fd5b3360009081527fd142efb147cd07881263fa4f60f77935fe75e436dd3c66b782b237f8530f2ca16020908152604080832054909291907f93714ee7e3775f280f9ab925a5b649b6e87f18ae11f75082555fc719f33f97669060ff1615610f735750505050565b610f7c336112d3565b90845190610f8982610c64565b604282528382019460603687378251156110f55760308653825190600191600110156110f55790607860218501536041915b81831161108757505050611045578461102160486106ef9360449798519889916110128984019876020b1b1b2b9b9a1b7b73a3937b61d1030b1b1b7bab73a1604d1b8a52610693815180928d603789019101611289565b01036028810189520187610c80565b5194859362461bcd60e51b8552600485015251809281602486015285850190611289565b60648386519062461bcd60e51b825280600483015260248201527f537472696e67733a20686578206c656e67746820696e73756666696369656e746044820152fd5b909192600f811660108110156110e1576f181899199a1a9b1b9c1cb0b131b232b360811b901a6110b785876112ac565b5360041c9280156110cd57600019019190610fbb565b634e487b7160e01b82526011600452602482fd5b634e487b7160e01b83526032600452602483fd5b634e487b7160e01b81526032600452602490fd5b60008181526020818152604092838320338452825260ff8484205416156111305750505050565b611139336112d3565b9084519061114682610c64565b604282528382019460603687378251156110f55760308653825190600191600110156110f55790607860218501536041915b8183116111cf57505050611045578461102160486106ef9360449798519889916110128984019876020b1b1b2b9b9a1b7b73a3937b61d1030b1b1b7bab73a1604d1b8a52610693815180928d603789019101611289565b909192600f811660108110156110e1576f181899199a1a9b1b9c1cb0b131b232b360811b901a6111ff85876112ac565b5360041c9280156110cd57600019019190611178565b9060009180835282602052604083209160018060a01b03169182845260205260ff60408420541661124557505050565b80835282602052604083208284526020526040832060ff1981541690557ff6391f5c32d9c69d2a47ea670b442974b53935d1edc7fd64eb21e047a839171b339380a4565b60005b83811061129c5750506000910152565b818101518382015260200161128c565b9081518110156112bd570160200190565b634e487b7160e01b600052603260045260246000fd5b604051906060820182811067ffffffffffffffff821117610c4e57604052602a82526020820160403682378251156112bd57603090538151600190600110156112bd57607860218401536029905b8082116113755750506113315790565b606460405162461bcd60e51b815260206004820152602060248201527f537472696e67733a20686578206c656e67746820696e73756666696369656e746044820152fd5b9091600f811660108110156113ce576f181899199a1a9b1b9c1cb0b131b232b360811b901a6113a484866112ac565b5360041c9180156113b9576000190190611321565b60246000634e487b7160e01b81526011600452fd5b60246000634e487b7160e01b81526032600452fdfea26469706673582212202e41288bf4f5b12bb4ddcca531e19e13815f0b7092a9e62d0f3f6917542410eb64736f6c634300081800332f8788117e7eff1d82e926ec794901d17c78024a50270940304540a733656f0d",
  "linkReferences": {},
  "deployedLinkReferences": {}
}