{
  "_format": "hh-sol-artifact-1",
  "contractName": "RepaymentManager",
  "sourceName": "contracts/RepaymentManager.sol",
  "abi": [
    {
      "inputs": [
        {
          "internalType": "address",
          "name": "usdcAddress",
          "type": "address"
        },
        {
          "internalType": "address",
          "name": "factoryAddress",
          "type": "address"
        },
        {
          "internalType": "address",
          "name": "tokenAddress",
          "type": "address"
        },
        {
          "internalType": "address",
          "name": "scoreAddress",
          "type": "address"
        },
        {
          "internalType": "address",
          "name": "admin",
          "type": "address"
        },
        {
          "internalType": "uint64",
          "name": "gracePeriodSeconds",
          "type": "uint64"
        }
      ],
      "stateMutability": "nonpayable",
      "type": "constructor"
    },
    {
      "inputs": [
        {
          "internalType": "uint256",
          "name": "amount",
          "type": "uint256"
        }
      ],
      "name": "AmountOutOfRange",
      "type": "error"
    },
    {
      "inputs": [
        {
          "internalType": "uint256",
          "name": "creditId",
          "type": "uint256"
        }
      ],
      "name": "InvalidState",
      "type": "error"
    },
    {
      "inputs": [
        {
          "internalType": "uint256",
          "name": "creditId",
          "type": "uint256"
        }
      ],
      "name": "UnauthorizedBorrower",
      "type": "error"
    },
    {
      "anonymous": false,
      "inputs": [
        {
          "indexed": true,
          "internalType": "uint256",
          "name": "creditId",
          "type": "uint256"
        },
        {
          "indexed": true,
          "internalType": "address",
          "name": "firstInvestor",
          "type": "address"
        },
        {
          "indexed": false,
          "internalType": "uint64",
          "name": "activatedAt",
          "type": "uint64"
        }
      ],
      "name": "CreditActivated",
      "type": "event"
    },
    {
      "anonymous": false,
      "inputs": [
        {
          "indexed": true,
          "internalType": "uint256",
          "name": "creditId",
          "type": "uint256"
        },
        {
          "indexed": true,
          "internalType": "address",
          "name": "borrower",
          "type": "address"
        },
        {
          "indexed": false,
          "internalType": "uint64",
          "name": "timestamp",
          "type": "uint64"
        }
      ],
      "name": "CreditDefaultTriggered",
      "type": "event"
    },
    {
      "anonymous": false,
      "inputs": [
        {
          "indexed": true,
          "internalType": "uint256",
          "name": "creditId",
          "type": "uint256"
        },
        {
          "indexed": true,
          "internalType": "address",
          "name": "borrower",
          "type": "address"
        },
        {
          "indexed": true,
          "internalType": "address",
          "name": "currentHolder",
          "type": "address"
        },
        {
          "indexed": false,
          "internalType": "uint256",
          "name": "amountUSDC",
          "type": "uint256"
        },
        {
          "indexed": false,
          "internalType": "uint256",
          "name": "totalRepaid",
          "type": "uint256"
        },
        {
          "indexed": false,
          "internalType": "uint256",
          "name": "remainingAmount",
          "type": "uint256"
        }
      ],
      "name": "RepaymentMade",
      "type": "event"
    },
    {
      "anonymous": false,
      "inputs": [
        {
          "indexed": true,
          "internalType": "bytes32",
          "name": "role",
          "type": "bytes32"
        },
        {
          "indexed": true,
          "internalType": "bytes32",
          "name": "previousAdminRole",
          "type": "bytes32"
        },
        {
          "indexed": true,
          "internalType": "bytes32",
          "name": "newAdminRole",
          "type": "bytes32"
        }
      ],
      "name": "RoleAdminChanged",
      "type": "event"
    },
    {
      "anonymous": false,
      "inputs": [
        {
          "indexed": true,
          "internalType": "bytes32",
          "name": "role",
          "type": "bytes32"
        },
        {
          "indexed": true,
          "internalType": "address",
          "name": "account",
          "type": "address"
        },
        {
          "indexed": true,
          "internalType": "address",
          "name": "sender",
          "type": "address"
        }
      ],
      "name": "RoleGranted",
      "type": "event"
    },
    {
      "anonymous": false,
      "inputs": [
        {
          "indexed": true,
          "internalType": "bytes32",
          "name": "role",
          "type": "bytes32"
        },
        {
          "indexed": true,
          "internalType": "address",
          "name": "account",
          "type": "address"
        },
        {
          "indexed": true,
          "internalType": "address",
          "name": "sender",
          "type": "address"
        }
      ],
      "name": "RoleRevoked",
      "type": "event"
    },
    {
      "inputs": [],
      "name": "DEFAULT_ADMIN_ROLE",
      "outputs": [
        {
          "internalType": "bytes32",
          "name": "",
          "type": "bytes32"
        }
      ],
      "stateMutability": "view",
      "type": "function"
    },
    {
      "inputs": [],
      "name": "MARKETPLACE_ROLE",
      "outputs": [
        {
          "internalType": "bytes32",
          "name": "",
          "type": "bytes32"
        }
      ],
      "stateMutability": "view",
      "type": "function"
    },
    {
      "inputs": [
        {
          "internalType": "uint256",
          "name": "creditId",
          "type": "uint256"
        },
        {
          "internalType": "address",
          "name": "firstInvestor",
          "type": "address"
        }
      ],
      "name": "activateCredit",
      "outputs": [],
      "stateMutability": "nonpayable",
      "type": "function"
    },
    {
      "inputs": [],
      "name": "creditScore",
      "outputs": [
        {
          "internalType": "contract IScore",
          "name": "",
          "type": "address"
        }
      ],
      "stateMutability": "view",
      "type": "function"
    },
    {
      "inputs": [],
      "name": "creditToken",
      "outputs": [
        {
          "internalType": "contract IERC721",
          "name": "",
          "type": "address"
        }
      ],
      "stateMutability": "view",
      "type": "function"
    },
    {
      "inputs": [],
      "name": "defaultGracePeriod",
      "outputs": [
        {
          "internalType": "uint64",
          "name": "",
          "type": "uint64"
        }
      ],
      "stateMutability": "view",
      "type": "function"
    },
    {
      "inputs": [],
      "name": "factory",
      "outputs": [
        {
          "internalType": "contract IFactoryReadWrite",
          "name": "",
          "type": "address"
        }
      ],
      "stateMutability": "view",
      "type": "function"
    },
    {
      "inputs": [
        {
          "internalType": "bytes32",
          "name": "role",
          "type": "bytes32"
        }
      ],
      "name": "getRoleAdmin",
      "outputs": [
        {
          "internalType": "bytes32",
          "name": "",
          "type": "bytes32"
        }
      ],
      "stateMutability": "view",
      "type": "function"
    },
    {
      "inputs": [
        {
          "internalType": "bytes32",
          "name": "role",
          "type": "bytes32"
        },
        {
          "internalType": "address",
          "name": "account",
          "type": "address"
        }
      ],
      "name": "grantRole",
      "outputs": [],
      "stateMutability": "nonpayable",
      "type": "function"
    },
    {
      "inputs": [
        {
          "internalType": "bytes32",
          "name": "role",
          "type": "bytes32"
        },
        {
          "internalType": "address",
          "name": "account",
          "type": "address"
        }
      ],
      "name": "hasRole",
      "outputs": [
        {
          "internalType": "bool",
          "name": "",
          "type": "bool"
        }
      ],
      "stateMutability": "view",
      "type": "function"
    },
    {
      "inputs": [
        {
          "internalType": "bytes32",
          "name": "role",
          "type": "bytes32"
        },
        {
          "internalType": "address",
          "name": "account",
          "type": "address"
        }
      ],
      "name": "renounceRole",
      "outputs": [],
      "stateMutability": "nonpayable",
      "type": "function"
    },
    {
      "inputs": [
        {
          "internalType": "uint256",
          "name": "creditId",
          "type": "uint256"
        },
        {
          "internalType": "uint256",
          "name": "amountUSDC",
          "type": "uint256"
        }
      ],
      "name": "repay",
      "outputs": [],
      "stateMutability": "nonpayable",
      "type": "function"
    },
    {
      "inputs": [
        {
          "internalType": "uint256",
          "name": "",
          "type": "uint256"
        }
      ],
      "name": "repaymentStates",
      "outputs": [
        {
          "internalType": "uint256",
          "name": "totalRepaid",
          "type": "uint256"
        },
        {
          "internalType": "uint64",
          "name": "activatedAt",
          "type": "uint64"
        },
        {
          "internalType": "bool",
          "name": "active",
          "type": "bool"
        },
        {
          "internalType": "bool",
          "name": "defaulted",
          "type": "bool"
        },
        {
          "internalType": "bool",
          "name": "settled",
          "type": "bool"
        }
      ],
      "stateMutability": "view",
      "type": "function"
    },
    {
      "inputs": [
        {
          "internalType": "bytes32",
          "name": "role",
          "type": "bytes32"
        },
        {
          "internalType": "address",
          "name": "account",
          "type": "address"
        }
      ],
      "name": "revokeRole",
      "outputs": [],
      "stateMutability": "nonpayable",
      "type": "function"
    },
    {
      "inputs": [
        {
          "internalType": "bytes4",
          "name": "interfaceId",
          "type": "bytes4"
        }
      ],
      "name": "supportsInterface",
      "outputs": [
        {
          "internalType": "bool",
          "name": "",
          "type": "bool"
        }
      ],
      "stateMutability": "view",
      "type": "function"
    },
    {
      "inputs": [
        {
          "internalType": "uint256",
          "name": "creditId",
          "type": "uint256"
        }
      ],
      "name": "triggerDefault",
      "outputs": [],
      "stateMutability": "nonpayable",
      "type": "function"
    },
    {
      "inputs": [],
      "name": "usdc",
      "outputs": [
        {
          "internalType": "contract IERC20",
          "name": "",
          "type": "address"
        }
      ],
      "stateMutability": "view",
      "type": "function"
    }
  ],
  "bytecode": "0x61012034620001cb576001600160401b0390601f62001b4538819003918201601f1916830192919084841183851017620001d0578160c09284926040968752833981010312620001cb576200005481620001e6565b906200006360208201620001e6565b62000070848301620001e6565b926200007f60608401620001e6565b9060a06200009060808601620001e6565b9401519687168703620001cb576001805560018060a01b0394858094818094166080521660a0521660c0521660e0526101009384526000918280528260205283832091169081835260205260ff8383205416156200017f575b5050516119499182620001fc8339608051828181610542015281816105b50152610f7f015260a0518281816103f301528181610676015281816106c1015281816107a70152818161080501528181610a260152610bc4015260c0518281816104bc01528181610b0d0152610cf3015260e05182818161070201528181610d2e0152610fc4015251818181610b5c0152610c4a0152f35b81805281602052828220818352602052828220600160ff1982541617905533917f2f8788117e7eff1d82e926ec794901d17c78024a50270940304540a733656f0d8180a43880620000e9565b600080fd5b634e487b7160e01b600052604160045260246000fd5b51906001600160a01b0382168203620001cb5756fe608080604052600436101561001357600080fd5b600090813560e01c90816301ffc9a7146111c757508063248a9ca31461119b578063261e4f8d146111345780632f2ff15d1461108657806336568abe14610ff357806339da315214610fae5780633e413bee14610f695780636382539214610b80578063705d5f2414610b3c578063899e5d8514610af757806391d1485414610aac578063a217fddf14610a90578063c3439f3f14610a55578063c45a015514610a10578063d547741f146109d0578063d8aed145146103b95763fbacbca0146100dc57600080fd5b346103b65760403660031901126103b6576004356100f861121c565b3360009081527fda104853dc3972fb943ce0ee89200279d8af13db255ed28fb43e685524f21b1960209081526040909120549192917f0ea61da3a8a09ad801432653699f8c1860b1ae9d2ea4a141fadfd63227717bc89060ff1615610215575081845260028152600160408520019283549360ff8560401c168015610208575b80156101fb575b6101e257680100000000000000006001600160401b03421668ffffffffffffffffff199690961686171790556040519384526001600160a01b0316927f231d59ef921621c73a3de705fbb66906d4af994b68b1a72fb918511acd3929239190a380f35b60405163102aa0d560e31b815260048101859052602490fd5b5060ff8560501c1661017f565b5060ff8560481c16610178565b61021e33611773565b6040519061022b8261124a565b604282528382019260603685378251156103a057603084538251600190600110156103a057607860218501536041905b808211610346575050610303576102ff936102af936102e7936102d8604894604051978576020b1b1b2b9b9a1b7b73a3937b61d1030b1b1b7bab73a1604d1b8a9788015282519283916037890191016115c1565b8401917001034b99036b4b9b9b4b733903937b6329607d1b6037840152518093868401906115c1565b01036028810184520182611265565b60405162461bcd60e51b8152918291600483016115e4565b0390fd5b6064846040519062461bcd60e51b825280600483015260248201527f537472696e67733a20686578206c656e67746820696e73756666696369656e746044820152fd5b9091600f811660108110156103a0576f181899199a1a9b1b9c1cb0b131b232b360811b901a6103758487611762565b5360041c91801561038a57600019019061025b565b634e487b7160e01b600052601160045260246000fd5b634e487b7160e01b600052603260045260246000fd5b80fd5b50346103b65760403660031901126103b6576103d361156b565b6040516302c1c27d60e11b815260048035908201526101609081816024817f00000000000000000000000000000000000000000000000000000000000000006001600160a01b03165afa80156109c5578390849385938691879188918995610983575b505060043588526002602052604088209215918215610970575b8215610968575b508115610960575b50801561094f575b801561093e575b61092557336001600160a01b0384160361090c5761048d81548661133d565b60243515908115610900575b506108e7576040516331a9108f60e11b81526004803590820152946020866024817f00000000000000000000000000000000000000000000000000000000000000006001600160a01b03165afa9586156108dc57879661089c575b506040516323b872dd60e01b60208201523360248201523060448201526024356064820152606481528060a08101106001600160401b0360a083011117610886578060a061056692016040527f0000000000000000000000000000000000000000000000000000000000000000611610565b60405163a9059cbb60e01b602082015260018060a01b03871660248201526024356044820152604481528060808101106001600160401b03608083011117610886578060806105d992016040527f0000000000000000000000000000000000000000000000000000000000000000611610565b81546024358101811161038a5760243581018084558897906105fb908461133d565b9060405191602435835260243584016020840152604083015260018060a01b03169033907f710b32f9fecc9010fd99b98612d7f16e7ed7444b091ca7bf0273bce245c7ea24606060043592a46024350114610659575b846001805580f35b60010180546aff00ff00000000000000001916600160501b1790557f00000000000000000000000000000000000000000000000000000000000000006001600160a01b03163b156107a057604051637e5634b960e01b815260048035908201528481602481837f00000000000000000000000000000000000000000000000000000000000000006001600160a01b03165af190811561087b578591610867575b50506107a5575b7f00000000000000000000000000000000000000000000000000000000000000006001600160a01b031691823b156107a0576040516313673bd160e01b81526001600160a01b0390921660048301526001600160401b031642111560248201529082908290604490829084905af1801561079557610781575b808080610651565b61078a90611237565b6103b6578038610779565b6040513d84823e3d90fd5b505050fd5b7f00000000000000000000000000000000000000000000000000000000000000006001600160a01b03163b156108585760405163532c6b3760e01b815260048035908201526001600160a01b0382166024820152838180604481010381837f00000000000000000000000000000000000000000000000000000000000000006001600160a01b03165af190811561085c578491610844575b5050610700565b61084d90611237565b61085857823861083d565b5050fd5b6040513d86823e3d90fd5b61087090611237565b6107a05783386106f9565b6040513d87823e3d90fd5b634e487b7160e01b600052604160045260246000fd5b9095506020813d6020116108d4575b816108b860209383611265565b810103126108d0576108c990611286565b94386104f4565b8680fd5b3d91506108ab565b6040513d89823e3d90fd5b604051630cd8516360e31b815260248035600483015290fd5b90506024351138610499565b602460405163af67655d60e01b81526004356004820152fd5b602460405163102aa0d560e31b81526004356004820152fd5b5060ff600182015460501c1661046e565b5060ff600182015460481c16610467565b90503861045f565b915038610457565b600184015460401c60ff16159250610450565b95509550505050506109aa9250803d106109be575b6109a28183611265565b8101906112a7565b509698959750949550919250903880610436565b503d610998565b6040513d85823e3d90fd5b50346103b65760403660031901126103b657610a0d6004356109f061121c565b9080845283602052610a08600160408620015461134a565b6114f7565b80f35b50346103b657806003193601126103b6576040517f00000000000000000000000000000000000000000000000000000000000000006001600160a01b03168152602090f35b50346103b657806003193601126103b65760206040517f0ea61da3a8a09ad801432653699f8c1860b1ae9d2ea4a141fadfd63227717bc88152f35b50346103b657806003193601126103b657602090604051908152f35b50346103b65760403660031901126103b6576040610ac861121c565b91600435815280602052209060018060a01b0316600052602052602060ff604060002054166040519015158152f35b50346103b657806003193601126103b6576040517f00000000000000000000000000000000000000000000000000000000000000006001600160a01b03168152602090f35b50346103b657806003193601126103b65760206040516001600160401b037f0000000000000000000000000000000000000000000000000000000000000000168152f35b50346103b657602080600319360112610f6557600435610b9e61156b565b6040516302c1c27d60e11b8152600481018290526001600160a01b0392610160916024907f0000000000000000000000000000000000000000000000000000000000000000861684828481845afa908115610f5a578892898a978b809381928297610f26575b50508a8d526002895260408d209315918215610f13575b8215610f0b575b508115610f03575b508015610ef2575b8015610ee1575b610eb6576001600160401b039788167f0000000000000000000000000000000000000000000000000000000000000000891601888111610ece578816421115610eb65781541015610e9e57600101805469ffff000000000000000019166901000000000000000000179055803b15610e9a57604051631c3b24f960e31b8152600481018890528981868183865af18015610e8f57610e76575b509088939291604051916331a9108f60e11b8352886004840152868386818d7f0000000000000000000000000000000000000000000000000000000000000000165afa928315610e6b578693610e30575b50610dd1575b5050867f00000000000000000000000000000000000000000000000000000000000000001696873b15610dcd5783928392604051948593849263237dcd4b60e21b8452169a8b60048401525af1801561079557610db5575b50507fcf0783de41697ff9cf01931c13b85fabbb448efd2f40de77b54555f3f5fe35c9916040519042168152a36001805580f35b610dbe90611237565b610dc9578438610d81565b8480fd5b8380fd5b803b15610dc95760405163ac9cf4db60e01b8152600481018990526001600160a01b0392909216602483015284908290604490829084905af190811561085c57849115610d2957610e2190611237565b610e2c578238610d29565b8280fd5b9092508681813d8311610e64575b610e488183611265565b81010312610e6057610e5990611286565b9138610d23565b8580fd5b503d610e3e565b6040513d88823e3d90fd5b610e8590999194939299611237565b9790919238610cd2565b6040513d8c823e3d90fd5b8880fd5b60405163102aa0d560e31b8152600481018990528590fd5b60405163102aa0d560e31b8152600481018a90528690fd5b634e487b7160e01b8c526011600452868cfd5b5060ff600183015460501c16610c39565b5060ff600183015460481c16610c32565b905038610c2a565b915038610c22565b600185015460401c60ff16159250610c1b565b959a50955050505050610f459250803d106109be576109a28183611265565b50959b90975095929450919250903880610c04565b6040513d8a823e3d90fd5b5080fd5b50346103b657806003193601126103b6576040517f00000000000000000000000000000000000000000000000000000000000000006001600160a01b03168152602090f35b50346103b657806003193601126103b6576040517f00000000000000000000000000000000000000000000000000000000000000006001600160a01b03168152602090f35b50346103b65760403660031901126103b65761100d61121c565b336001600160a01b0382160361102957610a0d906004356114f7565b60405162461bcd60e51b815260206004820152602f60248201527f416363657373436f6e74726f6c3a2063616e206f6e6c792072656e6f756e636560448201526e103937b632b9903337b91039b2b63360891b6064820152608490fd5b50346103b65760403660031901126103b6576004356110a361121c565b818352826020526110ba600160408520015461134a565b818352602083815260408085206001600160a01b039093168086529290915283205460ff16156110e8578280f35b818352826020526040832081845260205260408320600160ff1982541617905533917f2f8788117e7eff1d82e926ec794901d17c78024a50270940304540a733656f0d8480a438808280f35b50346103b65760203660031901126103b657604060a091600435815260026020522060ff600182549201546040519283526001600160401b0381166020840152818160401c1615156040840152818160481c161515606084015260501c1615156080820152f35b50346103b65760203660031901126103b657600160406020926004358152808452200154604051908152f35b905034610f65576020366003190112610f655760043563ffffffff60e01b8116809103610e2c5760209250637965db0b60e01b811490811561120b575b5015158152f35b6301ffc9a760e01b14905038611204565b602435906001600160a01b038216820361123257565b600080fd5b6001600160401b03811161088657604052565b608081019081106001600160401b0382111761088657604052565b90601f801991011681019081106001600160401b0382111761088657604052565b51906001600160a01b038216820361123257565b5190811515820361123257565b9081610160910312611232576112bc81611286565b9160208201519160408101519160608201516001600160401b03811681036112325791608081015163ffffffff8116810361123257916112fe60a0830161129a565b9161130b60c0820161129a565b9161131860e0830161129a565b91611326610100820161129a565b916101406113376101208401611286565b92015190565b9190820391821161038a57565b6000818152602090808252604092838220338352835260ff8483205416156113725750505050565b61137b33611773565b8451916113878361124a565b604283528483019360603686378351156114e35760308553835190600191600110156114e35790607860218601536041915b81831161147557505050611433576102af93859361141d9361140e6048946102ff9951988576020b1b1b2b9b9a1b7b73a3937b61d1030b1b1b7bab73a1604d1b8b9788015282519283916037890191016115c1565b01036028810185520183611265565b5162461bcd60e51b8152918291600483016115e4565b60648486519062461bcd60e51b825280600483015260248201527f537472696e67733a20686578206c656e67746820696e73756666696369656e746044820152fd5b909192600f811660108110156114cf576f181899199a1a9b1b9c1cb0b131b232b360811b901a6114a58588611762565b5360041c9280156114bb576000190191906113b9565b634e487b7160e01b82526011600452602482fd5b634e487b7160e01b83526032600452602483fd5b634e487b7160e01b81526032600452602490fd5b9060009180835282602052604083209160018060a01b03169182845260205260ff60408420541661152757505050565b80835282602052604083208284526020526040832060ff1981541690557ff6391f5c32d9c69d2a47ea670b442974b53935d1edc7fd64eb21e047a839171b339380a4565b60026001541461157c576002600155565b60405162461bcd60e51b815260206004820152601f60248201527f5265656e7472616e637947756172643a207265656e7472616e742063616c6c006044820152606490fd5b60005b8381106115d45750506000910152565b81810151838201526020016115c4565b6040916020825261160481518092816020860152602086860191016115c1565b601f01601f1916010190565b60018060a01b031690604051604081016001600160401b039082811082821117610886576040526020938483527f5361666545524332303a206c6f772d6c6576656c2063616c6c206661696c6564858401526000808587829751910182855af1903d15611753573d92831161173f57906116aa9392916040519261169d88601f19601f8401160185611265565b83523d868885013e611882565b9081519083821592831561171d575b5050509050156116c65750565b6084906040519062461bcd60e51b82526004820152602a60248201527f5361666545524332303a204552433230206f7065726174696f6e20646964206e6044820152691bdd081cdd58d8d9595960b21b6064820152fd5b8480929394500103126103b6575081611736910161129a565b803883816116b9565b634e487b7160e01b85526041600452602485fd5b906116aa939250606091611882565b9081518110156103a0570160200190565b60405190606082018281106001600160401b0382111761088657604052602a82526020820160403682378251156103a057603090538151600190600110156103a057607860218401536029905b8082116118145750506117d05790565b606460405162461bcd60e51b815260206004820152602060248201527f537472696e67733a20686578206c656e67746820696e73756666696369656e746044820152fd5b9091600f8116601081101561186d576f181899199a1a9b1b9c1cb0b131b232b360811b901a6118438486611762565b5360041c9180156118585760001901906117c0565b60246000634e487b7160e01b81526011600452fd5b60246000634e487b7160e01b81526032600452fd5b919290156118e45750815115611896575090565b3b1561189f5790565b60405162461bcd60e51b815260206004820152601d60248201527f416464726573733a2063616c6c20746f206e6f6e2d636f6e74726163740000006044820152606490fd5b8251909150156118f75750805190602001fd5b60405162461bcd60e51b81529081906102ff90600483016115e456fea264697066735822122096030e7c35b8a07d318a5d3262c779101ad0dad8df0a15efab47c2083f8e3ceb64736f6c63430008180033",
  "linkReferences": {},
  "deployedLinkReferences": {}
}